:020000040800F2
:100000009807002089010008FB170008CB1500089D
:10001000F91700088F020008D91C00080000000032
:10002000000000000000000000000000FF170008B2
:100030009102000800000000FD17000801180008E8
:10004000A3010008A3010008A3010008A301000800
:10005000A3010008A3010008A3010008A3010008F0
:10006000A3010008A3010008A3010008A3010008E0
:10007000A3010008A3010008A3010008A3010008D0
:10008000A3010008A3010008A3010008A3010008C0
:10009000A3010008A3010008A3010008A3010008B0
:1000A000A3010008A3010008A3010008A3010008A0
:1000B000A3010008A301000865180008A3010008B7
:1000C000A3010008A3010008A3010008A301000880
:1000D000A3010008B91C0008A3010008A30100083F
:1000E000A3010008A3010008A301000800F002F822
:1000F00000F03AF80AA090E8000C82448344AAF188
:100100000107DA4501D100F02FF8AFF2090EBAE885
:100110000F0013F0010F18BFFB1A43F0010318473B
:10012000481D0000681D0000103A24BF78C878C13F
:10013000FAD8520724BF30C830C144BF04680C60ED
:10014000704700000023002400250026103A28BF35
:1001500078C1FBD8520728BF30C148BF0B60704739
:100160001FB51FBD10B510BD00F058F81146FFF7C0
:10017000F7FF01F02BFE00F076F803B4FFF7F2FF73
:1001800003BC00F07DF8000009488047094800479B
:10019000FEE7FEE7FEE7FEE7FEE7FEE7FEE7FEE737
:1001A000FEE7FEE704480549054A064B7047000094
:1001B00063180008ED00000898010020980700204F
:1001C00098030020980300204FF0000200B513466A
:1001D00094469646203922BFA0E80C50A0E80C5067
:1001E000B1F12001BFF4F7AF090728BFA0E80C5018
:1001F00048BF0CC05DF804EB890028BF40F8042B11
:1002000008BF704748BF20F8022B11F0804F18BF7D
:1002100000F8012B7047704770477047754600F033
:100220002BF8AE4605006946534620F00700854688
:1002300018B020B5FFF7B6FFBDE820404FF000062C
:100240004FF000074FF000084FF0000B21F00701BE
:10025000AC46ACE8C009ACE8C009ACE8C009ACE801
:10026000C0098D46704710B50446AFF300802046A4
:10027000BDE81040FFF781BF0048704734010020FF
:1002800001491820ABBEFEE7260002007047FEE7DA
:10029000704772B6FEE710B590F8211000220229CF
:1002A00005D00421816380F82020012010BD016861
:1002B0000B6823F00E030B6001680B6823F0010349
:1002C0000B6090F84030C46B012101FA03F36360C6
:1002D00080F8211080F82020104610BD10B590F84D
:1002E00021100024022903D00421816301243DE070
:1002F00001680A6822F00E020A6001680A6822F0AA
:1003000001020A601A4A0168914201D1012121E0EB
:10031000174A1432914201D110211BE0144A2832AD
:10032000914201D1891515E0114A3C32914201D127
:1003300089140FE00E4A5032914202D14FF48031BD
:1003400008E00B4A6432914202D14FF4801101E07F
:100350004FF08071064A083A5160012180F821105F
:10036000002180F82010416B01B18847204610BD64
:10037000080002402DE9F84FDFF8B8910024A9F1F8
:10038000040B23460F2709F1040AABF1040EC9E060
:100390000125A5402A40AA427DD1674ED1F804C06C
:1003A000ACEB0608B44532D014DCBCF1030F3AD0F4
:1003B00009DCBCF1000F2AD0BCF1010F1CD0BCF14C
:1003C000020F31D11DE0BCF1110F17D0BCF1120F9B
:1003D0002AD119E0B8F5881F19D006DCB8F5803F9E
:1003E00015D0B8F5801F1FD111E0B8F5001F0ED051
:1003F000B8F5041F18D10AE0CB6815E0CB681B1DC7
:1004000012E0CB6808330FE0CB680C330CE08B684C
:100410002BB1012B4FF0080303D0456104E0042306
:1004200002E0056100E00023FF2A01D8064601E052
:1004300000F104064FEA840501D9A5F12005D6F89C
:10044000008007FA05FC28EA0C0803FA05F548EADB
:100450000508C6F800804D68ED0062D5374DAE69DD
:1004600046F00106AE61AD6924F0030605F0010512
:100470000095334D06EB050CDCF80850A607360F47
:1004800007FA06F825EA0805DFF8B880404503D1E9
:100490004FF0000817E044E0DFF8AC80404502D19F
:1004A0004FF001080FE0DFF8A480404502D14FF083
:1004B000020808E0DFF89880404502D14FF00308B9
:1004C00001E04FF0040808FA06F848EA0508CCF8FD
:1004D00008804D68D9F80060ED024D4601D51643FD
:1004E00000E096432E604D68DAF80060AD02554694
:1004F00001D5164300E096432E604D68DBF800609E
:10050000AD035D4601D5164300E096432E604D686D
:10051000DEF80060ED03754601D5164300E0964312
:100520002E60641C0D682A46E5407FF431AFBDE8BB
:10053000F88F000008040140000011100010024074
:100540000000014000080140000C01400010014083
:10055000001401400AB1016170470904FBE7000083
:100560000148806870470000000000200248816850
:10057000027811448160704700000020074810B5E0
:10058000016841F010010160032000F075F80F20B0
:1005900000F006F800F024F8002010BD0020024012
:1005A00070B50D4D04464FF47A712878B1FBF0F028
:1005B0000A490968B1FBF0F000F0DCFA48B9102CE8
:1005C00007D200222146501E00F036F800206C6051
:1005D00070BD012070BD0000000000200C00002054
:1005E0000C4808B5816941F001018161816901F020
:1005F00001010091C16941F08051C161C06900F001
:10060000805000900448416821F0E06141F00071A1
:10061000416008BD0010024000000140002809DBD5
:1006200000F01F02012191404009800000F1E0200C
:10063000C0F8001170470000F0B40E4B1B680C4668
:10064000C3F30223C3F10705042D00D90425191DA6
:10065000072901D2002300E0DB1E012606FA05F17E
:10066000491E214099409E40761E16403143F0BC01
:1006700001F09CBB0CED00E0064900F007020868A1
:100680004FF6FF03184040EA0220034A1043086077
:10069000704700000CED00E00000FA052DE9F0477E
:1006A0000F46050061D0434E306800F00700B842A5
:1006B00009D2306820F0070038433060306800F01D
:1006C0000700B84251D128683B4C810712D540073A
:1006D00003D5606840F4E06060602878000703D5C7
:1006E000606840F4605060606068A96820F0F000C5
:1006F000084360602878C00728D06868012810D0B7
:100700002168022810D0890700292EDA616821F0BB
:10071000030101436160FFF723FF804641F28839FE
:100720000DE021688903EFE78901EDE7FFF718FF86
:10073000A0EB0801494502D90320BDE8F0876068B5
:10074000696800F00C00B0EB810FEFD1306800F069
:100750000700B8420BD9306820F0070038433060FA
:10076000306800F00700B84201D00120E5E72878A2
:10077000400705D56068E96820F4E06008436060E0
:100780002878000706D56068296920F4605040EA9F
:10079000C100606000F038F86168084AC1F30311D5
:1007A000515CC8400649086006480068FFF7F8FE3B
:1007B0000020C2E700200240001002404E1E000848
:1007C0000C00002004000020044805490068496826
:1007D000044AC1F30221515CC84070470C0000205C
:1007E000001002405E1E0008044805490068496880
:1007F000044AC1F3C221515CC84070470C0000207C
:10080000001002405E1E00080E4A51680E4801F0BA
:100810000C03042B11D0082B0FD10C48C1F38343D8
:10082000C903C05C0AD55168084AC1F34041921E11
:10083000515C054A5043B0FBF1F07047044948430E
:10084000704700000010024000127A003E1E0008AF
:1008500000093D002DE9F84F040070D02078C04D0C
:10086000C00749D06868C0F38100012807D06868D4
:10087000C0F38100022809D16868C00306D5286842
:10088000800339D560680028E7D035E06068B0F5AE
:10089000803F0BD010B1B0F5A02F11D0286820F404
:1008A00080302860286820F4802002E0286840F426
:1008B00080302860606890B1FFF752FE06460AE07B
:1008C000286840F480202860F0E700BFFFF748FE6A
:1008D000801B642873D828688003F7D50CE0FFF7E5
:1008E0003FFE064605E000BFFFF73AFE801B642886
:1008F000F0D828688003F7D420789A4E80074FF00C
:1009000001094FF0000839D5686810F00C0F07D0C6
:100910006868C0F38100022809D16868C00306D462
:100920002868800714D52069012808D110E02069C3
:10093000B0B1C6F80090FFF713FE074605E00AE1E4
:10094000FFF70EFEC01B0228C4D828688007F7D521
:100950002868616920F0F80040EAC10028600DE0D5
:10096000C6F80080FFF7FCFD074604E0FFF7F8FD3E
:10097000C01B022823D828688007F7D420780007F6
:100980002CD57948A169D9B1C0F80090FFF7E8FDEE
:10099000074604E0FFF7E4FDC01B02280FD8686A91
:1009A0008007F7D571484FF4FA510068B0FBF1F0B9
:1009B000009000BF0098411E0091FAD20EE080E046
:1009C000C0F80080FFF7CCFD074604E0FFF7C8FD44
:1009D000C01B022875D8686A8007F7D420784007C2
:1009E00060D5E8690027C00008D4E86940F080506D
:1009F000E861E869012700F0805000905C480168D8
:100A0000C90513D40168834641F480710160FFF782
:100A1000A7FD824606E000BFFFF7A2FDA0EB0A009B
:100A200064284ED8DBF80000C005F5D5E068012841
:100A30000AD008B1052813D0286A20F001002862E6
:100A4000286A20F0040002E0286A40F001002862D1
:100A5000E06841F2883B98B1FFF782FD82460BE0E7
:100A6000286A40F004002862EEE700BFFFF778FD37
:100A7000A0EB0A0159455AD8286A8007F6D50CE040
:100A8000FFF76EFD824605E0FFF76AFDA0EB0A0165
:100A900059454CD8286A8007F6D41FB1E86920F080
:100AA0008050E861E06988B36968C1F38101022977
:100AB00044D00228C6F8608004D0FFF751FD0446F8
:100AC00038E034E0FFF74CFD074604E0FFF748FD4F
:100AD000C01B02282BD828688001F7D4206AB0F503
:100AE000803F05D16868A16820F400300843686041
:100AF000D4E908010843696821F474110843686067
:100B0000C6F86090FFF72CFD044606E025E000BF24
:100B1000FFF726FD001B022809D828688001F7D5B9
:100B20001BE000BFFFF71CFD001B022802D90320B9
:100B3000BDE8F88F28688001F4D40EE00128F7D0D2
:100B40006868226A00F48031914204D1616A00F43D
:100B50007010884201D00120EAE70020E8E7000099
:100B60000010024000004242800442420C0000207B
:100B70000070004010B5401EB0F1807F01D301200D
:100B800010BD4FF0E02460610F21601701F00EF9F5
:100B90000020A06107202061002010BD7047704731
:100BA00070B590F83C20012A26D0012480F83C4002
:100BB000022280F83D2003685A689D6822F0700682
:100BC0000A6832435A600D4B02689A4208D0B2F16B
:100BD000804F05D00A4B9A4202D00A4B9A4204D168
:100BE000496825F080031943916080F83D40002159
:100BF00080F83C10084670BD022070BD002C0140FA
:100C0000000400400008004010B5040003D094F830
:100C10003D0010B107E0012010BD002084F83C0029
:100C2000204600F01FF8022084F83D00211D2068B6
:100C300000F01EFE012084F8460084F83E0084F88F
:100C40003F0084F8400084F8410084F8420084F8B2
:100C5000430084F8440084F8450084F83D000020F7
:100C600010BD000008B500680B49884212D10B483E
:100C7000C16941F00401C161C069002200F00400B3
:100C8000009011461E20FFF7D7FCBDE808401E204B
:100C9000FFF7C4BC08BD000000080040001002407F
:100CA00070B5044690F83C000025012817D00126B5
:100CB00084F83C60022084F83D002068826822F0BD
:100CC000770222F47F4282600868502838D00DDC19
:100CD00020284FD005DC90B3102811D14AE0022023
:100CE00070BD302846D040280AD13BE060282FD084
:100CF00070280DD0B0F5805F03D0B0F5005F12D042
:100D0000012584F83D60002084F83C00284670BD31
:100D1000CB68D1E90121206800F0EDFD20688168F1
:100D200041F0770109E0CB68D1E90121206800F0AA
:100D3000E2FD2068816841F480418160E1E719E0CB
:100D4000CA684968206800F08BFE5021206806E0E0
:100D5000CA684968206800F094FE6021206800F0AD
:100D6000D4FDCEE7CA684968206800F079FE4021CA
:100D70002068F4E7226801461046F0E7704770B536
:100D80000446006801694FF00005C943890715D47E
:100D9000C168C943890711D4E91E01610120207788
:100DA000206880698007204602D0FFF7E7FF04E053
:100DB00000F0CAF8204600F079F92577206801692B
:100DC000C943490717D4C168C943490713D46FF011
:100DD00004010161022020772068806910F4407FBF
:100DE000204602D0FFF7CAFF04E000F0ADF820462D
:100DF00000F05CF9257720680169C943090716D41A
:100E0000C168C943090712D46FF0080101610420C9
:100E100020772068C0698007204602D0FFF7AEFF28
:100E200004E000F091F8204600F040F925772068B2
:100E30000169C943C90617D4C168C943C90613D497
:100E40006FF010010161082020772068C06910F45C
:100E5000407F204602D0FFF791FF04E000F074F8D5
:100E6000204600F023F9257720680169C943C907A6
:100E700008D1C168C943C90704D1891E0161204650
:100E800000F064F920680169C943090609D4C16802
:100E9000C943090605D46FF0800101612046FFF7C0
:100EA0007DFE20680169C943490609D4C168C94368
:100EB000490605D46FF040010161204600F047F972
:100EC00020680169C94389060BD4C168C9438906F2
:100ED00007D46FF0200101612046BDE87040FFF7A4
:100EE0005EBE70BD10B586B00021009101910291E7
:100EF00003910368114902221148B3F1804F13D0C6
:100F0000104CA3420ED18B6943F004038B618969B5
:100F100001F004010491C021CDE900126946039259
:100F2000FFF728FA06B010BD8B6943F004038B610C
:100F3000896901F0040104910F21EDE700100240DE
:100F40000008014000040040704770B5044690F866
:100F50003C0000260D4601280FD0012084F83C00FB
:100F60006AB1042A1DD0082A2FD00C2A3FD00126AE
:100F7000002084F83C00304670BD022070BD20681F
:100F800000F0CCFC2068816941F008018161206893
:100F9000816921F004018161206881692A69114316
:100FA00011E0206800F0E2FC2068816941F40061F2
:100FB00081612068816921F4806181612068816993
:100FC0002A6941EA02218161D2E7206800F0FAFC37
:100FD0002068C16941F00801C1612068C16921F040
:100FE0000401C1612068C1692A69114311E02068C8
:100FF00000F014FD2068C16941F40061C1612068FE
:10100000C16921F48061C1612068C1692A6941EA2E
:101010000221C161ACE710B5040003D094F83D0093
:1010200010B107E0012010BD002084F83C002046EC
:1010300000F01EF8022084F83D00211D206800F019
:1010400017FC012084F8460084F83E0084F83F0035
:1010500084F8400084F8410084F8420084F843009A
:1010600084F8440084F8450084F83D00002010BD59
:1010700008B501680B48B1F1804F0BD00A4A914284
:1010800007D1C16941F00201C161C06900F00200ED
:10109000009008BDC16941F00101C161C06900F063
:1010A0000100F5E700100240000400407047000016
:1010B00010B50446022249B104290ED0082913D0E4
:1010C00094F84100012816D0012010BD94F83E008C
:1010D0000128F9D184F83E200FE094F83F00012860
:1010E000F2D184F83F2008E094F840000128EBD1C9
:1010F00084F8402001E084F841200122206800F0BB
:10110000EDFB0F492068884203D1426C42F4004253
:1011100042642068884208D0B0F1804F05D0094968
:10112000884202D00849884204D1816801F0070151
:10113000062903D0016841F001010160002010BDC3
:10114000002C014000040040000800407047704738
:1011500070477047F8B5016804460868CA684B696B
:1011600010F00F0F4FF0000559D003F0010602F404
:101170009077374365D0C10705D0D10503D5616CA1
:1011800041F001016164410705D5D90703D0616CC5
:1011900041F002016164810705D5D90703D0616C74
:1011A00041F004016164010707D502F020013143D9
:1011B00003D0616C41F008016164616C00293AD090
:1011C000800604D5900602D5204600F09BFC2068DE
:1011D0004069616CC0F38010090700D460B32046F9
:1011E00000F069FC20684069400621D52068143071
:1011F00050E8001F21F0400140E80012002AF5D11C
:10120000E06BA8B16D494163E06BFFF767F8002818
:1012100011D0E06B416B01B0BDE8F0400847830698
:101220000FD593060DD52046BDE8F84000F06ABC06
:101230002046FFF78EFFF8BD2046FFF78AFF656462
:10124000F8BD266B2023012E7CD1C6067AD5D606A2
:1012500078D508684868009048694FF00206400653
:1012600040D5E16B086840680004000CE8D0A28D0E
:101270008242E5D9E085886920282DD020680C308D
:1012800050E8001F21F4807140E80012002AF5D1D7
:101290002068143050E8001F21F0010140E80012DE
:1012A000002AF5D12068143050E8001F21F04001D9
:1012B00040E80012002AF5D184F842302563206806
:1012C0000C3050E8001F21F0100140E80012002A05
:1012D000F5D1E06BFEF7DFFF6663A08DE18D401A6C
:1012E00081B22AE0A08DE18D401A81B2E08D002804
:1012F000A6D00029A4D022680C3252E8000F20F4B6
:10130000907042E80007002FF5D12068143050E8B3
:10131000002F22F0010240E80027002FF5D184F8C9
:101320004230256320680C3050E8002F22F0100274
:1013300040E80023002BF5D166632046FFF708FF45
:10134000F8BDFFE705062BD5150629D594F8410011
:101350002128F5D1A068B0F5805F01D12069B0B136
:10136000206A411C2162216800784860E08C401EA0
:101370000004000CE084E3D12068C16821F0800102
:10138000C1602068C16841F04001C160D8E7206AAF
:101390000088C0F308004860206A801C2062E5E7EE
:1013A0004006CDD55006CBD5CA68204622F0400273
:1013B000CA6084F8413000F007F9C1E7A71A0008B5
:1013C00070B5040004D094F84100002510B106E087
:1013D000012070BD84F84050204600F023F82420FE
:1013E00084F841002068C16821F40051C1602046A2
:1013F00000F0EAFB2068016921F490410161206856
:10140000416921F02A0141612068C16841F400511D
:10141000C1606564202084F8410084F8420065635F
:10142000002070BD30B585B0002400940194029472
:1014300003940068194988422DD11948816941F403
:1014400080418161816901F480410491816941F0A9
:10145000040181618069134D00F0040004904FF491
:1014600000700090022001900320039069462846F6
:10147000FEF780FF2815CDE900040120029069469F
:101480002846FEF777FF002211462520FFF7D4F803
:101490002520FFF7C3F805B030BD0000003801403B
:1014A000001002400008014090F84230202B01D08B
:1014B0000220704721B11AB10023036300F0E0BBA2
:1014C0000120704710B500683D49884276D13D48FB
:1014D0006FF0C7040078352852D008DCA0F1300046
:1014E00005286BD2DFE800F0252D353E470038286F
:1014F00053D00BDC362848D037285FD1C82000F005
:1015000031FC002000F040FC002030E039284CD0B5
:10151000612853D1002000F025FC002000F034FCAD
:101520005FF0000000F0DAFB0020BDE8104000F0A2
:10153000F7BBC82000F016FCC82000F025FCC8202E
:1015400015E0204600F00EFC204600F01DFC204671
:1015500004E0204600F006FCC8202AE000F0BEFBB4
:101560002046E2E7C82000F0FDFB204619E000F02D
:10157000B5FBC820D9E7204600F0F4FBC82010E0F6
:10158000C82000F0EFFB204613E0002000F0EAFB4B
:10159000C82000F0F9FBC820C4E7002000F0E2FBFF
:1015A000002000F0F1FB2046E1E7002000F0DAFB2C
:1015B000002000F0E9FBC820D0E7FFE710BD0000E5
:1015C00000380140100000207047FEE730B585B0BC
:1015D000002000900190029003901648816941F02C
:1015E00020018161816901F020010491816941F04C
:1015F00004018161816901F004010491816941F074
:101600000801816180690C4D00F008004FF47044BE
:101610000490002221462846FEF79CFF012102206B
:10162000CDE90210CDE9004169462846FEF7A2FE49
:1016300005B030BD00100240000C014010B58AB06A
:10164000002407941C2168460894FEF7BDFD21483C
:101650004FF08041C0E9001440F2CF21C0E90241BF
:1016600004618461FFF7D7FC08B1FEF712FE07940E
:1016700007A918480894FFF793FA08B1FEF709FE86
:101680006020CDE9000402940022694611480494C8
:10169000FFF75BFC08B1FEF7FCFD042269460D482C
:1016A000FFF753FC08B1FEF7F4FD0822694609482C
:1016B000FFF74BFC08B1FEF7ECFD0C22694605482C
:1016C000FFF743FC08B1FEF7E4FD0248FFF70AFC10
:1016D0000AB010BD1400002010B58AB00024079491
:1016E0001C2168460894FEF76FFD1A481849C0E9A6
:1016F000001440F2CF21C0E9024104618461FFF788
:101700008AFC08B1FEF7C5FD079407A911480894A3
:10171000FFF746FA08B1FEF7BCFD6020CDE90004F2
:101720000294002269460B480494FFF70EFC08B1AE
:10173000FEF7AFFD042269460648FFF706FC08B134
:10174000FEF7A7FD0348FFF7CDFB0AB010BD000070
:10175000000400405C00002010B586B0002417484B
:101760000094019402940394049413490594016035
:1017700041F61F41C0E9011442F20F71C0E90314A0
:101780008461FFF741FA08B1FEF783FD4FF4805002
:10179000009069460948FFF783FA08B1FEF779FD22
:1017A000049404A905480594FFF7FAF9002801D02C
:1017B000FEF76FFD06B010BD00080040A400002039
:1017C0000C4810B50A4901604FF4E1314160002135
:1017D00081600C22C160C0E904128161C161FFF720
:1017E000EFFD002803D0BDE81040FEF752BD10BD4C
:1017F00000380140EC000020FEE7FEE7704770472C
:10180000FEF7B4BE30B58FB028216846FEF7DCFC89
:1018100014210AA8FEF7D8FC01210804CDE9001024
:101820000024029402250491CDE907504FF4E01002
:1018300009906846FFF70EF808B172B6FEE70F2070
:10184000CDE90A054FF48060CDE90C4002210AA8D9
:101850000E94FEF723FF002801D072B6FEE70FB00A
:1018600030BD70470148FFF78ABA0000A40000208D
:10187000F0B50268164B174C174D4FF08047984251
:1018800005D0B84203D0A04201D0A84203D122F033
:1018900070064A683243984205D0B84203D0A0424D
:1018A00001D0A84203D122F44074CA6822434C6993
:1018B00022F08002224302608A68C2620A68826261
:1018C000984201D10969016301214161F0BD000025
:1018D000002C0140000400400008004010B501F059
:1018E0001F030121046A99408C430462016A9A40F3
:1018F0001143016210BD10B5846842EA032224F44A
:101900007F440A432243826010BD826822F0700245
:101910000A4342F0070181607047000030B5036A56
:10192000026A22F0010202624268846924F07305AF
:101930000C682C4323F002058B682B430A4DA84208
:101940000BD123F00805CB6822F440722B434D697C
:1019500023F0040315438A692A434260846149687D
:101960004163036230BD0000002C014030B5026AC3
:10197000036A23F010030362436884690D6824F44A
:10198000E64444EA05248D6822F0200242EA05126A
:101990000B4DA8420ED1CD6822F0800242EA05121A
:1019A0004D6923F4406343EA85038D6922F04002C8
:1019B00043EA85034360846149688163026230BD04
:1019C000002C014030B5036A026A22F48072026280
:1019D0004268C46923F4007324F073050C682C4337
:1019E0008D6843EA05230C4DA8420ED1CD6823F43F
:1019F000006343EA05234D6922F4405242EA05128E
:101A00008D6923F4806342EA05124260C46149682B
:101A1000C163036230BD0000002C014030B5046A90
:101A2000026A22F4805202624268C3690D6823F49C
:101A3000E64343EA05238D6824F4005444EA053460
:101A4000064DA84204D14D6922F4804242EA851233
:101A50004260C36149680164046230BD002C0140EA
:101A600010B5036A046A24F001040462846924F056
:101A7000F00444EA021423F00A020A438461026279
:101A800010BD10B5036A046A24F01004046284696E
:101A900023F0A00324F4704444EA023243EA011123
:101AA0008261016210BD10B5406A0021C185C18408
:101AB000FFF74FFB10BD01680C3151E8002F22F4F5
:101AC000907241E80023002BF5D10168143151E8F0
:101AD000002F22F0010241E80023002BF5D1016B19
:101AE000012909D101680C3151E8002F22F01002C0
:101AF00041E80023002BF5D1202180F8421000217D
:101B00000163704708B590F84210222901D00220E5
:101B100008BD82684FF480539A4201D1016921B116
:101B2000816A9A421BD04AB10AE00268816A52680F
:101B3000C2F308020A80816A891C08E0026972B156
:101B40000268526802F07F020A70816A491C816251
:101B5000C18D491E0904090CC18503D01BE0026830
:101B60005268F1E70168CA6822F02002CA60016881
:101B7000CA6822F48072CA6001684A6922F00102D0
:101B80004A61202180F8421000214163026B012A42
:101B900003D0FFF797FC002008BD016301680C31FA
:101BA00051E8002F22F0100241E80023002BF5D16C
:101BB00001680A68D20602D50A6849680091818DD9
:101BC000FFF7C6FAE7E7000070B504460068016950
:101BD000E26821F44051114301612169A068084382
:101BE000616908432168CA6841F20C639A43024361
:101BF000CA6020684169A26921F4407111434161C2
:101C00001E492068884202D1FEF7EEFD01E0FEF792
:101C1000DBFD00EBC00101EB001260686421800075
:101C2000B2FBF0F3B3FBF1F36FF018067343B2FBB2
:101C3000F0F5B2FBF0F605EB8305322303EB051557
:101C4000B5FBF1F5B6FBF1F605F0F00505EB061571
:101C5000B2FBF0F6B2FBF0F0B0FBF1F06FF018025F
:101C6000504306EB800003EB0010B0FBF1F021685D
:101C700000F00F002844886070BD0000003801406B
:101C800081628285C28500214164222180F8421050
:101C9000016921B10168CA6842F48072CA600168B2
:101CA0004A6942F001024A610068C16841F02001BE
:101CB000C16000207047000010B50548FFF74AFAE0
:101CC000BDE81040012203490148FFF7EDBB0000C9
:101CD000EC00002010000020FEE7000070B50E4D63
:101CE00004004FF480514FF4005605D401222846D9
:101CF000FEF730FC002206E0404204B200222846F3
:101D0000FEF728FC012231462846FEF723FC034853
:101D10000068446370BD0000000C01405C000020BE
:101D200070B50E4D04004FF480414FF4004605D4C9
:101D300001222846FEF70EFC002206E0404204B2D3
:101D400000222846FEF706FC012231462846FEF70F
:101D500001FC03480068846370BD0000000C014072
:101D60005C0000200749002300280A6803DB506359
:101D7000086883637047404200B253630968886310
:101D800070470000140000200749002300280A685B
:101D900003DBD063086803647047404200B2D3633A
:101DA0000968086470470000140000200907090E44
:101DB000002804DB00F1E02080F80014704700F0F8
:101DC0000F0000F1E02080F8141D7047FEF7D6FBED
:101DD000FFF718FDFFF7FAFBFFF730FCFFF77CFC7D
:101DE000FFF7BAFCFFF7ECFC00F002F8FEE700009A
:101DF00001220E490E48FFF757FB00210D48FFF75F
:101E000057F904210B48FFF753F908210948FFF758
:101E10004FF90C210748FFF74BF900210648FFF75F
:101E200047F904210448FFF743F9FEE710000020BA
:101E3000EC000020140000205C00002001020203DE
:101E40000405060708090A0B0C0D0E0F1010000000
:101E5000000000000000010203040607080900005A
:101E60000000010203040000881E0008000000209A
:101E700014000000280100089C1E00081400002027
:101E80008407000044010008010000001000000069
:0C1E9000000000000024F400000000002E
:04000005080000ED02
:00000001FF
