:020000040800F2
:100000007809002089010008C1190008F3160008CA
:100010006919000819030008291F000800000000E2
:10002000000000000000000000000000571A000857
:100030003103000800000000C3190008591A000825
:10004000A3010008A3010008A3010008A301000800
:10005000A3010008A3010008A3010008A3010008F0
:10006000A3010008A3010008A3010008A3010008E0
:10007000A3010008A3010008A3010008A3010008D0
:10008000A3010008A3010008A3010008A3010008C0
:10009000A3010008A3010008A3010008A3010008B0
:1000A000A3010008A3010008A3010008A3010008A0
:1000B000A3010008A3010008BD1A0008A30100085D
:1000C000A3010008A3010008A3010008A301000880
:1000D000A3010008111F00081D1F0008A30100084C
:1000E000A3010008A3010008A301000800F002F822
:1000F00000F03AF80AA090E8000C82448344AAF188
:100100000107DA4501D100F02FF8AFF2090EBAE885
:100110000F0013F0010F18BFFB1A43F0010318473B
:10012000B41F0000D41F0000103A24BF78C878C163
:10013000FAD8520724BF30C830C144BF04680C60ED
:10014000704700000023002400250026103A28BF35
:1001500078C1FBD8520728BF30C148BF0B60704739
:100160001FB51FBD10B510BD00F058F81146FFF7C0
:10017000F7FF01F0FBFE00F076F803B4FFF7F2FFA3
:1001800003BC00F07DF8000009488047094800479B
:10019000FEE7FEE7FEE7FEE7FEE7FEE7FEE7FEE737
:1001A000FEE7FEE704480549054A064B7047000094
:1001B000BB1A0008ED000008780300207809002031
:1001C00078050020780500204FF0000200B51346A6
:1001D00094469646203922BFA0E80C50A0E80C5067
:1001E000B1F12001BFF4F7AF090728BFA0E80C5018
:1001F00048BF0CC05DF804EB890028BF40F8042B11
:1002000008BF704748BF20F8022B11F0804F18BF7D
:1002100000F8012B7047704770477047754600F033
:100220002BF8AE4605006946534620F00700854688
:1002300018B020B5FFF7B6FFBDE820404FF000062C
:100240004FF000074FF000084FF0000B21F00701BE
:10025000AC46ACE8C009ACE8C009ACE8C009ACE801
:10026000C0098D46704710B50446AFF300802046A4
:10027000BDE81040FFF781BF004870471803002019
:1002800001491820ABBEFEE72600020070470000BF
:1002900070B50E4D04004FF480514FF4005605D454
:1002A0000122284600F0CCF9002206E0404204B2C8
:1002B0000022284600F0C4F901223146284600F009
:1002C000BFF903480068446370BD0000000C0140A2
:1002D0007C00002070B50E4D04004FF480414FF4B7
:1002E000004605D40122284600F0AAF9002206E0C3
:1002F000404204B20022284600F0A2F90122314611
:10030000284600F09DF903480068846370BD000032
:10031000000C01407C000020FEE700000349027849
:100320000A7082784A70007988707047280000202F
:10033000704772B6FEE700000749002300280A68EC
:1003400003DB5063086883637047404200B2536325
:1003500009688863704700003400002007490023C3
:1003600000280A6803DBD0630868036470474042D2
:1003700000B2D363096808647047000034000020AD
:1003800010B590F821100022022905D004218163C4
:1003900080F82020012010BD01680B6823F00E03B7
:1003A0000B6001680B6823F001030B6090F840308C
:1003B000C46B012101FA03F3636080F8211080F817
:1003C0002020104610BD000010B590F82110002428
:1003D000022903D00421816301243DE001680A68F9
:1003E00022F00E020A6001680A6822F001020A6027
:1003F0001A4A0168914201D1012121E0174A1432C1
:10040000914201D110211BE0144A2832914201D1BE
:10041000891515E0114A3C32914201D189140FE04F
:100420000E4A5032914202D14FF4803108E00B4A1B
:100430006432914202D14FF4801101E04FF080719B
:10044000064A083A5160012180F82110002180F805
:100450002010416B01B18847204610BD08000240C2
:100460002DE9F84FDFF8B8910024A9F1040B2346D9
:100470000F2709F1040AABF1040EC9E00125A540DC
:100480002A40AA427DD1674ED1F804C0ACEB0608E1
:10049000B44532D014DCBCF1030F3AD009DCBCF116
:1004A000000F2AD0BCF1010F1CD0BCF1020F31D1DA
:1004B0001DE0BCF1110F17D0BCF1120F2AD119E0C9
:1004C000B8F5881F19D006DCB8F5803F15D0B8F50F
:1004D000801F1FD111E0B8F5001F0ED0B8F5041F22
:1004E00018D10AE0CB6815E0CB681B1D12E0CB6881
:1004F00008330FE0CB680C330CE08B682BB1012B79
:100500004FF0080303D0456104E0042302E00561D5
:1005100000E00023FF2A01D8064601E000F10406AE
:100520004FEA840501D9A5F12005D6F8008007FA25
:1005300005FC28EA0C0803FA05F548EA0508C6F8A0
:1005400000804D68ED0062D5374DAE6946F001067A
:10055000AE61AD6924F0030605F001050095334D49
:1005600006EB050CDCF80850A607360F07FA06F86C
:1005700025EA0805DFF8B880404503D14FF00008B0
:1005800017E044E0DFF8AC80404502D14FF00108AD
:100590000FE0DFF8A480404502D14FF0020808E0E8
:1005A000DFF89880404502D14FF0030801E04FF09A
:1005B000040808FA06F848EA0508CCF808804D68EF
:1005C000D9F80060ED024D4601D5164300E0964390
:1005D0002E604D68DAF80060AD02554601D516432D
:1005E00000E096432E604D68DBF80060AD035D4689
:1005F00001D5164300E096432E604D68DEF800609A
:10060000ED03754601D5164300E096432E60641C49
:100610000D682A46E5407FF431AFBDE8F88F000051
:1006200008040140000011100010024000000140C9
:1006300000080140000C014000100140001401407E
:100640000AB1016170470904FBE7000001488068B6
:1006500070470000000000200248816802781144C1
:100660008160704700000020074810B5016841F024
:1006700010010160032000F075F80F2000F006F86B
:1006800000F024F8002010BD0020024070B50D4D90
:1006900004464FF47A712878B1FBF0F00A490968F2
:1006A000B1FBF0F000F0DCFA48B9102C07D20022C0
:1006B0002146501E00F036F800206C6070BD01200D
:1006C00070BD0000000000200C0000200C4808B5A0
:1006D000816941F001018161816901F001010091AD
:1006E000C16941F08051C161C06900F08050009043
:1006F0000448416821F0E06141F00071416008BDAB
:100700000010024000000140002809DB00F01F0239
:10071000012191404009800000F1E020C0F8001163
:1007200070470000F0B40E4B1B680C46C3F3022365
:10073000C3F10705042D00D90425191D072901D28D
:10074000002300E0DB1E012606FA05F1491E2140C8
:1007500099409E40761E16403143F0BC01F0F6BB36
:100760000CED00E0064900F0070208684FF6FF03B1
:10077000184040EA0220034A104308607047000016
:100780000CED00E00000FA052DE9F0470F460500EA
:1007900061D0434E306800F00700B84209D230689B
:1007A00020F0070038433060306800F00700B8429E
:1007B00051D128683B4C810712D5400703D56068AA
:1007C00040F4E06060602878000703D5606840F47A
:1007D000605060606068A96820F0F00008436060C5
:1007E0002878C00728D06868012810D0216802281E
:1007F00010D0890700292EDA616821F00301014336
:100800006160FFF723FF804641F288390DE02168DF
:100810008903EFE78901EDE7FFF718FFA0EB080177
:10082000494502D90320BDE8F0876068696800F097
:100830000C00B0EB810FEFD1306800F00700B84238
:100840000BD9306820F0070038433060306800F082
:100850000700B84201D00120E5E72878400705D518
:100860006068E96820F4E060084360602878000769
:1008700006D56068296920F4605040EAC1006060D4
:1008800000F038F86168084AC1F30311515CC840B0
:100890000649086006480068FFF7F8FE0020C2E736
:1008A0000020024000100240BC2000080C00002084
:1008B000040000200448054900684968044AC1F35F
:1008C0000221515CC84070470C000020001002401B
:1008D000CC2000080448054900684968044AC1F36F
:1008E000C221515CC84070470C000020001002403B
:1008F000CC2000080E4A51680E4801F00C03042B6E
:1009000011D0082B0FD10C48C1F38343C903C05C3D
:100910000AD55168084AC1F34041921E515C054A0C
:100920005043B0FBF1F07047044948437047000062
:100930000010024000127A00AC20000800093D00BF
:100940002DE9F84F040070D02078C04DC00749D081
:100950006868C0F38100012807D06868C0F381008F
:10096000022809D16868C00306D52868800339D5F4
:1009700060680028E7D035E06068B0F5803F0BD0B4
:1009800010B1B0F5A02F11D0286820F48030286075
:10099000286820F4802002E0286840F48030286035
:1009A000606890B1FFF752FE06460AE0286840F4FE
:1009B00080202860F0E700BFFFF748FE801B642816
:1009C00073D828688003F7D50CE0FFF73FFE064692
:1009D00005E000BFFFF73AFE801B6428F0D82868C6
:1009E0008003F7D420789A4E80074FF001094FF02A
:1009F000000839D5686810F00C0F07D06868C0F39C
:100A00008100022809D16868C00306D428688007DD
:100A100014D52069012808D110E02069B0B1C6F8CA
:100A20000090FFF713FE074605E00AE1FFF70EFE10
:100A3000C01B0228C4D828688007F7D528686169D8
:100A400020F0F80040EAC10028600DE0C6F8008000
:100A5000FFF7FCFD074604E0FFF7F8FDC01B022886
:100A600023D828688007F7D4207800072CD5794848
:100A7000A169D9B1C0F80090FFF7E8FD074604E08E
:100A8000FFF7E4FDC01B02280FD8686A8007F7D57E
:100A900071484FF4FA510068B0FBF1F0009000BFCC
:100AA0000098411E0091FAD20EE080E0C0F800806C
:100AB000FFF7CCFD074604E0FFF7C8FDC01B022886
:100AC00075D8686A8007F7D42078400760D5E86950
:100AD0000027C00008D4E86940F08050E861E86968
:100AE000012700F0805000905C480168C90513D4CC
:100AF0000168834641F480710160FFF7A7FD8246DB
:100B000006E000BFFFF7A2FDA0EB0A0064284ED864
:100B1000DBF80000C005F5D5E06801280AD008B16F
:100B2000052813D0286A20F001002862286A20F0E6
:100B3000040002E0286A40F001002862E06841F207
:100B4000883B98B1FFF782FD82460BE0286A40F0AF
:100B500004002862EEE700BFFFF778FDA0EB0A0172
:100B600059455AD8286A8007F6D50CE0FFF76EFD84
:100B7000824605E0FFF76AFDA0EB0A0159454CD813
:100B8000286A8007F6D41FB1E86920F08050E86138
:100B9000E06988B36968C1F38101022944D0022861
:100BA000C6F8608004D0FFF751FD044638E034E019
:100BB000FFF74CFD074604E0FFF748FDC01B022885
:100BC0002BD828688001F7D4206AB0F5803F05D182
:100BD0006868A16820F4003008436860D4E908011F
:100BE0000843696821F4741108436860C6F860908E
:100BF000FFF72CFD044606E025E000BFFFF726FDC9
:100C0000001B022809D828688001F7D51BE000BF27
:100C1000FFF71CFD001B022802D90320BDE8F88F56
:100C200028688001F4D40EE00128F7D06868226AB1
:100C300000F48031914204D1616A00F4701088425E
:100C400001D00120EAE70020E8E7000000100240A0
:100C500000004242800442420C000020007000402C
:100C600010B5401EB0F1807F01D3012010BD4FF0C0
:100C7000E02460610F21601701F068F90020A06195
:100C800007202061002010BD7047704770B590F8B4
:100C90003C20012A26D0012480F83C40022280F822
:100CA0003D2003685A689D6822F070060A68324346
:100CB0005A600D4B02689A4208D0B2F1804F05D0BD
:100CC0000A4B9A4202D00A4B9A4204D1496825F055
:100CD00080031943916080F83D40002180F83C106A
:100CE000084670BD022070BD002C01400004004089
:100CF0000008004010B5040003D094F83D0010B186
:100D000007E0012010BD002084F83C00204600F0E0
:100D10001FF8022084F83D00211D206800F0D4FE59
:100D2000012084F8460084F83E0084F83F0084F8EF
:100D3000400084F8410084F8420084F8430084F8BD
:100D4000440084F8450084F83D00002010BD0000F8
:100D500008B500680B49884212D10B48C16941F0BF
:100D60000401C161C069002200F00400009002216A
:100D70001E20FFF7D7FCBDE808401E20FFF7C4BCCB
:100D800008BD0000000800400010024090F83D102F
:100D9000012901D001207047022180F83D1001682F
:100DA000CA6842F00102CA6000680B49884208D054
:100DB000B0F1804F05D00949884202D008498842E5
:100DC00004D1816801F00701062903D0016841F0D0
:100DD0000101016000207047002C01400004004028
:100DE0000008004070B5044690F83C00002501283A
:100DF00017D0012684F83C60022084F83D0020686A
:100E0000826822F0770222F47F42826008685028CC
:100E100038D00DDC20284FD005DC90B3102811D13C
:100E20004AE0022070BD302846D040280AD13BE07D
:100E300060282FD070280DD0B0F5805F03D0B0F5BA
:100E4000005F12D0012584F83D60002084F83C004A
:100E5000284670BDCB68D1E90121206800F077FEFB
:100E60002068816841F0770109E0CB68D1E9012170
:100E7000206800F06CFE2068816841F48041816048
:100E8000E1E719E0CA684968206800F015FF5021C1
:100E9000206806E0CA684968206800F01EFF6021EB
:100EA000206800F05EFECEE7CA684968206800F05E
:100EB00003FF40212068F4E7226801461046F0E76E
:100EC000704770B50446006801694FF00005C943DA
:100ED000890715D4C168C943890711D4E91E016186
:100EE00001202077206880698007204602D0FFF724
:100EF000E7FF04E000F0EEF8204600F09DF92577CA
:100F000020680169C943490717D4C168C943490723
:100F100013D46FF0040101610220207720688069FA
:100F200010F4407F204602D0FFF7CAFF04E000F033
:100F3000D1F8204600F080F9257720680169C9437F
:100F4000090716D4C168C943090712D46FF0080114
:100F50000161042020772068C0698007204602D004
:100F6000FFF7AEFF04E000F0B5F8204600F064F9AA
:100F7000257720680169C943C90617D4C168C943E8
:100F8000C90613D46FF01001016108202077206892
:100F9000C06910F4407F204602D0FFF791FF04E0C3
:100FA00000F098F8204600F047F92577206801699D
:100FB000C943C90708D1C168C943C90704D1891EFB
:100FC0000161204600F088F920680169C9430906DB
:100FD00009D4C168C943090605D46FF080010161D5
:100FE0002046FFF751FE20680169C943490609D42C
:100FF000C168C943490605D46FF04001016120462C
:1010000000F074F920680169C94389060BD4C168EE
:10101000C943890607D46FF0200101612046BDE86D
:101020007040FFF732BE70BD10B586B00021009150
:101030000191029103910268214902242148B2F1F1
:10104000804F13D0204B9A420ED18A6942F004029D
:101050008A618969039401F004010491C021CDE9FA
:1010600000146946FFF7FCF906B010BD8A6942F02A
:1010700004028A618A6902F0040204928A6942F0D9
:1010800008028A618969039401F00801049103212F
:10109000CDE900146946FFF7E3F94FF44060CDE96C
:1010A0000004694609480394FFF7DAF908484168E3
:1010B00021F4407141F0E06141F400714160D3E7F7
:1010C000001002400008014000040040000C0140F4
:1010D00000000140704770B5044690F83C000026BF
:1010E0000D4601280FD0012084F83C006AB1042A83
:1010F0001DD0082A2FD00C2A3FD00126002084F8CA
:101100003C00304670BD022070BD206800F032FD0A
:101110002068816941F0080181612068816921F0BE
:1011200004018161206881692A69114311E0206806
:1011300000F048FD2068816941F400618161206808
:10114000816921F480618161206881692A6941EAAD
:1011500002218161D2E7206800F060FD2068C1694A
:1011600041F00801C1612068C16921F00401C16139
:101170002068C1692A69114311E0206800F07AFDF6
:101180002068C16941F40061C1612068C16921F42E
:101190008061C1612068C1692A6941EA0221C16197
:1011A000ACE710B5040003D094F83D0010B107E09F
:1011B000012010BD002084F83C00204600F01EF8FD
:1011C000022084F83D00211D206800F07DFC0120F4
:1011D00084F8460084F83E0084F83F0084F840001C
:1011E00084F8410084F8420084F8430084F8440005
:1011F00084F8450084F83D00002010BD08B5016862
:101200000B48B1F1804F0BD00A4A914207D1C16916
:1012100041F00201C161C06900F00200009008BD08
:10122000C16941F00101C161C06900F00100F5E749
:1012300000100240000400407047000010B5044652
:10124000022249B104290ED0082913D094F8410094
:10125000012816D0012010BD94F83E000128F9D1D4
:1012600084F83E200FE094F83F000128F2D184F882
:101270003F2008E094F840000128EBD184F840209A
:1012800001E084F841200122206800F053FC0F495E
:101290002068884203D1426C42F4004242642068D4
:1012A000884208D0B0F1804F05D00949884202D069
:1012B0000849884204D1816801F00701062903D05A
:1012C000016841F001010160002010BD002C0140C7
:1012D000000400400008004000680349884201D132
:1012E00000F044BB704700000008004070477047A2
:1012F00070470000F8B5016804460868CA684B6981
:1013000010F00F0F4FF0000559D003F0010602F462
:101310009077374365D0C10705D0D10503D5616CFF
:1013200041F001016164410705D5D90703D0616C23
:1013300041F002016164810705D5D90703D0616CD2
:1013400041F004016164010707D502F02001314337
:1013500003D0616C41F008016164616C00293AD0EE
:10136000800604D5900602D5204600F0F7FC2068E0
:101370004069616CC0F38010090700D460B3204657
:1013800000F0C5FC20684069400621D52068143073
:1013900050E8001F21F0400140E80012002AF5D17A
:1013A000E06BA8B16D494163E06BFFF70DF80028D1
:1013B00011D0E06B416B01B0BDE8F04008478306F7
:1013C0000FD593060DD52046BDE8F84000F0C6BC09
:1013D0002046FFF78DFFF8BD2046FFF789FF6564C3
:1013E000F8BD266B2023012E7CD1C6067AD5D60601
:1013F00078D508684868009048694FF002064006B2
:1014000040D5E16B086840680004000CE8D0A28D6C
:101410008242E5D9E085886920282DD020680C30EB
:1014200050E8001F21F4807140E80012002AF5D135
:101430002068143050E8001F21F0010140E800123C
:10144000002AF5D12068143050E8001F21F0400137
:1014500040E80012002AF5D184F842302563206864
:101460000C3050E8001F21F0100140E80012002A63
:10147000F5D1E06BFEF784FF6663A08DE18D401A25
:1014800081B22AE0A08DE18D401A81B2E08D002862
:10149000A6D00029A4D022680C3252E8000F20F414
:1014A000907042E80007002FF5D12068143050E812
:1014B000002F22F0010240E80027002FF5D184F828
:1014C0004230256320680C3050E8002F22F01002D3
:1014D00040E80023002BF5D166632046FFF707FFA5
:1014E000F8BDFFE705062BD5150629D594F8410070
:1014F0002128F5D1A068B0F5805F01D12069B0B195
:10150000206A411C2162216800784860E08C401EFE
:101510000004000CE084E3D12068C16821F0800160
:10152000C1602068C16841F04001C160D8E7206A0D
:101530000088C0F308004860206A801C2062E5E74C
:101540004006CDD55006CBD5CA68204622F04002D1
:10155000CA6084F8413000F0CBF8C1E7FF1C0008F6
:1015600070B5040004D094F84100002510B106E0E5
:10157000012070BD84F84050204600F023F824205C
:1015800084F841002068C16821F40051C160204600
:1015900000F046FC2068016921F490410161206857
:1015A000416921F02A0141612068C16841F400517C
:1015B000C1606564202084F8410084F842006563BE
:1015C000002070BD70B586B0002400940194029490
:1015D00003942E4E03682E49022003222D4DB34260
:1015E00027D18B6943F480438B618B6903F480437B
:1015F00004938B6943F004038B618969039201F0C2
:10160000040104910102CDE9001069462846FEF765
:1016100027FF2815CDE900040120029069462846DD
:10162000FEF71EFF002211462520FFF77BF825203C
:1016300028E0194EB34227D1CB6943F40033CB6184
:10164000CB6903F4003304938B6943F004038B618B
:101650008969039201F0040104910421CDE900108D
:1016600069462846FEF7FCFE0820CDE900046946DD
:1016700028460294FEF7F4FE002201212620FFF7FF
:1016800051F82620FFF740F806B070BD0038014041
:1016900000100240000801400044004090F8423031
:1016A000202B01D00220704721B11AB1002303631F
:1016B00000F012BC0120704710B500680A4988424A
:1016C00011D10A4C0621207800F07CF9A01E04F10B
:1016D0000A03C17822785A54491CC9B2C17006293C
:1016E00001D10021C17010BD00380140220000204E
:1016F0007047FEE7F0B585B000251C4800950195C0
:1017000002950395816941F020018161816901F0B1
:1017100020010491816941F004018161816901F036
:1017200004010491816941F0080181618069104FD1
:1017300000F00800049000224FF470413846FEF794
:101740007FFF01244FF45040CDE900040226CDE98B
:10175000024669463846FEF783FE60038DE8710055
:1017600069463846FEF77CFE05B0F0BD0010024029
:10177000000C014010B58AB0002407941C21684673
:101780000894FEF721FD21484FF08041C0E9001484
:1017900040F2CF21C0E9024104618461FFF701FDFD
:1017A00008B1FEF7C6FD079407A918480894FFF78B
:1017B0006DFA08B1FEF7BDFD6020CDE9000402948A
:1017C0000022694611480494FFF785FC08B1FEF732
:1017D000B0FD042269460D48FFF77DFC08B1FEF715
:1017E000A8FD082269460948FFF775FC08B1FEF715
:1017F000A0FD0C2269460548FFF76DFC08B1FEF715
:1018000098FD0248FFF710FC0AB010BD340000201C
:1018100010B58AB0002407941C2168460894FEF78E
:10182000D3FC1A481849C0E9001440F2CF21C0E99E
:10183000024104618461FFF7B4FC08B1FEF779FD51
:10184000079407A911480894FFF720FA08B1FEF79A
:1018500070FD6020CDE900040294002269460B4827
:101860000494FFF738FC08B1FEF763FD04226946D3
:101870000648FFF730FC08B1FEF75BFD0348FFF7B1
:10188000D3FB0AB010BD0000000400407C00002023
:1018900010B586B000241748009401940294039474
:1018A000049413490594016041F61F41C0E90114F5
:1018B00042F20F71C0E903148461FFF71BFA08B10B
:1018C000FEF737FD4FF48050009069460948FFF756
:1018D00089FA08B1FEF72DFD049404A90548059482
:1018E000FFF7D4F9002801D0FEF723FD06B010BDA4
:1018F00000080040C40000200C4810B50A490160EF
:101900004FF4E1314160002181600C22C160C0E9E7
:1019100004128161C161FFF723FE002803D0BDE8F6
:101920001040FEF706BD10BD003801400C0100203C
:101930000C4810B50A4901604FF4E13141600021C3
:1019400081600C22C160C0E904128161C161FFF7AE
:1019500007FE002803D0BDE81040FEF7EABC10BD2A
:101960000044004054010020FEE70000114810B57B
:10197000406A00F039FB10494880104801784278ED
:10198000C3780D48801D00F0D1FA0B4CA41DB4F9AA
:101990000000FEF7D1FCB4F90200FEF7DFFCB4F959
:1019A0000400FEF775FCB4F90600BDE81040FEF730
:1019B00091BC0000A701002010000020280000209A
:1019C000FEE7704770B51B4C05461B4A2078002681
:1019D00040B1012810D0022818D003280BD15A2D6D
:1019E00023D020E0A52D06D1012020701570607055
:1019F0001148401C606070BD60781554401CC0B236
:101A00006070401E8842F6D102200AE060781554CA
:101A1000401C6070084800F011F8A84203D12078FB
:101A2000401C207070BD267070BD6068FEF776FCAB
:101A3000F9E7000020000020EB01002010B503466C
:101A40000122002004E09C5C521C2044C0B292B2EF
:101A50008A42F8D910BD7047FEF7FEBD30B58FB091
:101A600028216846FEF7B0FB14210AA8FEF7ACFB5C
:101A700001210804CDE900100024029402250491FC
:101A8000CDE907504FF4E01009906846FEF758FF83
:101A900008B172B6FEE70F20CDE90A054FF4806069
:101AA000CDE90C4002210AA80E94FEF76DFE002835
:101AB00001D072B6FEE70FB030BD70470148FFF7A6
:101AC00000BA0000C4000020F0B50268164B174CA5
:101AD000174D4FF08047984205D0B84203D0A0423E
:101AE00001D0A84203D122F070064A6832439842DE
:101AF00005D0B84203D0A04201D0A84203D122F4BD
:101B00004074CA6822434C6922F08002224302607A
:101B10008A68C2620A688262984201D109690163D7
:101B200001214161F0BD0000002C01400004004093
:101B30000008004010B501F01F030121046A99401C
:101B40008C430462016A9A401143016210BD10B5D2
:101B5000846842EA032224F47F440A4322438260D9
:101B600010BD826822F070020A4342F007018160D2
:101B70007047000030B5036A026A22F00102026277
:101B80004268846924F073050C682C4323F0020535
:101B90008B682B430A4DA8420BD123F00805CB6874
:101BA00022F440722B434D6923F0040315438A69E4
:101BB0002A434260846149684163036230BD00008A
:101BC000002C014030B5026A036A23F0100303625F
:101BD000436884690D6824F4E64444EA05248D686A
:101BE00022F0200242EA05120B4DA8420ED1CD6828
:101BF00022F0800242EA05124D6923F4406343EA71
:101C000085038D6922F0400243EA850343608461C5
:101C100049688163026230BD002C014030B5036A1F
:101C2000026A22F4807202624268C46923F400737B
:101C300024F073050C682C438D6843EA05230C4D92
:101C4000A8420ED1CD6823F4006343EA05234D6911
:101C500022F4405242EA05128D6923F4806342EA7D
:101C600005124260C4614968C163036230BD00006F
:101C7000002C014030B5046A026A22F480520262EC
:101C80004268C3690D6823F4E64343EA05238D687F
:101C900024F4005444EA0534064DA84204D14D69A9
:101CA00022F4804242EA85124260C36149680164BD
:101CB000046230BD002C014010B5036A046A24F0B0
:101CC00001040462846924F0F00444EA021423F05D
:101CD0000A020A438461026210BD10B5036A046AF5
:101CE00024F010040462846923F0A00324F47044F7
:101CF00044EA023243EA01118261016210BD10B56B
:101D0000406A0021C185C184FFF7F2FA10BD016865
:101D10000C3151E8002F22F4907241E80023002B8F
:101D2000F5D10168143151E8002F22F0010241E899
:101D30000023002BF5D1016B012909D101680C3179
:101D400051E8002F22F0100241E80023002BF5D1CA
:101D5000202180F8421000210163704708B590F8F7
:101D60004210222901D0022008BD82684FF480531E
:101D70009A4201D1016921B1816A9A421BD04AB1CC
:101D80000AE00268816A5268C2F308020A80816A26
:101D9000891C08E0026972B10268526802F07F0291
:101DA0000A70816A491C8162C18D491E0904090CAF
:101DB000C18503D01BE002685268F1E70168CA6878
:101DC00022F02002CA600168CA6822F48072CA60E8
:101DD00001684A6922F001024A61202180F842101C
:101DE00000214163026B012A03D0FFF765FC00204C
:101DF00008BD016301680C3151E8002F22F0100288
:101E000041E80023002BF5D101680A68D20602D50B
:101E10000A6849680091818DFFF769FAE7E70000D9
:101E200070B5044600680169E26821F4405111432D
:101E300001612169A0680843616908432168CA6893
:101E400041F20C639A430243CA6020684169A26967
:101E500021F44071114341611E492068884202D13A
:101E6000FEF738FD01E0FEF725FD00EBC00101EBB8
:101E70000012606864218000B2FBF0F3B3FBF1F361
:101E80006FF018067343B2FBF0F5B2FBF0F605EB0A
:101E90008305322303EB0515B5FBF1F5B6FBF1F62F
:101EA00005F0F00505EB0615B2FBF0F6B2FBF0F01D
:101EB000B0FBF1F06FF01802504306EB800003EB2B
:101EC0000010B0FBF1F0216800F00F00284488609A
:101ED00070BD00000038014081628285C28500210A
:101EE0004164222180F84210016921B10168CA6869
:101EF00042F48072CA6001684A6942F001024A6194
:101F00000068C16841F02001C160002070470000F6
:101F10000148FFF7EFB900000C0100200148FFF76E
:101F2000E9B9000054010020FEE7000030B5541864
:101F30000548511AE51ACA1805804280C91A8180DD
:101F4000E118C18030BD0000160000200907090E0D
:101F5000002804DB00F1E02080F80014704700F056
:101F60000F0000F1E02080F8141D7047FEF77CFBA5
:101F7000FFF774FDFFF7BEFBFFF7FCFBFFF748FC24
:101F8000FFF786FCFFF7D4FCFFF7B6FC01220349FC
:101F90000348FFF783FB00F005F8FEE7220000206E
:101FA0000C0100200D48FEF7F1FE00210C48FFF760
:101FB00045F904210A48FFF741F908210848FFF7CD
:101FC0003DF90C210648FFF739F900210548FFF7D4
:101FD00035F904210348FFF731F9FEE7C40000207A
:101FE000340000207C00002041000B0ED3F19E0243
:101FF00008D950F400034FEA032323FA02F048BF44
:102000004042704710B500F00AF800BF49922480A2
:10201000002070476FF0004282EA200070470EF106
:10202000020E2EF0030E5EF8044B244204D44FEA55
:102030004102B2F17F4F11D84FEA4003B3F17F4F15
:102040000CD80ED14FEAD07CB2F17F4F0CEB4C0C88
:102050000CF1020C08BF4CEBD17C04E04FF0080CF3
:1020600001E04FEAD17C0CEB4C0324FA03F404F0BA
:102070000704B4F1040C06D20EEB840CBDE810404A
:102080004CF0010C6047DFE80CF0070802024FF04B
:102090000040A0F5800010BD0846420018BFD2F1F4
:1020A000807288BF00F0004010BD010202030405E9
:1020B000060708090A0B0C0D0E0F10100000000097
:1020C00000000000010203040607080900000000E8
:1020D00001020304F4200008000000203400000086
:1020E00028010008282100083400002044090000CD
:1020F0004401000801000000100000000000000082
:102100000024F400000000000000000000000000B7
:1021100000000000000000000000000000000000BF
:082120000000000000000000B7
:04000005080000ED02
:00000001FF
