:020000040800F2
:10000000D009002089010008051A0008B31600086D
:1000100095190008190300083521000800000000A8
:100020000000000000000000000000003B1C000871
:100030003103000800000000A51B00083D1C00085B
:10004000A3010008A3010008A3010008A301000800
:10005000A3010008A3010008A3010008A3010008F0
:10006000A3010008A3010008A3010008A3010008E0
:10007000A3010008A3010008A3010008A3010008D0
:10008000A3010008A3010008A3010008A3010008C0
:10009000A3010008A3010008A3010008A3010008B0
:1000A000A3010008A3010008A3010008A3010008A0
:1000B000A3010008A3010008A11C0008A301000877
:1000C000A3010008A3010008A3010008A301000880
:1000D000A3010008F5200008A3010008152100086D
:1000E000A3010008A3010008A301000800F002F822
:1000F00000F03AF80AA090E8000C82448344AAF188
:100100000107DA4501D100F02FF8AFF2090EBAE885
:100110000F0013F0010F18BFFB1A43F0010318473B
:10012000C4260000E4260000103A24BF78C878C135
:10013000FAD8520724BF30C830C144BF04680C60ED
:10014000704700000023002400250026103A28BF35
:1001500078C1FBD8520728BF30C148BF0B60704739
:100160001FB51FBD10B510BD00F058F81146FFF7C0
:10017000F7FF02F00FF800F076F803B4FFF7F2FF94
:1001800003BC00F07DF8000009488047094800479B
:10019000FEE7FEE7FEE7FEE7FEE7FEE7FEE7FEE737
:1001A000FEE7FEE704480549054A064B7047000094
:1001B0009F1C0008ED000008D0030020D00900209B
:1001C000D0050020D00500204FF0000200B51346F6
:1001D00094469646203922BFA0E80C50A0E80C5067
:1001E000B1F12001BFF4F7AF090728BFA0E80C5018
:1001F00048BF0CC05DF804EB890028BF40F8042B11
:1002000008BF704748BF20F8022B11F0804F18BF7D
:1002100000F8012B7047704770477047754600F033
:100220002BF8AE4605006946534620F00700854688
:1002300018B020B5FFF7B6FFBDE820404FF000062C
:100240004FF000074FF000084FF0000B21F00701BE
:10025000AC46ACE8C009ACE8C009ACE8C009ACE801
:10026000C0098D46704710B50446AFF300802046A4
:10027000BDE81040FFF781BF0048704770030020C1
:1002800001491820ABBEFEE72600020070470000BF
:1002900070B50E4D04004FF480514FF4005605D454
:1002A0000122284600F0CCF9002206E0404204B2C8
:1002B0000022284600F0C4F901223146284600F009
:1002C000BFF903480068446370BD0000000C0140A2
:1002D0008C00002070B50E4D04004FF480414FF4A7
:1002E000004605D40122284600F0AAF9002206E0C3
:1002F000404204B20022284600F0A2F90122314611
:10030000284600F09DF903480068846370BD000032
:10031000000C01408C000020FEE700000349028829
:100320000A8042884A8080888880704718000020B0
:10033000704772B6FEE700000749002300280A68EC
:1003400003DB5063086883637047404200B2536325
:1003500009688863704700004400002007490023B3
:1003600000280A6803DBD0630868036470474042D2
:1003700000B2D3630968086470470000440000209D
:1003800010B590F821100022022905D004218163C4
:1003900080F82020012010BD01680B6823F00E03B7
:1003A0000B6001680B6823F001030B6090F840308C
:1003B000C46B012101FA03F3636080F8211080F817
:1003C0002020104610BD000010B590F82110002428
:1003D000022903D00421816301243DE001680A68F9
:1003E00022F00E020A6001680A6822F001020A6027
:1003F0001A4A0168914201D1012121E0174A1432C1
:10040000914201D110211BE0144A2832914201D1BE
:10041000891515E0114A3C32914201D189140FE04F
:100420000E4A5032914202D14FF4803108E00B4A1B
:100430006432914202D14FF4801101E04FF080719B
:10044000064A083A5160012180F82110002180F805
:100450002010416B01B18847204610BD08000240C2
:100460002DE9F84FDFF8B8910024A9F1040B2346D9
:100470000F2709F1040AABF1040EC9E00125A540DC
:100480002A40AA427DD1674ED1F804C0ACEB0608E1
:10049000B44532D014DCBCF1030F3AD009DCBCF116
:1004A000000F2AD0BCF1010F1CD0BCF1020F31D1DA
:1004B0001DE0BCF1110F17D0BCF1120F2AD119E0C9
:1004C000B8F5881F19D006DCB8F5803F15D0B8F50F
:1004D000801F1FD111E0B8F5001F0ED0B8F5041F22
:1004E00018D10AE0CB6815E0CB681B1D12E0CB6881
:1004F00008330FE0CB680C330CE08B682BB1012B79
:100500004FF0080303D0456104E0042302E00561D5
:1005100000E00023FF2A01D8064601E000F10406AE
:100520004FEA840501D9A5F12005D6F8008007FA25
:1005300005FC28EA0C0803FA05F548EA0508C6F8A0
:1005400000804D68ED0062D5374DAE6946F001067A
:10055000AE61AD6924F0030605F001050095334D49
:1005600006EB050CDCF80850A607360F07FA06F86C
:1005700025EA0805DFF8B880404503D14FF00008B0
:1005800017E044E0DFF8AC80404502D14FF00108AD
:100590000FE0DFF8A480404502D14FF0020808E0E8
:1005A000DFF89880404502D14FF0030801E04FF09A
:1005B000040808FA06F848EA0508CCF808804D68EF
:1005C000D9F80060ED024D4601D5164300E0964390
:1005D0002E604D68DAF80060AD02554601D516432D
:1005E00000E096432E604D68DBF80060AD035D4689
:1005F00001D5164300E096432E604D68DEF800609A
:10060000ED03754601D5164300E096432E60641C49
:100610000D682A46E5407FF431AFBDE8F88F000051
:1006200008040140000011100010024000000140C9
:1006300000080140000C014000100140001401407E
:100640000AB1016170470904FBE7000001488068B6
:1006500070470000000000200248816802781144C1
:100660008160704700000020074810B5016841F024
:1006700010010160032000F075F80F2000F006F86B
:1006800000F024F8002010BD0020024070B50D4D90
:1006900004464FF47A712878B1FBF0F00A490968F2
:1006A000B1FBF0F000F0DCFA48B9102C07D20022C0
:1006B0002146501E00F036F800206C6070BD01200D
:1006C00070BD0000000000200C0000200C4808B5A0
:1006D000816941F001018161816901F001010091AD
:1006E000C16941F08051C161C06900F08050009043
:1006F0000448416821F0E06141F00071416008BDAB
:100700000010024000000140002809DB00F01F0239
:10071000012191404009800000F1E020C0F8001163
:1007200070470000F0B40E4B1B680C46C3F3022365
:10073000C3F10705042D00D90425191D072901D28D
:10074000002300E0DB1E012606FA05F1491E2140C8
:1007500099409E40761E16403143F0BC01F0FCBC2F
:100760000CED00E0064900F0070208684FF6FF03B1
:10077000184040EA0220034A104308607047000016
:100780000CED00E00000FA052DE9F0470F460500EA
:1007900061D0434E306800F00700B84209D230689B
:1007A00020F0070038433060306800F00700B8429E
:1007B00051D128683B4C810712D5400703D56068AA
:1007C00040F4E06060602878000703D5606840F47A
:1007D000605060606068A96820F0F00008436060C5
:1007E0002878C00728D06868012810D0216802281E
:1007F00010D0890700292EDA616821F00301014336
:100800006160FFF723FF804641F288390DE02168DF
:100810008903EFE78901EDE7FFF718FFA0EB080177
:10082000494502D90320BDE8F0876068696800F097
:100830000C00B0EB810FEFD1306800F00700B84238
:100840000BD9306820F0070038433060306800F082
:100850000700B84201D00120E5E72878400705D518
:100860006068E96820F4E060084360602878000769
:1008700006D56068296920F4605040EAC1006060D4
:1008800000F038F86168084AC1F30311515CC840B0
:100890000649086006480068FFF7F8FE0020C2E736
:1008A0000020024000100240CC2700080C0000206D
:1008B000040000200448054900684968044AC1F35F
:1008C0000221515CC84070470C000020001002401B
:1008D000DC2700080448054900684968044AC1F358
:1008E000C221515CC84070470C000020001002403B
:1008F000DC2700080E4A51680E4801F00C03042B57
:1009000011D0082B0FD10C48C1F38343C903C05C3D
:100910000AD55168084AC1F34041921E515C054A0C
:100920005043B0FBF1F07047044948437047000062
:100930000010024000127A00BC27000800093D00A8
:100940002DE9F84F040070D02078C04DC00749D081
:100950006868C0F38100012807D06868C0F381008F
:10096000022809D16868C00306D52868800339D5F4
:1009700060680028E7D035E06068B0F5803F0BD0B4
:1009800010B1B0F5A02F11D0286820F48030286075
:10099000286820F4802002E0286840F48030286035
:1009A000606890B1FFF752FE06460AE0286840F4FE
:1009B00080202860F0E700BFFFF748FE801B642816
:1009C00073D828688003F7D50CE0FFF73FFE064692
:1009D00005E000BFFFF73AFE801B6428F0D82868C6
:1009E0008003F7D420789A4E80074FF001094FF02A
:1009F000000839D5686810F00C0F07D06868C0F39C
:100A00008100022809D16868C00306D428688007DD
:100A100014D52069012808D110E02069B0B1C6F8CA
:100A20000090FFF713FE074605E00AE1FFF70EFE10
:100A3000C01B0228C4D828688007F7D528686169D8
:100A400020F0F80040EAC10028600DE0C6F8008000
:100A5000FFF7FCFD074604E0FFF7F8FDC01B022886
:100A600023D828688007F7D4207800072CD5794848
:100A7000A169D9B1C0F80090FFF7E8FD074604E08E
:100A8000FFF7E4FDC01B02280FD8686A8007F7D57E
:100A900071484FF4FA510068B0FBF1F0009000BFCC
:100AA0000098411E0091FAD20EE080E0C0F800806C
:100AB000FFF7CCFD074604E0FFF7C8FDC01B022886
:100AC00075D8686A8007F7D42078400760D5E86950
:100AD0000027C00008D4E86940F08050E861E86968
:100AE000012700F0805000905C480168C90513D4CC
:100AF0000168834641F480710160FFF7A7FD8246DB
:100B000006E000BFFFF7A2FDA0EB0A0064284ED864
:100B1000DBF80000C005F5D5E06801280AD008B16F
:100B2000052813D0286A20F001002862286A20F0E6
:100B3000040002E0286A40F001002862E06841F207
:100B4000883B98B1FFF782FD82460BE0286A40F0AF
:100B500004002862EEE700BFFFF778FDA0EB0A0172
:100B600059455AD8286A8007F6D50CE0FFF76EFD84
:100B7000824605E0FFF76AFDA0EB0A0159454CD813
:100B8000286A8007F6D41FB1E86920F08050E86138
:100B9000E06988B36968C1F38101022944D0022861
:100BA000C6F8608004D0FFF751FD044638E034E019
:100BB000FFF74CFD074604E0FFF748FDC01B022885
:100BC0002BD828688001F7D4206AB0F5803F05D182
:100BD0006868A16820F4003008436860D4E908011F
:100BE0000843696821F4741108436860C6F860908E
:100BF000FFF72CFD044606E025E000BFFFF726FDC9
:100C0000001B022809D828688001F7D51BE000BF27
:100C1000FFF71CFD001B022802D90320BDE8F88F56
:100C200028688001F4D40EE00128F7D06868226AB1
:100C300000F48031914204D1616A00F4701088425E
:100C400001D00120EAE70020E8E7000000100240A0
:100C500000004242800442420C000020007000402C
:100C600010B5401EB0F1807F01D3012010BD4FF0C0
:100C7000E02460610F21601701F06EFA0020A0618E
:100C800007202061002010BD7047704770B590F8B4
:100C90003C20012A26D0012480F83C40022280F822
:100CA0003D2003685A689D6822F070060A68324346
:100CB0005A600D4B02689A4208D0B2F1804F05D0BD
:100CC0000A4B9A4202D00A4B9A4204D1496825F055
:100CD00080031943916080F83D40002180F83C106A
:100CE000084670BD022070BD002C01400004004089
:100CF0000008004010B5040003D094F83D0010B186
:100D000007E0012010BD002084F83C00204600F0E0
:100D10001FF8022084F83D00211D206800F0C6FF66
:100D2000012084F8460084F83E0084F83F0084F8EF
:100D3000400084F8410084F8420084F8430084F8BD
:100D4000440084F8450084F83D00002010BD0000F8
:100D500008B500680B49884212D10B48C16941F0BF
:100D60000401C161C069002200F004000090114636
:100D70001E20FFF7D7FCBDE808401E20FFF7C4BCCB
:100D800008BD0000000800400010024090F83D102F
:100D9000012901D001207047022180F83D1001682F
:100DA000CA6842F00102CA6000680B49884208D054
:100DB000B0F1804F05D00949884202D008498842E5
:100DC00004D1816801F00701062903D0016841F0D0
:100DD0000101016000207047002C01400004004028
:100DE0000008004070B5044690F83C00002501283A
:100DF00017D0012684F83C60022084F83D0020686A
:100E0000826822F0770222F47F42826008685028CC
:100E100038D00DDC20284FD005DC90B3102811D13C
:100E20004AE0022070BD302846D040280AD13BE07D
:100E300060282FD070280DD0B0F5805F03D0B0F5BA
:100E4000005F12D0012584F83D60002084F83C004A
:100E5000284670BDCB68D1E90121206800F069FF08
:100E60002068816841F0770109E0CB68D1E9012170
:100E7000206800F05EFF2068816841F48041816055
:100E8000E1E719E0CA684968206801F007F85021D5
:100E9000206806E0CA684968206801F010F86021FF
:100EA000206800F050FFCEE7CA684968206800F06B
:100EB000F5FF40212068F4E7226801461046F0E77C
:100EC000704770B50446006801694FF00005C943DA
:100ED000890715D4C168C943890711D4E91E016186
:100EE00001202077206880698007204602D0FFF724
:100EF000E7FF04E000F0CAF8204600F079F9257712
:100F000020680169C943490717D4C168C943490723
:100F100013D46FF0040101610220207720688069FA
:100F200010F4407F204602D0FFF7CAFF04E000F033
:100F3000ADF8204600F05CF9257720680169C943C7
:100F4000090716D4C168C943090712D46FF0080114
:100F50000161042020772068C0698007204602D004
:100F6000FFF7AEFF04E000F091F8204600F040F9F2
:100F7000257720680169C943C90617D4C168C943E8
:100F8000C90613D46FF01001016108202077206892
:100F9000C06910F4407F204602D0FFF791FF04E0C3
:100FA00000F074F8204600F023F9257720680169E5
:100FB000C943C90708D1C168C943C90704D1891EFB
:100FC0000161204600F064F920680169C9430906FF
:100FD00009D4C168C943090605D46FF080010161D5
:100FE0002046FFF751FE20680169C943490609D42C
:100FF000C168C943490605D46FF04001016120462C
:1010000000F050F920680169C94389060BD4C16812
:10101000C943890607D46FF0200101612046BDE86D
:101020007040FFF732BE70BD10B586B00021009150
:101030000191029103910368114902221148B3F111
:10104000804F13D0104CA3420ED18B6943F00403A0
:101050008B61896901F004010491C021CDE900127E
:1010600069460392FFF7FCF906B010BD8B6943F0A7
:1010700004038B61896901F0040104910F21EDE7FC
:10108000001002400008014000040040704770B5A5
:10109000044690F83C0000260D4601280FD00120A0
:1010A00084F83C006AB1042A1DD0082A2FD00C2AEB
:1010B0003FD00126002084F83C00304670BD02205D
:1010C00070BD206800F048FE2068816941F0080189
:1010D00081612068816921F0040181612068816952
:1010E0002A69114311E0206800F05EFE20688169E2
:1010F00041F4006181612068816921F4806181612E
:10110000206881692A6941EA02218161D2E7206869
:1011100000F076FE2068C16941F00801C1612068D5
:10112000C16921F00401C1612068C1692A691143C4
:1011300011E0206800F090FE2068C16941F4006170
:10114000C1612068C16921F48061C1612068C16901
:101150002A6941EA0221C161ACE710B5040003D05D
:1011600094F83D0010B107E0012010BD002084F884
:101170003C00204600F01EF8022084F83D00211DAE
:10118000206800F093FD012084F8460084F83E00BA
:1011900084F83F0084F8400084F8410084F842005D
:1011A00084F8430084F8440084F8450084F83D0046
:1011B000002010BD08B501680B48B1F1804F0BD07D
:1011C0000A4A914207D1C16941F00201C161C06977
:1011D00000F00200009008BDC16941F00101C16149
:1011E000C06900F00100F5E7001002400004004073
:1011F0007047000010B50446022249B104290ED000
:10120000082913D094F84100012816D0012010BD00
:1012100094F83E000128F9D184F83E200FE094F8BC
:101220003F000128F2D184F83F2008E094F8400004
:101230000128EBD184F8402001E084F8412001220C
:10124000206800F069FD0F492068884203D1426C94
:1012500042F4004242642068884208D0B0F1804FD6
:1012600005D00949884202D00849884204D18168E2
:1012700001F00701062903D0016841F00101016076
:10128000002010BD002C0140000400400008004078
:1012900000680349884201D100F07EBB704700001E
:1012A000000800407047704770470000F8B50168BB
:1012B00004460868CA684B6910F00F0F4FF000052C
:1012C00059D003F0010602F49077374365D0C10787
:1012D00005D0D10503D5616C41F00101616441077E
:1012E00005D5D90703D0616C41F002016164810723
:1012F00005D5D90703D0616C41F004016164010791
:1013000007D502F02001314303D0616C41F00801A0
:101310006164616C00293AD0800604D5900602D53C
:10132000204600F00DFE20684069616CC0F380101B
:10133000090700D460B3204600F0DBFD2068406957
:10134000400621D52068143050E8001F21F04001EC
:1013500040E80012002AF5D1E06BA8B16D49416365
:10136000E06BFFF731F8002811D0E06B416B01B062
:10137000BDE8F040084783060FD593060DD52046FB
:10138000BDE8F84000F0DCBD2046FFF78DFFF8BD5A
:101390002046FFF789FF6564F8BD266B2023012EE8
:1013A0007CD1C6067AD5D60678D5086848680090FC
:1013B00048694FF00206400640D5E16B0868406876
:1013C0000004000CE8D0A28D8242E5D9E08588694E
:1013D00020282DD020680C3050E8001F21F48071A7
:1013E00040E80012002AF5D12068143050E8001FB0
:1013F00021F0010140E80012002AF5D120681430E4
:1014000050E8001F21F0400140E80012002AF5D109
:1014100084F84230256320680C3050E8001F21F02A
:10142000100140E80012002AF5D1E06BFEF7A8FF9A
:101430006663A08DE18D401A81B22AE0A08DE18D16
:10144000401A81B2E08D0028A6D00029A4D02268DD
:101450000C3252E8000F20F4907042E80007002F91
:10146000F5D12068143050E8002F22F0010240E846
:101470000027002FF5D184F84230256320680C3016
:1014800050E8002F22F0100240E80023002BF5D195
:1014900066632046FFF707FFF8BDFFE705062BD57B
:1014A000150629D594F841002128F5D1A068B0F59A
:1014B000805F01D12069B0B1206A411C216221689E
:1014C00000784860E08C401E0004000CE084E3D10A
:1014D0002068C16821F08001C1602068C16841F0C6
:1014E0004001C160D8E7206A0088C0F30800486066
:1014F000206A801C2062E5E74006CDD55006CBD59A
:10150000CA68204622F04002CA6084F8413000F0E8
:10151000CFF8C1E7E31E000870B5040004D094F8CA
:101520004100002510B106E0012070BD84F8405054
:10153000204600F023F8242084F841002068C16888
:1015400021F40051C160204600F05CFD2068016973
:1015500021F4904101612068416921F02A01416133
:101560002068C16841F40051C1606564202084F89E
:10157000410084F842006563002070BD70B586B0FC
:101580000024009401940294039403682E482D4E85
:10159000022103220515B34226D1836943F4804317
:1015A0008361836903F480430493836943F00403F4
:1015B00083618069254E00F0040004900802CDE9A3
:1015C0000001039269463046FEF74AFFCDE9005418
:1015D000694630460294FEF743FF0022114625205B
:1015E000FFF7A0F8252028E0194EB34227D1C369A0
:1015F00043F48023C361C36903F4802304938369A4
:1016000043F0080383618069CDE9005100F00800D0
:10161000CDE903200F4D69462846FEF721FFE81467
:10162000CDE90004694628460294FEF719FF01221D
:1016300000212720FFF776F82720FFF765F806B08E
:1016400070BD000000380140001002400008014059
:1016500000480040000C014090F84230202B01D09F
:101660000220704721B11AB10023036300F026BDA8
:101670000120704710B5044600680949884204D12A
:1016800008480621007800F08FFA07492068884250
:1016900004D1BDE81040054800F00CB810BD0000B2
:1016A00000380140120000200048004026000020C1
:1016B0007047FEE770B51B4C01216278552A02D1B4
:1016C0000378532B06D0A378012B04D000786070E8
:1016D000002070BDA170144D2A700278B4F9040086
:1016E0002A54401C00B2A0800B28F1D10020A07029
:1016F000A18060700A21284600F03EFD2070A97A82
:101700008142E5D1B5F9060000F01EFE05F10B049B
:101710006FF00E0101F013F8044900F061FE606201
:10172000012070BD20000020D802002000003443BA
:1017300070B586B000241848009401940294039474
:10174000816941F020018161816901F020010491EA
:10175000816941F004018161816901F00401049112
:10176000816941F00801816180690C4E00F0080038
:101770004FF470450490002229463046FEF760FF82
:1017800001200095CDE9010402200390694630460E
:10179000FEF766FE06B070BD00100240000C01406E
:1017A00010B58AB0002407941C2168460894FEF7FF
:1017B0000BFD21484FF08041C0E9001440F2CF21D9
:1017C000C0E9024104618461FFF7C7FC08B1FEF77C
:1017D000B0FD079407A918480894FFF757FA08B115
:1017E000FEF7A7FD6020CDE90004029400226946BF
:1017F00011480494FFF74BFC08B1FEF79AFD042250
:1018000069460D48FFF743FC08B1FEF792FD082238
:1018100069460948FFF73BFC08B1FEF78AFD0C2238
:1018200069460548FFF733FC08B1FEF782FD024820
:10183000FFF7FAFB0AB010BD4400002010B58AB0D3
:10184000002407941C2168460894FEF7BDFC1A4842
:101850001849C0E9001440F2CF21C0E902410461F7
:101860008461FFF77AFC08B1FEF763FD079407A9CE
:1018700011480894FFF70AFA08B1FEF75AFD6020F4
:10188000CDE900040294002269460B480494FFF756
:10189000FEFB08B1FEF74DFD042269460648FFF73E
:1018A000F6FB08B1FEF745FD0348FFF7BDFB0AB0A4
:1018B00010BD0000000400408C00002010B586B070
:1018C000002417480094019402940394049413494B
:1018D0000594016041F61F41C0E9011442F20F7105
:1018E000C0E903148461FFF705FA08B1FEF721FD92
:1018F0004FF48050009069460948FFF773FA08B129
:10190000FEF717FD049404A905480594FFF7BEF9F6
:10191000002801D0FEF70DFD06B010BD0008004004
:10192000D40000200C4810B50A4901604FF4E131A1
:101930004160002181600C22C160C0E90412816114
:10194000C161FFF7E9FD002803D0BDE81040FEF7B4
:10195000F0BC10BD003801401C0100200C4810B53F
:101960000A4901604FF4E1314160002181600C229D
:10197000C160C0E904128161C161FFF7CDFD00289B
:1019800003D0BDE81040FEF7D4BC10BD00480040B5
:1019900064010020FEE7000070B51748406A00F0BF
:1019A000B7FC164948801648B0F90050B0F902401B
:1019B000B0F9040000F0C8FC00F0E0F800F0A8FC6A
:1019C00003B20E4822462946801D00F0B5FB0B4CA1
:1019D000A41DB4F90000FEF7AFFCB4F90200FEF755
:1019E000BDFCB4F90400FEF753FCB4F90600BDE8F1
:1019F0007040FEF76FBC0000E302002028000020CA
:101A000018000020FEE7000008B504480090044BD1
:101A1000044A0021044800F095F808BD0000C842BF
:101A20000000C84338000020280300202DE9F047BB
:101A3000040011D0206C60648146E06B2064C4E92E
:101A400006218046104600F0D3FD0546E06320786D
:101A500028B101283BD038E00020BDE8F0872946B6
:101A6000606800F0BDFC60622946A06800F0B8FC28
:101A7000A16A00F0D9FB0646A062606BA063206BF0
:101A800060634146284600F0B3FD01462063E068EC
:101A900000F0A6FCE0623046616900F06DFD60690F
:101AA00008D380F00040A16A00F066FD03D26069AF
:101AB00080F00040A062D4E9090100F0B5FBE16AC2
:101AC00031E0206980F000402062206AC5E741468D
:101AD000284600F08DFD616800F082FC07466062D8
:101AE0002946A06800F07CFC0646A062606BA063FB
:101AF000206B60630121404600F021FE294600F082
:101B00006CFD494600F090FB01462063E06800F060
:101B100067FC0546E0623146384600F085FB294601
:101B200000F082FB216A00F07FFB2062216900F057
:101B300023FD2069C8D380F00040216A00F01CFD1D
:101B4000C3D2BEE710B50028029C16D0002A14D0DC
:101B50000170116841605168816000F10C0C91685E
:101B60008CE81A0000218163416301630162C16254
:101B70008162416241640164C16310BD10B50446D5
:101B80000648B0F9020000F0DFFB01462246044897
:101B9000FFF74CFF0248006A10BD0000280000203B
:101BA000280300207047000070B51B4C05461B4AF7
:101BB0002078002640B1012810D0022818D0032830
:101BC0000BD15A2D23D020E0A52D06D10120207065
:101BD000157060701148401C606070BD60781554CD
:101BE000401CC0B26070401E8842F6D102200AE05C
:101BF00060781554401C6070084800F011F8A84245
:101C000003D12078401C207070BD267070BD6068C4
:101C1000FEF784FBF9E7000010000020AC01002073
:101C200010B503460122002004E09C5C521C2044B5
:101C3000C0B292B28A42F8D910BD7047FEF70CBD0F
:101C400030B58FB028216846FEF7BEFA14210AA8E5
:101C5000FEF7BAFA01210804CDE90010002402942D
:101C600002250491CDE907504FF4E0100990684631
:101C7000FEF766FE08B172B6FEE70F20CDE90A0551
:101C80004FF48060CDE90C4002210AA80E94FEF7C3
:101C90007BFD002801D072B6FEE70FB030BD704763
:101CA0000148FFF70EB90000D4000020F0B502682B
:101CB000164B174C174D4FF08047984205D0B8424D
:101CC00003D0A04201D0A84203D122F070064A6896
:101CD0003243984205D0B84203D0A04201D0A84276
:101CE00003D122F44074CA6822434C6922F0800276
:101CF000224302608A68C2620A688262984201D105
:101D00000969016301214161F0BD0000002C01401F
:101D1000000400400008004010B501F01F0301213D
:101D2000046A99408C430462016A9A40114301623B
:101D300010BD10B5846842EA032224F47F440A43AC
:101D40002243826010BD826822F070020A4342F092
:101D5000070181607047000030B5036A026A22F013
:101D6000010202624268846924F073050C682C4306
:101D700023F002058B682B430A4DA8420BD123F0B8
:101D80000805CB6822F440722B434D6923F004030D
:101D900015438A692A43426084614968416303624A
:101DA00030BD0000002C014030B5026A036A23F008
:101DB00010030362436884690D6824F4E64444EA2E
:101DC00005248D6822F0200242EA05120B4DA8423C
:101DD0000ED1CD6822F0800242EA05124D6923F44B
:101DE000406343EA85038D6922F0400243EA85039C
:101DF0004360846149688163026230BD002C014008
:101E000030B5036A026A22F4807202624268C469D1
:101E100023F4007324F073050C682C438D6843EAA7
:101E200005230C4DA8420ED1CD6823F4006343EA8C
:101E300005234D6922F4405242EA05128D6923F4CC
:101E4000806342EA05124260C4614968C16303626B
:101E500030BD0000002C014030B5046A026A22F453
:101E6000805202624268C3690D6823F4E64343EA84
:101E700005238D6824F4005444EA0534064DA84235
:101E800004D14D6922F4804242EA85124260C36166
:101E900049680164046230BD002C014010B5036A3A
:101EA000046A24F001040462846924F0F00444EA22
:101EB000021423F00A020A438461026210BD10B5C5
:101EC000036A046A24F010040462846923F0A00306
:101ED00024F4704444EA023243EA0111826101624F
:101EE00010BD10B5406A0021C185C184FFF7DCF93F
:101EF00010BD01680C3151E8002F22F4907241E8C6
:101F00000023002BF5D10168143151E8002F22F095
:101F1000010241E80023002BF5D1016B012909D111
:101F200001680C3151E8002F22F0100241E8002333
:101F3000002BF5D1202180F8421000210163704769
:101F400008B590F84210222901D0022008BD82680D
:101F50004FF480539A4201D1016921B1816A9A42BA
:101F60001BD04AB10AE00268816A5268C2F30802D3
:101F70000A80816A891C08E0026972B102685268AD
:101F800002F07F020A70816A491C8162C18D491E7C
:101F90000904090CC18503D01BE002685268F1E70F
:101FA0000168CA6822F02002CA600168CA6822F487
:101FB0008072CA6001684A6922F001024A612021E8
:101FC00080F8421000214163026B012A03D0FFF721
:101FD00051FB002008BD016301680C3151E8002F5E
:101FE00022F0100241E80023002BF5D101680A68B5
:101FF000D20602D50A6849680091818DFFF753F92E
:10200000E7E7000070B5044600680169E26821F462
:102010004051114301612169A06808436169084387
:102020002168CA6841F20C639A430243CA6020687F
:102030004169A26921F44071114341611E49206840
:10204000884202D1FEF746FC01E0FEF733FC00EBCC
:10205000C00101EB0012606864218000B2FBF0F364
:10206000B3FBF1F36FF018067343B2FBF0F5B2FB6C
:10207000F0F605EB8305322303EB0515B5FBF1F50F
:10208000B6FBF1F605F0F00505EB0615B2FBF0F630
:10209000B2FBF0F0B0FBF1F06FF01802504306EB2A
:1020A000800003EB0010B0FBF1F0216800F00F009E
:1020B0002844886070BD000000380140816282853C
:1020C000C28500214164222180F84210016921B1BA
:1020D0000168CA6842F48072CA6001684A6942F0C5
:1020E00001024A610068C16841F02001C16000201E
:1020F0007047000010B50548FFF7D8F8BDE810405C
:10210000012203490148FFF7A7BA00001C01002083
:102110001200002010B50548FFF7C8F8BDE81040D0
:10212000012203490148FFF797BA0000640100202B
:1021300026000020FEE7000030B554180548511A6B
:10214000E51ACA1805804280C91A8180E118C18049
:1021500030BD00002E0000200907090E002804DB16
:1021600000F1E02080F80014704700F00F0000F14B
:10217000E02080F8141D704710B503460022104679
:1021800004E09C5C521C2044C0B212B28A42F8DBCC
:1021900010BD0000FEF768FAFFF752FDFFF7C8FA1E
:1021A000FFF7C0FBFFF7FCFAFFF748FBFFF786FBE2
:1021B000FFF7D4FB012206490648FFF74DFA01223A
:1021C00005490648FFF748FA00F00AF8FEE7000064
:1021D000120000201C0100202600002064010020C5
:1021E0000E48FEF7D3FD00210D48FFF703F8042148
:1021F0000B48FEF7FFFF08210948FEF7FBFF0C2103
:102200000748FEF7F7FF00210648FEF7F3FF042119
:102210000448FEF7EFFFFFF7F7FBFEE7D4000020CE
:10222000440000208C00002090EA010F48BF81F09C
:10223000004100F1E481421A3CBF801A89184FEA3C
:10224000D0524FF07F4C1CEA410FA2EBD15318BF84
:102250009CEA026F00F03B804FF0004C4CEA0020FB
:102260004CEA012121FA03FC10EB0C0C1ED202F106
:10227000FF325FEA1C2040EBC25038BF70471CF0B1
:102280007F0F4FEA400C18BFBCF17F4F38BF70473B
:10229000C3F12003994008BF20F00100BCF17F4F3B
:1022A00038BF7047A0F1C04000F061B94FEA3C0070
:1022B000000A40EBC25028BF1CF0FF0F4FEA400C51
:1022C000E6D018BFBCF17F4F38BF7047EAE79CEA01
:1022D000026F05D010EA5C0F08BF00F000407047A5
:1022E00010B500F0FEF800BF64FBBE3E014800F0F0
:1022F000F4B900BF0000C07F401058BFC0F140409B
:10230000491058BFC1F140418142EFF3008070474E
:1023100041000B0ED3F19E0208D950F400034FEA9E
:10232000032323FA02F048BF4042704710B500F083
:10233000D8F800BF49922480002070476FF0004217
:1023400082EA20007047000010F0004148BF404280
:10235000B0FA80F310FA03F2C3F19D030BD051EAF7
:10236000C35101EB1220530638BF704700F1010042
:1023700008BF20F00100704750EA010C00F1138003
:102380001CF5000F58BFBCF5000F01D48842704700
:1023900007D710F5000F58BF11F5000F15D488426C
:1023A0007047894270471CF5000F04D5BCF5000F3B
:1023B000F7D5814270474FF0807C1CEB400F38BF4F
:1023C0001CEB410F01D28142704710B500F089F833
:1023D000922449004FF000504FF08051FFF78CBF1E
:1023E0004FF47F0C1CEAD0121EBF1CEAD11392EAF4
:1023F0000C0F93EA0C0F00F0478090EA010F48BFE2
:1024000042F480724FF0004C4CEA00204CEA01216B
:1024100002EB0302A0FB0113A2F50002002918BF82
:1024200043F001035B0028BF4FEA330342EB224233
:102430005FEA132C4CEBC2502EBFBCEB436FB2F5DE
:102440007C0F70474FEA036CBCF1004F08BF20F0CF
:102450000100B2F57C0F38BF70470BD582F0FF0248
:1024600012F5803FC8BF704700F1C040D8BF00F0F0
:102470000040704700F5000C5FEA4C0C48BF704705
:10248000B0F1C04000F073B890EA010F0CEAD1132C
:1024900048BF42F48072624538BF634504D280EA87
:1024A000010000F00040704710B500F01AF800BFBE
:1024B0008900013E00F007B800F009B85FEA410C5E
:1024C0005FEA1C6C08D080EA010000F050B85FEAB7
:1024D000400C5FEA1C6CF6D14FF00040A0F5800084
:1024E00070470EF1020E2EF0030E5EF8044B2442EC
:1024F00004D44FEA4102B2F17F4F11D84FEA4003B2
:10250000B3F17F4F0CD80ED14FEAD07CB2F17F4FA0
:102510000CEB4C0C0CF1020C08BF4CEBD17C04E032
:102520004FF0080C01E04FEAD17C0CEB4C0324FA8D
:1025300003F404F00704B4F1040C06D20EEB840C8F
:10254000BDE810404CF0010C6047DFE80CF00708D4
:1025500002024FF00040A0F5800010BD0846420086
:1025600018BFD2F1807288BF00F0004010BDFF217B
:1025700041EAD050C005704751EA000C00F11380C9
:102580001CF5000F58BFBCF5000F01D48142704705
:1025900007D711F5000F58BF10F5000F15D4814271
:1025A0007047894270471CF5000F04D5BCF5000F39
:1025B000F7D5884270474FF0807C1CEB410F38BF45
:1025C0001CEB400F01D28842704780EA010081EA8B
:1025D000000180EA0100FFF7F8BE80F0004090EAB9
:1025E000010F7FF528AE81F0004100F008B800002F
:1025F00090EA010F48BF81F000413FF51CAE421A3E
:1026000004D882F00042A0EB020011444FEAD052FD
:102610004FF07F4C1CEA410FA2EBD15318BF9CEA4C
:10262000026F4AD04FF0004C4CEA00204CEA0121E6
:1026300021FA03FCB0EB0C0C0FD412F0FE0F36D0D5
:102640005FEA4C001DD5001240EBC25038BF704706
:102650001CF03F0F18BF70470BE0A2F101025FEAC8
:102660001C2040EBC25038BF70471CF07F0F18BFD2
:102670007047C3F12003994014BF401E20F00100B1
:10268000704780084FEA122308BF7047B0FA80FCF9
:10269000A2EB0C02CCF1280C60FA0CF093EA122F9A
:1026A00004BF00EBC25070474FEAC3707047130A73
:1026B0005FEADC1008BF7047F6E79CEA026F04D0BF
:1026C00010EA5C0F08BF0020704710B5FFF709FF44
:1026D00040DFF63E81F0004070470CF00F03092BFD
:1026E00008BF082000F051800A2B0BD0082B18BF20
:1026F000704708BF1CF0400F0AD04FF000004FF0A9
:10270000000170471CF0400F18BF4FF000407047A9
:102710001CF0100F08D020F0704300F07F4242EA16
:10272000D3014FEA4370704700F0604021F07F42D0
:1027300042EA000201F07F4040EA727070474FF0B9
:10274000FF0212EAD0521CBF92F0FF038B42C2BFBD
:10275000D14200EBC1507047002A0AD0002B0BD0A9
:10276000002900F00040A4BF40F0FE4040F400000B
:10277000704700F00040704743024FF00B0C18BF49
:102780004CF0806C7FF4B2AD70471CF4801F11D008
:102790001CF4E02F03D06FEACC31490070474FF0B2
:1027A0004050EFF3008222F0704242EA000282F3CE
:1027B000008870474FF000007047010202030405D3
:1027C000060708090A0B0C0D0E0F10100000000080
:1027D00000000000010203040607080900000000D1
:1027E0000102030404280008000000204400000047
:1027F0002801000848280008440000208C09000037
:10280000440100080100000010000000000000006A
:102810000024F400000000000000000000000000A0
:1028200000000000000000000100000000000000A7
:102830000000000000000000000000000000A040B8
:08284000CDCC4C3D000000006E
:04000005080000ED02
:00000001FF
