:020000040800F2
:100000002852002055020008F52A0008612800083F
:10001000F12A00086D0400084D37000800000000B8
:10002000000000000000000000000000D1320008C5
:100030007D0400080000000041310008FD32000886
:100040006F0200086F0200086F0200086F020008CC
:100050006F0200086F0200086F0200086F020008BC
:100060006F0200086F0200086F0200086F020008AC
:100070006F0200086F0200086F0200086F0200089C
:100080006F0200086F0200086F0200086F0200088C
:10009000710400086F0200086F0200086F02000878
:1000A0006F0200086F0200086F0200086F0200086C
:1000B0006F0200086F0200086F0200086F0200085C
:1000C0006F0200086F0200086F0200086F0200084C
:1000D0006F0200086F0200086F0200086F0200083C
:1000E0006F0200086F0200086F0200086F0200082C
:1000F0006F0200086F0200086F0200086F0200081C
:100100006F0200086F0200086F0200086F0200080B
:100110002D3500086F0200086F020008D533000873
:100120006F0200086F0200086F0200086F020008EB
:100130006F0200086F0200086F0200086F020008DB
:100140006F0200086F0200086F0200086F020008CB
:100150006F0200086F0200086F0200086F020008BB
:100160006F0200086F0200086F0200086F020008AB
:100170006F0200086F0200086F0200080000000014
:100180006F0200086F02000800F002F800F052F859
:1001900014A696E8000CB244B344DA4501D100F04D
:1001A00049F8BAE80F000FA696E83000A5EB040561
:1001B00004EB0607AAEB0704A7F101074FEA1515A0
:1001C0004FEA3414A4F10104AC4201D300F032F838
:1001D00013F0010F18BFFB1A43F0010300F001F800
:1001E000DBE718472C6400004C640000103A24BF81
:1001F00078C878C1FAD8520724BF30C830C144BF8C
:1002000004680C6070470000704700000023002461
:1002100000250026103A28BF78C1FBD8520728BF16
:1002200030C148BF0B6070471FB506F076F91FBD9F
:1002300010B510BD00F0E4F81146FFF7F5FF04F02B
:100240008BF900F002F903B4FFF7F2FF03BC00F0F2
:1002500005F900000948804709480047FEE7FEE726
:10026000FEE7FEE7FEE7FEE7FEE7FEE7FEE7FEE766
:1002700004480549054A064B70470000C133000891
:1002800089010008284C002028520020284E002018
:10029000284E002053EA020C00F069802DE9F04B53
:1002A0004FF00006002B1FBFB3FA83F503FA05F4E5
:1002B00024FA05F65E4012BF1643B2FA82F502FA3E
:1002C00005F4C5F120051EBF22FA05FC44EA0C0422
:1002D000203556EA044C4FEA144418BF641C4FF012
:1002E00000084FF00009904271EB030C39D300294C
:1002F00019BFB1FA81F701FA07F6B0FA80F700FAF0
:1003000007F6C7F120071EBF20FA07FC46EA0C06D5
:100310002037B6FBF4FCA7EB0507103F07F01F0BD7
:10032000CBF120062CFA06F60CFA0BFB44BFB346C1
:100330000026202FA4BF5E464FF0000B5BEA060CA0
:1003400008BF4FF0010B19EB0B0948EB0608ABFB9C
:10035000027C06FB02CC0BFB03CCC01B71EB0C0137
:10036000C1E70B46024641464846BDE8F08B13B54F
:10037000084318BF4FF0FF300146AFF30080BDE8DF
:100380001C4070474FF0000200B513469446964655
:10039000203922BFA0E80C50A0E80C50B1F1200198
:1003A000BFF4F7AF090728BFA0E80C5048BF0CC046
:1003B0005DF804EB890028BF40F8042B08BF7047A4
:1003C00048BF20F8022B11F0804F18BF00F8012B16
:1003D000704770477047704710B500F009F8006823
:1003E00010BD10B5044600F003F8046010BD000015
:1003F000004870475000002000487047500000201F
:100400007546FFF7F9FFAE4605006946534620F0F2
:100410000700854618B020B5FFF72AFFBDE8204049
:100420004FF000064FF000074FF000084FF0000BB0
:10043000AC46ACE8C009ACE8C009ACE8C009ACE81F
:10044000C00921F007018D46704710B50446AFF38F
:1004500000802046BDE81040FFF7F5BE0149182096
:10046000ABBEFEE72600020070470000FEE700007A
:1004700040F25450C2F2000000F07AB97047000018
:1004800072B600BFFEE7000090F82020013A012A72
:1004900008D8006800F114020020136819431160A5
:1004A000704700BF00F1240201204FF4802113683F
:1004B000194311607047000010B590F820E0D0F8A3
:1004C00000C0AEF1010EBEF1010FDCF808E011D85A
:1004D0001EF0E05F18D0CEF3016E012000FA0EF09E
:1004E00018608B68D3B14868CC6844EAC000034305
:1004F00018E000BF00F1240101204FF480220B68B6
:100500001A430A6010BD00BF00F1240101204FF41E
:1005100000120B681A430A6010BD00BF0868CB6860
:1005200043EA40530CEB0E10C0F880310B69C0F861
:100530008431097D012905D100F5C2710B6843F4AE
:1005400080730B605168C0F88C11126800F5C0719F
:10055000C0F88821002001220B681A430A6010BDF0
:1005600090F82020013A012A30D8B0B546F2006058
:10057000C4F20000026842F001020260026822F444
:100580007C520260D1F814E0CC694A6A0368012CFD
:1005900043EA022202600EF01F024FF0010303FA49
:1005A00002F2C3696FEA020C23EA0203C36113D0AB
:1005B0002CBBC36803EA0C03C360CB688C8844EA95
:1005C000034300EBCE0423640B4611E0416A41F47F
:1005D0008021416201207047C3681343C3600B68E8
:1005E0008C8844EA034300EBCE04236401F10C033E
:1005F0008C681B8843EA044300EBCE0463644368C1
:100600008D6943EA0204D1F810E0096A002D08BFA1
:1006100003EA0C0444604369BEF1000F43EA02049C
:1006200008BF03EA0C040129446102D1C1691143E6
:10063000C161016821F0010101600020B0BD00002E
:100640007047000010B590F82040013C012C7BD889
:10065000D0F800C000290CBFDCF80C40DCF81040DA
:10066000A4077BD00CEB011CDCF8B0410CF5D87E64
:1006700014F004049460DCF8B04119BFE40854603D
:10068000640D1460DEF800400CF5DA7E04F002041C
:10069000D460DCF8B44124075ABFDEF8004004F00F
:1006A0000F0408241461DEF800400029C4F3072475
:1006B0009461DEF800404FEA14445461DCF8B8213C
:1006C0001A70026802EB0112D2F8B8214FEA122226
:1006D0005A70026802EB0112D2F8B8214FEA1242B6
:1006E0009A70026802EB0112D2F8B8214FEA126246
:1006F000DA70026802EB0112D2F8BC211A710268AA
:1007000002EB0112D2F8BC214FEA12225A710268A0
:1007100002EB0112D2F8BC214FEA12429A71026830
:1007200002EB0112D2F8BC214FEA1262DA710068C2
:100730000CBF00F10C0100F11001002020220B6819
:100740001A430A6010BD00BF00F1240101204FF4DC
:1007500080220B681A430A6010BD00BF00F124011B
:1007600001204FF400120B681A430A6010BD00000C
:100770002DE9F04F81B0044600684669D0F8049036
:100780008768D0F80CB0D0F810A0D0F81880F10726
:1007900004D1002530071DD424E000BFF90710D094
:1007A0000121BA07816009D4780700F1AF803807CA
:1007B00000F1B680204600F09DFA02E0204600F0ED
:1007C0009BFA0025F80500F18780F80300F1B1805D
:1007D000300707D51BF0100004D0206845F40075E1
:1007E0001021C160700708D51BF0080005D02068F3
:1007F0000821C160204600F0A3F9B00706D52068A3
:10080000C068800702D0204600F09CF9700607D52A
:100810001AF0100004D0206845F4806510210161B1
:10082000B00608D51AF0080005D02068082101613B
:10083000204600F02BFAF00606D5206800698007F4
:1008400002D0204600F024FAB00308D519F01000B9
:1008500005D0206810214160204600F01BFAF0030B
:1008600008D519F0080005D020680821416020460D
:1008700000F04CFA300440F19B805FEA497040F18F
:10088000948006F4807008EA102028435FEA88719B
:10089000014648BF41F00201B20558BF01465FEA78
:1008A00048700D4648BF45F00405700558BF0D4619
:1008B000300540F17A8018F0700000F07680103832
:1008C000000905286CD8DFE800F003595D6165690F
:1008D00045F0080564E000BF20684FF48071BA0558
:1008E00081600BD4780515D438051DD4204600F05E
:1008F00005FAF8037FF56CAF1BE000BF204600F05F
:10090000FFF9F8037FF564AF13E000BF4FF4006513
:1009100058E700BF05F50055F8037FF559AF08E02B
:100920004FF480554EE700BF05F58045F8037FF58D
:100930004FAF20684FF48031BA0381600AD4780346
:1009400010D4380314D4204600F0DCF930073FF50A
:1009500041AF47E7204600F0D7F930073FF53AAFFF
:1009600040E700BF05F5004530073FF533AF39E7F5
:1009700005F5803530073FF52DAF33E745F010051D
:100980000EE000BF45F020050AE000BF45F040053D
:1009900006E000BF45F0800502E000BF45F4807529
:1009A0002068816921F07001816120680421416023
:1009B00055B1606A40EA05012046616201B0BDE8B8
:1009C000F04FFFF73DBE00BF01B0BDE8F08F000063
:1009D000002804BF01207047B0B5044690F82000FD
:1009E00010B9204600F06EF82068016841F001015E
:1009F000016000F0E3FB054620684168C90705D1A6
:100A000000F0DCFB401B0B28F6D310E0016821F05E
:100A10000201016000F0D2FB054600BF206841687A
:100A200089070DD500F0CAFB401B0B28F6D3606A7E
:100A3000052140F400306062012084F82010B0BD30
:100A4000217E0268012922F0800208BF8032026004
:100A5000617E0268012922F0400208BF4032026034
:100A6000A17E0268012922F0200208BF2032026024
:100A7000E17E0268012922F0100218BF10320260E4
:100A8000217F0268012922F0080208BF08320260B3
:100A9000617F0268012922F0040208BF043202606B
:100AA000D4E901C2D4E9033561691A432A431143E9
:100AB000ACF101021143C16100200121606284F8A0
:100AC0002010B0BD016846F20040C4F2000081422F
:100AD00018BF704780B586B0002143F630020191FF
:100AE000C4F20202136900F5CE3043F000731361C3
:100AF000136903F000730193019B0191136843F0A4
:100B000001031360126802F001020192019A4FF48E
:100B1000C05201920222CDE9022103210491092150
:100B2000059101A900F074FA14200521002200F0BB
:100B3000CDFB142000F0B8FB06B0BDE88040704744
:100B400070470000016846F20042C4F20002914280
:100B500018BF7047F0B589B002AA6B460021FFF7B5
:100B600071FD0298A0F2012103291FD80138C0B2FB
:100B700040F2343CC0EBC002C2F2000C0CEB82002D
:100B800081694B1C3229836138D8BDF80010BDF84B
:100B90000230BDF8044009BA090C9DF806E01BBA02
:100BA00024BA81821B0C240C0D464EE0A0F20521D4
:100BB00006291FD8FB30BDF80010C0B240F2343215
:100BC000C0EBC000C2F2000209BA02EB8000BDF81F
:100BD0000220090CA0F8C01111BABDF80420090CBC
:100BE000A0F8C21111BA9DF80620090CA0F8C41192
:100BF00080F8C62109B0BDE8F0407047BDF800108C
:100C00003CF92240BDF80230BDF804700DBA1BBAA1
:100C10003EBA9DF806E0C4EB1547290C1B0CB7F54E
:100C2000805F4FEA164403DD05696E1E066107E02A
:100C3000054655F8106F17F5805FBCBF01362E6072
:100C4000858A01EB4636761BC6602CF822100AB264
:100C50008F1AB7F5805F01814380848080F806E0B9
:100C600004DD0269013A026108E000BF034653F85F
:100C7000102F17F5805FBCBF01321A6001EB4231C3
:100C8000491BC16009B0BDE8F040704770470000E3
:100C90007047000070470000B0B5044690F820008F
:100CA00001281DD1022084F820002068016821F06D
:100CB0000101016000F082FA054600BF206840682B
:100CC000C00713D000F07AFA401B0B28F6D3606AF5
:100CD00040F400306062052084F820000120B0BD9F
:100CE000606A40F4002060620120B0BD00206062B4
:100CF000B0BD000070470000704700007047000062
:100D00007047000070470000704700007047000007
:100D100070B5866D044600F051FA94F8351002293A
:100D200028D105462068216C026822F01602026074
:100D3000426922F08002426109B9A16C19B10168CF
:100D400021F008010160016821F00101016000BF8C
:100D500020680068C00715D000F030FA401B062854
:100D6000F6D320206065032084F83500002184F844
:100D7000341070BD802060650120002184F834109B
:100D800070BD00BFE06D3F2101FA00F0B0600120AE
:100D900084F835000020002184F8341070BD000074
:100DA00090F83510022909D1052180F83510006826
:100DB000016821F001010160002070478021416538
:100DC000012070472DE9F04182B247F65D1353438D
:100DD0001B0E4FF407774EF2180103FB170840F281
:100DE000002CCEF20001B2F5077FC2F2000C51D305
:100DF000DCF8000043F66052C0F20802424313F0F0
:100E00000304A3F1010E42D051F8045C08680026E7
:100E100008E000BF0644F61B874228BF2E449642D6
:100E200038460DD20F688742F4D10F688742F1D15E
:100E30000F688742EED10F688742F3D0EAE700BF20
:100E4000012C05D1013BBEF1030F71D222E000BF9E
:100E500051F8045C0F68002608E000BF3E44361AD3
:100E6000B84228BF2E44964207460DD20868B842C1
:100E7000F4D10868B842F1D10868B842EED10868E8
:100E8000B842F3D0EAE700BF022C2DD1023BBEF1FD
:100E9000030F4DD25FEA084008BFBDE8F08151F86A
:100EA000042CDCF800001FFA88F358434FF47A73DF
:100EB0000E685843002307E03344DB1BB74228BFCA
:100EC000134483423E460DD20F68B742F4D10F68F7
:100ED000B742F1D10F68B742EED10F68B742F3D0F5
:100EE000EAE700BFBDE8F08151F8044C0E68002528
:100EF00008E000BF35442D1AB04228BF2544954272
:100F000006460DD20868B042F4D10868B042F1D16B
:100F10000868B042EED10868B042F3D0EAE700BFFB
:100F2000033BBEF1030F03D2B4E700BF043BB1D0D3
:100F300051F8045C0F68002608E000BF3E44361AF2
:100F4000B84228BF2E44964207460DD20868B842E0
:100F5000F4D10868B842F1D10868B842EED1086807
:100F6000B842F3D0EAE700BF51F8045C0F680026EE
:100F700008E000BF3E44361AB84228BF2E449642CD
:100F800007460DD20868B842F4D10868B842F1D1DA
:100F90000868B842EED10868B842F3D0EAE700BF6B
:100FA00051F8045C0F68002608E000BF3E44361A82
:100FB000B84228BF2E44964207460DD20868B84270
:100FC000F4D10868B842F1D10868B842EED1086897
:100FD000B842F3D0EAE700BF51F8045C0F6800267E
:100FE00008E000BF3E44361AB84228BF2E4496425D
:100FF00007469BD20868B842F4D10868B842F1D1DC
:101000000868B842EED10868B842F3D0EAE70000B9
:101010002DE9F04F82B000F13E4707F1FF778605DA
:1010200046EA972741F60046C4F20206082243F634
:10103000004EB04208BF0722C4F2010E072F38BF8E
:101040003A46002600274FF00008009209E000BF52
:1010500008F101080237B8F1100F06F1040600F09C
:10106000A3800D68012202FA08F415EA0409EFD002
:10107000D1F804B003220BF0030CACF10105BA4027
:10108000012D6FEA020A0FD88268CD6802EA0A02CF
:10109000BD402A4382604268A243CBF3001404FAA5
:1010A00008F42243426005E0BCF1030F02D14FF087
:1010B000030C1EE0C2688C6802EA0A02BC402243AC
:1010C000BCF1020FC26014D16FF0030202EA5802B1
:1010D0000244D2F820C006F01C040F230D69A3407F
:1010E0002CEA0303A5402B431362D1F804B00BF0A4
:1010F000030C02680CFA07F302EA0A021A431BF413
:10110000403F0260A4D0002243F644030192C4F29F
:1011100002031A684FF6084C42F480421A601A68BB
:10112000CFF6FF7C02F480420192019A28F003027C
:10113000724452F80C3006F00C050F24AC40A34367
:10114000009C04FA05F52B4342F80C30DEF8082029
:101150004B6842EA090543F60C4CDC0258BF22EA10
:101160000905CEF80850C4F2010CDCF800209C02FE
:1011700042EA090558BF22EA0905CCF80050DEF81A
:1011800004209C0342EA090558BF22EA0905CEF86B
:101190000450DEF80020DB0342EA090558BF22EACA
:1011A0000905CEF8005053E702B0BDE8F08F00000B
:1011B000002A08BF090481617047000044F6D0107E
:1011C000C2F200000068704740F2000044F6D011FF
:1011D000C2F20000C2F2000100780A681044086000
:1011E0007047000080B543F60040C4F20200016879
:1011F00041F400710160016841F48061016001689F
:1012000041F480710160032000F08CF80F2000F0A1
:1012100005F800F027F8002080BD000070B540F20E
:101220000006C2F2000640F244013278C2F2000128
:101230004FF47A730968B3FBF2F20446B1FBF2F1A2
:10124000084600F0ABFD0F2C4FF0010508D838B967
:101250004FF0FF3021460022002500F037F874607F
:10126000284670BD82B0002043F640010190C4F2D0
:1012700002014A6842F480424A604A6802F48042AD
:101280000192019A00900868002240F080500860A6
:1012900008680F2100F08050009000986FF0010066
:1012A00002B000F013B80000002848BF704700F0FB
:1012B0001F01012202FA01F11C2202EAD0004EF2C3
:1012C0000012CEF2000281507047000010B54EF6B9
:1012D0000C5CCEF2000CDCF80030C3F3022E8EF072
:1012E0000704042C28BF0424BEF103034FF0FF3E83
:1012F0000EFA04F438BF0023A14399400EFA03F319
:101300009A43114300F00F0200F160430901043ACF
:1013100003F564436244002848BF02F10C031970CE
:1013200010BD00004EF60C51CEF200010A684FF6D7
:10133000FF031A4060F30A2242F0806040F0FD7023
:1013400008607047002804BF012070472DE9F04174
:1013500043F60808C4F202080446D8F8F8030D461C
:1013600000F00700884207D288F8F853D8F8F8034D
:1013700000F00700A84277D12068810717D5410700
:1013800005D5D8F8001041F4E051C8F80010010765
:1013900005D5D8F8001041F46041C8F80010D8F81D
:1013A0000010A26821F0F0011143C8F80010C00736
:1013B00040D1D8F8F80300F00700A84207D988F810
:1013C000F853D8F8F80300F00700A8424CD1206881
:1013D000410707D5D8F80010E26821F4E051114325
:1013E000C8F80010000708D5D8F80000216920F4DB
:1013F000604040EAC100C8F8000000F07DF8D8F86D
:10140000001046F2E052C1F30311C0F60002515C35
:1014100040F2440220FA01F140F20400C2F200005E
:101420000068C2F200021160FFF7F8FE0020BDE87C
:10143000F08100BF6068811E022907D258F8081C9D
:1014400089015CBF0120BDE8F08111E0012807D1CE
:1014500058F8081C89035CBF0120BDE8F08107E053
:1014600058F8081C890703D40120BDE8F08100BFAB
:10147000D8F8001021F003010843C8F80000FFF776
:101480009DFE064641F28837D8F80000616800F0FA
:101490000C00B0EB810F8CD0FFF790FE801BB842A0
:1014A000F2D90320BDE8F08140F2440043F6080180
:1014B000C2F20000C4F202010068096846F2F0526C
:1014C000C1F38221C0F60002515CC84070470000A1
:1014D00040F2440043F60801C2F20000C4F20201E7
:1014E0000068096846F2F052C1F34231C0F60002CA
:1014F000515CC8407047000010B543F60404C4F2C4
:101500000204606800F00C0008280BD0042819BF02
:1015100042F20040C0F2F40047F64000C0F27D10F5
:1015200010BD00BF206821682368490247F64001CA
:10153000C0F27D1100F03F02C3F388105CBF42F29D
:101540000041C0F2F401A1FB00010023FEF7A2FE5E
:1015500021680222C1F3014102EB4101B0FBF1F02D
:1015600010BD0000002804BF012070472DE9F041A4
:1015700082B00446007843F60006C007C4F20206B3
:101580000CD0B06800F00C00042840F08180306876
:10159000800303D56068002800F06A812078800706
:1015A0001BD5B06810F00C0F09D0B06800F00C002B
:1015B000082840F087807068400200F1838030681E
:1015C000800703D5E068012840F052813068216926
:1015D00020F0F80040EAC10030602078000713D402
:1015E000207840072AD4A569002D00F03C81B0681E
:1015F00000F00C00082840F0A180012D40F010817F
:10160000012002B0BDE8F0816069002840F20000CE
:10161000C4F2472000F07E800121C0F8801EFFF751
:10162000CDFD0546706F8007DAD4FFF7C7FD401B7C
:101630000228F7D9032002B0BDE8F081306C5FEAE0
:10164000C0080AD400200190306C40F08050306413
:10165000306C00F080500190019847F20007C4F20E
:1016600000073868C00547D4386840F48070386097
:10167000FFF7A4FD054600BF3868C0053CD4FFF75E
:101680009DFD401B0228F7D9032002B0BDE8F08180
:10169000B06800F00C00082803D1706840023FF5E4
:1016A00076AF6068B0F5803F07D0B0F5A02F40F06E
:1016B0009B80306840F480203060306840F4803097
:1016C00030609BE0E06800285CD00020C4F2472036
:1016D00001210160FFF772FD054600BF30688007F9
:1016E0003FF574AFFFF76AFD401B0228F6D90320CF
:1016F00002B0BDE8F08100BFA068012805D0052830
:1017000054D1306F40F004003067306F40F001007A
:10171000306755E00021C0F8801EFFF74FFD0546F9
:10172000706F80077FF55CAFFFF748FD401B022814
:10173000F6D9032002B0BDE8F08100BF0027C4F253
:10174000472700203866FFF739FD022D05460DD1E9
:101750003068800140F19080FFF730FD401B022887
:101760004FF00300F4D902B0BDE8F0813068800189
:1017700079D5FFF723FD401B02284FF00300F5D970
:10178000F1E700BF0020C4F2472000210160FFF70D
:1017900015FD0546306880077FF51FAFFFF70EFD8A
:1017A000401B02284FF00300F4D9DCE7316F00281A
:1017B00021F001013167316F21F0040131677DD0E3
:1017C000FFF7FCFC054641F2883700BF306F800709
:1017D00000F18680FFF7F2FC401BB842F6D90320E7
:1017E00002B0BDE8F08100BF3168002821F48031EB
:1017F0003160316821F4802131607BD0FFF7DEFC5D
:10180000054600BF306880033FF5C8AEFFF7D6FC41
:10181000401B6428F6D9032002B0BDE8F08100BF68
:101820007068E16900F480028A4221D1216A00F0E7
:101830003F028A421CD147F6C071626A0140B1EB97
:10184000821F15D1A16A4FF6FF73C903994300F4B3
:101850004032A1F580318A420AD1E16A00F070601D
:10186000B0EB016F04D1002002B0BDE8F08100BFF1
:10187000012002B0BDE8F08104F11C052FCD084322
:1018800040EA8210D9034FF6FF729143A1F58031EF
:1018900040EA05600843706001203866FFF78EFC5F
:1018A000044600BF30688001DDD4FFF787FC001BD1
:1018B00002284FF00300F5D955E700BFFFF77EFC83
:1018C000054641F2883700BF306F800708D5FFF723
:1018D00075FC401BB8424FF00300F5D943E700BF49
:1018E000B8F1000F3FF57FAE306C20F080503064CF
:1018F00079E600BFFFF762FC054600BF3068800351
:101900007FF54CAEFFF75AFC401B64284FF00300F4
:10191000F4D928E770B538B10446406A30B10020E8
:10192000206104F1140007E0012070BD6068B0F58B
:10193000827F03D004F11C00002101600026A66212
:1019400094F8510020B9204684F8506000F03CF82B
:10195000022084F8510094E80F0001F482710568B8
:1019600002F4044225F040050560114403F40062CE
:101970002369114403F002026369114403F0010278
:10198000A369E569114403F40072114405F03802BB
:10199000256A114405F08002A56A114305F400523E
:1019A00011430160626A042101EA134102F010024E
:1019B00011444160C16921F40061C1610120666583
:1019C00084F85100304670BD016843F20000C4F253
:1019D0000100814218BF704780B586B0002143F6F0
:1019E00030020191C4F20202536900F5504043F401
:1019F00080535361536903F480530193019B019118
:101A0000136843F001031360126802F001020192AF
:101A1000019AE02201920222CDE9022103210491E0
:101A20000521059101A9FFF7F3FA06B0BDE8804052
:101A3000704700002DE9F04383B01E4615460F465F
:101A40000446FFF7BBFB94F851108146012909D1E8
:101A5000002F4FF0010018BF002D0FD103B0BDE8DB
:101A6000F08300BF6068B0F5827F0DD104294FF08C
:101A70000200F3D1A1680029EAD0EFE7002EEDD0F3
:101A800094F85000012803D1022003B0BDE8F08390
:101A9000012084F8500094F85100002104281CBF54
:101AA000052084F851006165A563E687A687276352
:101AB000E6862068A686216461640168490603D42D
:101AC000016841F0400101606168731EE268B1FA8B
:101AD00081F1B3FA83F3DDF8288049095B09B2F597
:101AE000006F41EA030165D131B137F8021BC160D3
:101AF0002763E08E0138E086012518F1010032D11C
:101B000002E000BFFFF75AFBE08E18B9E08F002813
:101B100000F0B8802068816889070CD5E18E51B14A
:101B2000012D08D1216B002531F8022BC260216301
:101B3000E18E0139E1868168C907E3D0E18F002990
:101B4000E0D0C068A16B012521F8020BA163E08FF2
:101B50000138E087D6E700BFFFF730FBA0EB0900B4
:101B6000404580F0A580E08E18B9E08F002800F095
:101B700089802068816889070CD5E18E51B1012DDB
:101B800008D1216B002531F8022BC2602163E18E60
:101B90000139E1868168C907DED0E18F0029DBD0F9
:101BA000C068A16B012521F8020BA163E08F013809
:101BB000E087D1E739B139780173206B01302063B8
:101BC000E08E0138E086012518F1010032D101E0F4
:101BD000FFF7F4FAE08E10B9E08F002852D02068A9
:101BE000816889070ED5E18E61B1012D0AD1216B83
:101BF000002509780173216B206801312163E18E92
:101C00000139E1868168C907E2D0E18F0029DFD080
:101C1000C068A16B01250870A06B0130A063E08F44
:101C20000138E087D4E700BFFFF7C8FAA0EB09004E
:101C300040453DD2E08E08B9E08F18B32068816836
:101C400089070ED5E18E61B1012D0AD1216B0025E6
:101C500009780173216B206801312163E18E01391C
:101C6000E1868168C907DFD0E18F0029DCD0C06838
:101C7000A16B01250870A06B0130A063E08F0138D3
:101C8000E087D1E72046022101224346CDF80090AB
:101C900001F088FAB0B1606D40F02000606520204E
:101CA0006065002084F85000012003B0BDE8F08397
:101CB000012084F85100002084F85000032003B074
:101CC000BDE8F08340F24400C2F20000006849F62B
:101CD0008171C1F25E61A0FB0101480D4FF47A7180
:101CE000484302906068B0F5827F21D12046802170
:101CF00000224346CDF8009001F054FA0028CAD1E2
:101D0000A06838B9002001902068C16801918068FE
:101D100001900198012084F85100002084F85000BF
:101D2000606D002818BF012003B0BDE8F08300BF3C
:101D300002980028E4D00298013802902068806858
:101D40000006DDD502980028DAD00298013802900A
:101D5000206880680006D3D502980028D0D0029869
:101D600001380290206880680006C9D502980028D2
:101D7000C6D0029801380290206880680006D7D447
:101D8000BEE700004EF21001CEF200010A680428FE
:101D900022F0040208BF04320A607047411E00208E
:101DA000B0EB116F1CBF012070474EF21002CEF253
:101DB000000251604EF62351CEF20001F0230B7069
:101DC0000721906011607047704700007047000065
:101DD00090F83C20012A4FF0020254D010B580F850
:101DE0003D200268D2F804E0D2F808C00C682EF05A
:101DF0007003234341F2FF74C4F20004A242536013
:101E00000EDC40F2FF73C4F200039A4216DCB2F11A
:101E1000804F2BD040F20043C4F2000324E000BF07
:101E200040F2FF33C4F201039A4213DC41F600038F
:101E3000C4F200039A4219D0002313E040F60003D5
:101E4000C4F200039A4211D040F60043C4F20003EA
:101E50000AE000BF44F20003C4F201039A4205D035
:101E600040F20043C4F201039A4204D149682CF0C5
:101E70008003194391600121002280F83D1080F811
:101E80003C20BDE81040104670470000002804BF09
:101E90000120704710B5044690F83D0028B9002095
:101EA00084F83C00204600F01FF8022084F83D0032
:101EB0002068211D01F094FA012084F8460084F87E
:101EC0003E0084F83F0084F8400084F8410084F824
:101ED000420084F8430084F8440084F8450084F804
:101EE0003D00002010BD0000006841F20041C4F236
:101EF0000001884218BF704780B582B00020019071
:101F000043F64000C4F202000168002241F02001C3
:101F100001600068052100F0200001900198372041
:101F2000FFF7D4F9372002B0BDE88040FFF7BCB915
:101F300090F83D1001291CBF01207047022180F854
:101F40003D10006841F2FF72C168C4F20002904285
:101F500041F00101C1600DDC40F2FF71C4F20001EB
:101F6000884215DCB0F1804F2AD040F20041C4F223
:101F7000000123E040F2FF31C4F20101884213DC8A
:101F800041F60001C4F20001884219D0002113E09B
:101F900040F60001C4F20001884211D040F6004131
:101FA000C4F200010AE000BF44F20001C4F20101E2
:101FB000884205D040F20041C4F20101884206D1B6
:101FC000816801F00701062904BF002070470168FD
:101FD00041F00101016000207047000070470000DF
:101FE00070B504460068C5680669B10716D515F0D6
:101FF000020113D06FF00201016101212177806994
:10200000800703D02046FFF7E9FF05E0204600F0F7
:102010008FF8204600F08EF800202077700719D541
:1020200015F0040016D020686FF004010161022150
:102030002177806910F4407F04D02046FFF7CEFF5F
:1020400006E000BF204600F073F8204600F072F86A
:1020500000202077300717D515F0080014D020682D
:102060006FF00801016104212177C069800703D066
:102070002046FFF7B3FF05E0204600F059F8204660
:1020800000F058F800202077F00619D515F0100060
:1020900016D020686FF01001016108212177C06916
:1020A00010F4407F04D02046FFF798FF06E000BF01
:1020B000204600F03DF8204600F03CF80020207754
:1020C000F00718BF15F0010002D1300609D412E064
:1020D00020686FF001010161204600F02DF8300604
:1020E00009D515F0800006D020686FF080010161ED
:1020F0002046FFF769FE700609D515F0400006D0AE
:1021000020686FF040010161204600F041F8B00600
:1021100058BF70BD15F0200008D021686FF0200274
:1021200020460A61BDE87040FFF750BE70BD000058
:102130007047000070470000006841F20041C4F29F
:102140000001884218BF704710B540F6BA50C2F27D
:102150000000B0F90E20B0F90C10B0F9100001EE3B
:10216000102A40F6B05400EE101AF8EEC10A01EE43
:10217000100AC2F20004B8EEC00AB8EEC11A204636
:1021800002F002F82046BDE8104001F013BF000045
:10219000704700007047000070470000B0B582B083
:1021A000044600680168C368426901F02F05202DCC
:1021B00003F0200506D12DB1204602B0BDE8B040A5
:1021C00001F0CCB95FEA017C1EBF02F0010E03F4FE
:1021D000907212EB0E0243D1226BCD0618D5012A64
:1021E00016D113F0100213D0002101910168019162
:1021F000416801910199406940063BD4A08DE18D71
:10220000E28D002A18BF884240F0F28102B0B0BDD2
:102210000A0640F1E78013F0800200F0E38094F8B2
:1022200041102129F2D1A168B1F5805F03D1216964
:10223000002900F06382216A4A1C22620978416009
:10224000E18C01390A04E184E0D1C16821F0800108
:10225000C160C16841F04001C16002B0B0BD00BFC3
:10226000CA0718BF13F4807240F0D0804A0700F10B
:10227000D380D8E0E06B016849688AB2002AC5D0F3
:10228000A38D9A42C2D2E185C069B0F5807F00F08B
:102290009D80206850E8030F216820F4807041E899
:1022A0000302DAB1206850E8030F216820F480703F
:1022B00041E8030292B1206850E8030F216820F43E
:1022C000807041E803024AB1206850E8030F21689A
:1022D00020F4807041E80302002ADAD1206850E837
:1022E000050F216820F0010041E80502BAB320681B
:1022F00050E8050F216820F0010041E8050272B3A3
:10230000206850E8050F216820F0010041E805022F
:102310002AB3206850E8050F216820F0010041E849
:102320000502002ADAD11AE0206850E8050F21687A
:1023300020F0400041E80502DAB1206850E8050FBE
:10234000216820F0400041E8050292B1206850E881
:10235000050F216820F0400041E805024AB12068DD
:1023600050E8050F216820F0400041E80502002AEE
:10237000DAD1202084F8420000202063206850E851
:10238000030F216820F0100041E80302DAB1206851
:1023900050E8030F216820F0100041E8030292B1D9
:1023A000206850E8030F216820F0100041E8030284
:1023B0004AB1206850E8030F216820F0100041E87E
:1023C0000302002ADAD1E06BFEF7A2FC0220606370
:1023D000A08DE18D401A81B2204602B0BDE8B04028
:1023E000FFF7D8BE49067FF511AF13F040013FF467
:1023F0000DAFC16821F04001C1602021204684F862
:10240000411002B0BDE8B04000F028BA626C42F062
:10241000010262644A0706D5BEF1000F03D0626C68
:1024200042F0020262648A0706D5BEF1000F03D0B3
:10243000626C42F004026264BCF1000F06D55EEAF1
:10244000050203D0626C42F008026264626C002AEA
:102450003FF4DCAE890604D51DB1204601F07EF8BC
:1024600020684069616C00F0400001F008014018EC
:1024700000F0B680206850E8030F216820F49070C7
:1024800041E80302BAB3206850E8030F216820F442
:10249000907041E8030272B3206850E8030F21688E
:1024A00020F4907041E803022AB3206850E8030F3B
:1024B000216820F4907041E80302002ADAD11AE082
:1024C000206850E8050F216820F0010041E805026E
:1024D000DAB1206850E8050F216820F0010041E8DA
:1024E000050292B1206850E8050F216820F0010034
:1024F00041E805024AB1206850E8050F216820F044
:10250000010041E80502002ADAD1206B012824D11C
:10251000206850E8030F216820F0100041E8030212
:10252000DAB1206850E8030F216820F0100041E87C
:10253000030292B1206850E8030F216820F01000D8
:1025400041E803024AB1206850E8030F216820F0F7
:10255000100041E80302002ADAD1202084F842006A
:102560000020206320684069400640F1C180206857
:1025700050E8050F216820F0400041E80502DAB17B
:10258000206850E8050F216820F0400041E805026E
:1025900092B1206850E8050F216820F0400041E822
:1025A00005024AB1206850E8050F216820F040007C
:1025B00041E80502002ADAD1E06B002800F098809B
:1025C00043F25151C0F600010165FEF7E9FB002816
:1025D0003FF41CAEE06B016D02B0BDE8B0400847AF
:1025E0002046FFF7D9FD0020606402B0B0BD00BFF7
:1025F000401A00BF216851E8031F226821F490713E
:1026000042E80313BBB3216851E8031F226821F499
:10261000907142E8031373B3216851E8031F2268E5
:1026200021F4907142E803132BB3216851E8031F92
:10263000226821F4907142E80313002BDAD11AE0EA
:10264000216851E8051F226821F0010142E80513C5
:10265000DBB1216851E8051F226821F0010142E841
:10266000051393B1216851E8051F226821F001018B
:1026700042E805134BB1216851E8051F226821F09B
:10268000010142E80513002BDAD1202184F8421021
:1026900000212163216851E8031F226821F0100105
:1026A00042E80313DBB1216851E8031F226821F0DF
:1026B000100142E8031393B1216851E8031F226817
:1026C00021F0100142E803134BB1216851E8031FC8
:1026D000226821F0100142E80313002BDAD1022214
:1026E00081B22046626302B0BDE8B040FFF752BD40
:1026F000204602B0BDE8B040FFF74EBD216A31F878
:10270000022B6FF35F224260216299E5002804BF2B
:102710000120704710B5044690F8410028B9002008
:1027200084F84000204600F021F8242084F841007D
:102730002068C16821F40051C160204600F08EFF7E
:102740002068016921F490410161416921F02A0169
:102750004161C16841F40051C160002020216064E2
:1027600084F8411084F84210606310BD016844F69B
:102770000040C4F20000814218BF704780B586B0A7
:10278000002143F630020191C4F20202136900F500
:10279000DE3043F400231361136903F40023019333
:1027A000019B0191136843F004031360126802F067
:1027B00004020192019A4FF4406201920222CDE993
:1027C0000221032104910821059101A9FEF720FCB3
:1027D000342005210022FEF779FD3420FEF764FD48
:1027E00006B0BDE88040704790F84230202B07D1FA
:1027F00000294FF0010318BF002A05D11846704781
:1028000002231846704700BF002303638162222120
:102810008285C285436480F842100169006819B15D
:10282000C16841F48071C160416941F001014161B9
:10283000C16841F02001C16018467047006844F645
:102840000041C4F20001884218BF704740F6B850FA
:10285000C2F20000007800F07BBF0000704700006B
:10286000FEE7000080B540F2545046F20041C2F24B
:102870000000C4F200010322002380E80E0000F1F2
:102880000C014FF4C02C4FF4A00E81E80850836176
:102890008383FEF79DF8002808BF80BDBDE8804017
:1028A000FDF7EEBD70B58EB0134808AC079012A0CE
:1028B00000F1040E9EE80E50806984E80E500D90E1
:1028C00007A8002101F06CFE40F2B006C2F200063B
:1028D000104930600FA0051D00913ECD80690DF1BB
:1028E000040C8CE83E0006906846002101F058FE7A
:1028F00070600EB070BD00BFF8650008F5320008CA
:102900000000000000000000800000000000000047
:102910000000000004660008BD4B00080200000033
:102920000000000080000000000000000000000027
:102930002DE9F04F87B0002443F63000069401944F
:10294000C4F202000168002641F0800101600168C4
:10295000C4F2020601F0800101910199019401681D
:10296000002241F0010101600168082701F0010126
:10297000019101990194016841F00401016001682D
:1029800001F00401019101990194016841F00801ED
:1029900001600068082100F00800019001983046AD
:1029A000FEF706FC06F500652846102100224FF0D0
:1029B000100AFEF7FDFB06F5406840464FF48071B3
:1029C00000224FF48079FEF7F3FB029702AF4FF03D
:1029D000010B30463946CDE903B40594FEF718FBE8
:1029E00030463946CDE902A40494FEF711FB28468F
:1029F0003946CDE902ABCDE90444FEF709FB404678
:102A00003946CDE9029BCDE90444FEF701FB07B04E
:102A1000BDE8F08F80B540F27C5043F20001C2F275
:102A20000000C4F201014FF48272002380E80E001E
:102A300000F114014FF4007C4FF0180E81E80850AB
:102A40000A21C0E90333C0E90833C0E90A31FEF7BF
:102A500061FF002808BF80BDBDE88040FDF710BDC4
:102A600080B582B040F2D45041F200420021C2F25F
:102A70000000C4F2000242F2CF034FF0630CCDE934
:102A80000011C0E90023C0E9021C8161FFF7FEF9D3
:102A9000002818BFFDF7F4FC40F2D450C2F2000049
:102AA0006946FFF795F9002818BFFDF7E9FC02B069
:102AB00080BD000080B540F21C6044F60041C2F2C7
:102AC0000000C4F2000100234FF00C0C4FF4E1327F
:102AD00080E80E00C0E90333C0E905C3C361FFF716
:102AE00015FE002808BF80BDBDE88040FDF7C8BCCA
:102AF000FEE70000FEE700002DE9F04F85B040F64C
:102B00000008C4F202084046102100224FF01009CC
:102B1000FEF74EFB40F27C553020C2F200058DF8E6
:102B20000D004FF47A7A0DF10D0103AA2846012316
:102B3000CDF800A0FEF77EFF0DF10F060DF10E0798
:102B4000A524284631463A4601238DF80F40CDF89A
:102B500000A0FEF76FFF284631463A4601238DF864
:102B60000F40CDF800A0FEF765FF284631463A46F3
:102B700001238DF80F40CDF800A0FEF75BFF28463B
:102B800031463A4601238DF80F40CDF800A0FEF7FC
:102B900051FF284631463A4601238DF80F40CDF8C3
:102BA00000A0FEF747FF404610210122FEF700FB80
:102BB000404610210022FEF7FBFA0DF1110104AA94
:102BC000284601238DF81190CDF800A0FEF732FFC2
:102BD0000DF113060DF11207FF24284631463A463F
:102BE00001238DF81340CDF800A0FEF723FF9DF8D8
:102BF00012003146029028463A4601238DF81340D0
:102C0000CDF800A0FEF716FF9DF812B02846314619
:102C10003A4601238DF81340CDF800A0FEF70AFFD5
:102C20009DF81280284631463A4601238DF813401C
:102C3000CDF800A0FEF7FEFE9DF812902846314622
:102C40003A4601238DF81340CDF800A0FEF7F2FEBE
:102C500040F600009DF81240C4F20200102101224B
:102C6000FEF7A6FA02988BF0A50180F0A5000843B4
:102C700088F0A501084389F0A501084384F0A50167
:102C8000084318BF012005B0BDE8F08F10B540F231
:102C90007C54C2F200042068016821F04001016008
:102CA0000020C4E904002046FEF734FE206800241A
:102CB0000168C4F2020441F040010160204608218D
:102CC0000022FEF775FA04F5006010210122BDE82C
:102CD0001040FEF76DBA00002DE9F04F83B040F6CA
:102CE0000009C4F20209A9F5006840460821002243
:102CF000FEF75EFA4846102100224FF0100AFEF758
:102D000057FA40F27C562A20C2F200068DF80B00DA
:102D10004FF47A750DF10B010DF10A0230460123D3
:102D200000954FF0010BFEF785FE34200DF10B07E7
:102D30000DF10A048DF80B00304639462246012376
:102D40000095FEF777FE43208DF80B00304639469C
:102D5000224601230095FEF76DFE30463946224695
:102D600001238DF80BA00095FEF764FE304639462E
:102D7000224601238DF80BA00095FEF75BFE30463E
:102D80003946224601238DF80BB00095FEF752FE1E
:102D9000484610210122FEF70BFA48461021002276
:102DA000FEF706FA21208DF80B000DF10B010DF155
:102DB0000A02304601230095FEF73CFE0DF10B019F
:102DC0000DF10A02304601238DF80BB00095FEF795
:102DD00031FE484610210122FEF7EAF9484610214B
:102DE0000022FEF7E5F922208DF80B000DF10B0112
:102DF0000DF10A02304601230095FEF71BFE0DF18E
:102E00000B010DF10A02304601238DF80BB000953D
:102E1000FEF710FE484610210122FEF7C9F9484688
:102E200010210022FEF7C4F925208DF80B000DF1CA
:102E30000B010DF10A02304601230095FEF7FAFD61
:102E400028208DF80B000DF10B010DF10A02304620
:102E500001230095FEF7EEFD484610210122FEF702
:102E6000A7F9484610210022FEF7A2F931208DF87B
:102E70000B000DF10B010DF10A0230460123009504
:102E8000FEF7D8FD08208DF80B000DF10B010DF1B8
:102E90000A02304601230095FEF7CCFD484610217A
:102EA0000122FEF785F9484610210022FEF780F93D
:102EB00026208DF80B000DF10B010DF10A023046B2
:102EC00001230095FEF7B6FD0F240DF10B010DF166
:102ED0000A02304601238DF80B400095FEF7AAFD4B
:102EE000484610210122FEF763F9484610210022CE
:102EF000FEF75EF920208DF80B000DF10B010DF1AE
:102F00000A02304601230095FEF794FD0DF10B01F6
:102F10000DF10A02304601238DF80B400095FEF7B3
:102F200089FD484610210122FEF742F9404608215A
:102F30000122FEF73DF903B0BDE8F08F2DE9F04F17
:102F400083B040F60009C4F2020906464846102143
:102F50000022FEF72DF940F27C540720C2F2000453
:102F60008DF80B004FF47A770DF10B010DF10A0289
:102F70002046012300974FF00108FEF75BFD4FF05C
:102F8000FF0B0DF10B010DF10A02204601238DF814
:102F90000BB00097FEF74EFD9DF80A5048461021F1
:102FA0000122FEF705F9484610210022FEF700F93C
:102FB00027208DF80B000DF10B010DF10A022046C0
:102FC00001230097FEF736FD0DF10B010DF10A020A
:102FD000204601238DF80B500097FEF72BFD484645
:102FE00010210122FEF7E4F8680640F1A18048466E
:102FF000102100224FF00008FEF7DAF840F27C5A68
:103000006120C2F2000A8DF80B000DF10B010DF1E9
:103010000A02504601230097FEF70CFD0DF10B0547
:103020000DF10A0450462946224601238DF80BB0C3
:103030000097FEF7FFFC9DF80A00294630705046C5
:10304000224601238DF80BB00097FEF7F3FC9DF8A4
:103050000A00294670705046224601238DF80BB0B5
:103060000097FEF7E7FC9DF80A002946B07050462D
:10307000224601238DF80BB00097FEF7DBFC9DF88C
:103080000A002946F0705046224601238DF80BB005
:103090000097FEF7CFFC9DF80A0029463071504694
:1030A000224601238DF80BB00097FEF7C3FC9DF874
:1030B0000A00294670715046224601238DF80BB054
:1030C0000097FEF7B7FC9DF80A002946B0715046FC
:1030D000224601238DF80BB00097FEF7ABFC9DF85C
:1030E0000A001021F07148460122FEF761F84846B7
:1030F00010210022FEF75CF8E2208DF80B000DF1A4
:103100000B010DF10A02504601230097FEF792FCD5
:103110000DF10B010DF10A02504601238DF80BB0A1
:103120000097FEF787FC484610210122FEF740F881
:10313000404603B0BDE8F08F000000000000000032
:10314000EFF30980BFF36F8F154B1A681EF0100F55
:1031500008BF20ED108A20E9F04F10602DE909002A
:103160004FF0500080F31188BFF34F8FBFF36F8F84
:1031700001F01EFF4FF0000080F31188BDE8090048
:1031800019680868B0E8F04F1EF0100F08BFB0ECE7
:10319000108A80F30988BFF36F8F704700BF00BFAC
:1031A000EC0000202DE9F04381B0089C98461546BC
:1031B0000E468146FEF702F8201A00EB0804FDF7E0
:1031C000FDFF40F24401C2F200010968C1F3CB31B6
:1031D00061430091D9F800108A683240921BB2FA1C
:1031E00082F25209AA423DD0074618F1010031D0BF
:1031F000FDF7E4FFC01BA04238D2009800990028D8
:10320000A1F101010091D9F80010896808BF0446B6
:1032100001EA0600801BB0FA80F04009A842E7D11D
:1032200020E000BF88683040801BB0FA80F0400981
:10323000A84217D088683040801BB0FA80F040095F
:10324000A8420FD088683040801BB0FA80F0400957
:10325000A84207D088683040801BB0FA80F040094F
:10326000A842DFD1002001B0BDE8F083D9E9000118
:103270004268B1F5827F22F0E00242600BD1D9F8BA
:103280000810B1F5004F02D0B1F5806F03D101688D
:1032900021F040010160D9F82810B1F5005F07D195
:1032A000016821F400510160016841F4005101609E
:1032B000012089F85100002089F85000032001B056
:1032C000BDE8F083000000000000000000000000E6
:1032D000074B19680868B0E8F04F80F30988BFF31E
:1032E0006F8F4FF0000080F31188704700BF00BF60
:1032F000EC000020012001F045F9FBE780B5FDF767
:1033000063FF01F0D5FF012808BF80BDBDE8804004
:1033100001F04ABFB0B592B0002443F64000CDE9B9
:103320000A44CDE908440594CDE90344CDE90144BC
:103330000094C4F202000168022541F0805101604E
:10334000006800F080500090009847F20000009460
:10335000C4F20000016841F480410160006800F49B
:10336000804000900098012006904FF48030079034
:103370004FF480000D9019200E904FF4A870CDE905
:103380000F050420119006A80C95FEF7EBF818B174
:1033900072B600BFFEE700BF0F20CDE901054FF474
:1033A000A05004904FF48050059001A8052103948B
:1033B000FDF7C8FF10B172B6FEE700BF12B0B0BD96
:1033C0004EF68850CEF20000016841F470010160B1
:1033D0007047000040F2D450C2F20000FEF700BE79
:1033E00010B540F6FF3E0368C4F2000E40F2004CF8
:1033F0007045C4F2010C27DCB0F1804F31D040F2AF
:103400000042C4F2000290422BD040F60002C4F207
:103410000002904225D041F6FF72C4F200029042B1
:1034200029DC70453CDCB0F1804F5FD040F20042B7
:10343000C4F20002904259D040F60002C4F20002E9
:10344000904253D056E000BF40F60042C4F2000262
:10345000904206D0604504D00022C4F2010290429E
:10346000D9D14A6823F07003134341F6FF72C4F2C6
:1034700000029042D5DD43F6FF72C4F20102904291
:1034800022DC42F20002C4F2000290422ED000225E
:10349000C4F20102904229D0604527D02AE000BF43
:1034A00040F60042C4F2000290421FD041F60002F2
:1034B000C4F20002904219D041F60042C4F2000268
:1034C000904213D016E000BF44F20002C4F20102A1
:1034D00090420BD044F60002C4F20102904205D0A3
:1034E00044F20042C4F20102904203D1CA6823F4BC
:1034F0004073134323F080024B69D1F800E08C68DD
:103500001A430260C46240F48062C0F828E0624559
:1035100004BF09690163012141610169C90708BF4D
:1035200010BD016921F00101016110BD10B540F22B
:103530001C64C2F200042046FEF730FE40F6B8518B
:10354000C2F2000120460122BDE81040FFF74CB94D
:10355000806B0021C185C184FEF71EBE81B090F84A
:103560004210222921D183680246B3F5805F09D138
:1035700052F8281F52F8183C002B63D003685B6890
:103580000AE000BF52F8281F13B90369002BF5D0D9
:1035900003685B6803F07F030B70116801311160F1
:1035A000C18D01390A04C18502D001B0704700BF46
:1035B0000168CA6822F02002CA60CA6822F48072D8
:1035C000CA604A6922F001024A61202180F8421053
:1035D00000214163026B012A3CD10163016851E87B
:1035E000031F026821F0100142E80313DBB10168F8
:1035F00051E8031F026821F0100142E8031393B160
:10360000016851E8031F026821F0100142E803132A
:103610004BB1016851E8031F026821F0100142E834
:103620000313002BDAD101680A68D20606D50022FE
:1036300000920A680092496800910099818D01B05A
:10364000FEF7A8BD026852686FF35F2221F8022BD3
:103650008162A5E701B0FFF7F1B8000010B504469C
:103660000068D4E902C22369016921F44051114381
:103670000161626943EA0C01E3691143C2681943BD
:1036800049F20C639A431143C1604169A26921F474
:10369000407141F20043114340F48062C4F20103DF
:1036A0009A42416102D1FDF713FF01E0FDF7FCFEF4
:1036B000E16963681922B1F5004FA0FB020123D133
:1036C0005A00DB0FFCF7E6FD48F21F51C5F2EB1183
:1036D000A0FB01235A094FF69C73C0F6FF7303F158
:1036E000805302FB0300322303EBC000A0FB010167
:1036F0004FF4F87000EA111000EB0210C1F3421110
:1037000008442168886010BD9A009B0FFCF7C2FD39
:1037100048F21F51C5F2EB11A0FB01235A094FF6E5
:103720009C73C0F6FF7302FB0300322303EB00100F
:10373000A0FB0101F02000EA511000EB0210C1F3E0
:10374000431108442168886010BD0000FEE70000B6
:103750002DE9F04381B040F2B809C2F2000999F8AE
:103760000110072900F26C81DFE801F004142C3EFF
:1037700056707890A5284BD140F20110A9F80100AD
:1037800040F20420C2F20000A521017001B0BDE8A2
:10379000F08300BFA52800F04D815A2840F05081E9
:1037A00099F80210022089F80100481C89F80200EB
:1037B00040F20420C2F200005A22425401B0BDE897
:1037C000F08300BF99F80220032189F80110511CF1
:1037D00089F8021040F20421C2F20001885489F8ED
:1037E000030001B0BDE8F083042189F8011099F8C5
:1037F000021099F8032040F204274B1CC2F2000784
:10380000785457FA83F089F80230C9F81C00B2B135
:1038100001B0BDE8F08300BF99F80320D9F81C700F
:1038200099F802103A4440F204274B1CC2F20007F8
:1038300089F8023057FA83F39A427854E8D1052088
:1038400089F8010001B0BDE8F08300BF062189F8C6
:103850000110A9F8040001B0BDE8F083B9F8041024
:1038600099F802E04FF6FF7640EA012CBEF1000F16
:10387000A9F804C000F0D08040F20428BEF1010F86
:10388000C2F200082ED1002192E000BFA52800F06E
:10389000D180FF2840F0D480D9F81C0099ED080BA6
:1038A0000468C9F818404168C9F80C108168C9F863
:1038B0001010C068C9F8140051EC100B02F048F960
:1038C00000EE100A01EE104A31EE000A89ED020AFC
:1038D000BDEEC00A40F24C5110EE100AC2F20001D7
:1038E0004880ADE00EF0FE024AF2010155426FF051
:1038F000010200BF08EB0207BB78FF7873409EB25D
:1039000081EA5604DB0708BF740881EA5403E6071E
:1039100008BF630881EA5304DE0708BF5C0881EA38
:103920005403E60708BF630881EA5304DE0708BFB3
:103930005C0881EA5403E60708BF630881EA530480
:10394000DE0708BF5C0881EA5403E60708BF630886
:103950007B4081EA5304DE0708BF5C0881EA540318
:10396000E60708BF630881EA5304DE0708BF5C0866
:1039700081EA5403E60708BF630881EA5304DE07BF
:1039800008BF5C0881EA5403E60708BF630881EAC0
:103990005304DE0708BF5C08E30702F1020281EA74
:1039A000540605EB020308BF66080233A2D1911C3E
:1039B0005FEACE7230D018F8011086EA01024AF2AE
:1039C000010193B2CFF6FF7181EA5307D20708BF16
:1039D0005F08C7F34E02FB0718BF4A40C2F34E030D
:1039E000D20718BF4B40C3F34E02DB0718BF4A4053
:1039F000C2F34E03D20718BF4B40C3F34E02DB079E
:103A000018BF4A40C2F34E03D20718BF4B40C3F35E
:103A10004E06DA0718BF4E40B1B21FFA8CF28A4246
:103A200006D1072089F8010001B0BDE8F08300BF8E
:103A3000A52805D1012089F8010001B0BDE8F08377
:103A4000002089F8010001B0BDE8F0832DE9F04FB6
:103A500081B02DED0C8B40F60C2940F208059FED4E
:103A6000768A9FED76AAC2F20009C2F200054946A5
:103A700000222B46B0EE480AF0EE4A0A044600F057
:103A80008FF940F2F46B9FED6E9A9FED6EBA05F1DF
:103A90000C08C2F2000B2046594600224346B0EE05
:103AA000490AF0EE4B0A00F07BF99FED67CA05F179
:103AB000180640F64C41C2F200012046002233466F
:103AC000B0EE4C0AF0EE490A00F06AF940F6341AFA
:103AD0009FED5EDA05F12407C2F2000A2046514646
:103AE00000223B46B0EE480AF0EE4D0A00F058F9CD
:103AF00009F14801204600222B46B0EE480AF0EEBC
:103B00004A0A00F04DF90BF14801204600224346D5
:103B1000B0EE490AF0EE4B0A00F042F940F64C4094
:103B2000C2F2000000F14801204600223346B0EE08
:103B30004C0AF0EE490A00F033F90AF14801204638
:103B400000223B46B0EE480AF0EE4D0A00F028F99C
:103B500009F19001204600222B46B0EE480AF0EE13
:103B60004A0A00F01DF90BF190012046002243465D
:103B7000B0EE490AF0EE4B0A00F012F940F64C4064
:103B8000C2F2000000F19001204600223346B0EE60
:103B90004C0AF0EE490A00F003F90AF190012046C0
:103BA00000223B46B0EE480AF0EE4D0A00F0F8F86D
:103BB00009F1D801204600222B46B0EE480AF0EE6B
:103BC0004A0A00F0EDF80BF1D801204600224346E6
:103BD000B0EE490AF0EE4B0A00F0E2F840F64C4035
:103BE000C2F2000000F1D801204600223346B0EEB8
:103BF0004C0AF0EE490A00F0D3F80AF1D801204649
:103C000000223B46B0EE480AF0EE4D0A00F0C8F83C
:103C100040F28C10C2F20000DFED0D0A011D05F12B
:103C2000300320460022B0EE490ABDEC0C8B01B0F7
:103C3000BDE8F04F00F0B4B800401C4600409C4581
:103C40000000FA430000964300606A4600001644F4
:103C50000000C84200294FD0087891ED0F1A91ED6D
:103C6000102A81ED070A30EEC00A0028C1ED060ACD
:103C700081ED0F0A81ED101A81ED112A40D0012843
:103C800040F0888091ED015A91ED026A30EE414A90
:103C900031EE011A91ED037A24EE054A20EE065A20
:103CA00030EE410A32EE000AD1E90C2081ED0C0A17
:103CB00020EE070A34EE051A91ED082A91ED043A38
:103CC00081ED0B0A31EE000A32EE000AB4EE430A2F
:103CD000F1EE10FA81ED094A81ED0A5AC1E90D2091
:103CE00081ED080AC2BF81ED083AB0EE430A704781
:103CF000B1EE431A43E000BF9FED280A704700BFB2
:103D000091ED024A91ED0A6A91ED012A91ED053A91
:103D100024EE004A91ED035A34EE064A20EE022AC0
:103D2000D1E90C2030EE410AB4EE434A81ED0C0A91
:103D300020EE050AF1EE10FA81ED092A81ED0A4A1A
:103D4000C1E90D2081ED0B0A06DCB1EE433AB4EE79
:103D5000434AF1EE10FA03DAB0EE434A81ED0A3A33
:103D600032EE042A91ED041A30EE020AB4EE410A52
:103D7000F1EE10FA81ED080A07DCB1EE411AB4EE5B
:103D8000410AF1EE10FAA8BF7047B0EE410A81ED8A
:103D9000081A704791ED080A704700BF0000000044
:103DA000002918BF002B01D1704700BF80B50A70F1
:103DB0001868486058688860986881ED040AC8608F
:103DC000C1ED050A01F120002821FCF7DBFA80BDD6
:103DD00010B5481E40F2343200EBC001C0EBC00009
:103DE000C2F2000202EB800040F60C22B0F90200A1
:103DF000C2F20002F0EE400A02EBC10400EE100A2B
:103E000040F28C10B8EEC00AC2F200002146FFF763
:103E100021FF94ED080A10BDF0B581B0481E40F2B4
:103E200034329FED1F1AF0EE400A00EBC006C0EBE3
:103E3000C000C2F20002F5EE400A02EB800730EE4D
:103E4000010AF1EE10FAB8BFF0EE400A40F6341164
:103E5000B7F8C001C2F2000140F28C1501EBC604B4
:103E600000EE100AC2F20005B8EE400A28462146CC
:103E7000FFF7F0FE40F64C40B7F9C211C2F2000065
:103E8000D4ED080A00EBC60400EE101AB8EEC00A22
:103E900028462146FFF7DEFE94ED080A01B0F0BD8A
:103EA00000F8FF450000000080B52DED068B10EEF8
:103EB000900AB0EE608AB0EE409A02F0BDFA41EC92
:103EC0001A0B19EE100A02F0B7FA41EC110BB0EE22
:103ED0004A0AF0EE6A0A01F07BFC51EC100B01F08B
:103EE00037FEB5EE409AF1EE10FA04DDB5EE408AE9
:103EF000F1EE10FA09DAB5EE409AF1EE10FA23DA93
:103F0000B5EE408AF1EE10FA1EDB02F095FA9FED55
:103F1000220B53EC102B02F097F801F019FE02F07F
:103F20008BFA9FED1F0B53EC102B01F0F7FE9FED6A
:103F30001E0B53EC102B02F087F801F009FE00EE87
:103F4000100ABDEC068B80BDB5EE409AF1EE10FA7A
:103F500004DAB5EE408AF1EE10FA09DBB5EE409ACC
:103F6000F1EE10FAEDDDB5EE408AF1EE10FAE8DA86
:103F700002F062FA9FED080B53EC102B02F064F88C
:103F800001F0E6FD9FED0A0A01EE100A31EE000A8B
:103F900010EE100AC3E700BFAA9F9622DCA54C4092
:103FA00000000000008076400000000000FFBF40DD
:103FB0000000B443B0B52DED0A8B82B040F26465C9
:103FC00040F28C10C2F20005C2F2000095ED0E0A1C
:103FD000441C20460121FFF7FBFE95ED021AB0EECE
:103FE000408A2046B0EE410A0221FFF7F1FE95ED2E
:103FF000081AB0EE409A2046B0EE410A0321FFF7BE
:10400000E7FE40F2AC65C2F2000595ED111A9FED96
:10401000262AB0EE40AA32EE410A20460121FFF7DF
:10402000FBFE95ED051A9FED212AB0EE40BA32EE67
:10403000410A20460221FFF7EFFE95ED0B1A9FED96
:104040001C2AB0EE40CA32EE410A20460321FFF797
:10405000E3FE40F23430BDEECB1AC2F2000011EEA6
:10406000101ABDEECC1ABDEEC00A00F2162411EEF5
:10407000102A10EE103A00252046009500F008FAAC
:10408000BDEEC80A10EE101ABDEEC90A10EE102AD5
:10409000BDEECA0A10EE103A2046009500F0CCF9A9
:1040A00002B0BDEC0A8BB0BD00E0AB450080A2447D
:1040B00000F0EB452DE9F04F81B02DED0A8B82B079
:1040C00040F28C1040F23437C2F200009FED2A8A91
:1040D0009FED2A9A9FED2AAAC2F20007441C4FF0D6
:1040E000000807F2162541F2735641F6755940F261
:1040F0000A5A40F2225B00BF2046B0EE480A012176
:10410000FFF78AFEB0EE40BA2046B0EE490A02211F
:10411000FFF782FEB0EE40CA2046B0EE4A0A032105
:10412000FFF77AFEBDEECB1A11EE101ABDEECC1AD7
:10413000BDEEC00A11EE102A10EE103A2846CDF856
:10414000008000F0A5F90520FCF73CFEB7F8C0019F
:10415000801B1228D0D8B7F8F8014845CCD3B7F85F
:10416000DC015045C8D35845C6D802B0BDEC0A8B17
:1041700001B0BDE8F08F00BF00E0AB450080A24475
:1041800000F0EB4500000000F0B581B02DED0A8B8A
:10419000B0EE40BAB6EE000A21EE000A1BEE100A9D
:1041A000B0EE419A30EEC1CA30EE208A02F044F9F6
:1041B000044619EE100A0D4602F03EF99FED7A0B07
:1041C00053EC102B01F040FF06460F4620462946CF
:1041D00032463B4602F042F801F0BAFC0AEE100A01
:1041E0003046394622462B4601F0E4FC01F0B0FC93
:1041F0002BEE0B0A2CEE0C1A09EE100A31EE000A17
:104200002AEE0A1A28EE082A29EE093A32EE011A95
:1042100032EE032AB1EEC00AB1EEC11AB1EEC22AE3
:1042200040F26460B5EE40CAC2F20000F1EE10FA4E
:1042300080ED020A80ED081A80ED0E2A28D1B5EE35
:1042400040BAF1EE10FA23D05DA0B5EE40BAF1EE1F
:1042500010FAB8BF043090ED000A9FED5B1AC8BF9A
:10426000B0EE410A10EE100A02F0E6F89FED500B96
:1042700053EC102B01F052FD9FED4F0B53EC102B24
:1042800001F0E2FE01F064FC00EE100A06E000BF5F
:10429000B0EE4C0AF0EE4B0AFFF706FE40F2AC64BB
:1042A000B5EE408AC2F20004F1EE10FA84ED050A80
:1042B00030D1B5EE40AAF1EE10FA41A534D0B5EEFA
:1042C00040AA2846F1EE10FAB8BF043090ED000A7B
:1042D0009FED3D1AC8BFB0EE410A10EE100A02F081
:1042E000ABF89FED330B53EC102B01F017FD9FED56
:1042F000320B53EC102B01F0A7FE01F029FC00EE6D
:10430000100AB5EE409AF1EE10FA84ED0B0A18D1BE
:104310003EE000BFB0EE480AF0EE4A0AFFF7C4FDE7
:1043200084ED0B0A34E000BFB0EE480AF0EE4A0A12
:10433000FFF7BAFDB5EE409AF1EE10FA84ED0B0AE4
:1043400026D0B5EE409AF1EE10FAB8BF043595EDDF
:10435000000A9FED1D1AC8BFB0EE410A10EE100A08
:1043600002F06AF89FED120B53EC102B01F0D6FC13
:104370009FED110B53EC102B01F066FE01F0E8FBF2
:1043800000EE100A84ED110ABDEC0A8B01B0F0BDFD
:10439000B0EE480AF0EE490AFFF786FD84ED110AF7
:1043A000BDEC0A8B01B0F0BDAA4C58E87AB6EB3FE1
:1043B00000000000008076400000000000FFBF40C9
:1043C00000000000000087430000B442086846F285
:1043D0000042C4F20002904218BF704780B58AB014
:1043E00001200022CDE90620CDE90022CDE90222FC
:1043F000CDE904226A46089008461146FCF7B0F859
:10440000002818BFFCF73CF80AB0BDE880407047B0
:1044100010B508460C46FCF73FFC002818BFFCF717
:104420002FF820460221FCF72FF8002808BF10BD06
:10443000BDE81040FCF724B880B58AB04FF4007096
:1044400004900020CDE9060008200890080ADDF855
:1044500030C08DF80800100A8DF80A00180A8DF88F
:104460000C004FEA1C208DF80E0040F254508DF8DD
:1044700009108DF80B208DF80D30C2F2000004A950
:1044800002AA01AB8DF80FC0FCF716F80AB080BD88
:1044900080B58AB040F2FF1001900020CDE9030002
:1044A00008200590080ADDF830C08DF82000100AB9
:1044B0008DF82200180A8DF824004FEA1C208DF890
:1044C000260040F254508DF821108DF823208DF8ED
:1044D0002530C2F2000001A908AA07AB8DF827C059
:1044E000FBF7EAFF0AB080BD10B504200C46FDF7CB
:1044F00049FC40F20020C2F20000046010BD000040
:1045000080B502784378920042EA931CA1F800C07B
:104510004378827803F03F031B0143EA121EA1F89F
:1045200002E08378C27803F00F039B0143EA920212
:104530008A80C378007903F0030340EA0320A0F5E2
:10454000FA70ACF5FA73A2F5FA72C880CEF5FA707B
:104550000B808A80488080BDFCF744FEFEF7DAFEBF
:10456000FEF7E6F9FEF77EF9FEF754FAFEF778FA61
:10457000FEF7A0FA00F0D0FAFEF794F900F00AF87E
:10458000FEE7000080B5012898BF012000F052FC32
:10459000002080BD80B500F09DFC002080BD0000A3
:1045A000B0B584B043698E4693B1846984B10589FE
:1045B000D0E9001C026928B2843D18BFC51CCDE9B2
:1045C000005360467346029400F036FE04B0B0BD5E
:1045D0000589D0E90013028A28B2843D18BFC51CA2
:1045E00003AC18467346CDE9005400F0F5FD03997D
:1045F000012818BF0021084604B0B0BD2DE9F041E4
:10460000044600F057FB40F2EC06C2F200063069A7
:1046100040F62455013030613068C2F2000548B1DF
:104620007069002840D13068E16AC06A884298BF4A
:10463000346039E034603069012835D1284600F013
:10464000DFFA05F1140000F0DBFA05F1280000F0B4
:10465000D7FA05F13C0000F0D3FA05F1500000F064
:10466000CFFA05F1640000F0CBFA05F1780000F014
:10467000C7FA40F2D818C2F20008404600F0C0FA6B
:1046800008F11407384600F0BBFA06F1640000F0A8
:10469000B7FA06F13C0000F0B3FA06F1500000F062
:1046A000AFFAC6F8308077637068B16801220131D3
:1046B000B160E16A8A401043706001EB810005EB54
:1046C0008000211D00F0DEFA00F018FB706988B14F
:1046D0003068E16AC06A884228BFBDE8F0814EF6C2
:1046E0000450CEF200004FF080510160BFF34F8FB5
:1046F000BFF36F8FBDE8F08140F2EC0540F6245621
:104700004EF60458C2F20005C2F20006CEF20008CE
:104710004FF0805703E000BF204600F007FBE86839
:10472000D0B100F0C7FAA86CC468201D00F048FAA8
:10473000286901382861E8680138E86000F0DEFA8D
:1047400094F851000228EAD00128E5D070B9206B16
:1047500000F0ECFAE0E700BF30680228DFD3C8F8C9
:104760000070BFF34F8FBFF36F8FD8E74FF050004B
:1047700080F31188BFF36F8FBFF34F8FFEE7000008
:104780002DE9F047DDE909878246386B089C00EB8C
:10479000820004389946002920F0070656D0087890
:1047A00087F83400087800284BD0487887F835001F
:1047B0004878002845D0887887F83600887800281F
:1047C0003FD0C87887F83700C878D0B3087987F821
:1047D00038000879A8B3487987F83900487980B358
:1047E000887987F83A00887958B3C87987F83B0008
:1047F000C87930B3087A87F83C00087A08B3487A59
:1048000087F83D00487AE0B1887A87F83E00887AD8
:10481000B8B1C87A87F83F00C87A90B1087B87F8AA
:104820004000087B68B1487B87F84100487B40B175
:10483000887B87F84200887B00281CBFC87B87F8EC
:104840004300002087F8430003E000BF002087F802
:1048500034000025381D062C28BF0624FC62C7E959
:10486000114500F0D9F907F1180000F0D5F984F0EE
:104870000700B861304651464A463F617F62FD6499
:1048800087F8505000F036F9B8F1000F386018BFC3
:10489000C8F80070BDE8F08708480068006880F339
:1048A00008884FF0000080F3148862B661B6BFF349
:1048B0004F8FBFF36F8F00DF00BF000008ED00E0F7
:1048C00081B00020009040F24800C2F20000006871
:1048D0004FF0500181F31188BFF36F8FBFF34F8FFB
:1048E000013007D0FEE700BF009830B9009820B92A
:1048F000009810B900980028F6D001B07047000069
:1049000070B5044600F04CFB40F2641CC2F2000C8F
:10491000DCF8040050B19CF80000002818BF4FF0EC
:1049200000404FF0000544BB83E000BF40F6CE508E
:10493000C2F20000420700F5705200F1070122F0B8
:10494000070218BF21F007000021A2F10803CCE9FB
:104950000601CCF8043042E90211DCF80420191AEF
:10496000C0E9002101208CF800004FF00040CCE9A4
:104970000211002C4FF000055BD0204059D124F0EB
:10498000070000F11002600708BF04F10802DCF81C
:104990000800511E81424CD2604650F818EFDEF8F4
:1049A000045095422BD2DEF80010B9B174464D6820
:1049B000954217D20B68ABB15D68954216D2186864
:1049C000A0B14568954215D204689CB165689542CE
:1049D00014D22168A6460029E9D110E00CF1180094
:1049E0000DE000BF8E46204609E000BF9E46084607
:1049F00005E000BF8646184601E000BFA646DCF889
:104A000004108E4514D00168DEF80040AB1A112B5B
:104A100004604DD30EEB0205680719D04FF050002B
:104A200080F31188BFF36F8FBFF34F8FFEE700BF96
:104A3000002500F0D1FC68075AD04FF0500080F3F9
:104A40001188BFF36F8FBFF34F8F00BFFEE700BF2A
:104A50000CF118006B60CEF8042000BF0368AB4275
:104A60000AD21868A8420BD20368AB4204D2186875
:104A70001A46A842F2D304E00246184601E000BFFD
:104A80001A4654686B681619AE4202D12344154683
:104A90005360EC18844207D1DCF80440A04203D0F4
:104AA000D0E9000423446B60AA42286018BF156057
:104AB000DEF80400DCE9022301F10805111A99422D
:104AC000CCF8081038BFCCF80C109CF80010002966
:104AD0004FF0000118BF40F00040CEE90010DCF8B4
:104AE00010000130CCF8100000F076FC6807A4D16B
:104AF000284670BD034644F6C10021F00101C0F60E
:104B000000004FF0807C03E903106FF00201A3F175
:104B1000440043E90912704740F23030C2F200000D
:104B20000130A821FFF7E0FCFEF7B0F8FDF7E4FF45
:104B300038B100BF1E20FCF745F9FDF7DDFF002866
:104B4000F8D1FEF7C9F840F28C10C2F20000FEF76F
:104B50007DFF40F23430C2F2000040F2545500F5BF
:104B60000574C2F2000520462946FFF72FFC2046B7
:104B70002946FFF74DFC40F2D450C2F20000FDF789
:104B8000D7F940F6B050C2F20000FFF793FA40F6B2
:104B9000BA50C2F20000441C051D00F10C0603E0EF
:104BA00028463146FFF7ACFC2046FEF7C7F900283F
:104BB000F6D00A20FCF706F9F2E700007047000083
:104BC000D0E9013201699A60D1F804C08268844555
:104BD000536008BF4A60002202610868013808601B
:104BE0000868704744F6D433C2F20003036044F609
:104BF000D410C2F2000008608020106070470000EE
:104C00004FF0FF31024642F8081F00214260C0E920
:104C1000032201607047000000210161704700001D
:104C200010B5D1F800E01EF1010213D000F1080424
:104C300062681368734511D853681C68744511D8AD
:104C40005A68146874450FD854682368A44673459D
:104C5000EED90BE00269D2F804C007E09446224680
:104C600004E000BF9C4601E094461A46C1F804C027
:104C7000CCF808108A605160086101680131016058
:104C800010BD0000D0F800C0436808619A684B600E
:104C90008A609A68996051600CF101010160704767
:104CA000DFF80C00016841F47001016070470000FA
:104CB00088ED00E04FF0500080F31188BFF36F8F54
:104CC000BFF34F8F40F24800C2F2000001684A1C57
:104CD000026009B1704700BF4EF60450CEF20000EA
:104CE0000068000608BF70474FF0500080F311883D
:104CF000BFF36F8FBFF34F8FFEE7000040F2480015
:104D0000C2F20000016839B10139016018BF704773
:104D1000002080F3118870474FF0500080F3118815
:104D2000BFF36F8FBFF34F8FFEE7000070B5002811
:104D300008BF70BD40F26415C2F200050446287831
:104D400054F8041C002818BF4FF0004008420DD052
:104D5000A4F1080632689AB14FF0500080F3118830
:104D6000BFF36F8FBFF34F8FFEE700BF4FF05000D0
:104D700080F31188BFF36F8FBFF34F8FFEE700BF43
:104D800021EA000044F8040C00F00AF954F8041C6D
:104D9000A8680844A86005F1180000BF0368B34282
:104DA0000AD21868B04225D20368B34204D2186808
:104DB0001A46B042F2D301E0024618465368D418AE
:104DC000B44202D11944164651607318834206D189
:104DD0006B68984203D0D0E9000319447160B24275
:104DE000306018BF1660686901306861BDE87040C6
:104DF00000F0F2BA1A465368D418B442E5D1E1E79C
:104E00004EF21000CEF2000000210160816040F2FD
:104E10004401C2F20001096844F6D352C1F26202B1
:104E2000A1FB02124FF0FF3101EB9211416007210B
:104E30000160704770B500283FD040F2EC05C2F227
:104E400000050446A86948B14FF0500080F311886E
:104E5000BFF36F8FBFF34F8FFEE700BFA86901302C
:104E6000A8616E6A28680430FFF7AAFE50B128686E
:104E7000A419446013D3686B29680431FFF7D0FE8E
:104E800016E000BF28680121C06A6A6801FA00F0D4
:104E900022EA000068602868A4194460EBD2286BFD
:104EA00029680431FFF7BCFE286A844238BF2C62AF
:104EB00000F092FA002818BF70BD4EF60450CEF2F2
:104EC00000004FF080510160BFF34F8FBFF36F8F31
:104ED00070BD0000B0B588B00020CDE9050006A87F
:104EE00005A904AAFFF77EFE0598B8B3069C002C1E
:104EF0003ED05421049A07910799542942D1079929
:104F00002063022084F8510007A80025CDE9005055
:104F100044F2F960C0F600001FA100230294FFF7DD
:104F20002FFC2046FFF76AFB079940F2EC00C2F223
:104F30000000C16179B14FF0500181F31188BFF3D6
:104F40006F8FBFF34F8F4FF0FF310162012141613D
:104F5000456200F065F808B0B0BD00BF4FF05000EA
:104F600080F31188BFF36F8FBFF34F8FFEE700BF51
:104F70004FF0500080F31188BFF36F8FBFF34F8F56
:104F8000FEE700BF4FF0500080F31188BFF36F8F32
:104F9000BFF34F8FFEE700BF49444C4500000000BF
:104FA00040F2EC00C2F2000081690131816170477A
:104FB00040F2EC00C2F20000816900291EBF01210D
:104FC00081627047002181624168B1FA81F1C9B202
:104FD000C1F11F0140F6245201EB8101C2F200022F
:104FE00052F8213063B102EB810252F8041F496884
:104FF000131D994211600DD0C9680160704700BF50
:105000004FF0500080F31188BFF36F8FBFF34F8FC5
:10501000FEE700BF49681160C96801607047000081
:10502000B0B584B04EF2004CCEF2000C4CF27021C0
:10503000C4F20F11DCF800294B1C9A420AD14FF040
:10504000500080F31188BFF36F8FBFF34F8F00BF05
:10505000FEE700BFDCF800298A4209D14FF050007A
:1050600080F31188BFF36F8FBFF34F8FFEE700BF50
:105070009CF800100291FF218CF800109CF80010A1
:105080008DF807109DF8071001F0500240F28411CE
:10509000C2F200010A7007224A609DF90720B2F1AE
:1050A000FF3F6BDC032200BFD31C4B609DF8070061
:1050B00040008DF807009DF90700B0F1FF3F24DCA8
:1050C000931C4B609DF8070040008DF807009DF988
:1050D0000700B0F1FF3F18DC531C4B609DF8070040
:1050E00040008DF807009DF90700B0F1FF3F0CDC90
:1050F0004A609DF80700043A40008DF807009DF9CA
:105100000700B0F1FF3FCFDD131D032B36D14FF465
:105110004070486002988CF80000DCF8200940F4E8
:105120007000CCF82009DCF8200940F07040CCF881
:105130002009FFF765FE40F24804C2F20004002592
:105140002560FFF7ADFD4EF63470CEF20000016829
:1051500041F040410160FFF79FFBFFF729FF0395F6
:1051600020684FF0500181F31188BFF36F8FBFF3B8
:105170004F8F013012D000BFFEE700BF4FF050004C
:1051800080F31188BFF36F8FBFF34F8FFEE700BF2F
:10519000039830B9039820B9039810B903980028F0
:1051A000F6D0002004B0B0BD80B54FF0500080F3C1
:1051B0001188BFF36F8FBFF34F8F00F089F830B1C4
:1051C0004EF60450CEF200004FF0805101600020F6
:1051D00080F3118880BD00002DE9F04383B00746BD
:1051E0009000984615468946FFF78AFBF8B10646B7
:1051F0005420FFF785FBB8B10446DDE90A10002210
:10520000266384F85120CDE90010384649462A46E5
:1052100043460294FFF7B4FA2046FFF7EFF9012066
:1052200003B0BDE8F08300BF3046FFF77FFD4FF0CD
:10523000FF3003B0BDE8F08370B586B00B9CCCB1F5
:105240000C9E0EB354250495049D542D26D1049D27
:10525000DDF828C0022586F8515005AD3463CDE94C
:1052600000C50296FFF78CFA3046FFF7C7F905989C
:1052700006B070BD4FF0500080F31188BFF36F8F00
:10528000BFF34F8FFEE700BF4FF0500080F311884F
:10529000BFF36F8FBFF34F8FFEE700BF4FF050009B
:1052A00080F31188BFF36F8FBFF34F8FFEE70000CD
:1052B00040F2EC00C2F20000416900290FBF01205A
:1052C0008069B0FA80F0400918BF400070470000C4
:1052D0002DE9F04740F2EC06C2F20006B06928B1B1
:1052E000F06A0130F0620020BDE8F087706A10F1CA
:1052F000010AC6F824A020D3306B006850B14FF0EB
:10530000500080F31188BFF36F8FBFF34F8F00BF42
:10531000FEE700BF306B716B31637063B06B0130BF
:10532000B063306B006828B1306BC068C0684068FB
:1053300002E000BF4FF0FF303062306A40F6245880
:105340008245C2F2000801D2002434E0306B002410
:10535000006868B34FF0010916E000BFF86A716891
:1053600009FA00F2114300EB8000716008EB800045
:105370002946FFF787FCF86A3168C96A326B8842B0
:10538000106828BF4C4698B1306BC068C7683D466E
:1053900055F8040F82450DD32846FFF711FCB86A73
:1053A0000028DBD007F11800FFF70AFCD6E700BFA2
:1053B0004FF0FF3030623068C06A00EB800058F870
:1053C0002000012888BF0124B06A002818BF0124EA
:1053D0002046BDE8F08700002DE9F04140F2EC05E1
:1053E000C2F20005A86968B1FFF764FCA86901383A
:1053F000A861A86980B10024FFF780FC2046BDE8C1
:10540000F08100BF4FF0500080F31188BFF36F8F21
:10541000BFF34F8FFEE700BF28690028EBD0686E0E
:1054200078B340F624580126C2F20008286FC768F6
:1054300007F11800FFF7C4FB3C1D2046FFF7C0FB37
:10544000F86A696806FA00F2114300EB80006960AF
:1054500008EB80002146FFF715FCF86A2968C96A45
:10546000884228BFAE62686E0028DFD1286B0068D2
:1054700020B1286BC068C068406801E04FF0FF3081
:105480002862EC6A4CB10126FFF722FF002818BF02
:10549000AE62013CF8D10020E862A86A0028AAD0D8
:1054A0004EF60450CEF200004FF080510160BFF381
:1054B0004F8F0124BFF36F8FFFF720FC2046BDE81C
:1054C000F08103B401984100009850EAC12018BF50
:1054D00004204A0D18BF40F0010040F2FF72B2EB09
:1054E000515F08BF40F00200012808BF052002B04C
:1054F000704700000000000070B59B482DED020BC6
:105500002DED068B079D25F00044A04218DC97483E
:10551000844202DC0AD1069840B19DED060BBDEC39
:10552000068B02B0BDE8704000F0CEBA002DCCBFB3
:105530009FED8F0B9FED900BBDEC068B02B070BD05
:105540008F48A04215DD8F48A042D8BF4FF0FF34EE
:1055500058DD9DED060B51EC100BFFF7B2FF042850
:1055600008BF00F0C5FA9DED060BBDEC068B02B03E
:1055700070BD9DED060B51EC100B00F0D1FACDE99A
:10558000060181489FED828BA0423CDD8248A0420B
:105590001FDD00249FED82AB9DED060B53EC1A2B13
:1055A00051EC100B00F006FB9DED060B41EC190BC6
:1055B00053EC1A2B51EC100B00F046FD53EC182B5A
:1055C00000F04CFE53EC192B00F0A8FBCDE90601CE
:1055D00049E09DED060B012453EC182B51EC100B08
:1055E00000F0E8FA9DED060B41EC190B53EC182B7B
:1055F00051EC100B00F032FE53EC192B00F08EFB37
:10560000CDE906012FE06848A0421FDD02249FED8E
:10561000689B9DED060B53EC192B51EC100B00F021
:1056200013FD53EC182B00F0C5FA9DED060B41EC71
:10563000180B53EC192B51EC100B00F00FFE53EC30
:10564000182B00F06BFBCDE906010CE09DED060B7D
:10565000032453EC102B9FED580B51EC100B00F072
:105660005DFBCDE906019DED060B53EC102B51ECD3
:10567000100B00F0E9FC41EC180B53EC182B00F078
:10568000E3FC41EC190B4E480621B0EE490AF0EE5E
:10569000690A784400F09CF953EC182B51EC100B7C
:1056A00000F0D2FC41EC180B4648B0EE490AF0EE8F
:1056B000690A0521784400F08BF953EC192B51EC61
:1056C000100B00F0C1FC41EC100B51EC180B53EC2B
:1056D000102B002C0EDA00F06DFA9DED061B53EC3A
:1056E000112B00F0B1FC9DED061B53EC112B00F0CB
:1056F000A9FD35E000F05EFA9DED061B53EC112B81
:1057000000F0A2FC41EC100B2F48784400EBC400E1
:1057100090ED001B51EC100B53EC112B00F09EFD93
:105720009DED061B53EC112B00F098FD41EC100B86
:105730002648784400EBC40090ED001B51EC100BA0
:1057400053EC112B00F07EFD41EC100B002DA2BF9D
:10575000BDEC068B02B070BD51EC100B00F0ECF903
:1057600041EC100B01E70000000010440000F07F46
:10577000182D4454FB21F93F182D4454FB21F9BF47
:105780000000DC3F0000203E0000F33F000000006E
:10579000000000000000F03F0000E63F00000000B5
:1057A00000000000000000400080034000000000F6
:1057B000000000000000F83F000000000000F0BF03
:1057C000120F0000C80E0000520E00000A0E00006A
:1057D00070B56F4E2DED040B2DED048B82B0DDF80E
:1057E00024C0DDE907235C422CF000411C4341EA60
:1057F000D474069D22F00040B44205D86C422C437C
:1058000040EAD474B4420BD99DED081B9DED060B04
:1058100002B0BDEC048B04B0BDE8704000F05EB98E
:10582000ACF14054A4F17F641C430BD0022404EA81
:10583000AC7444EAD27405439FED578B9FED582B0F
:1058400007D015E09DED060B51EC100B00F060F950
:1058500042E0002C11BF012C9DED060B02B0BDEC07
:10586000048B04BF04B070BD022C38D0032C3BD095
:105870000B439FED4D1B9FED4E0B0AD0B14218D14B
:10588000B04209D121F0804120F080400991079079
:105890000FE0002A15DA10E0474B7B44002C08BFCC
:1058A00093ED000B0DD0012C10D0022C17D0032C3F
:1058B0001AD0B0421DD1002A03DAB0EE410AF0EE50
:1058C000610A02B0BDEC048B04B070BD93ED000B17
:1058D00051EC100B00F030F941EC100BF1E7B0EE99
:1058E000480AF0EE680AECE7B0EE420AF0EE620A0F
:1058F000E7E7401A00159FED329B3C28C8BF8DEDAD
:10590000000B17DCBCF1000FBCBF10F13C0F8DED9C
:10591000009B0FDB9DED080B53EC102B9DED060B50
:1059200051EC100B00F0FAF900F0FAF800F0F0F882
:10593000CDE90001B4B1012C10D0022C9FED220B57
:1059400053EC102B9DED000B51EC100B19D000F017
:1059500085FC53EC182B00F081FCBDE7019880F02A
:10596000004001909DED000B53EC192B51EC100BF6
:1059700000F02EFB04BF0220FAF733FD9DED000B73
:105980009FE700F06BFC53EC182B00F05BFCA3E7E7
:105990000000F07F00000000182D4454FB21094056
:1059A000182D4454FB2109C0182D4454FB21F9BF84
:1059B000182D4454FB21F93F3A0D0000000000006F
:1059C0000000000000000000075C143326A6A13C84
:1059D00070B504462DED028B4D1E00EBC500B0EEF8
:1059E000408AF0EE608A90ED000B35F0060017D08B
:1059F00053EC182B51EC100B00F026FB41EC100B74
:105A00006D1E04EBC50090ED001B51EC100B53EC28
:105A1000112B00F0CFF841EC100B35F00600E7D168
:105A2000022D36D0042D1CD0062D1CBFBDEC028BE0
:105A300070BD53EC182B51EC100B00F005FB94EDEE
:105A40000A1B53EC112B00F0B5F853EC182B00F0A7
:105A5000FBFA94ED081B53EC112B00F0ABF841EC72
:105A6000100B53EC182B51EC100B00F0EDFA94EDE9
:105A7000061B53EC112B00F09DF853EC182B00F093
:105A8000E3FA94ED040B53EC102B00F093F841EC87
:105A9000100B53EC182B51EC100B00F0D5FA94EDD1
:105AA000021B53EC112B00F085F853EC182B00F07F
:105AB000CBFA94ED001B53EC112B00F07BF8BDECFE
:105AC000028B41EC100B70BD10B553EC102B51EC58
:105AD000100B00F06FF841EC100B10BD10B553EC3B
