:020000040800F2
:1000000090160020B50100085D170008AD15000826
:10001000591700085D030008891900080000000056
:10002000000000000000000000000000B117000800
:100030006103000800000000611700083D18000877
:10004000CF010008CF010008CF010008CF01000850
:10005000CF010008CF010008CF010008CF01000840
:10006000CF010008CF010008CF010008CF01000830
:10007000CF010008CF010008CF010008CF01000820
:10008000CF010008CF010008CF010008CF01000810
:10009000CF010008CF010008CF010008CF01000800
:1000A000CF010008CF010008CF010008CF010008F0
:1000B000CF010008CF010008CF010008CF010008E0
:1000C000CF010008CF010008CF010008CF010008D0
:1000D000CF01000865190008CF010008CF01000812
:1000E000CF010008CF010008CF01000800F002F89E
:1000F00000F050F814A696E8000CB244B344DA4578
:1001000001D100F047F8BAE80F000FA696E83000DA
:10011000A5EB040504EB0607AAEB0704A7F101070A
:100120004FEA15154FEA3414A4F10104AC4201D38F
:1001300000F030F813F0010F18BFFB1A43F0010371
:1001400000F001F8DBE71847C8300000E830000095
:10015000103A24BF78C878C1FAD8520724BF30C8F3
:1001600030C144BF04680C60704700007047000055
:100170000023002400250026103A28BF78C1FBD8B0
:10018000520728BF30C148BF0B6070471FB51FBD65
:1001900010B510BD00F0A8F81146FFF7F7FF01F009
:1001A000F5FB00F0C6F803B4FFF7F2FF03BC00F064
:1001B000CDF800000948804709480047FEE7FEE700
:1001C000FEE7FEE7FEE7FEE7FEE7FEE7FEE7FEE707
:1001D00004480549054A064B7047000055180008B9
:1001E000ED000008901000209016002090120020D2
:1001F00090120020032A40F2308010F0030C00F02F
:10020000158011F8013BBCF1020F624498BF11F850
:1002100001CB00F8013B38BF11F8013BA2F1040209
:1002200098BF00F801CB38BF00F8013B11F0030381
:1002300000F02880083AC0F0088051F8043B083AE2
:1002400051F804CBA0E80810F5E7121D5CBF51F887
:10025000043B40F8043BAFF30080D20724BF11F801
:10026000013B11F801CB48BF11F8012B24BF00F866
:10027000013B00F801CB48BF00F8012B70477047E5
:100280007047704710B5203AC0F00B80B1E81850A5
:10029000A0E81850B1E81850A0E81850203ABFF470
:1002A000F5AF5FEA027C24BFB1E81850A0E818500F
:1002B00044BF18C918C0BDE810405FEA827C24BF63
:1002C00051F8043B40F8043B08BF7047D20728BFF1
:1002D00031F8023B48BF11F8012B28BF20F8023B40
:1002E00048BF00F8012B7047754600F02BF8AE466A
:1002F00005006946534620F00700854618B020B532
:10030000FFF766FFBDE820404FF000064FF0000702
:100310004FF000084FF0000BAC46ACE8C009ACE869
:10032000C009ACE8C009ACE8C00921F007018D465E
:10033000704710B50446AFF300802046BDE810407A
:10034000FFF731BF00487047100000200149182016
:10035000ABBEFEE72600020070470000FEE700008B
:1003600070470000EFF3108072B600BFFEE7000098
:10037000014690F82100022816D10868D1E90FC380
:10038000026822F00E020260026822F0010202609E
:10039000012000FA03F2CCF8042081F821000020AB
:1003A000002281F820207047042088630120002269
:1003B00081F820207047000090F82110022923D1F5
:1003C0000268116821F00E0111602F211368C4F238
:1003D00002018A4240F20401C4F2020123F0010347
:1003E000136015DD3023C4F202039A421CD044236B
:1003F000C4F202039A421BD05823C4F202039A4269
:100400001CD14FF4803321E0042181630120704727
:100410000823C4F202039A420ED01C23C4F2020342
:100420009A420BD1102311E04FF480730EE000BF0D
:100430004FF480530AE000BF012307E001F1680C8C
:100440004FF08073624508BF4FF480130B600121A9
:1004500080F82110426B002180F8201022B180B575
:1004600090470021BDE88040084670472DE9F04FD5
:1004700082B00E68002E00F0FD8041F20042C4F20E
:100480000102042340F2004E904208BF03234FF6BE
:10049000FF7CC4F2010E009300240123C1F2100C72
:1004A0004FF0000A4FF0000944E000BF012704F0BC
:1004B0000C030F229A402BEA020207FA03F34FEAD9
:1004C0009A051A4346F825204E6840F20C45F20280
:1004D000DEF8082054BF22EA080242EA0802C4F209
:1004E0000105CEF808202A68B30254BF22EA0802A8
:1004F00042EA08022A60B303DEF8042054BF22EA6D
:10050000080242EA0802F303CEF80420DEF80020D5
:100510004FF0010354BF22EA080242EA0802CEF873
:1005200000200E680AF1010A36FA0AF204F1040406
:1005300000F0A08003FA0AFB16EA0B08F1D04E681F
:10054000664511DC122E55D8DFE806F0340A44481F
:10055000545454545454545454545454544C5000BB
:10056000D1F80C9046E000BF4FF6FF72C1F22102B5
:1005700096420FDC0022C1F2110296421AD00022EC
:10058000C1F21202964215D00022C1F22102964217
:1005900010D02FE00022C1F2220296420AD000229F
:1005A000C1F23102964205D00022C1F232029642D7
:1005B00020D100BF8A684AB1012A14BFC0F814B024
:1005C000C0F810B04FF0080914E000BF4FF0040964
:1005D00010E000BFCA6802F108090BE04FF0000903
:1005E00008E000BFCA6802F1040903E0CA6802F12A
:1005F0000C0900BF22460646B8F5807F24BF203A8A
:10060000043637680F25954027EA050509FA02F2F6
:100610002A433260CA79D2067FF583AF41F21803CC
:10062000C4F202031A68AEF57E7642F001021A6047
:100630001A6802F001020192019A2AF0030256F8A8
:1006400002B040F60002C4F20102904210D040F61F
:100650000042C4F2010290423FF428AF41F200028E
:10066000C4F20102009F904208BF02271FE700BFAB
:1006700000271CE702B0BDE8F08F0000002A08BF89
:10068000090401617047000040F63860C2F20000C2
:100690000068704740F2000040F63861C2F2000086
:1006A000C2F2000100780A68104408607047000038
:1006B00080B542F20000C4F20200016841F010016E
:1006C0000160032000F092F80F2000F005F800F020
:1006D00027F8002080BD000070B540F20006C2F28D
:1006E000000640F208013278C2F200014FF47A733A
:1006F0000968B3FBF2F20446B1FBF2F1084600F0E0
:100700008FFB0F2C4FF0010508D838B94FF0FF30A0
:1007100021460022002500F03DF87460284670BD97
:1007200080B582B041F21800C4F2020001680022D4
:1007300041F001010160016801F00101019101999D
:10074000416841F08051416040680F2100F08050C5
:10075000009000986FF0010000F01CF80420C4F233
:1007600001000168022262F31A61016002B080BDDB
:10077000002848BF704700F01F01012202FA01F172
:100780001C2202EAD0004EF20012CEF2000281508A
:100790007047000010B54EF60C5CCEF2000CDCF891
:1007A0000030C3F3022E8EF00704042C28BF04246B
:1007B000BEF103034FF0FF3E0EFA04F438BF0023EE
:1007C000A14399400EFA03F39A43114300F00F023C
:1007D00000F160430901043A03F5644362440028D0
:1007E00048BF02F10C03197010BD00004EF60C5109
:1007F000CEF200010A684FF6FF031A4060F30A22A6
:1008000042F0806040F0FD7008607047002804BF2F
:10081000012070472DE9F04381B042F20008C4F294
:1008200002080446D8F800000D4600F00700884290
:100830000CD2D8F8000020F007002843C8F80000C8
:10084000D8F8000000F00700A8426CD1206841F2FF
:1008500004098107C4F2020917D5410705D5D9F863
:10086000001041F4E061C9F80010010705D5D9F87E
:10087000001041F46051C9F80010D9F80010A268C6
:1008800021F0F0011143C9F80010C00742D1D8F897
:10089000000000F00700A8420CD9D8F8000020F0B2
:1008A00007002843C8F80000D8F8000000F007004F
:1008B000A84238D12068410707D5D9F80010E2686E
:1008C00021F4E0611143C9F80010000708D5D9F8F8
:1008D0000000216920F4605040EAC100C9F800001E
:1008E000D9F8002002F00C00082841F20020C0F2E4
:1008F0007A0051D143F2E013C2F38341C0F6000302
:10090000595CD2033CD440F60010C0F23D0048438D
:1009100042E000BF606802280AD001282AD159F8B5
:10092000041C890308D4012001B0BDE8F08300BF96
:1009300059F8041C8901F6D5D9F8001021F00301FB
:100940000843C9F80000FFF79FFE064641F28837CA
:10095000D9F80000616800F00C00B0EB810F96D070
:10096000FFF792FE801BB842F2D9032001B0BDE828
:10097000F08300BF59F8041C8907D4D5DCE700BF19
:10098000D9F8002043F2DE13C2F34042C0F6000360
:100990009A5C4843B0FBF2F0D9F8001043F2C6125B
:1009A000C1F30311C0F60002515C40F2080220FAC4
:1009B00001F140F20400C2F200000068C2F200023D
:1009C0001160FFF789FE002001B0BDE8F083000050
:1009D00040F2080041F20401C2F20000C4F2020138
:1009E0000068096843F2D612C1F30221C0F6000282
:1009F000515CC8407047000040F2080041F2040119
:100A0000C2F20000C4F202010068096843F2D61283
:100A1000C1F3C221C0F60002515CC840704700001B
:100A2000002804BF012070472DE9F04182B0044640
:100A3000007841F20006C007C4F202060CD07068CC
:100A400000F00C00042840F081803068800303D55A
:100A50006068002800F04E81207880071BD5706800
:100A600010F00C0F09D0706800F00C00082840F05E
:100A70008B807068C00300F187803068800703D5E1
:100A80002069012840F036813068616920F0F80063
:100A900040EAC10030602078000713D42078400776
:100AA0002CD4E569002D00F02081706800F00C0066
:100AB000082840F0AF80012D40F00C81012002B0E9
:100AC000BDE8F081A069002800F08C800020C4F20D
:100AD00042200121C0F88014FFF7D6FD054600BF73
:100AE000706A800700F1BA80FFF7CEFD401B022834
:100AF000F6D9032002B0BDE8F08100BFF0695FEADB
:100B0000C00808D4F06940F08050F061F06900F04E
:100B100080500090009847F20007C4F20007386840
:100B2000C0054DD4386840F480703860FFF7ACFDE4
:100B3000054600BF3868C00542D4FFF7A5FD401B3D
:100B40006428F7D9032002B0BDE8F081706800F096
:100B50000C00082803D17068C0033FF576AF6068C9
:100B6000002800F00981B0F5A02F00F01D81B0F53C
:100B7000803F00F01D81306820F4803030603068A4
:100B800020F4802017E100BF2069002840F2000017
:100B9000C4F2422000F08C8001210160FFF774FD57
:100BA000054600BF306880073FF56EAFFFF76CFD6C
:100BB000401B0228F6D9032002B0BDE8F08100BF37
:100BC000E068002800F09A80052800F0B180012834
:100BD00000F0B280306A20F001003062306A20F00C
:100BE0000400ACE00020C4F242200021C0F88014D0
:100BF000FFF74AFD054600BF706A80077FF54EAFDC
:100C0000FFF742FD401B0228F6D9032002B0BDE8E1
:100C1000F08100BF0027C4F2422700203866FFF7AA
:100C200033FD022D05460DD13068800140F1D6809C
:100C3000FFF72AFD401B02284FF00300F4D902B051
:100C4000BDE8F081306880014FD5FFF71DFD401BE6
:100C500002284FF00300F5D9F1E700BF40F2080089
:100C6000C2F20000006844F6D351C1F26201A0FB59
:100C70000101480A019000BF00BF0198411E0028F1
:100C800001913FF40BAF00BF0198411E0028019174
:100C90003FF404AF00BF0198411E002801913FF4CA
:100CA000FDAE00BF0198411E00280191E4D1F5E698
:100CB00000210160FFF7E8FC054600BF30688007AF
:100CC0007FF5E9AEFFF7E0FC401B02284FF0030080
:100CD000F4D9B4E77068216A00F480328A4209D1FD
:100CE000616A00F47010884204D1002002B0BDE8AF
:100CF000F08100BF012002B0BDE8F081306A20F031
:100D000001003062306A20F004003062FFF7BCFC62
:100D1000054641F2883700BF306A800722D5FFF7C9
:100D2000B3FC401BB8424FF00300F5D987E700BF82
:100D3000306A40F004003062306A40F001003062F6
:100D4000FFF7A2FC054641F2883700BF306A8007F2
:100D500008D4FFF799FC401BB842F7D9032002B032
:100D6000BDE8F081B8F1000F3FF59BAEF06920F0CF
:100D70008050F06195E600BF306820F4803030602C
:100D8000306820F480203060FFF77EFC054600BF0D
:100D9000306880037FF560AEFFF776FC401B642867
:100DA0004FF00300F4D94AE7306840F48020306007
:100DB000306840F480303060FFF766FC054600BFC5
:100DC000306880033FF548AEFFF75EFC401B6428A7
:100DD000F6D9032002B0BDE8F08100BF206AB0F56B
:100DE000803F05D17168A26821F400311143716020
:100DF0007168626A21F47411114308437060012024
:100E00003866FFF741FC0446306880013FF56DAF5E
:100E1000FFF73AFC001B02284FF00300F4D90EE75D
:100E2000411E0020B0EB116F1CBF012070474EF235
:100E30001002CEF2000251604EF62351CEF20001B4
:100E4000F0230B700721906011607047704700001D
:100E500070470000B0B582B0044600680168C368FE
:100E6000426901F02F05202D03F0200506D12DB198
:100E7000204602B0BDE8B04000F0F4BC5FEA017C5F
:100E80001EBF02F0010E03F4907212EB0E0243D16A
:100E9000226BCD0618D5012A16D113F0100213D0FB
:100EA0000021019101680191416801910199406916
:100EB00040063BD4A08DE18DE28D002A18BF884208
:100EC00040F0F28102B0B0BD0A0640F1E78013F0B5
:100ED000800200F0E38094F841102129F2D1A1684A
:100EE000B1F5805F03D12169002900F06382216A96
:100EF0004A1C226209784160E18C01390A04E184CC
:100F0000E0D1C16821F08001C160C16841F04001B9
:100F1000C16002B0B0BD00BFCA0718BF13F4807231
:100F200040F0D0804A0700F1D380D8E0E06B016840
:100F300049688AB2002AC5D0A38D9A42C2D2E185FF
:100F40008069202800F09E80206850E8030F216807
:100F500020F4807041E80302DAB1206850E8030F02
:100F6000216820F4807041E8030292B1206850E8C3
:100F7000030F216820F4807041E803024AB1206821
:100F800050E8030F216820F4807041E80302002A32
:100F9000DAD1206850E8050F216820F0010041E80F
:100FA0000502C2B3206850E8050F216820F0010057
:100FB00041E805027AB3206850E8050F216820F067
:100FC000010041E8050232B3206850E8050F2168AE
:100FD00020F0010041E80502002ADAD11BE000BF41
:100FE000206850E8050F216820F0400041E8050224
:100FF000DAB1206850E8050F216820F0400041E890
:10100000050292B1206850E8050F216820F04000E9
:1010100041E805024AB1206850E8050F216820F038
:10102000400041E80502002ADAD1202084F842007D
:1010300000202063206850E8030F216820F0100092
:1010400041E80302DAB1206850E8030F216820F07C
:10105000100041E8030292B1206850E8030F2168B4
:1010600020F0100041E803024AB1206850E8030F65
:10107000216820F0100041E80302002ADAD1E06B79
:10108000FFF776F902206063A08DE18D401A81B2EE
:10109000204602B0BDE8B040FFF7D8BE49067FF554
:1010A00011AF13F040013FF40DAFC16821F04001D2
:1010B000C1602021204684F8411002B0BDE8B04054
:1010C00000F072BA626C42F0010262644A0706D50F
:1010D000BEF1000F03D0626C42F0020262648A0724
:1010E00006D5BEF1000F03D0626C42F004026264C8
:1010F000BCF1000F06D55EEA050203D0626C42F037
:1011000008026264626C002A3FF4DCAE890604D5F2
:101110001DB1204600F0A6FB20684069616C00F01C
:10112000400001F00801401800F0B680206850E847
:10113000030F216820F4907041E80302BAB32068DD
:1011400050E8030F216820F4907041E8030272B365
:10115000206850E8030F216820F4907041E80302F2
:101160002AB3206850E8030F216820F4907041E80A
:101170000302002ADAD11AE0206850E8050F21683E
:1011800020F0010041E80502DAB1206850E8050FBF
:10119000216820F0010041E8050292B1206850E882
:1011A000050F216820F0010041E805024AB12068DE
:1011B00050E8050F216820F0010041E80502002AEF
:1011C000DAD1206B012824D1206850E8030F216870
:1011D00020F0100041E80302DAB1206850E8030F64
:1011E000216820F0100041E8030292B1206850E825
:1011F000030F216820F0100041E803024AB1206883
:1012000050E8030F216820F0100041E80302002A93
:10121000DAD1202084F84200002020632068406951
:10122000400640F1C180206850E8050F216820F099
:10123000400041E80502DAB1206850E8050F216856
:1012400020F0400041E8050292B1206850E8050F07
:10125000216820F0400041E805024AB1206850E8CA
:10126000050F216820F0400041E80502002ADAD18C
:10127000E06B002800F0988041F65901C0F60001AB
:101280004163FFF799F800283FF41CAEE06B416B17
:1012900002B0BDE8B04008472046FFF7D9FD002066
:1012A000606402B0B0BD00BF401A00BF216851E8C1
:1012B000031F226821F4907142E80313BBB3216835
:1012C00051E8031F226821F4907142E8031373B3BD
:1012D000216851E8031F226821F4907142E803134A
:1012E0002BB3216851E8031F226821F4907142E872
:1012F0000313002BDAD11AE0216851E8051F226898
:1013000021F0010142E80513DBB1216851E8051F16
:10131000226821F0010142E8051393B1216851E8E8
:10132000051F226821F0010142E805134BB1216835
:1013300051E8051F226821F0010142E80513002B46
:10134000DAD1202184F8421000212163216851E87C
:10135000031F226821F0100142E80313DBB121686A
:1013600051E8031F226821F0100142E8031393B1F2
:10137000216851E8031F226821F0100142E803139D
:101380004BB1216851E8031F226821F0100142E8A7
:101390000313002BDAD1022281B22046626302B02D
:1013A000BDE8B040FFF752BD204602B0BDE8B040F6
:1013B000FFF74EBD216A31F8022B6FF35F224260C6
:1013C000216299E5002804BF0120704710B504464A
:1013D00090F8410028B9002084F84000204600F031
:1013E00063F8242084F841002068D4E90212C3681D
:1013F00023F40053C360036923F440531A4302618A
:10140000D4E904231143C268194341F20C639A439F
:101410001143C1604169A26921F44071114343F64F
:101420000002C4F201029042416103D0FFF7D0FAFA
:1014300002E000BFFFF7E0FAD4E900231921484396
:101440009900B0FBF1F048F21F5CC5F2EB1CA0FB69
:101450000C314FF69C734909C0F6FF7301FB030082
:10146000322303EB0010A0FB0C03F02000EA531022
:1014700000EB0110C3F34311084490601069202170
:1014800020F490401061506920F02A005061D0682B
:1014900040F40050D0600020606484F8411084F86B
:1014A0004210606310BD000070B586B040F60004C5
:1014B000C4F20104006804F54051002688420496F5
:1014C00002D006B070BD00BF41F21800C4F20200A5
:1014D000016802AD41F480410160016801F480417E
:1014E00001910199016841F00401016000682946F9
:1014F00000F00400019001984FF400700290022067
:101500000390032005902046FEF7B0FF4FF4806063
:10151000CDE90206204629460496FEF7A7FF2520BE
:1015200005210022FFF736F92520FFF721F906B043
:1015300070BD000090F84230202B07D100294FF0F9
:10154000010318BF002A05D1184670470223184628
:10155000704700BF00230363816222218285C28518
:10156000436480F842100169006819B1C16841F410
:101570008071C160416941F001014161C16841F080
:101580002001C16018467047006843F60001C4F2AC
:101590000101884218BF704740F22410C2F20000D7
:1015A000417801707047000070470000FEE70000BE
:1015B00070B59AB02348169022A0C268D0E90110F5
:1015C0001992CDE9171016A8002100F033FA40F265
:1015D0007006C2F200061F4970601EA0051D0F9123
:1015E0003ECD80690DF1400C8CE83E0015900FA8AF
:1015F000002100F033FA1E49B0601DA0051D0891BE
:101600002ECDD0E905400DF1240C8CE82E00CDE95B
:101610000D4008A8002100F021FA1C49F0601BA031
:10162000051D01912ECDD0E905400DF1080C8CE887
:101630002E00CDE9064001A8002100F00FFA30612C
:101640001AB070BD010000000100000000000000A1
:101650000000000002320008D5170008000000005A
:1016600000000000800000000000000000000000FA
:10167000F0310008DD170008000000000000000045
:10168000800000000000000000000000F9310008A8
:1016900005180008000000000000000080000000A5
:1016A000000000000000000070B584B041F2180096
:1016B000C4F20200016841F2000441F0100101602F
:1016C0000168C4F2010401F0100100910099016861
:1016D000012241F02001016001684FF4005501F042
:1016E0002001009100990168012641F00401016088
:1016F00000684FF4005100F004000090009820466C
:10170000FEF7BCFF002002900220039069462046AD
:10171000CDE90056FEF7AAFE04B070BD80B540F2D8
:10172000641043F60001C2F20000C4F2010100237C
:101730004FF00C0C4FF4E13280E80E00C0E90333A7
:10174000C0E905C3C361FFF73DFE002808BF80BDA7
:10175000BDE88040FEF706BEFEE70000FEE70000A1
:10176000EFF30980BFF36F8F0D4B1A6820E9F00F7C
:1017700010602DE908404FF0500080F3118800F010
:10178000B9FE4FF0000080F31188BDE808401968E9
:101790000868B0E8F00F80F30988BFF36F8F7047D7
:1017A0008400002000000000000000000000000095
:1017B000074B19680868B0E8F00F80F30988BFF399
:1017C0006F8F4FF0000080F311884EF00D0E7047C0
:1017D00084000020012000F01FF9FBE740F27005B3
:1017E00040F22414C2F20005C2F2000468682146E7
:1017F0004FF0FF32012301F011F8012000F00CF945
:10180000F4E7000040F2700441F20005C2F2000467
:10181000C4F2010503E000BF012000F0FDF860689C
:101820002146002201F058F920783128F4D12846C9
:101830004FF400510022FEF721FFEDE780B5FEF7DF
:1018400029FF01F021FB012808BF80BDBDE88040D1
:1018500000F020BF70470000406A0021C185C184AC
:10186000FFF7F6BA81B090F84210222921D183689F
:101870000246B3F5805F09D152F8281F52F8183C90
:10188000002B63D003685B680AE000BF52F8281F92
:1018900013B90369002BF5D003685B6803F07F037D
:1018A0000B70116801311160C18D01390A04C185C5
:1018B00002D001B0704700BF0168CA6822F0200260
:1018C000CA60CA6822F48072CA604A6922F00102C2
:1018D0004A61202180F8421000214163026B012AF5
:1018E0003CD10163016851E8031F026821F0100137
:1018F00042E80313DBB1016851E8031F026821F0DD
:10190000100142E8031393B1016851E8031F026814
:1019100021F0100142E803134BB1016851E8031FA5
:10192000026821F0100142E80313002BDAD10168AC
:101930000A68D20606D5002200920A680092496819
:1019400000910099818D01B0FFF780BA026852685A
:101950006FF35F2221F8022B8162A5E701B0FFF748
:1019600013BE000010B540F26414C2F20004204619
:10197000FFF770FA40F22511C2F200012046012261
:10198000BDE81040FFF7D6BDFEE7000090B0FEF7BF
:101990008FFE00240120CDE90B44CDE909440690D7
:1019A0000A904FF4E0104FF4803102250F9006A802
:1019B000CDE90714CDE90D51FFF732F820B1EFF36F
:1019C000108072B6FEE700BF0F20CDE901054FF48D
:1019D0008060CDE9040401A802210394FEF716FFFC
:1019E00020B1EFF3108072B6FEE700BFFFF75CFE98
:1019F000FFF794FE40F2641040F22511C2F200009D
:101A0000C2F200010122FFF795FDFFF7D1FD00F0C2
:101A10000BF800BFFEE7000080B5012898BF012049
:101A200000F07CFC002080BD80B500F0F5FC0020BB
:101A300080BD000082686AB1C3685BB180B582B0C6
:101A400003C84FF0000CCDF800C000F07BFE02B0E0
:101A500080BD00BF03C8002200F034BEB0B584B022
:101A600043698E4693B1846984B10589D0E9001C2D
:101A7000026928B2843D18BFC51CCDE900536046F9
:101A80007346029401F0C4F904B0B0BD0589D0E9F1
:101A90000013028A28B2843D18BFC51C03AC184647
:101AA0007346CDE9005401F083F90399012818BF6A
:101AB0000021084604B0B0BDF0B581B040F2840406
:101AC000C2F200040E46676A21680546081D00F050
:101AD000F5FA18B1681C0CD016E000BF206801218F
:101AE000C06A626801FA00F022EA00006060681CC7
:101AF0000AD14EB154F8500B011D204601B0BDE88B
:101B0000F04000F03DBB00BF2068ED19456007D3F1
:101B1000606B2168043101B0BDE8F04000F0FEBA0E
:101B2000206B2168043100F0F9FA206A854238BF41
:101B3000256201B0F0BD00002DE9F041044600F03F
:101B40002DFB40F28406C2F20006306940F2AC156B
:101B5000013030613068C2F2000548B17069002878
:101B600040D13068E16AC06A884298BF346039E089
:101B700034603069012835D1284600F0BFFA05F1FC
:101B8000140000F0BBFA05F1280000F0B7FA05F1E7
:101B90003C0000F0B3FA05F1500000F0AFFA05F197
:101BA000640000F0ABFA05F1780000F0A7FA40F20B
:101BB0003C18C2F20008404600F0A0FA08F11407F1
:101BC000384600F09BFA06F1640000F097FA06F13F
:101BD0003C0000F093FA06F1500000F08FFAC6F8CE
:101BE000308077637068B16801220131B160E16AC9
:101BF0008A401043706001EB810005EB8000211DDD
:101C000000F0BEFA00F0EEFA706988B13068E16A5F
:101C1000C06A884228BFBDE8F0814EF60450CEF27B
:101C200000004FF080510160BFF34F8FBFF36F8F03
:101C3000BDE8F08140F2840540F2AC164EF604583F
:101C4000C2F20005C2F20006CEF200084FF0805743
:101C500003E000BF204600F0DDFAE868D0B100F0F4
:101C60009DFAA86CC468201D00F028FA2869013884
:101C70002861E8680138E86000F0B4FA94F851008F
:101C80000228EAD00128E5D070B9206B00F0C2FA32
:101C9000E0E700BF30680228DFD3C8F80070BFF368
:101CA0004F8FBFF36F8FD8E74FF0500080F311884C
:101CB000BFF36F8FBFF34F8FFEE700002DE9F047B2
:101CC000DDE909878246386B089C00EB8200043806
:101CD0009946002920F0070656D0087887F8340086
:101CE000087800284BD0487887F8350048780028D5
:101CF00045D0887887F83600887800283FD0C878A3
:101D000087F83700C878D0B3087987F838000879A1
:101D1000A8B3487987F83900487980B3887987F87B
:101D20003A00887958B3C87987F83B00C87930B34E
:101D3000087A87F83C00087A08B3487A87F83D00AB
:101D4000487AE0B1887A87F83E00887AB8B1C87AD4
:101D500087F83F00C87A90B1087B87F84000087B7D
:101D600068B1487B87F84100487B40B1887B87F8A1
:101D70004200887B00281CBFC87B87F843000020F6
:101D800087F8430003E000BF002087F834000025F7
:101D9000381D062C28BF0624FC62C7E9114500F057
:101DA000B9F907F1180000F0B5F984F00700B8613F
:101DB000304651464A463F617F62FD6487F8505085
:101DC00000F06CF9B8F1000F386018BFC8F8007067
:101DD000BDE8F08706480068006880F3088862B6AE
:101DE00061B6BFF34F8FBFF36F8F00DF00BF0000FE
:101DF00008ED00E081B00020009040F20C00C2F23B
:101E0000000000684FF0500181F31188BFF36F8F1D
:101E1000BFF34F8F013007D0FEE700BF009830B905
:101E2000009820B9009810B900980028F6D001B0A9
:101E300070470000F0B581B0044600F0AFF994F9A6
:101E40004560012E0FDB04F1240500BF286850B166
:101E5000284601F009F9002818BF00F0B9FAF0B2DD
:101E6000013E0128F2D8FF2684F8456000F0BAF957
:101E700000F094F994F94470012F0EDB04F1100581
:101E8000286850B1284601F0EFF8002818BF00F08C
:101E90009FFAF8B2013F0128F2D884F8446001B0FB
:101EA000BDE8F04000F09EB970B5044600F01AFBA2
:101EB00040F2FC0CC2F2000CDCF8040050B19CF8BB
:101EC0000000002818BF4FF000404FF0000544BB51
:101ED00083E000BF40F23820C2F20000420700F564
:101EE000406200F1070122F0070218BF21F007004D
:101EF0000021A2F10803CCE90601CCF8043042E944
:101F00000211DCF80420191AC0E9002101208CF824
:101F100000004FF00040CCE90211002C4FF000050A
:101F20005BD0204059D124F0070000F11002600777
:101F300008BF04F10802DCF80800511E81424CD2AF
:101F4000604650F818EFDEF8045095422BD2DEF8C8
:101F50000010B9B174464D68954217D20B68ABB109
:101F60005D68954216D21868A0B14568954215D2B1
:101F700004689CB16568954214D22168A646002980
:101F8000E9D110E00CF118000DE000BF8E462046AC
:101F900009E000BF9E46084605E000BF8646184699
:101FA00001E000BFA646DCF804108E4514D001689D
:101FB000DEF80040AB1A112B04604CD30EEB020587
:101FC000680719D04FF0500080F31188BFF36F8F6E
:101FD000BFF34F8FFEE700BF002501F07FF86807D1
:101FE00059D04FF0500080F31188BFF36F8FBFF3CB
:101FF0004F8F00BFFEE700BF0CF118006B60CEF8FA
:10200000042000BF0368AB420AD21868A8420BD272
:102010000368AB4204D218681A46A842F2D304E01F
:102020000246184601E000BF1A4654686B6816194C
:10203000AE4202D1234415465360EC18844206D1C7
:10204000DCF80440A04202D011C823446B60AA42CD
:10205000286018BF1560DEF80400DCE9022301F1F6
:102060000805111A9942CCF8081038BFCCF80C10AA
:102070009CF8001000294FF0000118BF40F000400C
:10208000CEE90010DCF810000130CCF8100001F0AF
:1020900025F86807A5D1284670BD0000034641F623
:1020A000F550C0F600004FF0807C21F0010103E9FB
:1020B0000310A3F1400043F8202C7047D0E901320F
:1020C00001699A60D1F804C082688445536008BFF2
:1020D0004A60002202610868013808600868704799
:1020E00041F23C03C2F20003036040F63C60C2F2DE
:1020F0000000086080201060704700004FF0FF3142
:10210000024642F8081F00214260C0E90322016034
:1021100070470000002101617047000010B5D1F840
:1021200000E01EF1010213D000F108046268136898
:10213000734511D853681C68744511D85A681468DF
:1021400074450FD854682368A4467345EED90BE054
:102150000269D2F804C007E09446224604E000BFBA
:102160009C4601E094461A46C1F804C0CCF8081019
:102170008A605160086101680131016010BD000092
:10218000D0F800C0436808619A684B608A609A681A
:10219000996051600CF10101016070474FF05000EF
:1021A00080F31188BFF36F8FBFF34F8F40F20C00A5
:1021B000C2F2000001684A1C026009B1704700BF0A
:1021C0004EF60450CEF200000068000608BF7047CB
:1021D0004FF0500080F31188BFF36F8FBFF34F8F24
:1021E000FEE7000040F20C00C2F20000016839B1C5
:1021F0000139016018BF7047002080F311887047D3
:102200004FF0500080F31188BFF36F8FBFF34F8FF3
:10221000FEE7000070B5002808BF70BD40F2FC0565
:10222000C2F200050446287854F8041C002818BFA0
:102230004FF0004008420DD0A4F1080632689AB170
:102240004FF0500080F31188BFF36F8FBFF34F8FB3
:10225000FEE700BF4FF0500080F31188BFF36F8F8F
:10226000BFF34F8FFEE700BF21EA000044F8040CE3
:1022700000F038F954F8041CA8680844A86005F177
:10228000180000BF0368B3420AD21868B04225D2D2
:102290000368B34204D218681A46B042F2D301E090
:1022A000024618465368D418B44202D1194416465F
:1022B00051607318834205D16B68984202D009C8F7
:1022C00019447160B242306018BF1660686901300D
:1022D0006861BDE8704000F001BF00BF1A46536856
:1022E000D418B442E5D1E1E74EF21000CEF200007E
:1022F00000210160816040F20801C2F2000109681A
:1023000044F6D352C1F26202A1FB02124FF0FF3138
:1023100001EB9211416007210160704770B5002800
:102320003FD040F28405C2F200050446A86948B1D6
:102330004FF0500080F31188BFF36F8FBFF34F8FC2
:10234000FEE700BFA8690130A8616E6A2868043002
:10235000FFF7B4FE50B12868A419446013D3686B2A
:1023600029680431FFF7DAFE16E000BF2868012172
:10237000C06A6A6801FA00F022EA00006860286812
:10238000A4194460EBD2286B29680431FFF7C6FE1C
:10239000286A844238BF2C6200F0A0FE002818BFD3
:1023A00070BD4EF60450CEF200004FF08051016037
:1023B000BFF34F8FBFF36F8F70BD000040F28401F9
:1023C000C2F200018A6B0260496A416070470000F6
:1023D00040F28400C2F200000121816270470000D7
:1023E00080B110B50C4640F28401C2F200010968C8
:1023F0001831FFF793FE20460121BDE81040FFF79A
:102400005BBB00BF4FF0500080F31188BFF36F8FAC
:10241000BFF34F8FFEE70000B0B588B00020CDE9D4
:10242000050006A805A904AAFFF75AFE0598B8B347
:10243000069C002C3ED05421049A079107995429F8
:1024400042D107992063022084F8510007A8002593
:10245000CDE9005041F63540C0F600001FA1002331
:102460000294FFF72BFC2046FFF766FB079940F22A
:102470008400C2F20000C16179B14FF0500181F3D4
:102480001188BFF36F8FBFF34F8F4FF0FF310162A1
:1024900001214161456200F065F808B0B0BD00BFA0
:1024A0004FF0500080F31188BFF36F8FBFF34F8F51
:1024B000FEE700BF4FF0500080F31188BFF36F8F2D
:1024C000BFF34F8FFEE700BF4FF0500080F311883D
:1024D000BFF36F8FBFF34F8FFEE700BF49444C45FA
:1024E0000000000040F28400C2F200008169013166
:1024F0008161704740F28400C2F2000081690029C6
:102500001EBF012181627047002181624168B1FADA
:1025100081F1C9B2C1F11F0140F2AC1201EB81019E
:10252000C2F2000252F8213063B102EB810252F88C
:10253000041F4968131D994211600DD0C9680160DC
:10254000704700BF4FF0500080F31188BFF36F8FCA
:10255000BFF34F8FFEE700BF49681160C968016093
:1025600070470000B0B584B04EF2004CCEF2000CC3
:102570009CF800100291FF218CF800109CF80010CC
:102580008DF807109DF8071001F0500240F21C1161
:10259000C2F200010A7007224A609DF90720B2F1D9
:1025A000FF3F61DC032200BFD31C4B609DF8070096
:1025B00040008DF807009DF90700B0F1FF3F24DCD3
:1025C000931C4B609DF8070040008DF807009DF9B3
:1025D0000700B0F1FF3F18DC531C4B609DF807006B
:1025E00040008DF807009DF90700B0F1FF3F0CDCBB
:1025F0004A609DF80700043A40008DF807009DF9F5
:102600000700B0F1FF3FCFDD131D032B2CD14FF49A
:102610004070486002988CF80000DCF8200940F413
:102620007000CCF82009DCF8200940F07040CCF8AC
:102630002009FFF759FE40F20C04C2F20004002505
:102640002560FFF7C7FBFFF755FF039520684FF0A4
:10265000500181F31188BFF36F8FBFF34F8F0130AB
:1026600012D000BFFEE700BF4FF0500080F311888A
:10267000BFF36F8FBFF34F8FFEE700BF039830B9F2
:10268000039820B9039810B903980028F6D00020C9
:1026900004B0B0BD80B54FF0500080F31188BFF397
:1026A0006F8FBFF34F8F00F0FFFB30B14EF6045039
:1026B000CEF200004FF080510160002080F31188BD
:1026C00080BD0000A0B3F0B581B005464843483056
:1026D0000E46FFF7E9FB044630B30027204684F896
:1026E0004670002E18BF48302060C4E90F56FFF72F
:1026F00055FD2068D4E90F12A76302FB01030139DD
:1027000001FB0201C4E90103FF20E16084F84400F9
:1027100084F8450004F11000FFF7F0FC04F12400F8
:10272000FFF7ECFCFFF75EFD204601B0F0BD00BFF7
:102730004FF0500080F31188BFF36F8FBFF34F8FBE
:10274000FEE7000010B582B070B11C46B3B1F9B914
:10275000F2B14FF0500080F31188BFF36F8FBFF3D9
:102760004F8F00BFFEE700BF4FF0500080F311888D
:10277000BFF36F8FBFF34F8FFEE700BF4FF05000E6
:1027800080F31188BFF36F8FBFF34F8FFEE700BF59
:1027900051B14AB94FF0500080F31188BFF36F8FE9
:1027A000BFF34F8FFEE700BF48230193019B482BE7
:1027B0002AD1019B012384F84630002908BF224614
:1027C0002260C4E90F01FFF7E9FC2068D4E90F1289
:1027D000002302FB010C013901FB0201A363C4E9E0
:1027E000010CFF20E16084F8440084F8450004F106
:1027F0001000FFF783FC04F12400FFF77FFCFFF7D4
:10280000F1FC204602B010BD4FF0500080F311885B
:10281000BFF36F8FBFF34F8FFEE700002DE9F04F3E
:1028200083B00292C0B11D4617460E460446E9B178
:10283000022D02D1E06B01285AD100F025FB18BB14
:1028400017B34FF0500080F31188BFF36F8FBFF3C1
:102850004F8F00BFFEE700BF4FF0500080F311889C
:10286000BFF36F8FBFF34F8FFEE700BF206C0028D0
:10287000DED04FF0500080F31188BFF36F8FBFF3AD
:102880004F8F00BFFEE700BFFFF788FCA06B022D53
:1028900065D0E16B884262D30298002800F016816F
:1028A0006846FFF78BFDFFF79DFCFFF71BFEFFF768
:1028B00075FC94F84400FF2804BF002084F844000D
:1028C00094F84500FF2804BF002084F84500FFF776
:1028D00089FC684602A900F01FFA98B12046FFF76C
:1028E000A9FA00F0FBFB002003B0BDE8F08F00BFA9
:1028F0004FF0500080F31188BFF36F8FBFF34F8FFD
:10290000FEE700BF04F11008FFF748FCD4F8389048
:10291000E76BFFF767FCB94516D102994046FFF710
:102920005FFD2046FFF786FA00F0D8FB88B94EF627
:102930000450CEF200004FF080510160BFF34F8F82
:10294000BFF36F8F05E000BF2046FFF773FA00F07A
:10295000C5FBFFF723FCA06BE16B884264D2A76B39
:10296000226CDAB125B3E0683146FDF743FCE1683B
:10297000206C2268091A9142E16003D2A1684042AA
:102980000844E060A81EB0FA80F040093946002FE4
:1029900018BF012108403F1A17E000BF206800253A
:1029A000A0B9A06800F004FBA56005460EE000BFDA
:1029B00060683146FDF71EFCD4E90101226C104429
:1029C0008842606001D3206860600025781CA063A5
:1029D00054F8240FA0B1204600F046FB50B14EF64B
:1029E0000450CEF200004FF080510160BFF34F8FD2
:1029F000BFF36F8FFFF7F6FB012003B0BDE8F08F48
:102A0000002DF7D04EF60450CEF200004FF080516A
:102A10000160BFF34F8FBFF36F8FFFF7E3FB012020
:102A200003B0BDE8F08F00BFE94602AF0CE000BF85
:102A30002046FFF7FFF900F051FBFFF7AFFBA06B5B
:102A4000E16B8842FFF48BAF029800283ED0FFF77D
:102A5000C9FBFFF747FDFFF7A1FB94F84400FF28EF
:102A600004BF002084F8440094F84500FF2804BF08
:102A7000002084F84500FFF7B5FB4846394600F0D2
:102A80004BF900287FF42AAFFFF788FBD4F838A071
:102A9000D4F83CB0FFF7A6FBDA45C9D1029940460D
:102AA000FFF79EFC2046FFF7C5F900F017FB002852
:102AB000C3D14EF60450CEF200004FF080510160B9
:102AC000BFF34F8FBFF36F8FB7E700BFFFF78AFBEE
:102AD000002003B0BDE8F08F2DE9F04F83B00292E3
:102AE00090B116460D460446002947D000F0CCF9B7
:102AF000A0B99EB14FF0500080F31188BFF36F8FE3
:102B0000BFF34F8FFEE700BF4FF0500080F31188F6
:102B1000BFF36F8FBFF34F8FFEE700BFFFF73EFBA2
:102B2000D4F838A0BAF1000F36D0226C52B1D4E9F3
:102B300002011144E160814224BF2168E16028461E
:102B4000FDF758FBAAF10100A06354F8100F70B113
:102B5000204600F089FA50B14EF60450CEF2000043
:102B60004FF080510160BFF34F8FBFF36F8F01248F
:102B7000FFF738FB204603B0BDE8F08F206C00283B
:102B8000B4D04FF0500080F31188BFF36F8FBFF3C4
:102B90004F8F00BFFEE700BF0298002800F0B4800E
:102BA0006846FFF70BFCFFF71DFBFFF79BFCFFF7E9
:102BB000F5FA94F8440004F12408FF2804BF00202B
:102BC00084F8440094F84500FF2804BF002084F8EE
:102BD0004500FFF707FB684602A900F09DF878B1B1
:102BE0002046FFF727F900F079FAFFF7D7FAA66B2E
:102BF000FFF7F8FA2EBB0024204603B0BDE8F08FA3
:102C0000FFF7CCFAA66BFFF7EDFA2EB12046FFF7DF
:102C100011F900F063FA14E002994046FFF7E0FB77
:102C20002046FFF707F900F059FA50B94EF6045064
:102C3000CEF200004FF080510160BFF34F8FBFF321
:102C40006F8FFFF7ABFAD4F838A0BAF1000F7FF41A
:102C50006CAF4FF00009EB4602AE13E02046FFF7E1
:102C6000E9F800F03BFAFFF799FAA76BFFF7BAFA19
:102C7000002FC0D0FFF792FAD4F838A0BAF1000FB5
:102C80007FF453AF029800283ED0FFF7ABFAFFF76E
:102C900029FCFFF783FA94F84400FF2808BF84F862
:102CA000449094F84500FF2808BF84F84590FFF74A
:102CB00099FA5846314600F02FF80028CED1FFF798
:102CC0006DFAA76BFFF78EFA37B12046FFF7B2F81F
:102CD00000F004FACEE700BF02994046FFF780FB00
:102CE0002046FFF7A7F800F0F9F90028C2D14EF608
:102CF0000450CEF200004FF080510160BFF34F8FBF
:102D0000BFF36F8FB6E700BF0024FFF76BFA2046D2
:102D100003B0BDE8F08F0000B0B538B30D4679B30D
:102D20000446FFF73BFA40F2840CC2F2000CDCF8D8
:102D3000242029684B1C2DD0D4E9000EDCF8383053
:102D4000834201D072452DD2A2EB0E02914227D9C7
:102D5000881A2860DCF838002060DCF82400606005
:102D60000024FFF73FFA2046B0BD00BF4FF05000EF
:102D700080F31188BFF36F8FBFF34F8FFEE700BF63
:102D80004FF0500080F31188BFF36F8FBFF34F8F68
:102D9000FEE700BF0024FFF725FA2046B0BD00BFC4
:102DA000002028600124FFF71DFA2046B0BD000076
:102DB0002DE9F04383B007469000984615468946B2
:102DC000FFF772F8F8B106465420FFF76DF8B8B176
:102DD0000446DDE90A100022266384F85120CDE97B
:102DE0000010384649462A4643460294FEF766FFDD
:102DF0002046FEF7A1FE012003B0BDE8F08300BF2E
:102E00003046FFF707FA4FF0FF3003B0BDE8F0831C
:102E100070B586B00B9CCCB10C9E0EB354250495B6
:102E2000049D542D26D1049DDDF828C0022586F886
:102E3000515005AD3463CDE900C50296FEF73EFF63
:102E40003046FEF779FE059806B070BD4FF0500091
:102E500080F31188BFF36F8FBFF34F8FFEE700BF82
:102E60004FF0500080F31188BFF36F8FBFF34F8F87
:102E7000FEE700BF4FF0500080F31188BFF36F8F63
:102E8000BFF34F8FFEE7000040F28400C2F2000063
:102E9000416900290FBF01208069B0FA80F0400924
:102EA00018BF4000704700002DE9F04740F284064B
:102EB000C2F20006B06928B1F06A0130F062002069
:102EC000BDE8F087706A10F1010AC6F824A020D38B
:102ED000306B006850B14FF0500080F31188BFF3A1
:102EE0006F8FBFF34F8F00BFFEE700BF306B716B7A
:102EF00031637063B06B0130B063306B006828B130
:102F0000306BC068C068406802E000BF4FF0FF301F
:102F10003062306A40F2AC188245C2F2000801D239
:102F2000002434E0306B0024006868B34FF00109DE
:102F300016E000BFF86A716809FA00F2114300EB6D
:102F40008000716008EB80002946FFF719F9F86AE4
:102F50003168C96A326B8842106828BF4C4698B104
:102F6000306BC068C7683D4655F8040F82450DD3E5
:102F70002846FFF7A3F8B86A0028DBD007F118004D
:102F8000FFF79CF8D6E700BF4FF0FF3030623068A3
:102F9000C06A00EB800058F82000012888BF012497
:102FA000B06A002818BF01242046BDE8F087000061
:102FB000F0B581B090B140F28407C2F20007044638
:102FC0003868A0420ED04FF0500080F31188BFF354
:102FD0006F8FBFF34F8F00BFFEE700BF0026304664
:102FE00001B0F0BDA06CA8B301384FF00006A0649A
:102FF000F5D1E06A616C8842F1D0251D2846FFF7C3
:103000005DF8002840F2AC10C2F200000CD1E16A79
:1030100001EB810250F8222032B901227B6802FACA
:1030200001F123EA01017960616C0126C1F1070217
:10303000E162A2617A6806FA01F301EB81011A43A9
:1030400000EB810029467A60FFF79AF8304601B01C
:10305000F0BD00BF4FF0500080F31188BFF36F8FB9
:10306000BFF34F8FFEE7000070B5C068C5686DB153
:1030700005F118042046FFF721F840F28406C2F259
:103080000006B06960B106F164001BE04FF050002B
:1030900080F31188BFF36F8FBFF34F8FFEE700BF40
:1030A0002C1D2046FFF70AF8E86A0121726881406A
:1030B0001143716040F2AC1100EB8000C2F20001DC
:1030C00001EB80002146FFF75BF8E86A3168C96AC6
:1030D000884292BF00200120B06270BD2DE9F0410E
:1030E00040F28405C2F20005A86968B1FFF756F8FE
:1030F000A8690138A861A86980B10024FFF772F8B7
:103100002046BDE8F08100BF4FF0500080F31188E9
:10311000BFF36F8FBFF34F8FFEE700BF2869002812
:10312000EBD0686E78B340F2AC180126C2F200080A
:10313000286FC76807F11800FEF7C0FF3C1D204646
:10314000FEF7BCFFF86A696806FA00F2114300EB6B
:103150008000696008EB80002146FFF711F8F86AEB
:103160002968C96A884228BFAE62686E0028DFD12C
:10317000286B006820B1286BC068C068406801E017
:103180004FF0FF302862EC6A4CB10126FFF78CFE4D
:10319000002818BFAE62013CF8D10020E862A86A9E
:1031A0000028AAD04EF60450CEF200004FF0805115
:1031B0000160BFF34F8F0124BFF36F8FFFF712F849
:1031C0002046BDE8F0810000000000000000010280
:1031D00003040607080900000000010203040102BD
:1031E00002030405060708090A0B0C0D0E0F101048
:1031F0006D795461736B3031006D795461736B304C
:10320000320064656661756C745461736B00000014
:1032100030320008000000201000000050010008BB
:1032200040320008100000208016000070010008E5
:10323000010000001000000000127A00AAAAAAAA49
:04000005080000ED02
:00000001FF
