:020000040800F2
:100000003818002001010008013A00081D2F0008DF
:10001000513900083D090008793C00080000000043
:10002000000000000000000000000000613A00082D
:100030005909000800000000113A0008153B0008AB
:100040001B0100081B0100081B0100081B01000820
:100050001B0100081B0100081B0100081B01000810
:100060001B0100081B0100081B0100081B01000800
:100070001B0100081B0100081B01000841090008C2
:100080001B0100084D0900081B0100081B010008A6
:100090001B0100081B0100081B0100081B010008D0
:1000A0001B0100081B0100081B0100081B010008C0
:1000B0001B0100081B010008313B00081B01000860
:1000C0001B0100081B0100081B0100081B010008A0
:1000D0001B010008493C00086D3C00081B0100089A
:1000E0001B0100081B0100081B010008DFF80CD0F1
:1000F00000F0FCFB00480047F53E000838180020DF
:100100000648804706480047FEE7FEE7FEE7FEE7B1
:10011000FEE7FEE7FEE7FEE7FEE7FEE72D3B000811
:10012000ED000008F0B480EA0102D40F4200B2EB07
:10013000410F02D20246084611464A0042D0C30D82
:10014000DDB2C1F3C752AD1A202D35DAC1F3160165
:1001500041F4000204B15242C5F1200602FA06F150
:100160002A411044B3EBD05F23D0C4B1012DA0EBE2
:10017000C35009DCF0BC4FF0004202EAC352DBB2CC
:1001800000F5000000F088BA400000F1807000EB3C
:10019000C350A0F1807040EAD170490009E04908DD
:1001A00041EAC071A0EBC35000F50000400800EB2D
:1001B000C350F0BC00F067BA6142012202EB41017A
:1001C000001BF6E7F0BC704781F00041AAE780F021
:1001D0000040A7E780EA010210B502F000434000AA
:1001E00022D04A001FD0010E01EB1261C0F356006D
:1001F000C2F3560240F4000042F40002A0FB0220C9
:1002000000047F39140400D0401C50EA124001D48D
:100210004000491EC2B20C0604EBD010401C40083E
:10022000802A02D003E0002010BD20F00100002948
:1002300000DA0020184310BD30B480EA010202F059
:10024000004530F0004221F0004013D090B1C30DC2
:10025000D40DC2F31601C0F31600E41A41F40001F4
:1002600040F400027D34914201D3641C00E0490057
:10027000002C02DA30BC002070474FF4000000234D
:10028000914201D3891A034340084FEA4101F7D153
:1002900051B1914202D14FF0004105E002D24FF03E
:1002A000010101E06FF0010103EBC450284430BCB0
:1002B00000F0E9B92DE9FE4F804681EA0300C00F46
:1002C0000C46009021F0004123F00045B8EB0200FD
:1002D000A94105D24046214690461C460B4602469F
:1002E00023F00040104347D0270DC7F30A00C3F3A3
:1002F0000A510290401A019040286BDAC3F31300B0
:1003000040F4801B0098924620B10023D2EB030AF0
:1003100063EB0B0B01985946C0F14002504600F0C8
:1003200091F906460D4650465946019A00F099F952
:1003300010EB08006141002487EA115284EAE77358
:100340001A4340D0009A62B3019A012A4FEA075239
:1003500015DC001B61EB02014FF0004202EA07527C
:10036000CDE90042001C41F5801132462B4600F0D9
:10037000D0F903B0BDE8F08F40462146F9E7001BF5
:1003800061EB0201001C41F5801300185B4120184D
:10039000A2F5001747EB030140EAD570B6196D418D
:1003A00011E06D084FEA360645EAC0754FEA07527C
:1003B000001B61EB0201001C41F5801149084FEA66
:1003C00030000019514132462B4603B0BDE8F04FD2
:1003D00000F090B90098012240000023D0EB020207
:1003E00063EBE073009821464FEAE074B8EB00003D
:1003F00061EB0401E9E783F000435BE781F0004132
:1004000058E72DE9FE4F81EA030404F0004421F08F
:10041000004100944FF0000B23F0004350EA010428
:100420005ED052EA03045BD0C3F30A54C1F30A5509
:100430002C44A4F2F3340194A0FB0254C1F3130141
:1004400041F48011C3F3130343F4801301FB02440E
:1004500000FB034E840A970A44EA815447EA835713
:10046000A4FB076802958D0A05FB07854FEA932CCC
:1004700004FB0C542705029D4FEA065847EA16373D
:10048000B5EB08056EEB070C870E920E47EA811755
:1004900042EA8312A7FB0201B6EB0B0164EB0004F6
:1004A0002B0D43EA0C335E1844EB1C50DA465146E0
:1004B000E7FB0201C5F313044FEA0B3343EA14537D
:1004C0004FEA0432019C43EA0603A4F10C040294AF
:1004D000009CCDE900B400F01CF903B0BDE8F08F3A
:1004E00000200146F9E7002801DBC0F100400029A7
:1004F00001DBC1F10041814201D20120704700209F
:100500007047002801DBC0F10040002901DBC1F188
:100510000041814201D90120704700207047C10F7E
:1005200080EAE0700844CA079623002100F0B4B8BE
:1005300020F00040C10DC0F3160040F400007F29F8
:1005400001DA00207047962903DCC1F19601C8400A
:10055000704796398840704700F0004230F0004004
:100560000AD0C10D01F56071C0F3160042EA0151D5
:10057000C20840071143704700200146704701F050
:10058000004330B421F0004150EA010206D00A0DC8
:10059000A2F56072C1F31301002A02DC30BC002016
:1005A0007047440F44EAC104C100E01830BC00EBBE
:1005B000C25000F068B830B50B460146002020223A
:1005C000012409E021FA02F59D4205D303FA02F560
:1005D000491B04FA02F52844151EA2F10102F1DCC0
:1005E00030BD2DE9F05F0546002092469B468846C7
:1005F0000646814640241BE028464146474622469F
:1006000000F08CF953465A46C01A914110D3114656
:100610001846224600F016F82D1A67EB01084F46DF
:1006200022460120002100F00DF817EB00094E4191
:10063000201EA4F10104DFDC484631462A46434629
:10064000BDE8F09F202A04DB203A00FA02F10020E6
:1006500070479140C2F1200320FA03F31943904000
:100660007047202A06DBCB17203A41FA02F043EA12
:10067000E07306E041FA02F3D040C2F1200291405B
:100680000843194670470029A8BF7047401C49001D
:1006900008BF20F00100704710B4B0FA80FC00FAE7
:1006A0000CF050EA010404BF10BC704749B1CCF112
:1006B000200421FA04F411FA0CF118BF012121439E
:1006C0000843A3EB0C01CB1D4FEA00614FEA102059
:1006D00042BF002010BC704700EBC35010440029FB
:1006E000A4BF10BC7047401C490008BF20F00100A7
:1006F00010BC704710B5141E73F1000408DA401CDA
:1007000041F1000192185B411A4301D120F0010030
:1007100010BD2DE9F04D92469B4611B1B1FA81F220
:1007200002E0B0FA80F220329046FFF78BFF0446D9
:100730000F4640EA0A0041EA0B0153465A46084375
:1007400013D0114653EA010019D0C8F140025046B7
:1007500000F0E4F805460E46504659464246FFF77B
:1007600071FF084305D0012004E020463946BDE86A
:10077000F08D0020054346EAE0762C4337430A9883
:100780006305E40AA0EB08000022FD0A44EA47548E
:100790000A3002D500200146E9E701051019694138
:1007A000DDE9084500196941BDE8F04DA2E72DE9F2
:1007B000F04D81EA030404F0004B21F0004514469B
:1007C0004FF0000A23F0004150EA050220D054EA1D
:1007D00001021DD0C5F30A570246C5F31303C1F346
:1007E0001300C1F30A5640F4801543F48013A7EBBD
:1007F0000608101BD64608F2FD3873EB050002D33D
:1008000008F1010801E092185B41B8F1000F03DA2A
:1008100000200146BDE8F08D00204FF4801106460F
:1008200084460EE0171B73EB050705D3121B63EB21
:10083000050306434CEA010C49084FEA30009218C0
:100840005B4150EA0107EDD152EA030012D082EA7F
:10085000040083EA0501084305D0101BAB4106D212
:100860000122002306E000224FF0004302E06FF077
:10087000010253101AEB06004CEB085110EB0A0072
:1008800041EB0B01BDE8F04DFFF734BFC1F30A5255
:10089000C1F3130140F2FF3341F480119A4202DAAE
:1008A00000200146704740F233439A42A2F233429D
:1008B00002DC524200F032B8FFF7C4BE30B5041E6D
:1008C00071F1000404DB4FF00044404264EB01018D
:1008D000141E73F1000405DB1C464FF00043524226
:1008E00063EB0403994208BF904230BD1CB5094830
:1008F0000090094801900546009C06E0E06840F041
:10090000010394E8070098471034AC42F6D3FFF790
:10091000F1FB0000E456000804570008202A04DB1D
:10092000203A21FA02F00021704721FA02F3D04068
:10093000C2F120029140084319467047FEE70000CB
:1009400040F2FC20C2F2000000F090B840F2B82063
:10095000C2F2000000F08AB870470000EFF3108088
:1009600072B600BFFEE70000014690F821000228A1
:1009700016D10868D1E90FC3026822F00E020260A6
:10098000026822F001020260012000FA03F2CCF8B2
:10099000042081F821000020002281F820207047E7
:1009A000042088630120002281F820207047000085
:1009B00090F82110022923D10268116821F00E015C
:1009C00011602F211368C4F202018A4240F204012F
:1009D000C4F2020123F00103136015DD3023C4F2D9
:1009E00002039A421CD04423C4F202039A421BD051
:1009F0005823C4F202039A421CD14FF4803321E001
:100A000004218163012070470823C4F202039A4243
:100A10000ED01C23C4F202039A420BD1102311E022
:100A20004FF480730EE000BF4FF480530AE000BF24
:100A3000012307E001F1680C4FF08073624508BFA5
:100A40004FF480130B60012180F82110426B0021CC
:100A500080F8201022B180B590470021BDE8804089
:100A60000846704790F821007047000010B5D0E9A3
:100A70000FCE0168DCF800300A6823FA0EF35C0739
:100A80002AD512F0040427D00A68920603D40A6813
:100A900022F004020A602F22C4F20202914240F2C4
:100AA0000402C4F202025BDD3023C4F20203994265
:100AB00072D04423C4F20203994273D05823C4F283
:100AC0000203994240F07A804FF480231360C16A98
:100AD000002940F098806FE09C0727D512F00204AF
:100AE00024D00A68920606D40A6822F00A020A6034
:100AF000012280F821202F22C4F20202914240F20A
:100B00000402C4F202023BDD3023C4F20203994224
:100B100060D04423C4F2020399425FD05823C4F248
:100B20000203994260D14FF4003365E01B0743D5BF
:100B300012F0080208BF10BD0A6822F00E020A6017
:100B4000012101FA0EF2CCF80420816380F8211013
:100B5000016B0022002980F8202054D12CE000BF36
:100B60000823C4F20203994222D01C23C4F20203D8
:100B7000994223D140231360C16A002943D11BE06D
:100B80000823C4F2020399422CD01C23C4F20203AE
:100B9000994229D120232FE04FF480631360C16A6A
:100BA00089BB09E04FF480431360C16A59BB03E07D
:100BB00004231360C16A31BB10BD00BF02F1680499
:100BC0004FF08063A14208BF4FF480031360C16AF5
:100BD000C9B9F1E74FF400730EE000BF4FF40053C2
:100BE0000AE000BF022307E002F168044FF000733F
:100BF000A14208BF4FF400131360816A002200294C
:100C000080F82020D8D0BDE81040084701460028D1
:100C10004FF0010008BF70472DE9F0470A684FF612
:100C2000F873CBF6FD7302EB030C4CF6CD43CCF618
:100C3000CC43ACFB033C6FF00307002607EA9C079C
:100C4000C4F2020601F10C0AC1E90F670227D1E9DB
:100C5000013E9AE83004D1E9069881F821701768BE
:100C600043F6F076B7433B4343EA0E0323432B435B
:100C700043EA0A0343EA090343EA08031360002234
:100C80008A6381F8210081F820200020BDE8F04728
:100C9000704700002DE9F04F82B00E68002E00F082
:100CA000FD8041F20042C4F20102042340F2004EF2
:100CB000904208BF03234FF6FF7CC4F2010E00935D
:100CC00000240123C1F2100C4FF0000A4FF000097C
:100CD00044E000BF012704F00C030F229A402BEAE6
:100CE000020207FA03F34FEA9A051A4346F8252051
:100CF0004E6840F20C45F202DEF8082054BF22EAAA
:100D0000080242EA0802C4F20105CEF808202A6867
:100D1000B30254BF22EA080242EA08022A60B3037F
:100D2000DEF8042054BF22EA080242EA0802F30374
:100D3000CEF80420DEF800204FF0010354BF22EA71
:100D4000080242EA0802CEF800200E680AF1010A01
:100D500036FA0AF204F1040400F0A08003FA0AFB58
:100D600016EA0B08F1D04E68664511DC122E55D8F4
:100D7000DFE806F0340A444854545454545454544C
:100D800054545454544C5000D1F80C9046E000BFD9
:100D90004FF6FF72C1F2210296420FDC0022C1F22F
:100DA000110296421AD00022C1F21202964215D0C8
:100DB0000022C1F22102964210D02FE00022C1F29F
:100DC000220296420AD00022C1F23102964205D098
:100DD0000022C1F23202964220D100BF8A684AB195
:100DE000012A14BFC0F814B0C0F810B04FF00809C1
:100DF00014E000BF4FF0040910E000BFCA6802F120
:100E000008090BE04FF0000908E000BFCA6802F1D2
:100E1000040903E0CA6802F10C0900BF2246064635
:100E2000B8F5807F24BF203A043637680F259540F7
:100E300027EA050509FA02F22A433260CA79D20686
:100E40007FF583AF41F21803C4F202031A68AEF5CE
:100E50007E7642F001021A601A6802F001020192E5
:100E6000019A2AF0030256F802B040F60002C4F2DA
:100E70000102904210D040F60042C4F201029042BA
:100E80003FF428AF41F20002C4F20102009F9042F9
:100E900008BF02271FE700BF00271CE702B0BDE81C
:100EA000F08F000041F2E010C2F2000000687047CD
:100EB000002804BF01207047F0B581B0044690F8C7
:100EC0003D0028B9002084F83C00204600F050FA8C
:100ED000242084F83D002068016821F001010160B0
:100EE000016841F400410160016821F400410160A2
:100EF00000F06EFC636848F2A16CC0F2010C40F691
:100F00000011C0F23D0163453CBF48F28041C0F290
:100F10001E01884202D2012001B0F0BD4DF683616E
:100F2000C4F21B31A0FB01122168970CD1F804E038
:100F30004FF496762EF03F0545EA92454D60774393
:100F400048F638160D6AC0F24106A7FB067625F072
:100F50003F07634538BF960C721C3A430A62CA6960
:100F600048F2A0664CF6FF77C0F20106B34222EACF
:100F700007020BD801385B00B0FBF3F001306FF3D0
:100F80001F30042898BF04201BE000BFA768013869
:100F900057B119277B43B0FBF3F001306FF31F30DB
:100FA00070B100F5804007E003EB4303B0FBF3F0C2
:100FB00001306FF31F3018B100F5004001E000BFB1
:100FC00001201043C8610868D4E9072320F0C0005D
:100FD000104318430860886848F2FF3204F10C0798
:100FE00090438CCF18431043A6698860C86820F0EE
:100FF000FF0038433043C860086840F001000860D3
:1010000000202021206484F83D10206384F83E00F5
:1010100001B0F0BD2DE9F04F85B00446002099469F
:1010200016460F460490FFF73DFF94F83D10202927
:1010300027D10546206800BF816989071CD5FFF7C5
:1010400031FF411B20681A29F6D381698907F3D53E
:1010500000202021206384F83D1084F83E00206C9D
:1010600004F13C0A40F020002064022000218AF8AC
:10107000001005B0BDE8F08FA2461AF83C1F012908
:1010800004D1022005B0BDE8F08F00BF01228AF82C
:1010900000200368DDE90F180E9ADB0703D103680F
:1010A00043F001030360036823F40063036022201C
:1010B00084F83D00402084F83E00002020646262F5
:1010C0006185608D394620850020CFF6FF70E06293
:1010D000204632464B46CDE9008501F021FF18B18C
:1010E000012005B0BDE8F08F208D022810D0012826
:1010F00024D0002838D10020039020684169039152
:10110000816903910399016841F40071016037E03E
:101110002068016841F400610160EFF3108072B64D
:10112000002003902068416903918169039103992C
:10113000016821F48061016062B621E020680168E5
:1011400021F480610160EFF3108072B600200390FB
:10115000206841690391816903910399016841F411
:101160000071016062B60BE02068016841F48061A3
:101170000160002103914169039180690390039804
:10118000208D002800F0D480042740F20C094BF297
:10119000895BC0F20107C2F20009C1F2F84B2326B5
:1011A00017E000BF204641462A4602F095F8002885
:1011B00096D12068616A00690870606A218D0130EB
:1011C0006062481E2085618D01396185010400F04F
:1011D000AF8080B2032867D8022800F089800128F8
:1011E000E0D02046394600224346009501F022FF18
:1011F00000287FF475AF2068016821F480610160E8
:10120000EFF3108072B62068616A00690870606A46
:10121000218D0130013960622185618D013961853F
:10122000D9F80010C908A1FB0B12110A71430491EF
:101230000499013904910499002900F085802168FE
:101240004A6952071ED4049901390491049900296E
:1012500000F07A8021684A69520713D40499013951
:101260000491049900296FD021684A69520709D472
:101270000499013904910499002965D021684A69CB
:101280005207D5D50A6842F400720A6009690170F4
:10129000606A218D01306062481E2085608D0138B2
:1012A000608562B685E700BF204641462A4602F0C7
:1012B00013F800287FF414AF2068616A0069087091
:1012C000606A2268411C208D616201382085638D2F
:1012D000013B638553695B077FF578AF80B20328D4
:1012E00003D1106820F480601060106964E700BFCB
:1012F0002046394600224346009501F09BFE002817
:101300007FF4EEAEEFF3108072B62068616A026877
:1013100042F40072026000690870606A218D013039
:101320006062481E2085608D0138608562B640E7A6
:10133000202084F83D00002084F83E0000218AF837
:10134000001005B0BDE8F08F00202021206384F854
:101350003D1084F83E00206C40F02000206462B60E
:10136000012000218AF8001005B0BDE8F08F0000D0
:1013700070B586B00446006845F60001C4F200016D
:10138000002688420596CDE9036602963ED045F2D6
:101390000041C4F20001884279D141F21805C4F23B
:1013A0000205286802A940F008002860286800F0BB
:1013B000080001900198C0200290122003900320A1
:1013C000059040F60040C4F20100FFF763FC41F2D3
:1013D0001C00C4F202000168802241F40011016087
:1013E0000068002100F4001001900198A5F69870A3
:1013F00040F2B825C2F200052023C5E90001C5E985
:101400000212C5E90411C5E9063137E041F21805B9
:10141000C4F20205286802A940F008002860286884
:1014200000F00800019001984FF4406002901220F3
:1014300003900320059040F60040C4F20100FFF73E
:1014400029FC41F21C00C4F202000168202241F490
:10145000800101600068802100F480000190019803
:10146000A5F57C6040F2FC25C2F20005C5E9000646
:10147000C5E90261C5E90466C5E906262846FFF705
:10148000C5FB002818BFFFF769FAA5636C6206B0B8
:1014900070BD000040F2040041F2E011C2F2000011
:1014A000C2F2000100780A6810440860704700002A
:1014B00080B542F20000C4F20200016841F0100160
:1014C0000160032000F092F80F2000F005F800F012
:1014D00027F8002080BD000070B540F20406C2F27B
:1014E000000640F20C013278C2F200014FF47A7328
:1014F0000968B3FBF2F20446B1FBF2F1084600F0D2
:101500008FFB0F2C4FF0010508D838B94FF0FF3092
:1015100021460022002500F03DF87460284670BD89
:1015200080B582B041F21800C4F2020001680022C6
:1015300041F001010160016801F00101019101998F
:10154000416841F08051416040680F2100F08050B7
:10155000009000986FF0010000F01CF80420C4F225
:1015600001000168022262F31A61016002B080BDCD
:10157000002848BF704700F01F01012202FA01F164
:101580001C2202EAD0004EF20012CEF2000281507C
:101590007047000010B54EF60C5CCEF2000CDCF883
:1015A0000030C3F3022E8EF00704042C28BF04245D
:1015B000BEF103034FF0FF3E0EFA04F438BF0023E0
:1015C000A14399400EFA03F39A43114300F00F022E
:1015D00000F160430901043A03F5644362440028C2
:1015E00048BF02F10C03197010BD00004EF60C51FB
:1015F000CEF200010A684FF6FF031A4060F30A2298
:1016000042F0806040F0FD7008607047002804BF21
:10161000012070472DE9F04381B042F20008C4F286
:1016200002080446D8F800000D4600F00700884282
:101630000CD2D8F8000020F007002843C8F80000BA
:10164000D8F8000000F00700A8426CD1206841F2F1
:1016500004098107C4F2020917D5410705D5D9F855
:10166000001041F4E061C9F80010010705D5D9F870
:10167000001041F46051C9F80010D9F80010A268B8
:1016800021F0F0011143C9F80010C00742D1D8F889
:10169000000000F00700A8420CD9D8F8000020F0A4
:1016A00007002843C8F80000D8F8000000F0070041
:1016B000A84238D12068410707D5D9F80010E26860
:1016C00021F4E0611143C9F80010000708D5D9F8EA
:1016D0000000216920F4605040EAC100C9F8000010
:1016E000D9F8002002F00C00082841F20020C0F2D6
:1016F0007A0051D145F2BC63C2F38341C0F60003C6
:10170000595CD2033CD440F60010C0F23D0048437F
:1017100042E000BF606802280AD001282AD159F8A7
:10172000041C890308D4012001B0BDE8F08300BF88
:1017300059F8041C8901F6D5D9F8001021F00301ED
:101740000843C9F80000FFF7ADFB064641F28837B1
:10175000D9F80000616800F00C00B0EB810F96D062
:10176000FFF7A0FB801BB842F2D9032001B0BDE80F
:10177000F08300BF59F8041C8907D4D5DCE700BF0B
:10178000D9F8002045F2BA63C2F34042C0F6000324
:101790009A5C4843B0FBF2F0D9F8001045F2A2621F
:1017A000C1F30311C0F60002515C40F20C0220FAB2
:1017B00001F140F20800C2F200000068C2F200022B
:1017C0001160FFF789FE002001B0BDE8F083000042
:1017D00040F20C0041F20401C2F20000C4F2020126
:1017E0000068096845F2B262C1F30221C0F6000246
:1017F000515CC8407047000040F20C0041F2040107
:10180000C2F20000C4F202010068096845F2B26247
:10181000C1F3C221C0F60002515CC840704700000D
:10182000002804BF012070472DE9F04182B0044632
:10183000007841F20006C007C4F202060CD07068BE
:1018400000F00C00042840F081803068800303D54C
:101850006068002800F04E81207880071BD57068F2
:1018600010F00C0F09D0706800F00C00082840F050
:101870008B807068C00300F187803068800703D5D3
:101880002069012840F036813068616920F0F80055
:1018900040EAC10030602078000713D42078400768
:1018A0002CD4E569002D00F02081706800F00C0058
:1018B000082840F0AF80012D40F00C81012002B0DB
:1018C000BDE8F081A069002800F08C800020C4F2FF
:1018D00042200121C0F88014FFF7E4FA054600BF5A
:1018E000706A800700F1BA80FFF7DCFA401B02281B
:1018F000F6D9032002B0BDE8F08100BFF0695FEACD
:10190000C00808D4F06940F08050F061F06900F040
:1019100080500090009847F20007C4F20007386832
:10192000C0054DD4386840F480703860FFF7BAFACB
:10193000054600BF3868C00542D4FFF7B3FA401B24
:101940006428F7D9032002B0BDE8F081706800F088
:101950000C00082803D17068C0033FF576AF6068BB
:10196000002800F00981B0F5A02F00F01D81B0F52E
:10197000803F00F01D81306820F480303060306896
:1019800020F4802017E100BF2069002840F2000009
:10199000C4F2422000F08C8001210160FFF782FA3E
:1019A000054600BF306880073FF56EAFFFF77AFA53
:1019B000401B0228F6D9032002B0BDE8F08100BF29
:1019C000E068002800F09A80052800F0B180012826
:1019D00000F0B280306A20F001003062306A20F0FE
:1019E0000400ACE00020C4F242200021C0F88014C2
:1019F000FFF758FA054600BF706A80077FF54EAFC3
:101A0000FFF750FA401B0228F6D9032002B0BDE8C8
:101A1000F08100BF0027C4F2422700203866FFF79C
:101A200041FA022D05460DD13068800140F1D68083
:101A3000FFF738FA401B02284FF00300F4D902B038
:101A4000BDE8F081306880014FD5FFF72BFA401BCD
:101A500002284FF00300F5D9F1E700BF40F20C0077
:101A6000C2F20000006844F6D351C1F26201A0FB4B
:101A70000101480A019000BF00BF0198411E0028E3
:101A800001913FF40BAF00BF0198411E0028019166
:101A90003FF404AF00BF0198411E002801913FF4BC
:101AA000FDAE00BF0198411E00280191E4D1F5E68A
:101AB00000210160FFF7F6F9054600BF3068800796
:101AC0007FF5E9AEFFF7EEF9401B02284FF0030067
:101AD000F4D9B4E77068216A00F480328A4209D1EF
:101AE000616A00F47010884204D1002002B0BDE8A1
:101AF000F08100BF012002B0BDE8F081306A20F023
:101B000001003062306A20F004003062FFF7CAF949
:101B1000054641F2883700BF306A800722D5FFF7BB
:101B2000C1F9401BB8424FF00300F5D987E700BF69
:101B3000306A40F004003062306A40F001003062E8
:101B4000FFF7B0F9054641F2883700BF306A8007D9
:101B500008D4FFF7A7F9401BB842F7D9032002B019
:101B6000BDE8F081B8F1000F3FF59BAEF06920F0C1
:101B70008050F06195E600BF306820F4803030601E
:101B8000306820F480203060FFF78CF9054600BFF4
:101B9000306880037FF560AEFFF784F9401B64284E
:101BA0004FF00300F4D94AE7306840F480203060F9
:101BB000306840F480303060FFF774F9054600BFAC
:101BC000306880033FF548AEFFF76CF9401B64288E
:101BD000F6D9032002B0BDE8F08100BF206AB0F55D
:101BE000803F05D17168A26821F400311143716012
:101BF0007168626A21F47411114308437060012016
:101C00003866FFF74FF90446306880013FF56DAF45
:101C1000FFF748F9001B02284FF00300F4D90EE744
:101C2000411E0020B0EB116F1CBF012070474EF227
:101C30001002CEF2000251604EF62351CEF20001A6
:101C4000F0230B700721906011607047704700000F
:101C50007047000090F83C20012A4FF0020236D075
:101C600010B580F83D200268D2F804E0D2F808C030
:101C70000C682EF07003234340F2FF74C4F200049A
:101C8000A24253600ADCB2F1804F13D040F200430D
:101C9000C4F200039A420DD011E000BF42F60043A7
:101CA000C4F201039A4205D040F60003C4F20003D7
:101CB0009A4204D149682CF08003194391600121B4
:101CC000002280F83D1080F83C20BDE8104010460E
:101CD00070470000002804BF0120704710B504467B
:101CE00090F83D0028B9002084F83C00204600F020
:101CF0006FF8022084F83D00206840F2FF7302680C
:101D0000C4F2000342F6004C9842C4F2010C15DC08
:101D1000B0F1804F1AD040F20041C4F20001884275
:101D200014D0984218DCB0F1804F1DD040F2004131
:101D3000C4F20001884217D01AE000BF604505D008
:101D400040F60001C4F200018842EAD1A16822F005
:101D500070020A439842E6DD604505D040F6000176
:101D6000C4F20001884203D1216922F440720A437F
:101D7000A36922F08001D4F804E0E26819436045C9
:101D80000160C262C0F828E002D16169CCF830106D
:101D9000012141610269D20703D0026922F00102E8
:101DA0000261002084F8461084F83E1084F83F1049
:101DB00084F8401084F8411084F8421084F84310ED
:101DC00084F8441084F8451084F83D1010BD0000DC
:101DD000006840F60001C4F20001884218BF704755
:101DE00080B582B041F21C00C4F2020001680022FA
:101DF00041F0040101600068052100F00400019039
:101E000001981E20FFF7C6FB1E2002B0BDE88040EF
:101E1000FFF7AEBB90F83D1001291CBF01207047B1
:101E2000022180F83D10006840F2FF72C168C4F2E0
:101E30000002904241F00101C16009DCB0F1804F25
:101E400012D040F20041C4F2000188420CD012E0EE
:101E500042F60041C4F20101884205D040F600017B
:101E6000C4F20001884206D1816801F00701062909
:101E700004BF00207047016841F0010101600020AB
:101E80007047000090F83C20012A4FF0020200F059
:101E9000C58080B580F83D20D0F800C04FF677723D
:101EA000DCF8083023EA0202CCF808200B684F2B3C
:101EB00028DC1F2B44DD202B45D0302B43D0402B7A
:101EC00040F0AE80D1F804E0C968DCF82030DCF8DE
:101ED000202022F00102CCF82020DCF8182022F08B
:101EE000F00242EA011123F00A0242EA0E02CCF8A3
:101EF0001810CCF82020DCF8081041F0470121F040
:101F0000300180E06F2B27DDB3F5005F48D0B3F5DB
:101F1000805F7AD0702B40F08380D1E901E3C968FB
:101F2000DCF8082043EA0E0322F47F4243EA012151
:101F30001143CCF80810DCF8081041F0770162E09A
:101F40000BB1102B6CD1DCF8081021F07001194393
:101F500041F0070157E000BF502B35D0602B5FD117
:101F6000D1F804E0C968DCF82030DCF8202022F049
:101F70001002CCF82020DCF8182022F4704242EA4B
:101F8000013123F0A00242EA0E12CCF81810CCF86E
:101F90002020DCF8081041F0670121F0100132E048
:101FA000D1E901E3C968DCF8082043EA0E0322F412
:101FB0007F4243EA01211143CCF80810DCF80810F5
:101FC00041F480411FE000BFD1F804E0C968DCF8AB
:101FD0002030DCF8202022F00102CCF82020DCF8B0
:101FE000182022F0F00242EA011123F00A0242EA2C
:101FF0000E02CCF81810CCF82020DCF8081041F0C4
:10200000570121F02001CCF808100022012180F8AE
:102010003D10002180F83C10BDE88040104670471C
:102020000122F3E77047000070B504460068C568F8
:102030000669B10716D515F0020113D06FF0020141
:102040000161012121778069800703D02046FFF7D5
:10205000E9FF05E0204600F08FF8204600F036FA50
:1020600000202077700719D515F0040016D02068DD
:102070006FF00401016102212177806910F4407F33
:1020800004D02046FFF7CEFF06E000BF204600F058
:1020900073F8204600F01AFA00202077300717D591
:1020A00015F0080014D020686FF0080101610421C8
:1020B0002177C069800703D02046FFF7B3FF05E012
:1020C000204600F059F8204600F000FA0020207762
:1020D000F00619D515F0100016D020686FF0100129
:1020E000016108212177C06910F4407F04D02046A7
:1020F000FFF798FF06E000BF204600F03DF82046BD
:1021000000F0E4F900202077F00718BF15F0010077
:1021100002D1300609D412E020686FF0010101619C
:10212000204600F043FA300609D515F0800006D0AD
:1021300020686FF0800101612046FFF787FD70067F
:1021400009D515F0400006D020686FF0400101610C
:10215000204600F04FFAB00658BF70BD15F02000C1
:1021600008D021686FF0200220460A61BDE8704067
:10217000FFF76EBD70BD00007047000090F83C3066
:10218000012B04BF022070474FEAB202032A3DD858
:102190002DE9F043DFE802F002407CB6036842F626
:1021A00000461D6A1A6AC4F2010622F001021A6290
:1021B0001A465C6852F818CFB3428E68D1F800E036
:1021C00025F0020545EA06050CD1CE68D1E905786F
:1021D00024F4407425F00C0526F004063C433543F6
:1021E00044EA08042CF0730747EA0E075C609F611D
:1021F0004F6809695F631D629F6947F008079F6127
:102200009F6927F004079F61ACE000BF0121002215
:1022100080F83C2008467047036842F600461D6A75
:102220001A6AC4F2010622F010021A621A46D3F8A2
:1022300004C052F8184FB3428E68D1F800E025F080
:10224000200545EA06150FD1CE68D1E905986FF053
:10225000400725F0C00507EA061635432CF4406711
:1022600048EA090647EA860C24F4E64444EA0E27C5
:10227000C3F804C09F614F6809699F631D629F692D
:1022800047F400679F619F6927F480679F6168E05A
:10229000036842F600461D6A1A6AC4F2010622F477
:1022A00080721A621A46D3F804C052F81CEFB34287
:1022B0008E680C6825F4007545EA06250FD1CE68B6
:1022C000D1E90598360240F2FF4725F44065BE4348
:1022D00035432CF4405748EA090647EA061C2EF01D
:1022E00073072743C3F804C0DF614F680969DF63E0
:1022F0001D62DF6947F00807DF61DF6927F0040727
:10230000DF612FE0036842F60047D3F820C01A6A65
:10231000C4F2010722F480521A621A465C6852F82D
:102320001C5FD1F800E08E68BB4204D14F6924F4F1
:10233000804444EA87142CF4005747EA063725F412
:10234000E64646EA0E265C60DE614E6809691E6458
:102350001F62DF6947F40067DF61DF6927F4806788
:10236000DF6109021368194311600021BDE8F043E1
:10237000002280F83C20084670470000002804BF77
:102380000120704710B5044690F83D0028B90020A0
:1023900084F83C00204600F06FF8022084F83D00ED
:1023A000206840F2FF730268C4F2000342F6004C5A
:1023B0009842C4F2010C15DCB0F1804F1AD040F203
:1023C0000041C4F20001884214D0984218DCB0F1F8
:1023D000804F1DD040F20041C4F20001884217D066
:1023E0001AE000BF604505D040F60001C4F20001CC
:1023F0008842EAD1A16822F070020A439842E6DDE1
:10240000604505D040F60001C4F20001884203D1C6
:10241000216922F440720A43A36922F08001D4F8B2
:1024200004E0E268194360450160C262C0F828E038
:1024300002D16169CCF83010012141610269D207F3
:1024400003D0026922F001020261002084F84610E4
:1024500084F83E1084F83F1084F8401084F841104E
:1024600084F8421084F8431084F8441084F845102E
:1024700084F83D1010BD000082B0006840F20041B9
:10248000C4F20001884211D0B0F1804F1BD141F25B
:102490001C00C4F20200016841F001010160006803
:1024A00000F001000190019802B0704741F21C0059
:1024B000C4F20200016841F002010160006800F00E
:1024C00002000090009802B07047000070470000C2
:1024D00041B1082910D0042914BF00F1410200F1D4
:1024E0003F020BE090F83E20012A1CBF01207047FC
:1024F000022280F83E2013E000F140021278012A07
:102500001CBF012070470222082907D0042914BFEC
:1025100080F8412080F83F2002E000BF80F8402092
:10252000006801F01F010122036A8A4023EA0201C8
:102530000162036A42F64441C4F201011A43A1F167
:102540004403984202620FD040F2FF71C4F20001CE
:10255000884213DCB0F1804F1CD040F20041C4F23D
:102560000001884216D01AE00A6842F400420A606C
:1025700040F2FF71C4F200018842EBDD42F60041F7
:10258000C4F20101884205D040F60001C4F2000106
:10259000884204D1816801F00701062903D001684F
:1025A00041F001010160002070470000006840F622
:1025B0000001C4F20001884218BF7047B0B540F274
:1025C0009434C2F20004204600F02CFF40F2CC0507
:1025D00040F24030C2F20005C2F20000294601225A
:1025E00001F000FC204629460222BDE8B04001F07F
:1025F000F9BB000070470000704700007047000002
:10260000B0B582B0044600680168C368426901F051
:102610002F05202D03F0200506D12DB1204602B054
:10262000BDE8B04001F090BA5FEA017C1EBF02F045
:10263000010E03F4907212EB0E0243D1226BCD0611
:1026400018D5012A16D113F0100213D000210191E0
:1026500001680191416801910199406940063BD4AC
:10266000A08DE18DE28D002A18BF884240F0F281F2
:1026700002B0B0BD0A0640F1E78013F0800200F01E
:10268000E38094F841102129F2D1A168B1F5805F6F
:1026900003D12169002900F06382216A4A1C226269
:1026A00009784160E18C01390A04E184E0D1C16814
:1026B00021F08001C160C16841F04001C16002B0F9
:1026C000B0BD00BFCA0718BF13F4807240F0D080BD
:1026D0004A0700F1D380D8E0E06B016849688AB20C
:1026E000002AC5D0A38D9A42C2D2E18580692028F4
:1026F00000F09E80206850E8030F216820F480706D
:1027000041E80302DAB1206850E8030F216820F4A1
:10271000807041E8030292B1206850E8030F2168FD
:1027200020F4807041E803024AB1206850E8030FAA
:10273000216820F4807041E80302002ADAD1206881
:1027400050E8050F216820F0010041E80502C2B3FE
:10275000206850E8050F216820F0010041E80502DB
:102760007AB3206850E8050F216820F0010041E8A5
:10277000050232B3206850E8050F216820F00100FF
:1027800041E80502002ADAD11BE000BF206850E8CA
:10279000050F216820F0400041E80502DAB1206809
:1027A00050E8050F216820F0400041E8050292B191
:1027B000206850E8050F216820F0400041E805023C
:1027C0004AB1206850E8050F216820F0400041E838
:1027D0000502002ADAD1202084F84200002020637C
:1027E000206850E8030F216820F0100041E8030240
:1027F000DAB1206850E8030F216820F0100041E8AA
:10280000030292B1206850E8030F216820F0100005
:1028100041E803024AB1206850E8030F216820F024
:10282000100041E80302002ADAD1E06BFEF79CF8C1
:1028300002206063A08DE18D401A81B2204602B073
:10284000BDE8B040FFF7D8BE49067FF511AF13F0E1
:1028500040013FF40DAFC16821F04001C16020216B
:10286000204684F8411002B0BDE8B04000F054BBEF
:10287000626C42F0010262644A0706D5BEF1000FA5
:1028800003D0626C42F0020262648A0706D5BEF190
:10289000000F03D0626C42F004026264BCF1000FCE
:1028A00006D55EEA050203D0626C42F0080262645B
:1028B000626C002A3FF4DCAE890604D51DB12046C7
:1028C00001F042F920684069616C00F0400001F0BD
:1028D0000801401800F0B680206850E8030F216816
:1028E00020F4907041E80302BAB3206850E8030F67
:1028F000216820F4907041E8030272B3206850E828
:10290000030F216820F4907041E803022AB3206885
:1029100050E8030F216820F4907041E80302002A78
:10292000DAD11AE0206850E8050F216820F0010094
:1029300041E80502DAB1206850E8050F216820F06F
:10294000010041E8050292B1206850E8050F2168B6
:1029500020F0010041E805024AB1206850E8050F67
:10296000216820F0010041E80502002ADAD1206B3D
:10297000012824D1206850E8030F216820F01000BE
:1029800041E80302DAB1206850E8030F216820F023
:10299000100041E8030292B1206850E8030F21685B
:1029A00020F0100041E803024AB1206850E8030F0C
:1029B000216820F0100041E80302002ADAD120202B
:1029C00084F842000020206320684069400640F1FE
:1029D000C180206850E8050F216820F0400041E8E0
:1029E0000502DAB1206850E8050F216820F04000A8
:1029F00041E8050292B1206850E8050F216820F0F7
:102A0000400041E805024AB1206850E8050F2168FE
:102A100020F0400041E80502002ADAD1E06B0028EE
:102A200000F0988043F63D31C0F600014163FDF7A8
:102A3000BFFF00283FF41CAEE06B416B02B0BDE865
:102A4000B04008472046FFF7D9FD0020606402B07F
:102A5000B0BD00BF401A00BF216851E8031F2268C3
:102A600021F4907142E80313BBB3216851E8031FBE
:102A7000226821F4907142E8031373B3216851E88E
:102A8000031F226821F4907142E803132BB32168DD
:102A900051E8031F226821F4907142E80313002BD0
:102AA000DAD11AE0216851E8051F226821F00101FE
:102AB00042E80513DBB1216851E8051F226821F0C7
:102AC000010142E8051393B1216851E8051F22680E
:102AD00021F0010142E805134BB1216851E8051FBF
:102AE000226821F0010142E80513002BDAD12021F0
:102AF00084F8421000212163216851E8031F2268F5
:102B000021F0100142E80313DBB1216851E8031FF3
:102B1000226821F0100142E8031393B1216851E8C3
:102B2000031F226821F0100142E803134BB1216812
:102B300051E8031F226821F0100142E80313002B23
:102B4000DAD1022281B22046626302B0BDE8B04011
:102B5000FFF752BD204602B0BDE8B040FFF74EBDC2
:102B6000216A31F8022B6FF35F224260216299E5FE
:102B7000002804BF0120704710B5044690F84100BA
:102B800028B9002084F84000204600F063F8242093
:102B900084F841002068D4E90212C36823F400538A
:102BA000C360036923F440531A430261D4E9042348
:102BB0001143C268194341F20C639A431143C16047
:102BC0004169A26921F44071114343F60002C4F245
:102BD00001029042416103D0FEF7FAFD02E000BF1E
:102BE000FEF70AFED4E90023192148439900B0FBFF
:102BF000F1F048F21F5CC5F2EB1CA0FB0C314FF664
:102C00009C734909C0F6FF7301FB0300322303EBF9
:102C10000010A0FB0C03F02000EA531000EB0110A1
:102C2000C3F34311084490601069202120F49040C0
:102C30001061506920F02A005061D06840F40050C3
:102C4000D0600020606484F8411084F84210606312
:102C500010BD0000F0B585B0006844F20041C4F238
:102C6000000188424FF00001CDE90311CDE90111C7
:102C700022D043F60001C4F20101884253D141F24F
:102C80001800C4F202000168252441F4804101606B
:102C900001684FF4806701F4804100910099016858
:102CA00041F004010160006800F004000090009809
:102CB0004FF4007019E000BF41F21800C4F20200A6
:102CC0004168262441F4003141604168082701F43D
:102CD000003100910099016841F004010160006831
:102CE00000F004000090009804200190022040F6BB
:102CF000000502900320C4F2010501AE04902846AD
:102D00003146FDF7C7FF0020CDE9020028463146D5
:102D10000197FDF7BFFF204605210022FEF73AFC90
:102D20002046FEF725FC05B0F0BD000090F84230CB
:102D3000202B07D100294FF0010318BF002A05D12D
:102D40001846704702231846704700BF00230363EC
:102D5000816222218285C285436480F84210016924
:102D6000006819B1C16841F48071C160416941F0E6
:102D700001014161C16841F02001C16018467047FE
:102D8000006843F60001C4F20101884218BF704791
:102D900040F2DC50C2F200000078062100F06EBF65
:102DA0002DE9F041044690F8410020281CBF022084
:102DB000BDE8F0810D4600294FF0010000F0AA8027
:102DC0001646002A08BFBDE8F0810020606421207B
:102DD000984684F84100FEF765F8A684E684A16869
:102DE0000646B1F5805F02D12069002862D02F46E7
:102DF0000025E08C002861D018F1010018D0B8F14E
:102E0000000F37D1216808E017F8010B4860E08C0B
:102E10000138E084E08C002851D00868000673D5A2
:102E2000002FF1D135F8020B00276FF35F20EDE79B
:102E3000216802E00868000609D40868000606D484
:102E4000086800065CBF08685FEA0060F2D51FB141
:102E500017F8010B05E000BF35F8020B00276FF3F0
:102E60005F204860E08C0138E084E08C0028E4D1E9
:102E700025E000BF216800BF0868000608D4FEF7FF
:102E800011F8801B404541D82168C868F4E700BFAD
:102E900017B117F8010B04E035F8020B00276FF3A8
:102EA0005F204860E08C0138E084E08C0028E3D1AA
:102EB00005E000BF0027E08C00289DD1216808684C
:102EC00040061FD4B8F1000F1ED018F101000FD139
:102ED0000868400616D40868400613D408684006FF
:102EE00010D4086840064FF00000F1D50FE000BF95
:102EF000FDF7D8FF801B404508D82068C1680068EE
:102F00004006F5D5002002E0FDF7CCFF032020218C
:102F100084F84110BDE8F08170470000FEE7000032
:102F20002DE9F04782B0044600689A460B9D0A9E40
:102F30000368914643F48062026002680F4642F4DF
:102F40008071016020464FF0011100223346009548
:102F500000F070F850B120680068C00544BF4FF41D
:102F600000702064032002B0BDE8F08740F2020840
:102F70002068C0F2010807F0FE07076120464146BD
:102F800032462B4600F03CF920B1012002B0BDE8EA
:102F9000F08700BF0020019020682A464169019116
:102FA0008069314601900198204600F0DDF9B0B902
:102FB0002068BAF1010F09D04FEA192101612046BA
:102FC00031462A4600F0D0F948B920685FFA89F105
:102FD0000161204631462A4600F0C6F960B1206CF6
:102FE0000428D2D12068016841F4007101600120F9
:102FF00002B0BDE8F08700BF2068002201683346B8
:1030000041F48071016020464FF00111009500F0FD
:1030100011F800289FD147F0010C2768204641464F
:1030200032462B46C7F810C002B0BDE8F04700F0AA
:10303000E7B800002DE9F041054600681E46144639
:1030400001F47F0201338FB242D0DDF81880B2F56F
:10305000803F40F0878040693840C01BB0FA80F064
:103060004009A04240F0C8804EB924E04069384091
:10307000C01BB0FA80F04009A04240F0BD80FDF7CF
:1030800011FFA0EB08012868B142EFD9416939402E
:10309000C91BB1FA81F14909A142E7D19BE000BF08
:1030A00040693840C01BB0FA80F04009A0424FF0A0
:1030B000000040F0A280FDF7F5FE28684169394024
:1030C000C91BB1FA81F14909A142E9D183E000BFEE
:1030D000B2F5803F24D100BF41693940C91BB1FA24
:1030E00081F14909A14240F0878041693940C91BFB
:1030F000B1FA81F14909A14240F07E80416939402D
:10310000C91BB1FA81F14909A14275D14169394020
:10311000C91BB1FA81F14909A142DDD06CE000BFC1
:1031200081693940C91BB1FA81F14909A14263D1D2
:1031300081693940C91BB1FA81F14909A1425BD1CA
:1031400081693940C91BB1FA81F14909A14253D1C2
:1031500081693940C91BB1FA81F14909A142DFD027
:103160004AE000BF80693840C01BB0FA80F04009D7
:10317000A04241D146B923E080693840C01BB0FA73
:1031800080F04009A04237D1FDF78CFEA0EB08018A
:103190002868B142F0D981693940C91BB1FA81F17F
:1031A0004909A142E8D116E080693840C01BB0FA55
:1031B00080F04009A0424FF0000018BFBDE8F08148
:1031C000FDF770FE286881693940C91BB1FA81F1A9
:1031D0004909A142E8D100202021286385F83D104B
:1031E00085F83E00296C41F02001296485F83C00F7
:1031F0000120BDE8F08100BF0020BDE8F0810000A3
:10320000F0B581B0044600681D4643698FB203EAF9
:103210000701B94202D1002001B0F0BD4169164654
:1032200001323FD049053FD4CEB100BFFDF73AFE91
:10323000411B2068B14203D941693940B94215D1D7
:1032400041693940B942E6D041694905EED52BE0E4
:1032500041693940B942DED04169490524D4FDF7BE
:1032600021FE206841693940B942F1D0202023E095
:1032700041693940B942CED04169490514D4416908
:103280003940B942C7D0416949050DD44169394037
:10329000B942C0D04169490506D441693940B942B3
:1032A000B9D041694905E3D5016841F40071016075
:1032B0006FF480614161042000212022216384F8A1
:1032C0003D2084F83E10226C1043206484F83C10AA
:1032D000012001B0F0BD000070B50446006815463D
:1032E00050F8143F5A063DD40E4629B926E000BFD7
:1032F00050F8141F490635D40168C90621D4FDF7DA
:10330000D1FD411B2068B142F2D941694906EFD491
:1033100000202021206384F83D1084F83E00206CBA
:1033200040F0200018E000BFFDF7BCFD206850F819
:10333000141F4906ECD50168490613D40168C90673
:10334000F2D56FF01001016000202021206384F885
:103350003D1084F83E00206C2064002084F83C007E
:10336000012070BD002070BD70B50368044653F89D
:10337000140F000611D40E46481C29D086BB00BF8E
:103380001868400527D4FDF78DFD236853F8140F06
:10339000000637D518680006F2D5002070BD00BFC2
:1033A00018680006F9D41868400514D41868000697
:1033B000F3D4186840050ED418680006EDD41868D8
:1033C000400508D4186800064FF0000048BF70BDE3
:1033D00018684005E4D56FF480601860042012E09E
:1033E000154603E053F8140F0006D6D418684005BC
:1033F000F1D4FDF757FD401B2368B042F2D958695C
:103400000006EFD4202000212022216384F83D20F3
:1034100084F83E10226C10432064012084F83C1094
:1034200070BD000070B584B0016845F20045C4F27B
:1034300000050446A94205D005F58060814225D0EB
:1034400004B070BD6420022140F2C806C2F200063A
:10345000CDE9011020460C21032201230096FDF73F
:10346000D9FD3178707861F30D20FDF758F800210F
:10347000C4F2B431FCF7AEFE4FF06251FCF7AAFE85
:103480002168706005F580608142D9D140F2C8059D
:10349000C2F200050220A91C6426CDE900102046D6
:1034A0000C21032201230296FDF7B4FDA978E878E8
:1034B00061F30D20FDF733F80021C4F2B431FCF7BD
:1034C00089FE4FF06251FCF785FEE86104B070BDE3
:1034D00080B582B041F21400C4F2020001680022FB
:1034E00041F0010101600068052100F00100019038
:1034F00001980F20FEF74EF80F20FEF739F8112043
:1035000005210022FEF746F8112002B0BDE88040F8
:10351000FEF72EB870B58EB0134808AC079012A015
:1035200000F1040E9EE80E50806984E80E500D9064
:1035300007A8002100F034FD40F22006C2F2000688
:10354000104930600FA0051D00913ECD80690DF13E
:10355000040C8CE83E0006906846002100F020FD37
:1035600070600EB070BD00BFD5560008853A0008E7
:1035700000000000000000008000000000000000CB
:1035800000000000CC56000891390008000000003F
:1035900000000000800000000000000000000000AB
:1035A00083B041F21800C4F20200016841F020012A
:1035B0000160016801F0200102910299016841F067
:1035C00004010160016801F00401019101990168A1
:1035D00041F008010160006800F0080000900098C8
:1035E00003B0704780B540F2403045F20041C2F26E
:1035F0000000C4F2000141F6802200234FF4804C09
:10360000C0F2060280E80E00C0E9033CC0E90533C1
:10361000C0E90733FDF74CFC002808BF80BDBDE8BA
:103620008040FDF79BB9000080B540F2943045F62C
:103630000001C2F20000C4F2000141F68022002322
:103640004FF4804CC0F2060280E80E00C0E9033C53
:10365000C0E90533C0E90733FDF72AFC002808BF9D
:1036600080BDBDE88040FDF779B9000010B590B08D
:1036700040F2E8300021C2F200004FF080424723C0
:1036800044F61F64CDE90811CDE90611CDE9041116
:10369000C0E90023C0E9021401618161FEF76EFEFA
:1036A000002818BFFDF75AF940F2E830C2F20000D6
:1036B00008A9FEF7CFFA002818BFFDF74FF96020E0
:1036C00001900020CDE90200059040F2E830C2F2FE
:1036D000000001A90022FEF751FD002818BFFDF7E8
:1036E0003DF940F2E834C2F2000401A92046042268
:1036F000FEF744FD002818BFFDF730F9206840F2BE
:103700000042C4F20002002190420E9112D0B0F1AA
:10371000804F28D141F21800C4F20200016841F044
:1037200004010160006800F004000B900B98032076
:103730000EE000BF41F21800C4F20200016841F03F
:1037400004010160006800F004000B900B98C02099
:103750000C9002200D900F9040F60000C4F2010082
:103760000CA9FDF797FA10B010BD0000B0B590B0ED
:1037700040F2004540F23040C4F200050021C2F2A0
:103780000000472244F61F63CDE90811CDE9061178
:10379000CDE90411C0E90052C0E902130161816161
:1037A000FEF7ECFD002818BFFDF7D8F840F23040D6
:1037B000C2F2000008A9FEF74DFA002818BFFDF775
:1037C000CDF8602001900020CDE90200059040F284
:1037D0003040C2F2000001A90022FEF7CFFC002811
:1037E00018BFFDF7BBF840F23044C2F2000401A953
:1037F00020460422FEF7C2FC002818BFFDF7AEF8F1
:1038000020680021A8420E9112D0B0F1804F26D13D
:1038100041F21800C4F20200016841F004010160A5
:10382000006800F004000B900B9803200EE000BF2E
:1038300041F21800C4F20200016841F00401016085
:10384000006800F004000B900B98C0200C90022040
:103850000D900F9005F582300CA9FDF71BFA10B002
:10386000B0BD000080B586B040F2784040F600025E
:103870000021C2F20000C4F20002472340F2E73CFC
:103880000591CDE90311CDE90011C0E90023C0E99C
:10389000021C01618161FEF71DFA002818BFFDF7C7
:1038A0005DF84FF48050029040F27840C2F2000080
:1038B00002A9FEF7E7FA002818BFFDF74FF840F21B
:1038C0007840C2F200006946FEF7C4F9002818BF2C
:1038D000FDF744F806B080BD80B540F2C04043F625
:1038E0000001C2F20000C4F2010100234FF00C0CF1
:1038F0004FF4165280E80E00C0E90333C0E905C357
:10390000C361FFF735F9002808BF80BDBDE88040DE
:10391000FDF724B880B540F2085044F20041C2F2ED
:103920000000C4F2000100234FF00C0C4FF4E13210
:1039300080E80E00C0E90333C0E905C3C361FFF7A7
:1039400017F9002808BF80BDBDE88040FDF706B824
:10395000FEE7000010B500210446FEF7B9FD204641
:103960000421FEF7B5FD20684FF4FA6141638163DD
:1039700040F6B83000F006FB21684FF47A724A63D3
:1039800040F6B8308A63BDE8104000F0FBBA000092
:1039900001F00EF940F2FC0540F2FC24C2F20005F1
:1039A000C2F20004286000BF2046FDF75BF86860A3
:1039B00000F0F4F9012000F0E5FAF5E7B0B50C46A7
:1039C00000210546FCF78FFD002820464FF000013E
:1039D00018BF85F00045FCF786FD0028284618BF73
:1039E00084F00044FCF7A4FD40F23041C2F2000133
:1039F0000D6868632046FCF79BFDA863B0BD00001E
:103A0000FEE70000000000000000000000000000D1
:103A1000EFF30980BFF36F8F0D4B1A6820E9F00FA9
:103A200010602DE908404FF0500080F3118800F03D
:103A30005BFF4FF0000080F31188BDE80840196873
:103A40000868B0E8F00F80F30988BFF36F8F704704
:103A5000280000200000000000000000000000001E
:103A6000074B19680868B0E8F00F80F30988BFF3C6
:103A70006F8F4FF0000080F311884EF00D0E7047ED
:103A80002800002082B040F2C04040F2DC51C2F277
:103A90000000C2F200010122FFF748F940F278402D
:103AA000C2F20000FEF7B6F940F23040C2F2000068
:103AB000FFF750FF40F2100840F2CC04C2F20008B9
:103AC000C2F200040FF24409D8E90005FCF727FD13
:103AD00006462846FCF723FD01463046FFF76EFFF9
:103AE000A069E56AFCF738FD064628460F46FCF754
:103AF00033FD0546484632463B46CDE9005101F0CC
:103B000057F9012000F03EFADEE700BF25662C25BC
:103B1000660A000080B5FDF7BDFC01F039F8012808
:103B200008BF80BDBDE8804000F0AEBF7047000018
:103B300040F27840C2F20000FEF776BA406A0021F7
:103B4000C185C184FEF75ABD81B090F84210222988
:103B500021D183680246B3F5805F09D152F8281F4E
:103B600052F8183C002B63D003685B680AE000BF82
:103B700052F8281F13B90369002BF5D003685B685E
:103B800003F07F030B70116801311160C18D0139A1
:103B90000A04C18502D001B0704700BF0168CA683D
:103BA00022F02002CA60CA6822F48072CA604A69A0
:103BB00022F001024A61202180F842100021416375
:103BC000026B012A3CD10163016851E8031F0268BE
:103BD00021F0100142E80313DBB1016851E8031F33
:103BE000026821F0100142E8031393B1016851E823
:103BF000031F026821F0100142E803134BB1016872
:103C000051E8031F026821F0100142E80313002B62
:103C1000DAD101680A68D20606D5002200920A6845
:103C20000092496800910099818D01B0FEF7E4BCD3
:103C3000026852686FF35F2221F8022B8162A5E7C8
:103C400001B0FFF79DB8000010B540F2C044C2F2C9
:103C500000042046FEF7D4FC40F2DC51C2F2000121
:103C600020460122BDE81040FFF760B840F208503E
:103C7000C2F20000FEF7C4BCFEE700002DE9F043ED
:103C800040F20418C2F2000898F80020032A00F25B
:103C90008280DFE802F00311233B00BFA5287AD120
:103CA00040F20110A8F8000040F23410C2F2000007
:103CB000A5210170BDE8F08398F8012040F234148A
:103CC000531C88F80130DBB2013BC2F200048B4286
:103CD000A05418BFBDE8F08302205AE098F80120F4
:103CE00040F23419531CC2F2000988F8013009F877
:103CF000020009B3042901F0030C1FD200214FF088
:103D0000010EBCF1000F2FD13DE000BF5A283FD17A
:103D100040F23410C2F20000B0F90110B0F8030014
:103D2000A8F80210A8F8040040F21000C2F2000047
:103D3000C0E900112CE000BF002124E001F0FC02EA
:103D40000021002409EB04056E78AF78EB7831444C
:103D50002D79394419440434A2422944F2D104F1A2
:103D6000010EBCF1000F0ED019F80E20BCF1010FAE
:103D7000114408D00EEB09025378BCF1020F19442C
:103D80001CBF92781144C9B2814201D1032000E0E6
:103D9000002088F80000BDE8F083000080B582B004
:103DA00040F2CC01C2F20001A520C96A8DF80100E1
:103DB0005A208DF8070001EB112000EB114000EBB9
:103DC00011608DF8060040F2C040CDF80210C2F23A
:103DD00000000DF1010107226423FEF7E1FF02B0AC
:103DE00080BD00002DE9F04381B014460D46FDF77B
:103DF00059F804EB440005EBC00858E90601FCF74C
:103E0000E3F90021C4F234310446FCF77AFB0021C7
:103E10000546CCF2B4312046FCF784F90646002171
:103E2000002D08BF2646CCF234313046FCF75BFB50
:103E30000025C4F2B435044630462946FCF772F931
:103E40000021C4F27A41002C08BF304648F8100C1B
:103E5000FCF7C0F90021C4F27021FCF7BBF9294638
:103E6000FCF7EAF948F8040CFCF776FB40F2B429B9
:103E7000C2F200090446D9F800000D46FCF76CFBBD
:103E80004CF6CD424CF6CC43CCF6CC42C3F6EC73A8
:103E9000FCF7B7FA49F69A1249F6991306460F4607
:103EA000C9F69912C3F6B97320462946FCF7A9FA58
:103EB00032463B46FCF7FEF9FCF761FBC9F800000F
:103EC00058F8181C48F8040C48F8141C01B0BDE858
:103ED000F083000080B582B0019040F20850C2F239
:103EE000000001A901224FF47A73FEF759FF0198EF
:103EF00002B080BD90B0FDF7DBFA00240120CDE9CF
:103F00000B44CDE9094406900A904FF4E0104FF4B9
:103F1000803102250F9006A8CDE90714CDE90D5197
:103F2000FDF77EFC20B1EFF3108072B6FEE700BF14
:103F30000F20CDE901054FF48060CDE9040401A80C
:103F400002210394FDF762FB20B1EFF3108072B6FB
:103F5000FEE700BFFFF724FBFFF7BAFAFFF764FBA9
:103F6000FFF784FBFFF73EFBFFF700FCFFF7B4FC15
:103F7000FFF7D0FCFFF776FCFFF7CCFA00F00AF869
:103F8000FEE7000080B5012898BF012000F0EEFB9D
:103F9000002080BD80B500F039FC002080BD00000D
:103FA000B0B584B043698E4693B1846984B1058904
:103FB000D0E9001C026928B2843D18BFC51CCDE9B8
:103FC000005360467346029400F0A6FD04B0B0BDF5
:103FD0000589D0E90013028A28B2843D18BFC51CA8
:103FE00003AC18467346CDE9005400F065FD039913
:103FF000012818BF0021084604B0B0BD2DE9F041EA
:10400000044600F0F3FA40F22806C2F200063069D6
:1040100040F25055013030613068C2F2000548B1BD
:104020007069002840D13068E16AC06A884298BF50
:10403000346039E034603069012835D1284600F019
:1040400085FA05F1140000F081FA05F1280000F06E
:104050007DFA05F13C0000F079FA05F1500000F01E
:1040600075FA05F1640000F071FA05F1780000F0CE
:104070006DFA40F20C18C2F20008404600F066FAF1
:1040800008F11407384600F061FA06F1640000F008
:104090005DFA06F13C0000F059FA06F1500000F01C
:1040A00055FAC6F8308077637068B1680122013133
:1040B000B160E16A8A401043706001EB810005EB5A
:1040C0008000211D00F084FA00F0B4FA706988B114
:1040D0003068E16AC06A884228BFBDE8F0814EF6C8
:1040E0000450CEF200004FF080510160BFF34F8FBB
:1040F000BFF36F8FBDE8F08140F2280540F25056C3
:104100004EF60458C2F20005C2F20006CEF20008D4
:104110004FF0805703E000BF204600F0A3FAE868A4
:10412000D0B100F063FAA86CC468201D00F0EEF96D
:10413000286901382861E8680138E86000F07AFAF7
:1041400094F851000228EAD00128E5D070B9206B1C
:1041500000F088FAE0E700BF30680228DFD3C8F833
:104160000070BFF34F8FBFF36F8FD8E74FF0500051
:1041700080F31188BFF36F8FBFF34F8FFEE700000E
:104180002DE9F047DDE909878246386B089C00EB92
:10419000820004389946002920F0070656D0087896
:1041A00087F83400087800284BD0487887F8350025
:1041B0004878002845D0887887F836008878002825
:1041C0003FD0C87887F83700C878D0B3087987F827
:1041D00038000879A8B3487987F83900487980B35E
:1041E000887987F83A00887958B3C87987F83B000E
:1041F000C87930B3087A87F83C00087A08B3487A5F
:1042000087F83D00487AE0B1887A87F83E00887ADE
:10421000B8B1C87A87F83F00C87A90B1087B87F8B0
:104220004000087B68B1487B87F84100487B40B17B
:10423000887B87F84200887B00281CBFC87B87F8F2
:104240004300002087F8430003E000BF002087F808
:1042500034000025381D062C28BF0624FC62C7E95F
:10426000114500F07FF907F1180000F07BF984F0A8
:104270000700B861304651464A463F617F62FD649F
:1042800087F8505000F032F9B8F1000F386018BFCD
:10429000C8F80070BDE8F08706480068006880F341
:1042A000088862B661B6BFF34F8FBFF36F8F00DF30
:1042B00000BF000008ED00E081B00020009040F257
:1042C0001800C2F2000000684FF0500181F311881D
:1042D000BFF36F8FBFF34F8F013007D0FEE700BFF2
:1042E000009830B9009820B9009810B900980028BB
:1042F000F6D001B07047000070B5044600F0ECFA4B
:1043000040F2A00CC2F2000CDCF8040050B19CF8A2
:104310000000002818BF4FF000404FF0000544BBDC
:1043200083E000BF40F2DD50C2F20000420700F51A
:10433000406200F1070122F0070218BF21F00700D8
:104340000021A2F10803CCE90601CCF8043042E9CF
:104350000211DCF80420191AC0E9002101208CF8B0
:1043600000004FF00040CCE90211002C4FF0000596
:104370005BD0204059D124F0070000F11002600703
:1043800008BF04F10802DCF80800511E81424CD23B
:10439000604650F818EFDEF8045095422BD2DEF854
:1043A0000010B9B174464D68954217D20B68ABB195
:1043B0005D68954216D21868A0B14568954215D23D
:1043C00004689CB16568954214D22168A64600290C
:1043D000E9D110E00CF118000DE000BF8E46204638
:1043E00009E000BF9E46084605E000BF8646184625
:1043F00001E000BFA646DCF804108E4514D0016829
:10440000DEF80040AB1A112B04604CD30EEB020512
:10441000680719D04FF0500080F31188BFF36F8FF9
:10442000BFF34F8FFEE700BF002500F04BFC68078D
:1044300059D04FF0500080F31188BFF36F8FBFF356
:104440004F8F00BFFEE700BF0CF118006B60CEF885
:10445000042000BF0368AB420AD21868A8420BD2FE
:104460000368AB4204D218681A46A842F2D304E0AB
:104470000246184601E000BF1A4654686B681619D8
:10448000AE4202D1234415465360EC18844206D153
:10449000DCF80440A04202D011C823446B60AA4259
:1044A000286018BF1560DEF80400DCE9022301F182
:1044B0000805111A9942CCF8081038BFCCF80C1036
:1044C0009CF8001000294FF0000118BF40F0004098
:1044D000CEE90010DCF810000130CCF8100000F03C
:1044E000F1FB6807A5D1284670BD0000034644F2E1
:1044F000B920C0F600004FF0807C21F0010103E9F3
:104500000310A3F1400043F8202C7047D0E901329A
:1045100001699A60D1F804C082688445536008BF7D
:104520004A60002202610868013808600868704724
:1045300041F2E433C2F20003036041F2E410C2F23C
:104540000000086080201060704700004FF0FF31CD
:10455000024642F8081F00214260C0E903220160C0
:1045600070470000002101617047000010B5D1F8CC
:1045700000E01EF1010213D000F108046268136824
:10458000734511D853681C68744511D85A6814686B
:1045900074450FD854682368A4467345EED90BE0E0
:1045A0000269D2F804C007E09446224604E000BF46
:1045B0009C4601E094461A46C1F804C0CCF80810A5
:1045C0008A605160086101680131016010BD00001E
:1045D000D0F800C0436808619A684B608A609A68A6
:1045E000996051600CF10101016070474FF050007B
:1045F00080F31188BFF36F8FBFF34F8F40F2180025
:10460000C2F2000001684A1C026009B1704700BF95
:104610004EF60450CEF200000068000608BF704756
:104620004FF0500080F31188BFF36F8FBFF34F8FAF
:10463000FEE7000040F21800C2F20000016839B144
:104640000139016018BF7047002080F3118870475E
:104650004FF0500080F31188BFF36F8FBFF34F8F7F
:10466000FEE7000070B5002808BF70BD40F2A0054D
:10467000C2F200050446287854F8041C002818BF2C
:104680004FF0004008420DD0A4F1080632689AB1FC
:104690004FF0500080F31188BFF36F8FBFF34F8F3F
:1046A000FEE700BF4FF0500080F31188BFF36F8F1B
:1046B000BFF34F8FFEE700BF21EA000044F8040C6F
:1046C00000F00AF954F8041CA8680844A86005F131
:1046D000180000BF0368B3420AD21868B04225D25E
:1046E0000368B34204D218681A46B042F2D301E01C
:1046F000024618465368D418B44202D119441646EB
:1047000051607318834205D16B68984202D009C882
:1047100019447160B242306018BF16606869013098
:104720006861BDE8704000F0CDBA00BF1A4653681A
:10473000D418B442E5D1E1E74EF21000CEF2000009
:1047400000210160816040F20C01C2F200010968A1
:1047500044F6D352C1F26202A1FB02124FF0FF31C4
:1047600001EB9211416007210160704770B500288C
:104770003FD040F22805C2F200050446A86948B1BE
:104780004FF0500080F31188BFF36F8FBFF34F8F4E
:10479000FEE700BFA8690130A861EE69286804300F
:1047A000FFF7B4FE50B12868A419446013D3686BB6
:1047B00029680431FFF7DAFE16E000BF28680121FE
:1047C000C06A6A6801FA00F022EA0000686028689E
:1047D000A4194460EBD2286B29680431FFF7C6FEA8
:1047E000686A844238BF6C6200F06CFA002818BF17
:1047F00070BD4EF60450CEF200004FF080510160C3
:10480000BFF34F8FBFF36F8F70BD0000B0B588B09E
:104810000020CDE9050006A805A904AAFFF788FE37
:104820000598B8B3069C002C3ED05421049A0791F9
:104830000799542942D107992063022084F8510036
:1048400007A80025CDE9005044F2F900C0F60000A9
:104850001FA100230294FFF793FC2046FFF7CEFB35
:10486000079940F22800C2F20000016279B14FF0CE
:10487000500181F31188BFF36F8FBFF34F8F4FF05B
:10488000FF31416201214161C56100F065F808B066
:10489000B0BD00BF4FF0500080F31188BFF36F8FA1
:1048A000BFF34F8FFEE700BF4FF0500080F3118839
:1048B000BFF36F8FBFF34F8FFEE700BF4FF0500085
:1048C00080F31188BFF36F8FBFF34F8FFEE700BFF8
:1048D00049444C450000000040F22800C2F20000AC
:1048E000816901318161704740F22800C2F2000005
:1048F000816900291EBF0121816270470021816208
:104900004168B1FA81F1C9B2C1F11F0140F25052C0
:1049100001EB8101C2F2000252F8213063B102EBD7
:10492000810252F8041F4968131D994211600DD08D
:10493000C9680160704700BF4FF0500080F31188D4
:10494000BFF36F8FBFF34F8FFEE700BF4968116061
:10495000C968016070470000B0B584B04EF2004CE9
:10496000CEF2000C9CF800100291FF218CF8001090
:104970009CF800108DF807109DF8071001F0500208
:1049800040F2C001C2F200010A7007224A609DF99C
:104990000720B2F1FF3F61DC032200BFD31C4B6054
:1049A0009DF8070040008DF807009DF90700B0F161
:1049B000FF3F24DC931C4B609DF8070040008DF8FE
:1049C00007009DF90700B0F1FF3F18DC531C4B6056
:1049D0009DF8070040008DF807009DF90700B0F131
:1049E000FF3F0CDC4A609DF80700043A40008DF858
:1049F00007009DF90700B0F1FF3FCFDD131D032B2A
:104A00002CD14FF44070486002988CF80000DCF81C
:104A1000200940F47000CCF82009DCF8200940F0AF
:104A20007040CCF82009FFF787FE40F21804C2F26C
:104A3000000400252560FFF72FFCFFF755FF0395C5
:104A400020684FF0500181F31188BFF36F8FBFF3DF
:104A50004F8F013012D000BFFEE700BF4FF0500073
:104A600080F31188BFF36F8FBFF34F8FFEE700BF56
:104A7000039830B9039820B9039810B90398002817
:104A8000F6D0002004B0B0BD80B54FF0500080F3E8
:104A90001188BFF36F8FBFF34F8F00F08FF830B1E5
:104AA0004EF60450CEF200004FF08051016000201D
:104AB00080F3118880BD00002DE9F04383B00746E4
:104AC0009000984615468946FFF716FCF8B1064651
:104AD0005420FFF711FCB8B10446DDE90A100022AA
:104AE000266384F85120CDE90010384649462A460D
:104AF00043460294FFF744FB2046FFF77FFA01206C
:104B000003B0BDE8F08300BF3046FFF7ABFD4FF0C8
:104B1000FF3003B0BDE8F08370B586B00B9CCCB11C
:104B20000C9E0EB354250495049D542D26D1049D4E
:104B3000DDF828C0022586F8515005AD3463CDE973
:104B400000C50296FFF71CFB3046FFF757FA0598A1
:104B500006B070BD4FF0500080F31188BFF36F8F27
:104B6000BFF34F8FFEE700BF4FF0500080F3118876
:104B7000BFF36F8FBFF34F8FFEE700BF4FF05000C2
:104B800080F31188BFF36F8FBFF34F8FFEE70000F4
:104B900040F22800C2F20000416900290FBF012045
:104BA0008069B0FA80F0400918BF400070470000EB
:104BB00040F22800C2F20000C06970472DE9F047BA
:104BC00040F22806C2F20006B06928B1F06A01304E
:104BD000F0620020BDE8F087F06910F1010AC6F824
:104BE0001CA020D3306B006850B14FF0500080F310
:104BF0001188BFF36F8FBFF34F8F00BFFEE700BF79
:104C0000306B716B31637063B06B0130B063306BCC
:104C1000006828B1306BC068C068406802E000BF1F
:104C20004FF0FF307062706A40F250588245C2F215
:104C3000000801D2002434E0306B0024006868B31F
:104C40004FF0010916E000BFF86A716809FA00F236
:104C5000114300EB8000716008EB80002946FFF7EC
:104C6000B7FCF86A3168C96A326B8842106828BF9D
:104C70004C4698B1306BC068C7683D4655F8040F84
:104C800082450DD32846FFF741FCB86A0028DBD0E7
:104C900007F11800FFF73AFCD6E700BF4FF0FF30EE
:104CA00070623068C06A00EB800058F8200001286C
:104CB00088BF0124B06A002818BF01242046BDE83F
:104CC000F08700002DE9F04140F22805C2F200050E
:104CD000A86968B1FFF78AFCA8690138A861A869CA
:104CE00080B10024FFF7A6FC2046BDE8F08100BF9C
:104CF0004FF0500080F31188BFF36F8FBFF34F8FD9
:104D0000FEE700BF28690028EBD0686E78B340F258
:104D100050580126C2F20008286FC76807F1180032
:104D2000FFF7F4FB3C1D2046FFF7F0FBF86A6968CB
:104D300006FA00F2114300EB8000696008EB800086
:104D40002146FFF745FCF86A2968C96A884228BFEE
:104D5000AE62686E0028DFD1286B006820B1286B36
:104D6000C068C068406801E04FF0FF306862EC6ADC
:104D70004CB10126FFF722FF002818BFAE62013CAC
:104D8000F8D10020E862A86A0028AAD04EF60450A4
:104D9000CEF200004FF080510160BFF34F8F01242D
:104DA000BFF36F8FFFF746FC2046BDE8F08100009F
:104DB0000FB4054B10B503A9044A029800F0DAF8C5
:104DC00010BC5DF814FB0000D53E00086002002016
:104DD00002E008C8121F08C1002AFAD170477047C4
:104DE000002001E001C1121F002AFBD17047000022
:104DF0002DE9FF5F82B00021DDE90430020DDDF80E
:104E000040B0034318D044F61050A2F2FF324243A0
:104E10001514119801281FD0A5EB0B00401C5FEA68
:104E2000000A4FF000064E4FDFF83891B04650466A
:104E300015D5CAF1000413E0119801244AA30128F2
:104E400001D16FEA0B010298119AC0E90031C0E963
:104E5000024206B0BDE8F09FCBF10000DFE7044658
:104E60000021404A491842EB0450CDE9001012E0FD
:104E7000E00707D032463B4640464946FBF7C1FAB9
:104E80008046894632463B4610461946FBF7B9FA3A
:104E900006460F466410002CEAD1DDE90401DDE985
:104EA0000023BAF1000F06DAFBF7ABFA42464B4695
:104EB000FBF7A7FA05E0FBF77AFC42464B46FBF707
:104EC00076FC04460E460022284BFBF7F7FC03D87D
:104ED0004FF0FF30014607E00022254B20463146C7
:104EE000FBF7E8F9FBF7D2FC102409E0002C0ADB01
:104EF0000A220023FBF775FB039B30321A55641E10
:104F000050EA0102F2D1641C039AC4F11103144463
:104F1000119A012A03D0012208430DD10AE0084367
:104F200004D000204FF0110B119072E7A3EB0B059A
:104F30006D1E0DE05B4504DD4FF0000205F101053B
:104F400004E003DA4FF00002A5F10105002AECD0DD
:104F500002981199C0E90231C0E9004579E70000E3
:104F6000000014400000F03F300000000000F0435B
:104F70000000E03F2DE9FF4F95B09B46894606466D
:104F800000250FE2252877D100242746F84A012181
:104F9000059400E0044316F8013F203B01FA03F0BA
:104FA0001042F7D130782A2811D06FF02F033078D3
:104FB000A0F13002092A16D8059A44F0020402EB47
:104FC000820203EB42021044761C0590EFE759F889
:104FD000042B0592002A03DA504244F40054059051
:104FE00044F00204761C30782E2816D116F8010FF2
:104FF00044F004042A280DD06FF02F023078A0F17D
:105000003003092B09D807EB870302EB4303C718CA
:10501000761CF3E759F8047B761C30786C280FD0A7
:1050200006DC4C2817D068280DD06A2814D104E07B
:10503000742810D07A280FD10DE044F400140AE04F
:1050400044F4801401E044F440147278824202D1A6
:1050500004F58014761C761C307866280BD013DC9F
:10506000582877D009DC002875D04528F6D0462886
:10507000F4D047281AD19DE118E0632835D0642880
:1050800079D0652812D195E1702873D008DC6728A3
:10509000F1D069286FD06E280DD06F2806D1B5E009
:1050A00073282CD0752875D0782874D05A46179953
:1050B00090476D1C75E1C4F30250022809D0032803
:1050C0000DD0D9F8001004280DD00D6009F10409A5
:1050D00067E1D9F80010EA17C1E90052F6E7D9F8FC
:1050E00000100D80F2E70D70F0E719F8041B8DF841
:1050F000001000208DF80100EA46012003E059F875
:1051000004AB4FF0FF3061074FF0000102D40DE017
:1051100008F101018846B9420FDA8045F8DB1AF838
:1051200008100029F4D108E008F101018846814205
:10513000FADB1AF808100029F6D105985B46A0EBB7
:10514000080721463846179A00F094FA284400EBE5
:10515000080507E04DE029E10DE01AF8010B5A4679
:1051600017999047B8F10108F7D25B4621463846B7
:10517000179A13E142E00A220092C4F302524FF060
:10518000000A022A08D059F804CB032A4FEAEC712E
:105190000AD00DE029E02AE009F1070121F0070219
:1051A000F2E802C1914609E00FFA8CFC4FEAEC717B
:1051B000042A03D14FFA8CFC4FEAEC71002907DA7C
:1051C0000A460021DCF1000C61EB02012D2202E015
:1051D000220504D52B228DF80420012203E0E207EA
:1051E00001D02022F7E7904659E00A2102E0102280
:1051F0000DE010214FF0000A00910BE010224FF05B
:10520000000A44F004040827009203E008224FF04B
:10521000000A0092C4F30252022A05D059F804CBC6
:105220000021032A08D009E009F1070121F0070253
:10523000F2E802C1914605E01FFA8CFC042A01D174
:105240000CF0FF0C4FF00008220728D5702806D07C
:10525000009B83F0100353EA0A0305D00EE04022BE
:105260008DF80420012208E05CEA010206D0302219
:105270008DF804208DF8050002229046009B83F0F3
:10528000080353EA0A030AD15CEA010201D162076A
:1052900005D530228DF804204FF001087F1E5828D4
:1052A00004D034A003900EA802900DE036A0F9E7D8
:1052B00053466046009AFBF794F984460398825C53
:1052C0000298401E029002705CEA0100F0D1029840
:1052D00006A9081A00F1200A600702D524F48034D8
:1052E00000E00127574502DDA7EB0A0000E000209F
:1052F00000EB0A01009005984144401A0590E00334
:1053000006D45B462146179A059800F0B3F9054488
:10531000002706E001A85A46C05D179990476D1C0A
:105320007F1C4745F6DBE0030CD55B462146179A08
:10533000059800F09FF9054404E030205A4617997B
:1053400090476D1C0099481E00900029F5DC08E08C
:10535000029802995A460078491C02911799904781
:105360006D1CBAF10001AAF1010AF1DC65E100004F
:10537000092801003031323334353637383961622B
:1053800063646566000000003031323334353637EF
:1053900038394142434445460000000000F058F9C6
:1053A0000544761C307800287FF4ECAD19B028460F
:1053B000BDE8F08F620700D4062709F1070222F04A
:1053C000070CFCE80223E14603F000485FEA080C02
:1053D00002D00FF2702C0DE05FEA045C02D50FF2F0
:1053E000682C07E05FEAC47C02D00FF2602C01E079
:1053F000AFF2700C4FF0FF3823F00043CDF850C0EF
:1054000065280CD006DC452809D046281DD0472841
:105410003DD13DE0662818D067287ED138E00021D4
:10542000112F01DB112000E0781CCDE9000106A955
:105430000EA8FFF7DDFCDDE90F010E9A03910021B4
:10544000009207F1010A04914DE04FF000400097EF
:10545000CDE9011006A90EA8FFF7CAFCDDE90F028D
:1054600003920E9B11990022DDF80CA00093049288
:1054700011B9791C00EB010AB7EB0A0004D4C0F1A2
:10548000FF3007F1010A0490AAEB0700019044E005
:10549000012F00DA01270021112F01DD112000E08A
:1054A0003846CDE9000106A90EA8FFF7A1FCDDE909
:1054B0000F010E9A0391002104910092BA46210730
:1054C0000CD40399514500DA8A46BAF1010F05DD83
:1054D000009AAAF10101515C302908D0B84202DAE1
:1054E00010F1040F06DA0121CDE9011015E0AAF14F
:1054F0000101E9E7002805DC049901440491AAEBC5
:10550000000102E0411C514500DD8A460499401A21
:10551000401C01904FF000400290200704D40198F5
:10552000504501DBCDF8048000208DF84F00029833
:105530000DF14F07B0F1004F25D02B200E900298AF
:105540004FF0020800280CDA404202902D200E9005
:1055500007E00A210298FBF72EF83031029007F895
:10556000011DB8F10001A8F10108F2DC0298002841
:10557000EFD1791E0E980870307800F0200040F0CE
:10558000450007F8020D12A8C01B00F10708149887
:10559000007800B1012000EB0A01019801EBE071F5
:1055A00005984144401A401E0590E00306D45B462E
:1055B0002146179A059800F05DF805441498007884
:1055C00018B15A46179990476D1CE00324D55B46E5
:1055D0002146179A059800F04DF805441CE0049800
:1055E000002807DBDDE90301884203DD0098405C09
:1055F000179901E0179930205A469047049805F111
:105600000105401C04900198401E019004D12E20F9
:105610005A46179990476D1CBAF10001AAF1010A88
:10562000DDDC05E017F8010B5A46179990476D1C11
:10563000B8F10001A8F10108F4DC5B462146179A95
:105640000598ABE62D0000002B00000020000000B4
:105650002DE9F041044600251E461746880404D46F
:1056600005E039462020B0476D1C641EF9D5284658
:10567000BDE8F0812DE9F041044600251E46904624
:10568000C80301D5302700E02027880404D505E0B1
:1056900041463846B0476D1C641EF9D52846BDE822
:1056A000F081000000000000000001020304060772
:1056B00008090000000001020304010202030405BE
:1056C000060708090A0B0C0D0E0F10106D795461B6
:1056D000736B30320064656661756C745461736B12
:1056E0000000000008570008000000202000000013
:1056F000D04D00082857000820000020181800008E
:10570000E04D000800000000010000000100000062
:105710001000000000127A00E8030000E803000017
:08572000AAAAAAAA00000000D9
:04000005080000ED02
:00000001FF
