:020000040800F2
:1000000010130020290200082F19000813180008F7
:100010002D1900081F040008C11A00080000000084
:10002000000000000000000000000000331900087C
:1000300039040008000000003119000835190008D3
:10004000430200084302000843020008430200087C
:10005000430200084302000843020008430200086C
:10006000430200084302000843020008430200085C
:10007000430200084302000843020008430200084C
:10008000430200084302000843020008430200083C
:10009000210400084302000843020008430200084C
:1000A000430200084302000843020008430200081C
:1000B000430200084302000843020008430200080C
:1000C00043020008430200084302000843020008FC
:1000D00043020008430200084302000843020008EC
:1000E00043020008430200084302000843020008DC
:1000F00043020008430200084302000843020008CC
:1001000043020008430200084302000843020008BB
:10011000430200084302000843020008DD190008FA
:10012000430200084302000843020008430200089B
:10013000430200084302000843020008430200088B
:100140002D0400084302000843020008430200088F
:10015000430200084302000843020008430200086B
:10016000430200084302000843020008430200085B
:100170004302000843020008430200080000000098
:10018000430200084302000800F002F800F03CF8C7
:100190000AA090E8000C82448344AAF10107DA45E2
:1001A00001D100F031F8AFF2090EBAE80F0013F0F8
:1001B000010F18BFFB1A43F001031847E41C0000AD
:1001C000041D0000103A24BF78C878C1FAD852073D
:1001D00024BF30C830C144BF04680C6070470000C1
:1001E0000023002400250026103A28BF78C1FBD840
:1001F000520728BF30C148BF0B6070471FB501F0E0
:1002000041FE1FBD10B510BD00F0CFF81146FFF73D
:10021000F5FF01F0FFFD00F0EDF803B4FFF7F2FF8A
:1002200003BC00F0F5F80000094880470948004782
:10023000FEE7FEE7FEE7FEE7FEE7FEE7FEE7FEE796
:10024000FEE7FEE704480549054A064B70470000F3
:10025000CD19000889010008100D0020101300209E
:10026000100F0020100F002053EA020C00F06980EC
:100270002DE9F04B4FF00006002B1FBFB3FA83F5BA
:1002800003FA05F424FA05F65E4012BF1643B2FAEB
:1002900082F502FA05F4C5F120051EBF22FA05FC1D
:1002A00044EA0C04203556EA044C4FEA144418BFC3
:1002B000641C4FF000084FF00009904271EB030CF2
:1002C00039D3002919BFB1FA81F701FA07F6B0FA5C
:1002D00080F700FA07F6C7F120071EBF20FA07FCD7
:1002E00046EA0C062037B6FBF4FCA7EB0507103FE7
:1002F00007F01F0BCBF120060CFA0BFB2CFA06F6CD
:1003000044BFB3460026202FA4BF5E464FF0000B2B
:100310005BEA060C08BF4FF0010B19EB0B09ABFBB6
:10032000027C48EB0608C01B06FB02CC0BFB03CC8F
:1003300071EB0C01C1E70B46024641464846BDE859
:10034000F08B13B54FF000004FF00001AFF30080C9
:10035000BDE81C4070474FF0000200B513469446BC
:100360009646203922BFA0E80C50A0E80C50B1F10D
:100370002001BFF4F7AF090728BFA0E80C5048BF21
:100380000CC05DF804EB890028BF40F8042B08BFBF
:10039000704748BF20F8022B11F0804F18BF00F8BB
:1003A000012B7047704770477047754600F02CF876
:1003B000AE4605006946534620F00700854618B052
:1003C00020B5FFF73FFFBDE820404FF000064FF09B
:1003D00000074FF000084FF0000B21F00701AC467A
:1003E000ACE8C009ACE8C009ACE8C009ACE8C00999
:1003F0008D46704710B50446AFF300802046BDE837
:100400001040FFF70ABF000000487047AC0C002006
:1004100001491820ABBEFEE7260002007047FEE748
:10042000014800F088B9000078000020014800F081
:1004300082B90000A0000020704772B6FEE790F875
:100440002020012A07D0022A05D0416A41F48021E8
:10045000416201207047006842690A4342610020FE
:100460007047F0B590F820500468A468012D05D0BD
:10047000022D03D0416A41F4802157E014F0406F0F
:1004800001D1E5004FD5C4F301640125A5401D60ED
:100490008D684FF4C0739DB1CE6835434E6845EA10
:1004A000C605066803EB0417F5514FF4C2750768DB
:1004B00005EB04150E697E51097D012905D009E07F
:1004C0000E88CD6845EA4655EBE701684E5946F47B
:1004D00080764E511179D579567941EA0561957941
:1004E0002D0445EA062529434FF4C676056806EB38
:1004F0000416A9511178D57841EA056195785278AA
:100500002D0445EA022211434FF4C475026805EB3D
:1005100004155151006803EB0411425842F00102E6
:1005200042500020F0BD416A41F4001141620120B7
:10053000F0BD000010B590F82020012A07D0022A53
:1005400005D0416A41F480214162012010BD3B4841
:10055000D0F8002242F00102C0F80022D0F80022B8
:1005600022F47C52C0F80022D0F800224B6A42EA02
:100570000322C0F800220A7D02F01F0301229A40E4
:10058000D0F81C329343C0F81C32CB69B3B9D0F811
:100590000C329343C0F80C328C894B6864F31F43D0
:1005A0004C6900EBC404C4F840320C890B6864F356
:1005B0001F434C6900EBC404C4F84432CB69012BDF
:1005C00016D1D0F80C321343C0F80C320C884B68AB
:1005D00064F31F434C6900EBC404C4F840320C8937
:1005E000CB6864F31F434C6900EBC404C4F8443285
:1005F0008B69002BD0F804320ED01343C0F80432BC
:100600000B69002BD0F8143208D01343C0F8143211
:10061000096A012904D008E09343EFE79343F5E723
:10062000D0F81C121143C0F81C12D0F8001221F0AF
:100630000101C0F80012002010BD0000006400405D
:10064000704770B590F82040012C05D0022C03D0E3
:10065000416A41F4802128E0046809B32469A407B1
:1006600020D04FF4D874056804EB01142D5915F00F
:100670000405956005682D591AD0ED085560056888
:100680002C5904F00204D4604FF4DA74056804EBCA
:1006900001142E5906F00F06082E0CD308250DE084
:1006A000E468DCE7416A41F400114162012070BD59
:1006B0006D0D1560E3E72D5905F00F05156105680F
:1006C0002D59C5F30725956105682C59240C5461F3
:1006D0004FF4DC72046802EB0112A4581C70046829
:1006E000A458240A5C700468A458240C9C70046804
:1006F000A258120EDA704FF4DE72046802EB011297
:10070000A4581C710468A458240A5C710468A45895
:10071000240C9C710468A258120EDA71006829B189
:10072000016941F020010161002070BDC16841F004
:100730002001C160F8E72DE9F05F0546006800245C
:100740004669D0F804908768D0F80CB0D0F810A0B3
:10075000D0F81880F10748D0F90714D00121816042
:10076000B80703D5284600F08CFA0CE0780702D5CC
:100770004FF4006407E0380702D54FF4805402E0DC
:10078000284600F07DFAF80516D529684FF48070E8
:100790008860B80503D5284600F075FA0CE07805A6
:1007A00002D544F4005407E0380502D544F48044EF
:1007B00002E0284600F066FAF80316D529684FF4DF
:1007C00080308860B80303D5284600F05EFA0CE05C
:1007D000780302D544F4004407E0380302D544F41A
:1007E000803402E0284600F04FFA300707D55FEA70
:1007F000CB6004D52968102044F40074C8607007E9
:100800004FF0080707D55FEA0B7004D52868C7606A
:10081000284600F099F9B00706D52868C068800717
:1008200002D0284600F092F9700607D55FEACA6048
:1008300004D52968102044F480640861B00607D507
:100840005FEA0A7004D528680761284600F0E8F9D5
:10085000F00606D528680069800702D0284600F017
:10086000E0F9B00308D55FEAC96005D52968102012
:100870004860284600F0D6F9F00307D55FEA097012
:1008800004D528684760284600F000FA300446D5B1
:100890005FEA497040D5F00504D55FEAC87001D021
:1008A00044F00104B00504D55FEA887001D544F036
:1008B0000204700504D55FEA487001D544F00404D1
:1008C000300529D518F0700F26D008F070004028A8
:1008D00015D006DC102809D020280AD0302816D1DF
:1008E0000AE050280ED0602811D10EE044F0080430
:1008F0000DE044F010040AE044F0200407E044F066
:10090000400404E044F0800401E044F4807428686A
:10091000816921F070018161296804204860002C00
:1009200005D0686A204368622846FFF789FEBDE863
:10093000F09F70B5040003D094F8200010B104E0DB
:10094000012070BD204600F081F82068016841F068
:100950000101016000F094FA0546052604E000F06C
:100960008FFA401B0A2811D820684068C007F6D0CB
:100970002068016821F00201016000F081FA05465B
:100980000BE000F07DFA401B0A2806D9606A40F4AB
:100990000030606284F82060D2E7206840688007F9
:1009A000EFD4207E0128206801683DD021F080012D
:1009B0000160607E01282068016838D021F0400184
:1009C0000160A07E01282068016833D021F0200159
:1009D0000160E07E0128206801682ED041F01001FE
:1009E0000160207F01282068016829D021F00801DA
:1009F0000160607F01282068016824D021F0040193
:100A00000160D4E902010843D4E904121143084308
:100A10006168491E08432168C861002060620120A6
:100A200084F82000002070BD41F08001C0E741F053
:100A30004001C5E741F02001CAE721F01001CFE7EE
:100A400041F00801D4E741F00401D9E7F0B587B0DF
:100A5000044614216846FFF77EFC364B3648DFF823
:100A6000D0E01968D4F800C0334A032502260927CC
:100A700010300024491CF44522D11960012907D106
:100A8000016841F000710160006800F0007005909D
:100A9000106840F0080010601068CDE9005600F0C2
:100AA0000800CDE9047069462448CDE9024500F00C
:100AB000EFF800221146142000F050FA142032E022
:100AC000DFF87CE0F44530D1D0F800C04CF0806C09
:100AD000C0F800C0D0F800C001290CF0806CCDF83F
:100AE00014C0196007D1016841F00071016000680D
:100AF00000F000700590106840F00200106010686F
:100B000002AB00F0020005906020CDE9000683E80A
:100B1000B00069460B4800F0BBF8002211464020A7
:100B200000F01CFA402000F00BFA07B0F0BD000006
:100B3000006400400000002030380240000C0240F9
:100B4000006800400004024070470000F0B506460F
:100B500000682F49304C2F4D8BB004F2C1178842EA
:100B600025D107AB6A4600213046FFF76AFD0098A1
:100B7000A0F2012006281AD8C0B22870C0EBC0002D
:100B800004EB80018869421C8A61322807AA384632
:100B900002D801F093F801E001F095F8287807AA4F
:100BA000C0EBC00004EB8001384601F08CF81B4913
:100BB000306888422AD109AB6A4600213046FFF7E7
:100BC00040FD0098A0F2012006281FD8C0B268702E
:100BD000C0EBC00004EB8001D1F8F800421CC1F862
:100BE000F820322809AA384601F1E00102D801F0C4
:100BF00065F801E001F067F8687809AAC0EBC00069
:100C000004EB80013846E03101F05DF80BB0F0BD37
:100C10000064004014000020100100200068004023
:100C2000704770477047000070B5044690F8200088
:100C3000012804D0606A40F40020606218E00220BD
:100C400084F820002068016821F00101016000F0B3
:100C500017F905460EE000BF00F012F9401B0A2804
:100C600008D9606A40F400306062052084F82000F2
:100C7000012070BD20684068C007EDD1606270BD82
:100C80007047704770477047704770477047000063
:100C90002DE9F84FDFF8BCA10022012503264FF013
:100CA0000F090AF1040BAAF1040E00BF0B6805FA44
:100CB00002F42340A34270D10F7907F00307012FFC
:100CC00001D0022F16D187684FEA420806FA08FCC5
:100CD00027EA0C07D1F80CC00CFA08FC4CEA070C08
:100CE000C0F808C04768A7430C79C4F300149440C7
:100CF0003C4344600C79E443A4070AD0C4684FEA3B
:100D0000420C06FA0CF7BC438F6807FA0CF727432E
:100D1000C7600C7904F00304022C12D1D40800EB54
:100D2000840CDCF820405707FF0E09FA07F824EA84
:100D30000804D1F8108008FA07F848EA0408CCF84B
:100D4000208004684FEA420C06FA0CF7BC430F7986
:100D500007F0030707FA0CF7274307604C6814F401
:100D6000403F70D03C4C276847F480472760246898
:100D700022F0030704F480440094384C07EB040C81
:100D8000DCF8084897074FEA177809FA08F7BC43D8
:100D9000334FB84202D1002724E054E0314FB8422B
:100DA00001D101271EE0304FB84201D1022719E0DE
:100DB0002E4FB84201D1032714E02D4FB84201D184
:100DC00004270FE02B4FB84201D105270AE02A4F34
:100DD000B84201D1062705E0284FB84201D10727C4
:100DE00000E0082707FA08F72743CCF80878DAF874
:100DF00000405746D1F804C09C435FEACC2C00D594
:100E00001C433C60DBF800405F46D1F804C09C43C3
:100E10005FEA8C2C00D51C433C60DEF8004077462E
:100E2000D1F804C09C435FEA8C3C00D51C433C6075
:100E3000084F083F3C68D1F804C09C435FEACC3CB3
:100E400000D51C433C60521C102AFFF42FAFBDE8B4
:100E5000F88F0000083C0140443802400030014057
:100E6000000002400004024000080240000C024062
:100E7000001002400014024000180240001C024012
:100E80000148806870470000040000200248816823
:100E90000278114481607047040000200B4810B5AF
:100EA000016841F400710160016841F480610160F2
:100EB000016841F480710160032000F06FF80F2099
:100EC00000F006F800F024F8002010BD003C0240BD
:100ED00070B50D4D04464FF47A712878B1FBF0F0EF
:100EE0000A490968B1FBF0F000F0F8FA48B9102C93
:100EF00007D200222146501E00F030F800206C601E
:100F000070BD012070BD0000040000201000002012
:100F10000A4808B5016841F480410160006800F4A6
:100F2000804000900548001F016841F08051016039
:100F3000006800F08050009008BD00004438024076
:100F4000002809DB00F01F020121914040098000C8
:100F500000F1E020C0F8001170470000F0B40E4B23
:100F60001B680C46C3F30223C3F10705042D00D907
:100F70000425191D072901D2002300E0DB1E0126EC
:100F800006FA05F1491E214099409E40761E164002
:100F90003143F0BC00F02EBF0CED00E0064900F03C
:100FA000070208684FF6FF03184040EA0220034A90
:100FB00010430860704700000CED00E00000FA05E7
:100FC0002DE9F0470E46050065D0DFF81481D8F80A
:100FD0000000F7B200F00700B04207D288F80070B6
:100FE000D8F8000000F00700B04254D128683D4C0A
:100FF000810712D5400703D5206840F4E0502060F7
:101000002878000703D5206840F4604020602068FD
:10101000A96820F0F000084320602878C0072DD090
:10102000304968680839012812D0022813D00328F3
:1010300011D00968890700292DDA216821F0030100
:1010400001432160FFF71CFF814641F2883A0EE020
:1010500009688903EFE709688901ECE7FFF710FFEA
:10106000A0EB0901514502D90320BDE8F0872068B3
:10107000696800F00C00B0EB810FEFD1D8F80010D8
:10108000404601F00701B14207D90770006800F03F
:101090000700B04201D00120E7E72878400705D5D6
:1010A0002068E96820F4E0500843206028780007B1
:1010B00006D52068296920F4604040EAC10020601C
:1010C00000F018F82168084AC1F30311515CC840C8
:1010D0000649086006480068FFF7FAFE0020C4E7EA
:1010E000003C0240083802408E1E0008100000201C
:1010F00008000020154810B5006810F00C021448D4
:1011000013D01449042A0FD0082A0ED10F4C241FE3
:101110002268236802F03F025B0207D52068C0F313
:101120008810A0FB010106E0084610BD2168C1F34C
:101130008811A1FB00010023FFF796F82168C1F395
:101140000141491C4900B0FBF1F010BD08380240D4
:101150000024F400001BB7002DE9F84F04006ED006
:101160002078DFF84C93C007A9F104054AD009F1B3
:1011700004000168C1F38101012908D00068C0F3AF
:10118000810002280AD1D9F80000400206D528685B
:10119000800337D560680028E1D033E06068B0F59F
:1011A000803F10D0B0F5A02F286810D020F48030F8
:1011B0002860286820F4802028606068A8B1FFF7C4
:1011C0005FFE06460DE0286840F48030F4E740F406
:1011D00080202860F7E700BFFFF752FE801B6428DD
:1011E00073D828688003F7D50CE0FFF749FE064660
:1011F00005E000BFFFF744FE801B6428F0D8286894
:101200008003F7D42078DFF8AC8280074FF0000A23
:101210003ED5A748001D016811F00C0F08D00068EA
:10122000C0F3810002280BD1D9F80000400207D496
:101230002868800716D5E068012800D112E033E164
:10124000E068B8B10120C8F80000FFF719FE0646B3
:1012500005E000BFFFF714FE801B0228C0D82868F5
:101260008007F7D52868216920F0F80040EAC1001E
:1012700028600DE0C8F800A0FFF702FE064604E073
:10128000FFF7FEFD801B02281FD828688007F7D4CF
:101290002078000722D5864F87486169703771B181
:1012A00001210160FFF7ECFD064604E0FFF7E8FDD1
:1012B000801B022809D838688007F7D50EE0C0F8EF
:1012C00000A0FFF7DDFD064605E082E0FFF7D8FD50
:1012D000801B02287DD838688007F7D42078400723
:1012E00068D5DFF8CCB100270BF13C0BDBF8000030
:1012F000C0000BD4DBF8001041F08051CBF8001097
:10130000DBF80000012700F0805000906B4E306841
:10131000C00510D4306840F480703060FFF7B0FD35
:10132000009005E0FFF7ACFD0099401A022850D864
:101330003068C005F6D55E4EA0686C3601280FD027
:101340000528306810D020F001003060306820F0AF
:1013500004003060A068B8B1FFF792FD00900FE084
:10136000306840F00100F4E740F004003060F7E737
:10137000FFF786FD0099411A41F28830814266D814
:1013800030688007F4D50EE0FFF77AFD009007E0A3
:10139000FFF776FD0099411A41F28830814256D814
:1013A00030688007F4D42FB1DBF8001021F08051B1
:1013B000CBF80010A069C8B33D49091D0968C1F305
:1013C000810102294AD00228504607D0C8F860009F
:1013D00000E03CE0FFF754FD04463BE04746C8F818
:1013E0006000FFF74DFD064605E000BFFFF748FD32
:1013F000801B02282BD828688001F7D4D4E9070184
:101400000843A16A2E4A490802EB0141626A41EA97
:101410008211084394F82C1040EA0161C9F80010C9
:1014200001203866FFF72CFD044606E03EE000BFD1
:10143000FFF726FD001B022809D828688001F7D590
:1014400034E000BFFFF71CFD001B022802D9032077
:10145000BDE8F88F28688001F4D427E00128F7D090
:10146000D9F80000E26900F4800191421CD1226A9F
:1014700000F03F01914217D147F6C071626A014006
:10148000B1EB821F10D1A26A4FF0FF3300F440315C
:1014900003EB5202B1EB024F06D194F82C1000F08E
:1014A0007060B0EB016F01D00120D1E70020CFE7E1
:1014B0000438024000004742800E4742007000405E
:1014C0000000FFFF4FF0E0210428086903D020F05E
:1014D00004000861704740F00400FAE710B5401EB0
:1014E000B0F1807F01D3012010BD4FF0E024606196
:1014F0000F21601700F07EFC0020A0610720206112
:10150000002010BD7047704770B590F83C20012A4C
:1015100032D0012480F83C40022280F83D2003684C
:101520005A689D6822F070060A6832435A60134B6D
:1015300002689A4214D0B2F1804F11D0104B9A42F7
:101540000ED0104B9A420BD00F4B9A4208D00F4B43
:101550009A4205D00E4B9A4202D00E4B9A4204D1C9
:10156000496825F080031943916080F83D400021CF
:1015700080F83C10084670BD022070BD000001409C
:101580000004004000080040000C0040000401403E
:10159000004001400018004010B5040003D094F84A
:1015A0003D0010B107E0012010BD002084F83C0090
:1015B000204600F01FF8022084F83D00211D20681D
:1015C00000F012FA012084F8460084F83E0084F806
:1015D0003F0084F8400084F8410084F8420084F819
:1015E000430084F8440084F8450084F83D0000205E
:1015F00010BD000008B500680B49884212D10B48A5
:10160000016841F0200101600068002200F0200024
:10161000009011463720FFF7A1FCBDE808403720B5
:10162000FFF78EBC08BD00000014004040380240A7
:1016300090F83D10012901D001207047022180F867
:101640003D100168CA6842F00102CA600068114991
:10165000884214D0B0F1804F11D00F4988420ED08B
:101660000E4988420BD00E49884208D00D49884265
:1016700005D00D49884202D00C49884204D18168C6
:1016800001F00701062903D0016841F00101016062
:1016900000207047000001400004004000080040A6
:1016A000000C0040000401400040014000180040D0
:1016B00070472DE9F04104460068C66805694FF09F
:1016C0000007A90713D5B10711D5F91E0161012043
:1016D0002077206880698007204602D0FFF7E8FF66
:1016E00004E000F07EF8204600F07CF827776807D9
:1016F00016D5700714D521686FF004000861022028
:1017000020772068806910F4407F204602D0FFF7E0
:10171000CFFF04E000F065F8204600F063F827777B
:10172000280715D5300713D521686FF00800086128
:10173000042020772068C0698007204602D0FFF788
:10174000B7FF04E000F04DF8204600F04BF8277793
:10175000E80616D5F00614D521686FF01000086170
:10176000082020772068C06910F4407F204602D00E
:10177000FFF79EFF04E000F034F8204600F032F856
:101780002777E80708D0F00706D021686FF001003E
:101790000861204600F028F8280608D5300606D54E
:1017A00021686FF0800008612046FFF7ABFE6806F5
:1017B00008D5700606D521686FF040000861204604
:1017C00000F026F8A8060AD5B00608D521686FF003
:1017D000200008612046BDE8F041FFF794BEBDE857
:1017E000F08170477047000008B5006806498842DC
:1017F00008D100200346024600904FF4FA710348D6
:1018000000F0C4FA08BD000000140040D20200201D
:101810007047FEE70F4810B50D4901600321416094
:1018200000214FF4C0228160C0E903124FF4A002EE
:101830004261017641768176C17601774177FFF783
:1018400078F8002803D0BDE81040FEF7F6BD10BDC3
:1018500000640040780000200F4810B50D49016079
:101860000321416000214FF410228160C0E903127E
:101870004FF400124261017641768176C17601779C
:101880004177FFF756F8002803D0BDE81040FEF777
:10189000D4BD10BD00680040A0000020114808B56C
:1018A000016841F002010160016801F0020100914C
:1018B000016841F001010160016801F0010100913E
:1018C000016841F008010160016801F00801009120
:1018D000016841F080010160006800F08000009024
:1018E00008BD0000303802401CB500240E480094AA
:1018F0000C49019401605321C0E9011440F2E73121
:101900008461C160FFF748FE08B1FEF796FD0094C0
:10191000694605480194FFF7F7FD002801D0FEF75E
:101920008CFD1CBD00140040C8000020FEE7FEE74F
:1019300070477047FFF7AABA30B593B030216846B8
:10194000FEF709FD14210CA8FEF705FD1D48002532
:10195000016841F080510160006800F080501190F2
:101960001948016841F4804101600068022400F4D4
:101970008040119001200090000401908001CDE989
:10198000064006200890A820CDE9090404200B9009
:101990006846FFF7E1FB08B172B6FEE70CA90F201D
:1019A00081E831004FF4A0500F904FF48050109018
:1019B00005210CA8FFF704FB002801D072B6FEE752
:1019C00013B030BD4038024000700040024801684A
:1019D00041F470010160704788ED00E00148FFF7B5
:1019E00068BE0000C8000020F0B50268294C2A4DEE
:1019F0002A4E2B4F2B4B4FF0804CA04209D0604514
:101A000007D0A84205D0B04203D0B84201D09842D6
:101A100004D122F0700E4A6842EA0E02A0421BD0A6
:101A2000604519D0A84217D0B04215D0B84213D0A3
:101A3000984211D01C4DA8420ED01C4DA8420BD08C
:101A40001B4DA84208D01B4DA84205D01A4DA842F4
:101A500002D01A4DA84203D122F44075CA682A4325
:101A60004D6922F080022A4302608A68C2620A68D5
:101A70008262A04201D0984201D10969016301212B
:101A800041610169C90703D0016921F001010161C8
:101A9000F0BD0000000001400004004000080040CC
:101AA000000C00400004014000400140004401409F
:101AB0000048014000180040001C00400020004089
:101AC000FEE700002DE9F05F83462DED088B002432
:101AD000DFED579A9FED57BA574E9FED588ADFEDCD
:101AE00058AA06F510779FED57AA9FED579A06F56D
:101AF000906906F5D868DFED558A00BF04EBC40590
:101B000006EBC501F0EE480AB0EE6A0A504B00221F
:101B1000584600F0A5F84E4B07EBC501F0EE4A0A17
:101B2000B0EE490A0C330022584600F099F8484BB1
:101B300009EBC501F0EE480AB0EE690A183300223D
:101B4000584600F08DF8424B08EBC501F0EE680AEC
:101B5000B0EE4B0A24330022584600F081F8641C92
:101B6000042CCBDBB246F0EE489A0424B0EE4A8A4D
:101B70004FEA090604EBC4050AEBC501F0EE690A59
:101B8000B0EE6A0A324B0022584600F069F8304B3A
:101B900007EBC501F0EE480AB0EE490A0C3300220B
:101BA000584600F05DF82A4B06EBC501F0EE690AD5
:101BB000B0EE6A0A18330022584600F051F8244B60
:101BC00008EBC501F0EE480AB0EE680A24330022A3
:101BD000584600F045F8641C082CCBDB1C4B9FEDED
:101BE0001D8A9FED1D0A3033F0EE480A00221B4982
:101BF000584600F035F8164B1849F0EE480AB0EE9A
:101C0000480A3C3300224831584600F029F8F0EEEB
:101C1000480AB0EE480ABDEC088B58460022BDE8E1
:101C2000F05F0B4B0D494833903100F019B80000BC
:101C300000A00C460000FA45D40200200080BB45FD
:101C400000401C46000096430000C8430000FA44D0
:101C50001C0000200080BB4400803B45D40B0020CA
:101C6000002928D0002B26D00A7093ED001A81EDB0
:101C7000011A93ED011A81ED021A93ED021A81ED1A
:101C8000031A81ED040A9FED0C0AC1ED050A81EDEE
:101C90000E0A81ED0D0A81ED0C0A81ED080A81ED35
:101CA0000B0A81ED0A0A81ED090A81ED110A81ED25
:101CB000100A81ED0F0A704700000000108840BA3A
:101CC00008808882704710B5B1F900300B81108808
:101CD00040BA08805488C31A64BA4C809488B3F51B
:101CE000805F64BA8C8092798A710A6901DD521E24
:101CF00003E013F5805F01DA521C0A6100EB423009
:101D00008A8A801AC86010BD10B50846134C0B684B
:101D1000002201218AB0A3420CD1CDE9062108910D
:101D20000092019202920392059210E0FEF785FB69
:101D30000AB010BD0A4CA342FAD1CDE906210891A0
:101D40000E21009201920292059103920991694637
:101D50000492FEF7EFFB0028E8D1E9E700640040B9
:101D60000068004010B50C460846FEF75DFF08B15C
:101D7000FEF763FB02212046FEF761FB002803D03B
:101D8000BDE81040FEF759BB10BD000010B58AB089
:101D900040F2FF140C980294002404940594082443
:101DA00006940C0A8DF800408DF80110110A8DF888
:101DB0000210190A8DF804108DF80530010A8DF80B
:101DC00006108DF803208DF8070008AB6A4602A9BB
:101DD0000248FEF746FB0AB010BD00007800002064
:101DE00010B50C460420FFF76DFB0148446010BDA0
:101DF000700000200907090E002804DB00F1E02034
:101E000080F80014704700F00F0000F1E02080F827
:101E1000141D7047FFF742F8FFF78EFDFFF73EFDF8
:101E2000FFF7F8FCFFF718FDFFF75EFD0248FFF72C
:101E3000FFFB00F003F8FEE7C8000020A8210C48D3
:101E4000FFF7CEFF0B48FFF73DFE0C480A4904465A
:101E5000FFF75AFF0A492046FFF756FF064920467A
:101E6000FFF780FF06492046FFF77CFFFEE70000F2
:101E7000710000201800002078000020D00200200F
:101E8000A00000204FF04070E1EE100A7047000003
:101E9000000000000000010203040607080900001A
:101EA000C01E00080000002078000000C4010008E7
:101EB000381F00087800002098120000E001000898
:101EC0000000000001000000100000000000000001
:101ED0000024F40000000000000000000000704139
:101EE000000000009A99993FCDCC4C3E00000000C4
:101EF0000000803F000020410000000000000000C2
:101F0000713D8A3E5839B43C9A99993E0000F0429E
:101F100000000000CDCCCC3D0000C040000000001F
:101F2000000000000000C0400000000000000000B1
:081F30000000000000000000A9
:040000050800018965
:00000001FF
