:020000040800F2
:10000000A00A002079020008313000080D2C0008F9
:10001000F12F0008D50B000849340008000000004B
:10002000000000000000000000000000393000085F
:10003000D90B000800000000353000083D300008F2
:10004000930200089302000893020008930200083C
:10005000930200089302000893020008930200082C
:10006000930200089302000893020008930200081C
:10007000930200089302000893020008930200080C
:100080009302000893020008930200080000000099
:1000900000000000000000000000000093020008C3
:1000A000F930000893020008930200089302000848
:1000B000930200080531000811310008930200087E
:1000C00093020008930200089302000893020008BC
:1000D00093020008193400083D34000800000000B5
:1000E0009302000893020008930200080000000039
:1000F0000000000000000000000000009302000863
:100100000000000093020008930200089302000818
:1001100000000000000000000000000000000000DF
:10012000930200089302000893020008930200085B
:100130009302000800000000000000000000000022
:100140000000000000000000000000009302000812
:10015000930200089302000893020008930200082B
:100160009302000893020008000000000000000055
:10017000000000000000000000000000000000007F
:1001800000000000930200080000000000000000D2
:100190009302000800F002F800F05FF814A696E859
:1001A000000CB244B344DA4501D100F056F8BAE885
:1001B0000F000FA696E83000A5EB040504EB060738
:1001C000AAEB0704A7F101074FEA15154FEA34140B
:1001D000A4F10104AC4201D300F03FF813F0010F89
:1001E00018BFFB1A43F0010300F001F8DBE71847E2
:1001F000F046000010470000103A24BF78C878C1CC
:10020000FAD8520724BF30C830C144BF04680C601C
:1002100070470000704700000023002400250026DE
:10022000103A28BF78C1FBD8520728BF30C148BF59
:100230000B607047662904F0EA82002070471FB502
:1002400004F0D3FA00F03EFB04000020002103F08C
:100250007FFFE0601FBD10B510BD00F04FFC1146E0
:10026000FFF7EDFF03F0C8FA00F06DFC03B4FFF7F1
:10027000F2FF03BC03F0AEFA094880470948004783
:10028000FEE7FEE7FEE7FEE7FEE7FEE7FEE7FEE746
:10029000FEE7FEE704480549054A064B70470000A3
:1002A000E530000895010008A0040020A00A002005
:1002B000A0060020A0060020704753EA020C00F0C0
:1002C00069802DE9F04B4FF00006002B1FBFB3FAF9
:1002D00083F503FA05F424FA05F65E4012BF1643CF
:1002E000B2FA82F502FA05F4C5F120051EBF22FA22
:1002F00005FC44EA0C04203556EA044C4FEA144449
:1003000018BF641C4FF000084FF00009904271EBD9
:10031000030C39D3002919BFB1FA81F701FA07F6A6
:10032000B0FA80F700FA07F6C7F120071EBF20FADF
:1003300007FC46EA0C062037B6FBF4FCA7EB0507E2
:10034000103F07F01F0BCBF120062CFA06F60CFA33
:100350000BFB44BFB3460026202FA4BF5E464FF0E0
:10036000000B5BEA060C08BF4FF0010B19EB0B0901
:1003700048EB0608ABFB027C06FB02CC0BFB03CC74
:10038000C01B71EB0C01C1E70B46024641464846D3
:10039000BDE8F08B13B5084318BF4FF0FF3001469E
:1003A000AFF30080BDE81C40704700000FB4044963
:1003B00010B503AA029800F073FA10BC5DF814FBA4
:1003C000FC0100202DE9F0410E4604460020206289
:1003D0002046E168884730B3252805D0D4E90121BB
:1003E0009047206A401CF2E7E168204600278847D2
:1003F000050018D0A5F14100192802D820354FF486
:1004000000673246294620462760FFF713FF40B1B8
:10041000012804D0F61D26F007060836D8E7361D59
:10042000D6E72846DAE7206ABDE8F0814FF00002FF
:1004300000B5134694469646203922BFA0E80C50DA
:10044000A0E80C50B1F12001BFF4F7AF090728BFB5
:10045000A0E80C5048BF0CC05DF804EB890028BF31
:1004600040F8042B08BF704748BF20F8022B11F05A
:10047000804F18BF00F8012B7047704770477047D6
:1004800070472DE9FF4F0C461E464FF0FF378BB0EB
:10049000D2E90001DDF860800A908A46C1F30A556E
:1004A00005B93D46002108464FF00000BAF1000FA3
:1004B00000F4400005DA00EB80004FF4400101EA4F
:1004C00050004FEA9059B9F1010F00DDB9460A9882
:1004D00050EA4A000ED044F61050A5F2FF354543CD
:1004E0002F14B8F1000F1ED07542291E1EDDC9F170
:1004F00000021CE0B8F1010F4FF0000001D03021E4
:1005000003E0F24305E02154401CB042FBDB3046DF
:100510000022002121540B99C1F80880C1E9002074
:100520000FB0BDE8F08FBD1B6D1CDEE74A4600DA58
:10053000694206A800F068FA06AB93E8070003AB2F
:1005400083E8070050460A9903F022FA8DE8070075
:10055000A0F500501F3800900398002D0ADD42F2EC
:100560001F014A460844002303A90390684603F08C
:100570008BFC09E0A0F500504A461F38002303A970
:100580000390684603F095FC8DE807000004000C1A
:1005900003D04FF0FF30410800E01046B8F1000FE3
:1005A00003D00022009215461EE0751E05D400F00F
:1005B0008DF9303262556D1EF9D5B34601220843DC
:1005C00002D000227F1C04E02078302801D10022D4
:1005D0007F1E002A099784D01DE0112D07DA00F054
:1005E00075F9303262556D1C50EA0102F5D10843AD
:1005F00002D00098C8B10EE00021681E05E0235C1F
:10060000625C63542254401E491C8142F7DBAB46B6
:10061000A81B401E0990002004F80B000B98099AB3
:10062000C0F80880C0E9002B7AE711264FF00008D7
:1006300057E72DE9F04F88460446D21D22F0070106
:1006400091B0D1E90001CDE90A0103F069FD02464C
:100650000B98C00F01D02D2007E02068810701D53D
:100660002B2002E0202101EAC000032A099001D0DA
:10067000072A05DB03464146204600F085F90BE1D9
:100680002078800601D5E06900E00620B8F1650F0A
:10069000814606D0B8F1660F18D0B8F1670F70D157
:1006A00031E00020B9F1110F009001DB112301E0CE
:1006B00009F101030AAA01A90CA8FFF7E2FEDDE98E
:1006C0000C70002609F10105834647E001204B46E6
:1006D00000904FF000470AAA01A90CA8FFF7D1FE2D
:1006E000DDE90DB00C995D46002610B909F1010055
:1006F0000D18B9EB050003D4C0F1FF3609F101056F
:10070000A5EB09002BE0B9F1010F01DA4FF0010967
:100710000020B9F1110F0090484601DD112300E0DF
:1007200003460AAA01A90CA8FFF7ABFEDDE90C708D
:100730004D4600268346207800070AD4AB4500DAF0
:100740005D4601A8012D04DD411911F8011C302975
:1007500007D04F4502DA17F1040F04DA0120824670
:100760000FE06D1EEEE7002F02DCED1B3E4403E0C0
:10077000781CA84200DD7D1CB81B00F1010A4FF077
:1007800000472078000703D4AA4501DB4FF0FF3A69
:100790000021B7F1004F0DF143088DF8431024D02C
:1007A00002202B23002F01DA7F422D230A21021E73
:1007B000A0F1010000DC5FB197FBF1FC97FBF1F2C7
:1007C00001FB1C7C17460CF1300C08F801CDEEE75C
:1007D000A8F1010003702188090501D5452100E039
:1007E0006521A0F1010800F8011C09980FA9A1EBEF
:1007F0000807FF1D00B10120411901EBEA70A16952
:100800003844081A401EA0612078C00602D4204651
:10081000AFF30080099828B1D4E901219047206AFC
:10082000401C20622078C00622D52046AFF300800D
:100830001EE0002E04DBB34502DD01A8805D00E070
:100840003020D4E901219047206A401C2062761CA8
:10085000AAF101005FEA000A0AD100F033F8C0688B
:100860000168405CD4E901219047206A401C206265
:10087000281EA5F10105DCDC07E0D4E9012118F808
:10088000010B9047206A401C2062381EA7F1010727
:10089000F3DC2046AFF30080032011B041E60000F6
:1008A000074B70B50D467B4400F05BF804462846C4
:1008B00000F01CF910B14FF0FF3070BD204670BD44
:1008C0002F2F0000004870478000002030B5B0F1A5
:1008D0000A0271F100034FEA900E4EEA817EB0EBFE
:1008E0000E0061EB91014FEA101E4EEA017E10EB03
:1008F0000E0041EB11114FEA102E4EEA016E10EB83
:100900000E0041EB11214FEA104E4EEA014E10EB62
:100910000E0041EB1141401841F100014FEAD000B7
:1009200040EA41704FEAD1014FEA810444EA9074F1
:1009300010EB800544EB01046D1944EB0404521BD9
:10094000A3414FF0000348BF0A3200D530BD401C20
:1009500041F1000130BD000001694A1C02610878C4
:10096000704700B58FB0CDE90131002105910549EF
:100970007944CDE9031011466846FFF723FD0FB017
:1009800000BD0000E5FFFFFF2DE9F0411F460446D2
:1009900003260168072A01F4006004DB08B116A5EC
:1009A00005E016A503E008B115A500E015A521F0A6
:1009B00010002060A069C01EA0610FB1401EA061A0
:1009C0002046AFF300804FB1D4E90121384690476B
:1009D000206A401C2062C01C206206E0206AFAE700
:1009E000D4E9012115F8010B9047761EF8D2204674
:1009F000AFF30080BDE8F0814E414E006E616E00A5
:100A0000494E4600696E66002DE9F047814616465C
:100A10008AB0354878440DC88DE80D0032487844D6
:100A2000801C03AC0DC884E80D0041F69B300844DF
:100A3000372190FBF1F290FBF1F5A5F1800501FB68
:100A400012041B3C02D56442012000E00020DFF8C4
:100A500098A080460027FA44AAF1BE0A0EE0E007FB
:100A60000AD03246684607EB470101230AEB8101B1
:100A700003F01FFA8DE8070064107F1C002CEED1F4
:100A8000194F7F44AE3F19E0E80715D007EB04107B
:100A90000DF1180A90E80E008AE80E00C068F042D6
:100AA00001D1981908903246012306A903A803F042
:100AB00000FA03AB83E807006D10641C002DE3D13E
:100AC0004FF0010332466946B8F1000F03A802D087
:100AD00003F0DAF901E003F0ECF9C9E90001C9F823
:100AE00008200AB0BDE8F087783E0000007B00F0E7
:100AF0008000704700487047600000207546FFF78F
:100B0000F9FFAE4605006946534620F007008546CA
:100B100018B020B5FFF7BEFBBDE820404FF000063F
:100B20004FF000074FF000084FF0000BAC46ACE868
:100B3000C009ACE8C009ACE8C009ACE8C00921F0C4
:100B400007018D46704710B50446AFF3008020467C
:100B5000BDE81040FFF78ABB30B44FF0013C50F8BD
:100B6000042B51F8043BCCFA52F4D51A20D1FCB92D
:100B700050F8042B51F8043BCCFA52F4D51A17D193
:100B8000B4B950F8042B51F8043BCCFA52F4D51AFE
:100B90000ED16CB950F8042B51F8043BCCFA52F446
:100BA000D51A05D1002CDAD030BC4FF000007047C8
:100BB00029BAB1FA81F111F01801D1F12000844075
:100BC000F2D1CA40CB4012F0FF0213F0FF0330BC59
:100BD000D01A7047FEE700007047000072B600BFF1
:100BE000FEE7000070B5866D044600F03FF994F80A
:100BF0003510022928D105462068216C026822F0B0
:100C000016020260426922F08002426109B9A16CB9
:100C100019B1016821F008010160016821F00101AA
:100C2000016000BF20680068C00715D000F01EF901
:100C3000401B0628F6D320206065032084F8350089
:100C4000002184F8341070BD8020606501200021EF
:100C500084F8341070BD00BFE06D3F2101FA00F050
:100C6000B060012084F835000020002184F83410A1
:100C700070BD000090F83510022909D1052180F8D7
:100C800035100068016821F0010101600020704703
:100C90008021416501207047B0B5044600F0E6F8B8
:100CA000054640F20400C2F200000078611C18BF43
:100CB000044400BF00F0DAF8401BA042FAD3B0BDF4
:100CC0002DE9F04F82B000F13E4707F1FF7786052E
:100CD00046EA972741F20006C4F20206072243F6CD
:100CE000004EB04208BF0422C4F2010E042F38BFE8
:100CF0003A46002600274FF00008009209E000BFA6
:100D000008F101080237B8F1100F06F1040600F0EF
:100D1000A3800D68012202FA08F415EA0409EFD055
:100D2000D1F804B003220BF0030CACF10105BA407A
:100D3000012D6FEA020A0FD88268CD6802EA0A0222
:100D4000BD402A4382604268A243CBF3001404FAF8
:100D500008F42243426005E0BCF1030F02D14FF0DA
:100D6000030C1EE0C2688C6802EA0A02BC402243FF
:100D7000BCF1020FC26014D16FF0030202EA580204
:100D80000244D2F820C006F01C040F230D69A340D2
:100D90002CEA0303A5402B431362D1F804B00BF0F7
:100DA000030C02680CFA07F302EA0A021A431BF466
:100DB000403F0260A4D0002243F644030192C4F2F3
:100DC00002031A684FF6084C42F480421A601A680F
:100DD000CFF6FF7C02F480420192019A28F00302D0
:100DE000724452F80C3006F00C050F24AC40A343BB
:100DF000009C04FA05F52B4342F80C30DEF808207D
:100E00004B6842EA090543F60C4CDC0258BF22EA63
:100E10000905CEF80850C4F2010CDCF800209C0251
:100E200042EA090558BF22EA0905CCF80050DEF86D
:100E300004209C0342EA090558BF22EA0905CEF8BE
:100E40000450DEF80020DB0342EA090558BF22EA1D
:100E50000905CEF8005053E702B0BDE8F08F00005E
:100E6000002A08BF090481617047000040F29840E1
:100E7000C2F200000068704740F2040040F298415E
:100E8000C2F20000C2F2000100780A681044086053
:100E90007047000080B543F60040C4F202000168CC
:100EA00041F400710160016841F4806101600168F2
:100EB00041F480710160032000F086F80F2000F0FB
:100EC00005F800F027F8002080BD000070B540F262
:100ED0000406C2F2000640F24C013278C2F2000170
:100EE0004FF47A730968B3FBF2F20446B1FBF2F1F6
:100EF000084600F061FB0F2C4FF0010508D838B907
:100F00004FF0FF3021460022002500F031F87460D8
:100F1000284670BD82B0002043F640010190C4F223
:100F200002014A6842F480424A604A6802F4804200
:100F30000192019A0090086840F0805008600868AB
:100F400000F080500090009802B07047002848BF21
:100F5000704700F01F01012202FA01F11C2202EA8F
:100F6000D0004EF20012CEF2000281507047000015
:100F700010B54EF60C5CCEF2000CDCF80030C3F37A
:100F8000022E8EF00704042C28BF0424BEF10303B4
:100F90004FF0FF3E0EFA04F438BF0023A1439940FE
:100FA0000EFA03F39A43114300F00F0200F160437D
:100FB0000901043A03F564436244002848BF02F182
:100FC0000C03197010BD00004EF60C51CEF200015A
:100FD0000A684FF6FF031A4060F30A2242F080606D
:100FE00040F0FD7008607047002804BF0120704782
:100FF0002DE9F04143F60808C4F202080446D8F887
:10100000F8030D4600F00700884207D288F8F8532D
:10101000D8F8F80300F00700A84277D120688107CC
:1010200017D5410705D5D8F8001041F4E051C8F8AC
:101030000010010705D5D8F8001041F46041C8F848
:101040000010D8F80010A26821F0F0011143C8F890
:101050000010C00740D1D8F8F80300F00700A842FC
:1010600007D988F8F853D8F8F80300F00700A84229
:101070004CD12068410707D5D8F80010E26821F468
:10108000E0511143C8F80010000708D5D8F8000057
:10109000216920F4604040EAC100C8F8000000F077
:1010A0007DF8D8F8001044F6A802C1F30311C0F689
:1010B0000002515C40F24C0220FA01F140F20800BB
:1010C000C2F200000068C2F200021160FFF7FEFEEB
:1010D0000020BDE8F08100BF6068811E022907D2B0
:1010E00058F8081C89015CBF0120BDE8F08111E0BF
:1010F000012807D158F8081C89035CBF0120BDE80E
:10110000F08107E058F8081C890703D40120BDE8E6
:10111000F08100BFD8F8001021F003010843C8F89F
:101120000000FFF7A3FE064641F28837D8F800001A
:10113000616800F00C00B0EB810F8CD0FFF796FED9
:10114000801BB842F2D90320BDE8F08140F24C0088
:1011500043F60801C2F20000C4F202010068096807
:1011600044F6B802C1F38221C0F60002515CC840C7
:101170007047000040F24C0043F60801C2F2000044
:10118000C4F202010068096844F6B802C1F34231B2
:10119000C0F60002515CC8407047000010B543F62D
:1011A0000404C4F20204606800F00C0142F2004042
:1011B0000829C0F2F40007D0042918BF10BD41F27D
:1011C0000020C0F27A0010BD216801F03F022168C2
:1011D00023684902C3F3881106D4A1FB0001002350
:1011E000FFF76BF807E000BF41F20020C0F27A0081
:1011F0004843B0FBF2F021680222C1F3014102EB47
:101200004101B0FBF1F010BD002804BF0120704780
:101210002DE9F04182B00446007843F60006C0078D
:10122000C4F202060CD0B06800F00C00042840F0B4
:1012300081803068800303D56068002800F06A81EF
:10124000207880071BD5B06810F00C0F09D0B0686B
:1012500000F00C00082840F087807068400200F120
:1012600083803068800703D5E068012840F0528110
:101270003068216920F0F80040EAC1003060207831
:10128000000713D4207840072AD4A569002D00F068
:101290003C81B06800F00C00082840F0A180012DCE
:1012A00040F01081012002B0BDE8F08160690028A3
:1012B00040F20000C4F2472000F07E800121C0F817
:1012C000801EFFF7D3FD0546706F8007DAD4FFF765
:1012D000CDFD401B0228F7D9032002B0BDE8F08104
:1012E000306C5FEAC0080AD400200190306C40F0F6
:1012F00080503064306C00F080500190019847F2CB
:101300000007C4F200073868C00547D4386840F4C5
:1013100080703860FFF7AAFD054600BF3868C00539
:101320003CD4FFF7A3FD401B0228F7D9032002B0ED
:10133000BDE8F081B06800F00C00082803D17068A7
:1013400040023FF576AF6068B0F5803F07D0B0F55A
:10135000A02F40F09B80306840F4802030603068DF
:1013600040F4803030609BE0E06800285CD00020D2
:10137000C4F2472001210160FFF778FD054600BF58
:10138000306880073FF574AFFFF770FD401B0228FF
:10139000F6D9032002B0BDE8F08100BFA0680128A3
:1013A00005D0052854D1306F40F004003067306F0D
:1013B00040F00100306755E00021C0F8801EFFF7C3
:1013C00055FD0546706F80077FF55CAFFFF74EFD5A
:1013D000401B0228F6D9032002B0BDE8F08100BF0F
:1013E0000027C4F2472700203866FFF73FFD022D93
:1013F00005460DD13068800140F19080FFF736FD41
:10140000401B02284FF00300F4D902B0BDE8F08180
:101410003068800179D5FFF729FD401B02284FF085
:101420000300F5D9F1E700BF0020C4F247200021F6
:101430000160FFF71BFD0546306880077FF51FAF91
:10144000FFF714FD401B02284FF00300F4D9DCE73E
:10145000316F002821F001013167316F21F0040163
:1014600031677DD0FFF702FD054641F2883700BFA6
:10147000306F800700F18680FFF7F8FC401BB84210
:10148000F6D9032002B0BDE8F08100BF3168002822
:1014900021F480313160316821F4802131607BD0CA
:1014A000FFF7E4FC054600BF306880033FF5C8AE97
:1014B000FFF7DCFC401B6428F6D9032002B0BDE82E
:1014C000F08100BF7068E16900F480028A4221D196
:1014D000216A00F03F028A421CD147F6C071626A5D
:1014E0000140B1EB821F15D1A16A4FF6FF73C9030A
:1014F000994300F44032A1F580318A420AD1E16A71
:1015000000F07060B0EB016F04D1002002B0BDE8C4
:10151000F08100BF012002B0BDE8F08104F11C059C
:101520002FCD084340EA8210D9034FF6FF72914352
:10153000A1F5803140EA05600843706001203866FB
:10154000FFF794FC044600BF30688001DDD4FFF74C
:101550008DFC001B02284FF00300F5D955E700BFB2
:10156000FFF784FC054641F2883700BF306F8007E3
:1015700008D5FFF77BFC401BB8424FF00300F5D9BC
:1015800043E700BFB8F1000F3FF57FAE306C20F0AD
:101590008050306479E600BFFFF768FC054600BF65
:1015A000306880037FF54CAEFFF760FC401B642879
:1015B0004FF00300F4D928E7411E0020B0EB116F73
:1015C0001CBF012070474EF21002CEF200025160A3
:1015D0004EF62351CEF20001F0230B7007219060EC
:1015E00011607047704700007047000090F83C2081
:1015F000012A4FF0020241D010B580F83D20026868
:10160000D2F804E0D2F808C00C682EF0700323432F
:1016100040F6FF34C4F20004A242536010DCB2F181
:10162000804F1ED040F20043C4F200039A4218D00B
:1016300040F60003C4F200039A4212D016E000BF45
:1016400040F60043C4F200039A420AD044F2000379
:10165000C4F201039A4204D00023C4F201039A4267
:1016600004D149682CF080031943916001210022C4
:1016700080F83D1080F83C20BDE8104010467047CF
:10168000002804BF0120704710B5044690F83D00C3
:1016900028B9002084F83C00204600F01FF8022002
:1016A00084F83D002068211D01F038FD012084F8F8
:1016B000460084F83E0084F83F0084F8400084F837
:1016C000410084F8420084F8430084F8440084F820
:1016D000450084F83D00002010BD0000006844F281
:1016E0000001C4F20101884218BF704780B582B082
:1016F0000020019043F64400C4F202000168002279
:1017000041F4803101600068002100F480300190D4
:1017100001981820FFF72CFC182002B0BDE880408B
:10172000FFF714BC90F83D1001291CBF0120704741
:10173000022180F83D10006840F6FF32C168C4F213
:101740000002904241F00101C1600FDCB0F1804F16
:101750001DD040F20041C4F20001884217D040F68B
:101760000001C4F20001884211D017E040F60041A8
:10177000C4F2000188420AD044F20001C4F201011F
:10178000884204D00021C4F20101884206D1816858
:1017900001F00701062904BF00207047016841F0ED
:1017A000010101600020704790F83C20012A4FF0B1
:1017B000020200F0C58080B580F83D20D0F800C05E
:1017C0004FF67772DCF8083023EA0202CCF80820E2
:1017D0000B684F2B28DC1F2B44DD202B45D0302BF2
:1017E00043D0402B40F0AE80D1F804E0C968DCF86B
:1017F0002030DCF8202022F00102CCF82020DCF898
:10180000182022F0F00242EA011123F00A0242EA13
:101810000E02CCF81810CCF82020DCF8081041F0AB
:10182000470121F0300180E06F2B27DDB3F5005F29
:1018300048D0B3F5805F7AD0702B40F08380D1E937
:1018400001E3C968DCF8082043EA0E0322F47F4272
:1018500043EA01211143CCF80810DCF8081041F0EC
:10186000770162E00BB1102B6CD1DCF8081021F08D
:101870007001194341F0070157E000BF502B35D0EC
:10188000602B5FD1D1F804E0C968DCF82030DCF8C7
:10189000202022F01002CCF82020DCF8182022F4BE
:1018A000704242EA013123F0A00242EA0E12CCF863
:1018B0001810CCF82020DCF8081041F0670121F066
:1018C000100132E0D1E901E3C968DCF8082043EAFD
:1018D0000E0322F47F4243EA01211143CCF80810A1
:1018E000DCF8081041F480411FE000BFD1F804E0AB
:1018F000C968DCF82030DCF8202022F00102CCF8A6
:101900002020DCF8182022F0F00242EA011123F036
:101910000A0242EA0E02CCF81810CCF82020DCF8BB
:10192000081041F0570121F02001CCF808100022E6
:10193000012180F83D10002180F83C10BDE8804076
:10194000104670470122F3E7B0B50446006840F244
:101950000045C4F20005A8420AD140F2982040F2A6
:101960000C01C2F20000C2F2000101F05DFF20682C
:1019700005F58061884218BFB0BD40F20C00C2F28C
:10198000000000F1200140F2E020C2F20000BDE8BA
:10199000B04001F049BF000090F83C30012B04BF7B
:1019A000022070474FEAB202032A2DD8F0B5DFE8D3
:1019B00002F003314F6F00BF0368D1E900C5D1F8D1
:1019C0000CE01C6A1A6A40F6FF3722F001021A6224
:1019D0001A4652F8186FC4F20007BB4200F37E802B
:1019E000B3F1804F00F08B8040F20047C4F2000753
:1019F000BB4200F0848040F60007C4F20007BB42FF
:101A000000F07D8098E000BF0121002280F83C209A
:101A1000084670470368D1E900E6D1E902C11C6AB3
:101A20001A6A360222F010021A621A4652F8185F39
:101A30004FF2FF07BE4325F4734561F30F3624F0E0
:101A4000A0040EF00A0746EA050144EA07173CE045
:101A50000768D1E900C5D1E902313C6A3A6A61F30D
:101A6000071522F480723A623A4652F81C6F26F04B
:101A7000F30645EA060124F420660CF00A0546EA5E
:101A8000052611603E62116821F00C01116047E0EB
:101A90000368D1E900E6D1E902C11C6A1A6A36027C
:101AA00022F480521A621A4652F81C5F4FF2FF0766
:101AB000BE4325F4734561F30F3624F420440EF041
:101AC0000A0746EA050144EA073711601F621168F8
:101AD0004FEA0C2321F44061116021E040F60047F9
:101AE000C4F20007BB420AD044F20007C4F2010767
:101AF000BB4204D00027C4F20107BB421CD126F030
:101B00000306354324F00A070CF00A066EF30715A6
:101B100037449D611F629F6927F00C079F618B68A6
:101B20001168194311600021BDE8F040002280F8DF
:101B30003C200846704700BF46F00105E2E7000080
:101B4000002804BF0120704710B5044690F83D00FE
:101B500028B9002084F83C00204600F01FF802203D
:101B600084F83D002068211D01F0D8FA012084F896
:101B7000460084F83E0084F83F0084F8400084F872
:101B8000410084F8420084F8430084F8440084F85B
:101B9000450084F83D00002010BD0000B0B586B0BF
:101BA000006840F60002C4F2000200219042CDE934
:101BB0000411CDE9021101913CD040F20041C4F280
:101BC0000001884268D1002443F630000094C4F23A
:101BD00002000169022541F002010161016901F081
:101BE0000201009100990094016841F00101016037
:101BF000016801F00101009100990094016841F031
:101C000002010160006801A900F002000090009844
:101C1000C02001900020C4F20200CDE90254CDE9B9
:101C20000445FFF74DF80120CDE90105CDE9034456
:101C30001D241FE043F630000091C4F20200026947
:101C40001E2442F004020261026902F004020092C2
:101C5000009A0091026842F002020260006800F0FF
:101C60000200009000984FF4E07001900220CDE94E
:101C7000020104910020C4F202000221059100F546
:101C8000806001A9FFF71CF8204600210022FFF721
:101C90006FF92046FFF75AF906B0B0BD51B30829D5
:101CA0000AD0042919BF00F1410200F1450300F1F7
:101CB0003F0200F1430303E000F1400200F144035E
:101CC00012781B78012A4FF0010208BF012B01D0C6
:101CD000104670470222082922D004292CD180F80E
:101CE0003F2080F843204FEAB103032B4FF001025D
:101CF000EED82BE090F83E2090F84230012A4FF0C9
:101D0000010208BF012BE3D1022280F83E2080F8B7
:101D100042204FEAB103032B4FF00102D8D815E05F
:101D200080F8402080F844204FEAB103032B4FF0A5
:101D30000102CDD80AE000BF80F8412080F845209C
:101D40004FEAB103032B4FF00102C1D844F6C00C97
:101D50000068C0F6000C5CF823C0C36801F01F01E6
:101D600043EA0C03C360036A02FA01F123EA0102A9
:101D70000262026A114340F6FF32C4F2000290424E
:101D800001620FDCB0F1804F1DD040F20041C4F27F
:101D90000001884217D040F60001C4F200018842D9
:101DA00011D015E040F60041C4F2000188420AD08B
:101DB00044F20001C4F20101884204D00021C4F2BF
:101DC0000101884204D1816801F00701062903D08E
:101DD000016841F0010101600022104670470000D7
:101DE00070B504460068C5680669B10716D515F0D8
:101DF000020113D06FF00201016101212177806996
:101E0000800703D02046FFF79FFD05E0204600F045
:101E10008FF8204600F0D0F900202077700719D500
:101E200015F0040016D020686FF004010161022152
:101E30002177806910F4407F04D02046FFF784FDAD
:101E400006E000BF204600F073F8204600F0B4F929
:101E500000202077300717D515F0080014D020682F
:101E60006FF00801016104212177C069800703D068
:101E70002046FFF769FD05E0204600F059F82046AE
:101E800000F09AF900202077F00619D515F010001F
:101E900016D020686FF01001016108212177C06918
:101EA00010F4407F04D02046FFF74EFD06E000BF4F
:101EB000204600F03DF8204600F07EF90020207713
:101EC000F00718BF15F0010002D1300609D412E066
:101ED00020686FF001010161204600F0E7F930064B
:101EE00009D515F0800006D020686FF080010161EF
:101EF0002046FFF777FB700609D515F0400006D0A5
:101F000020686FF040010161204600F033FAB0060E
:101F100058BF70BD15F0200008D021686FF0200276
:101F200020460A61BDE87040FFF75EBB70BD00004F
:101F30007047000090F83C30012B04BF022070472E
:101F40004FEAB202032A3BD82DE9F043DFE802F062
:101F5000023E7AB4036800261D6A1A6AC4F20106BA
:101F600022F001021A621A465C6852F818CFB34296
:101F70008E68D1F800E025F0020545EA06050CD18F
:101F8000CE68D1E9057824F4407425F00C0526F0DC
:101F900004063C43354344EA08042CF0730747EA3F
:101FA0000E075C609F614F6809695F631D629F69EE
:101FB00047F008079F619F6927F004079F61AAE027
:101FC0000121002280F83C20084670470368002663
:101FD0001D6A1A6AC4F2010622F010021A621A4639
:101FE000D3F804C052F8184FB3428E68D1F800E01D
:101FF00025F0200545EA06150FD1CE68D1E90598F0
:102000006FF0400725F0C00507EA061635432CF4AB
:10201000406748EA090647EA860C24F4E64444EAA5
:102020000E27C3F804C09F614F6809699F631D6252
:102030009F6947F400679F619F6927F480679F61EC
:1020400068E000BF036800261D6A1A6AC4F2010630
:1020500022F480721A621A46D3F804C052F81CEFB8
:10206000B3428E680C6825F4007545EA06250FD149
:10207000CE68D1E90598360240F2FF4725F4406565
:10208000BE4335432CF4405748EA090647EA061C8C
:102090002EF073072743C3F804C0DF614F68096956
:1020A000DF631D62DF6947F00807DF61DF6927F042
:1020B0000407DF612FE000BF03680027D3F820C0CA
:1020C0001A6AC4F2010722F480521A621A465C6846
:1020D00052F81C5FD1F800E08E68BB4204D14F6912
:1020E00024F4804444EA87142CF4005747EA063766
:1020F00025F4E64646EA0E265C60DE614E68096914
:102100001E641F62DF6947F40067DF61DF6927F43F
:102110008067DF6109021368194311600021BDE87F
:10212000F043002280F83C2008467047002804BF96
:102130000120704710B5044690F83D0028B90020F2
:1021400084F83C00204600F01FF8022084F83D008F
:102150002068211D00F0E2FF012084F8460084F889
:102160003E0084F83F0084F8400084F8410084F881
:10217000420084F8430084F8440084F8450084F861
:102180003D00002010BD00000068B0F1804F18BF76
:10219000704781B00020009043F64000C4F2020076
:1021A000016841F001010160006800F00100009049
:1021B000009801B0704700007047000041B1082945
:1021C00010D0042914BF00F1410200F13F020BE0DE
:1021D00090F83E20012A1CBF01207047022280F89F
:1021E0003E2013E000F140021278012A1CBF0120BA
:1021F00070470222082907D0042914BF80F8412023
:1022000080F83F2002E000BF80F84020006801F025
:102210001F010122036A8A4023EA02010162036A64
:102220004421C4F201011A43A1F14403984202621D
:1022300016D040F6FF31C4F2000188421ADCB0F13A
:10224000804F28D040F20041C4F20001884222D0E1
:1022500040F60001C4F2000188421CD020E000BF1B
:102260000A6842F400420A6040F6FF31C4F20001FD
:102270008842E4DD40F60041C4F2000188420AD001
:1022800044F20001C4F20101884204D00021C4F2EA
:102290000101884204D1816801F00701062903D0B9
:1022A000016841F00101016000207047006844F2BC
:1022B0000001C4F20101884218BF7047B0B5FEF7B3
:1022C000D5FD40F20C04C2F200046169401AB0F579
:1022D000967F84BF0020C4E90000FEF7C7FD616B54
:1022E00040F2C805401AB0F5967F84BF0020C4E9CB
:1022F0000800C2F2000540F2004095ED000AC2F26B
:102300000000841CB8EEC00A2046012101F034FA16
:1023100095ED010A0546B8EEC00A2046022101F0FB
:102320002BFA40F25021C2F20001096805F57A72D9
:1023300000F57A704A638863BDE8B04070470000DA
:102340004FEAB101032984BF00207047DFE801F0A4
:10235000020E060A006834300068704700683C309E
:102360000068704700684030006870470068383087
:102370000068704770470000704700007047000019
:10238000B0B582B0044600680168C368426901F0D4
:102390002F05202D03F0200506D12DB1204602B0D7
:1023A000BDE8B04000F040BF5FEA017C1EBF02F014
:1023B000010E03F4907212EB0E0243D1226BCD0694
:1023C00018D5012A16D113F0100213D00021019163
:1023D00001680191416801910199406940063BD42F
:1023E000A08DE18DE28D002A18BF884240F0F28175
:1023F00002B0B0BD0A0640F1E78013F0800200F0A1
:10240000E38094F841102129F2D1A168B1F5805FF1
:1024100003D12169002900F06382216A4A1C2262EB
:1024200009784160E18C01390A04E184E0D1C16896
:1024300021F08001C160C16841F04001C16002B07B
:10244000B0BD00BFCA0718BF13F4807240F0D0803F
:102450004A0700F1D380D8E0E06B016849688AB28E
:10246000002AC5D0A38D9A42C2D2E185C069B0F5D9
:10247000807F00F09D80206850E8030F216820F4E1
:10248000807041E80302DAB1206850E8030F216848
:1024900020F4807041E8030292B1206850E8030FF5
:1024A000216820F4807041E803024AB1206850E8B6
:1024B000030F216820F4807041E80302002ADAD17A
:1024C000206850E8050F216820F0010041E805026E
:1024D000BAB3206850E8050F216820F0010041E8F8
:1024E000050272B3206850E8050F216820F0010052
:1024F00041E805022AB3206850E8050F216820F062
:10250000010041E80502002ADAD11AE0206850E80B
:10251000050F216820F0400041E80502DAB120688B
:1025200050E8050F216820F0400041E8050292B113
:10253000206850E8050F216820F0400041E80502BE
:102540004AB1206850E8050F216820F0400041E8BA
:102550000502002ADAD1202084F8420000202063FE
:10256000206850E8030F216820F0100041E80302C2
:10257000DAB1206850E8030F216820F0100041E82C
:10258000030292B1206850E8030F216820F0100088
:1025900041E803024AB1206850E8030F216820F0A7
:1025A000100041E80302002ADAD1E06BFEF71AFBC3
:1025B00002206063A08DE18D401A81B2204602B0F6
:1025C000BDE8B040FFF7D8BE49067FF511AF13F064
:1025D00040013FF40DAFC16821F04001C1602021EE
:1025E000204684F8411002B0BDE8B04000F00CBBBA
:1025F000626C42F0010262644A0706D5BEF1000F28
:1026000003D0626C42F0020262648A0706D5BEF112
:10261000000F03D0626C42F004026264BCF1000F50
:1026200006D55EEA050203D0626C42F008026264DD
:10263000626C002A3FF4DCAE890604D51DB1204649
:1026400000F0F2FD20684069616C00F0400001F08C
:102650000801401800F0B680206850E8030F216898
:1026600020F4907041E80302BAB3206850E8030FE9
:10267000216820F4907041E8030272B3206850E8AA
:10268000030F216820F4907041E803022AB3206808
:1026900050E8030F216820F4907041E80302002AFB
:1026A000DAD11AE0206850E8050F216820F0010017
:1026B00041E80502DAB1206850E8050F216820F0F2
:1026C000010041E8050292B1206850E8050F216839
:1026D00020F0010041E805024AB1206850E8050FEA
:1026E000216820F0010041E80502002ADAD1206BC0
:1026F000012824D1206850E8030F216820F0100041
:1027000041E80302DAB1206850E8030F216820F0A5
:10271000100041E8030292B1206850E8030F2168DD
:1027200020F0100041E803024AB1206850E8030F8E
:10273000216820F0100041E80302002ADAD12020AD
:1027400084F842000020206320684069400640F180
:10275000C180206850E8050F216820F0400041E862
:102760000502DAB1206850E8050F216820F040002A
:1027700041E8050292B1206850E8050F216820F079
:10278000400041E805024AB1206850E8050F216881
:1027900020F0400041E80502002ADAD1E06B002871
:1027A00000F0988043F21D21C0F600010165FEF79C
:1027B00061FA00283FF41CAEE06B016D02B0BDE889
:1027C000B04008472046FFF7D9FD0020606402B002
:1027D000B0BD00BF401A00BF216851E8031F226846
:1027E00021F4907142E80313BBB3216851E8031F41
:1027F000226821F4907142E8031373B3216851E811
:10280000031F226821F4907142E803132BB321685F
:1028100051E8031F226821F4907142E80313002B52
:10282000DAD11AE0216851E8051F226821F0010180
:1028300042E80513DBB1216851E8051F226821F049
:10284000010142E8051393B1216851E8051F226890
:1028500021F0010142E805134BB1216851E8051F41
:10286000226821F0010142E80513002BDAD1202172
:1028700084F8421000212163216851E8031F226877
:1028800021F0100142E80313DBB1216851E8031F76
:10289000226821F0100142E8031393B1216851E846
:1028A000031F226821F0100142E803134BB1216895
:1028B00051E8031F226821F0100142E80313002BA6
:1028C000DAD1022281B22046626302B0BDE8B04094
:1028D000FFF752BD204602B0BDE8B040FFF74EBD45
:1028E000216A31F8022B6FF35F224260216299E581
:1028F000002804BF0120704710B5044690F841003D
:1029000028B9002084F84000204600F021F8242057
:1029100084F841002068C16821F40051C16020465C
:1029200000F002FD2068016921F4904101614169D4
:1029300021F02A014161C16841F40051C1600020C9
:102940002021606484F8411084F84210606310BD57
:1029500010B586B0006844F20042C4F200020021C3
:102960009042CDE90411CDE90211019122D041F24A
:102970000001C4F2010188424DD1002043F630012C
:102980000090C4F202014A69252442F010024A6113
:102990004A6902F010020092009A0090086840F024
:1029A00001000860086800F00100009000984FF4F2
:1029B000C06019E043F630000091C4F202000269E1
:1029C000262442F400320261026902F400320092CD
:1029D000009A0091016841F001010160006800F077
:1029E0000100009000980C2001900220029000202D
:1029F000039003200490072005900020C4F20200F9
:102A000001A9FEF75DF9204600210022FEF7B0FA89
:102A10002046FEF79BFA06B010BD000090F8423049
:102A2000202B07D100294FF0010318BF002A05D140
:102A30001846704702231846704700BF00230363FF
:102A4000816222218285C285436480F84210016937
:102A5000006819B1C16841F48071C160416941F0F9
:102A600001014161C16841F02001C1601846704711
:102A7000006841F20001C4F20101884218BF7047AA
:102A800040F29440C2F200000078062100F0DEBC63
:102A90002DE9F041044690F8410020281CBF022097
:102AA000BDE8F0810D4600294FF0010000F0AA803A
:102AB0001646002A08BFBDE8F0810020606421208E
:102AC000984684F84100FEF7D1F9A684E684A1680F
:102AD0000646B1F5805F02D12069002862D02F46FA
:102AE0000025E08C002861D018F1010018D0B8F161
:102AF000000F37D1216808E017F8010B4860E08C1F
:102B00000138E084E08C002851D00868000673D5B5
:102B1000002FF1D135F8020B00276FF35F20EDE7AE
:102B2000216802E00868000609D40868000606D497
:102B3000086800065CBF08685FEA0060F2D51FB154
:102B400017F8010B05E000BF35F8020B00276FF303
:102B50005F204860E08C0138E084E08C0028E4D1FC
:102B600025E000BF216800BF0868000608D4FEF712
:102B70007DF9801B404541D82168C868F4E700BF53
:102B800017B117F8010B04E035F8020B00276FF3BB
:102B90005F204860E08C0138E084E08C0028E3D1BD
:102BA00005E000BF0027E08C00289DD1216808685F
:102BB00040061FD4B8F1000F1ED018F101000FD14C
:102BC0000868400616D40868400613D40868400612
:102BD00010D4086840064FF00000F1D50FE000BFA8
:102BE000FEF744F9801B404508D82068C16800689A
:102BF0004006F5D5002002E0FEF738F90320202139
:102C000084F84110BDE8F08170470000FEE7000045
:102C100070B586B0002543F6300005950095C4F2E6
:102C20000200016840F6000441F0040101600168FF
:102C3000C4F2020401F004010091009900950168BA
:102C4000002241F08001016001684FF4005601F05C
:102C50008001009100990095016841F00101016037
:102C6000016801F00101009100990095016841F0AF
:102C70000201016000684FF4005100F00200009072
:102C800000982046FEF7ECF80120CDE9020501A9E5
:102C9000204601960495FEF713F806B070BD0000BB
:102CA0002DE9F04190B040F250200021C2F2000026
:102CB0004FF08042532344F61F66CDE90811CDE959
:102CC0000611CDE90411C0E90023C0E90216016133
:102CD0008161FFF72BFA002818BFFDF77FFF40F254
:102CE0005020C2F2000008A9FEF780FC002818BF9F
:102CF000FDF774FF602001900020CDE902000590EF
:102D000040F25020C2F2000001A90022FFF712F9A0
:102D1000002818BFFDF762FF40F25020C2F2000009
:102D200001A90422FFF706F9002818BFFDF756FF96
:102D300040F25024C2F2000401A920460822FFF705
:102D4000F9F8002818BFFDF749FF2068B0F1804F5F
:102D500002D010B0BDE8F081002643F630000B969B
:102D6000C4F202000168002441F001010160016821
:102D7000C4F2020401F001010B910B990B9601685A
:102D80000BAD41F00201016000684FF0020800F055
:102D900002000B900B9803200B9001272046294638
:102DA000CDE90C860E960F97FDF78AFF4FF48060F1
:102DB000CDE90B0804F580602946CDE90D660F9733
:102DC000FDF77EFF10B0BDE8F081000080B586B051
:102DD00040F2982040F200420021C2F20000C4F20A
:102DE000000253234FF6FF7CCDE90411C0E9002314
:102DF000C0E9021C01618161FEF7A2FE002818BF34
:102E0000FDF7ECFE40F29820C2F2000004A9FEF7A4
:102E1000EDFB002818BFFDF7E1FE00200121009026
:102E2000CDE90110039040F29820C2F200006946FB
:102E30000022FEF7B1FD002818BFFDF7CFFE40F2DB
:102E40009820C2F2000069460422FEF7A5FD002882
:102E500018BFFDF7C3FE40F29820C2F20000694699
:102E60000822FEF799FD002818BFFDF7B7FE06B04F
:102E700080BD000080B586B040F2E02040F6000240
:102E80000021C2F20000C4F2000253234FF6FF7C7F
:102E9000CDE90411C0E90023C0E9021C0161816190
:102EA000FEF74EFE002818BFFDF798FE40F2E02026
:102EB000C2F2000004A9FEF799FB002818BFFDF735
:102EC0008DFE002001210090CDE90110039040F219
:102ED000E020C2F2000069460022FEF75DFD0028F6
:102EE00018BFFDF77BFE40F2E020C2F20000694609
:102EF0000422FEF751FD002818BFFDF76FFE40F2D7
:102F0000E020C2F2000069460822FEF745FD0028D5
:102F100018BFFDF763FE06B080BD000080B584B029
:102F200040F2283044F200020021C2F20000C4F254
:102F3000010242F2CF034FF0090C0391CDE90111D8
:102F4000C0E90023C0E9021C01618161FEF798FB22
:102F5000002818BFFDF742FE4FF48050009040F269
:102F60002830C2F200006946FEF71EFC002818BF98
:102F7000FDF734FE04B080BD80B540F2703041F200
:102F80000001C2F20000C4F2010100234FF00C0C5A
:102F90004FF4165280E80E00C0E90333C0E905C3C0
:102FA000C361FFF7A5FC002808BF80BDBDE88040D5
:102FB000FDF714BE80B540F2B83044F20041C2F2D1
:102FC0000000C4F2000100234FF00C0C4FF4E1327A
:102FD00080E80E00C0E90333C0E905C3C361FFF711
:102FE00087FC002808BF80BDBDE88040FDF7F6BD26
:102FF000FEE7000010B500210446FFF7DFF8204689
:103000000421FFF7DBF820684FF4FA614163816324
:1030100040F6B830FDF740FE21684FF47A724A63FB
:1030200040F6B8308A63BDE81040FDF735BE0000B9
:10303000FEE700007047000070470000FDF71CBF6E
:10304000B0B592B0002443F64000CDE90A44CDE982
:1030500008440594CDE90344CDE901440094C4F249
:1030600002000168022541F080510160006800F013
:1030700080500090009847F200000094C4F20000D5
:10308000016865F38F3101600068542100F440400D
:1030900000900098012006904FF4803007904FF484
:1030A00080000D9004200E90119006A80C95CDE99B
:1030B0000F15FEF7A9F818B172B600BFFEE700BF02
:1030C0000F20CDE901054FF48050CDE9040401A89B
:1030D00002210394FDF788FF10B172B6FEE700BF2E
:1030E00012B0B0BD4EF68850CEF20000016841F437
:1030F000700101607047000040F22830C2F2000009
:10310000FEF76EBE40F29820C2F20000FEF768BEE5
:1031100040F2E020C2F20000FEF762BE10B540F2BD
:10312000FF7E0368C4F2000E40F2000C7045C4F24A
:10313000010C1DDD40F60002C4F20002904220D0D6
:1031400060451ED040F60042C4F20002904218D002
:103150004FF6FF72C4F2000290421CDC704525DC81
:10316000B0F1804F3AD040F20042C4F2000233E0A6
:10317000B0F1804F05D040F20042C4F2000290420C
:10318000E6D14A6823F0700313434FF6FF72C4F28E
:1031900000029042E2DD44F2FF32C4F201029042AA
:1031A00010DC60451AD044F2000213E040F6000241
:1031B000C4F20002904211D040F60042C4F2000274
:1031C0000AE000BF44F60002C4F20102904205D0BA
:1031D00044F20042C4F20102904203D1CA6823F4CF
:1031E0004073134323F080024B69D1F800E08C68F0
:1031F0001A4360450260C462C0F828E002D1096940
:10320000CCF83010012141610169C90708BF10BD28
:10321000016921F00101016110BD0000806B0021F6
:10322000C185C184FFF7AAB881B090F84210222965
:1032300021D183680246B3F5805F09D152F8281F77
:1032400052F8183C002B63D003685B680AE000BFAB
:1032500052F8281F13B90369002BF5D003685B6887
:1032600003F07F030B70116801311160C18D0139CA
:103270000A04C18502D001B0704700BF0168CA6866
:1032800022F02002CA60CA6822F48072CA604A69C9
:1032900022F001024A61202180F84210002141639E
:1032A000026B012A3CD10163016851E8031F0268E7
:1032B00021F0100142E80313DBB1016851E8031F5C
:1032C000026821F0100142E8031393B1016851E84C
:1032D000031F026821F0100142E803134BB101689B
:1032E00051E8031F026821F0100142E80313002B8C
:1032F000DAD101680A68D20606D5002200920A686F
:103300000092496800910099818D01B0FFF734B8AF
:10331000026852686FF35F2221F8022B8162A5E7F1
:1033200001B0FFF7A5BB000010B504460068D4E962
:1033300002C22369016921F44051114301616269AC
:1033400043EA0C01E3691143C268194349F20C6373
:103350009A431143C1604169A26921F4407141F26D
:103360000043114340F48062C4F201039A42416178
:1033700002D1FDF7FFFE01E0FDF7E8FEE1696368B9
:103380001922B1F5004FA0FB020123D15A00DB0F37
:10339000FCF793FF48F21F51C5F2EB11A0FB01238C
:1033A0005A094FF69C73C0F6FF7303F1805302FB7A
:1033B0000300322303EBC000A0FB01014FF4F870BF
:1033C00000EA111000EB0210C1F342110844216819
:1033D000886010BD9A009B0FFCF76FFF48F21F51E9
:1033E000C5F2EB11A0FB01235A094FF69C73C0F6FE
:1033F000FF7302FB0300322303EB0010A0FB01016B
:10340000F02000EA511000EB0210C1F34311084410
:103410002168886010BD000010B540F27034C2F21F
:1034200000042046FEF7ACFF40F29441C2F20001D6
:1034300020460122BDE81040FFF7F0BA40F2B83054
:10344000C2F20000FEF79CBFFEE700002DE9F0434A
:1034500040F2C008C2F2000898F80020032A00F2E7
:103460008680DFE802F00313273F00BFA52840F065
:103470007E8040F20110A8F8000040F2D000C2F2B5
:103480000000A5210170BDE8F08300BF98F801207D
:103490004FF0FF34531C88F8013054FA83F340F2A4
:1034A000D004C2F200048B42A05418BFBDE8F083E0
:1034B00002205AE098F8012040F2D009531CC2F2D1
:1034C000000988F8013009F8020009B3042901F065
:1034D000030C1FD200214FF0010EBCF1000F2FD1C1
:1034E0003DE000BF5A283FD140F2D000C2F20000B8
:1034F000B0F90110B0F80300A8F80210A8F8040011
:1035000040F2C800C2F20000C0E900112CE000BF88
:10351000002124E001F0FC020021002409EB040555
:103520006E78AF78EB7831442D79394419440434FE
:10353000A2422944F2D104F1010EBCF1000F0ED0D9
:1035400019F80E20BCF1010F114408D00EEB09024E
:103550005378BCF1020F19441CBF92781144C9B2D0
:10356000814201D1032000E0002088F80000BDE87E
:10357000F083000070B52DED048B40F2044640F25C
:1035800050059FED1C8A9FED1C9A441CC2F2000658
:10359000C2F200052046314600222B46B0EE480A12
:1035A000F0EE490A00F0D0F806F14801204600226A
:1035B0002B46B0EE480AF0EE490A00F0C5F806F1D5
:1035C0009001204600222B46B0EE480AF0EE490A50
:1035D00000F0BAF806F1D801204600222B46B0EEE2
:1035E000480AF0EE490ABDEC048BBDE8704000F0DB
:1035F000ABB800BF00002F440000C84200294FD0E4
:10360000087891ED0F1A91ED102A81ED070A30EE3E
:10361000C00A0028C1ED060A81ED0F0A81ED101ADB
:1036200081ED112A40D0012840F0888091ED015AA7
:1036300091ED026A30EE414A31EE011A91ED037AC2
:1036400024EE054A20EE065A30EE410A32EE000A18
:10365000D1E90C2081ED0C0A20EE070A34EE051AA0
:1036600091ED082A91ED043A81ED0B0A31EE000A42
:1036700032EE000AB4EE430AF1EE10FA81ED094A87
:1036800081ED0A5AC1E90D2081ED080AC2BF81ED22
:10369000083AB0EE430A7047B1EE431A43E000BF68
:1036A0009FED280A704700BF91ED024A91ED0A6A2A
:1036B00091ED012A91ED053A24EE004A91ED035A6D
:1036C00034EE064A20EE022AD1E90C2030EE410AFF
:1036D000B4EE434A81ED0C0A20EE050AF1EE10FA31
:1036E00081ED092A81ED0A4AC1E90D2081ED0B0A1D
:1036F00006DCB1EE433AB4EE434AF1EE10FA03DAD7
:10370000B0EE434A81ED0A3A32EE042A91ED041AF2
:1037100030EE020AB4EE410AF1EE10FA81ED080A29
:1037200007DCB1EE411AB4EE410AF1EE10FAA8BF7F
:103730007047B0EE410A81ED081A704791ED080A12
:10374000704700BF00000000002918BF002B01D106
:10375000704700BF80B50A70186848605868886074
:10376000986881ED040AC860C1ED050A01F12000E6
:103770002821FCF75BFE80BD10B540F20C02481E0C
:10378000C2F2000200EBC00102EB401040F2044222
:10379000F0EE400AC2F2000290ED010A40F2004051
:1037A00002EBC104C2F2000001302146FFF726FF00
:1037B00094ED080A9FED061AB5EE400AF1EE10FAF4
:1037C000C8BFB0EE401ABDEEC10A10EE100A10BD1F
:1037D000000000007047000080B582B0019040F208
:1037E000B830C2F2000001A901224FF47A73FFF74A
:1037F0004FF9019802B080BDFDF74CFBFFF720FCAC
:10380000FFF706FAFFF74CFAFFF7E0FAFFF732FB93
:10381000FFF784FBFFF7B0FBFFF7CCFB00F06CF881
:10382000FEE70000000000002DE9F04F81B00C46DB
:103830000546FDF71BFB217E206101290ED00029E2
:103840004DD1E1692846FEF77BFDE060012020763E
:103850000020606001B0BDE8F08F00BFE16928463C
:10386000FEF76EFDD4E903128246401A009238BF7B
:1038700000F5803000EE100A9FED1D1AB8EE400AE8
:1038800081EE000A9FED1B1A6668C4F808A020EEBE
:10389000010A10EE100A84ED000A00F035FF81469F
:1038A0003046884600F030FF9FED0F0B57EC106B51
:1038B00032463B4600F03CFD05468B4648464146B5
:1038C00032463B4600F034FD2A465B4600F088FC59
:1038D00000F054FC60600098C4F80CA0606101B076
:1038E000BDE8F08F00BF00BF000000000000E03F17
:1038F000002474499224094182B040F29820C2F217
:1039000000000021FEF7CAF940F2E020C2F20000F8
:103910000421FEF7C3F940F25020C2F20000FFF785
:1039200069FB40F2703040F29441C2F20000C2F2F2
:1039300000010122FFF772F840F20040C2F20000DD
:10394000FFF718FE40F22830C2F20000FDF7EAFE51
:1039500040F20C04C2F200040FF22C086068656AA1
:1039600000F0D2FE064628460F4600F0CDFE41ECA0
:10397000100B404632463B468DED000BFCF716FD22
:103980000120FDF789F9E9E725662C25660A000084
:103990005FEA400C08BF91F0000F4FEA8C234FEA1A
:1039A000C12243EA51514FEA1C5018BF00F5F040C4
:1039B0004FEA300018BF41F000415FEA6C5C00F054
:1039C0002980BCF1FF3F08BF40F080407047130CD6
:1039D00006BF12044FF0100C4FF0000C130E04BF82
:1039E00012020CF1080C130F04BF12010CF1040CAD
:1039F000930F04BF92000CF1020CD30F04BF5200CE
:103A00000CF1010C11464FF00002A0F11F00A0EBD9
:103A10000C00704711F0004F08BF704731F00041B3
:103A20003FF4D5AF0B0C06BF09044FF0100C4FF05C
:103A3000000C0B0E04BF09020CF1080C0B0F04BFA5
:103A400009010CF1040C8B0F04BF89000CF1020C6E
:103A5000CB0F04BF49000CF1010CCCF1200322FA7A
:103A600003F341EA030102FA0CF2A0EB0C0000F1AF
:103A70000100704723F07F4720F07F4C80EA03006D
:103A800000F00040ACEB070303F57C5303F1FF03A8
:103A90002DE9804909B44FEA144324EA03484FEA68
:103AA000154B25EA0B4E0FF2042606EB13273E7842
:103AB00003FB0667C7F5000707FB06F64FEAD64685
:103AC00006F102064FEA543707FB066CCCF1005CA6
:103AD0004FEA1C472CEA074C0CFB06F507FB06F4E3
:103AE00004EB15464FEA961649085FEA320234BFE6
:103AF00000204FF000404FEAD13706FB07FC4FEAA9
:103B00001C4C0CFB0BF7D21B03FB0CF761EB070102
:103B10000CFB0EF7B0EB074072EB17420CFB08F7FB
:103B200034BFA2EB0742B2EB074261EB17414FEA09
:103B30000C444FEA910706FB07FC4FEA1C4C0CFBB8
:103B40000BF7B0EBC74072EB573203FB0CF734BFF7
:103B5000A2EBC742B2EBC74261EB57310CFB0EF749
:103B6000B0EBC70072EB57720CFB08F734BFA2EB47
:103B7000C702B2EBC70261EB57714FEA816141EABC
:103B800092114FEA826242EA90124FEA806004EB9F
:103B9000CC04039F4FEAD13706FB07FC4FEA1C4CCD
:103BA0000CFB0BF7D21B03FB0CF761EB07010CFBC3
:103BB0000EF7B0EB074072EB17420CFB08F734BF6F
:103BC000A2EB0742B2EB074261EB17414FEA8C557B
:103BD00004EB9C244FEA910706FB07FC4FEA1C4CC0
:103BE0000CFB0BF7B0EBC74072EB573203FB0CF743
:103BF00034BFA2EBC742B2EBC74261EB57310CFBBB
:103C00000EF7B0EBC70072EB57720CFB08F734BF2E
:103C1000A2EBC702B2EBC70261EB57714FEA8161B9
:103C200041EA92114FEA826242EA90124FEA8060C2
:103C300015EB4C2544F100044FEAD13706FB07FC95
:103C40004FEA1C4C0CFB0BF7D21B03FB0CF761EB90
:103C500007010CFB0EF7B0EB074072EB17420CFBB1
:103C600008F734BFA2EB0742B2EB074261EB174102
:103C70004FEA813141EA92414FEA823242EA904270
:103C80004FEA80304FEA0C7615EB1C1544F1000426
:103C900048EA03434EEA0B484FF0000EB2EB080C23
:103CA00071EB030724BF624639464EEB0E0E4FF010
:103CB000000B0018524149414BEB0B0BB2EB080CC7
:103CC00071EB03077BF1000B24BF624639464EEBD4
:103CD0000E0E4FF0000B0018524149414BEB0B0BFD
:103CE000B2EB080C71EB03077BF1000B24BF6246BB
:103CF00039464EEB0E0E51EA020718BF46F0010698
:103D000016EB0E7655F1000254F1000103D5BDE823
:103D10008901BDE80088BDE88901BDE80048B61901
:103D2000524141EB0101A3F10103704780807F7E86
:103D30007D7C7B7A79787776767574737271717021
:103D40006F6E6E6D6C6C6B6A6A69686867666665D3
:103D50006464636362616160605F5F5E5E5D5D5C61
:103D60005C5B5B5A5A5959585857575656555555D2
:103D70005454535352525251515050504F4F4F4E32
:103D80004E4D4D4D4C4C4C4B4B4B4A4A4A49494980
:103D900048484847474747464646454545444444C2
:103DA0004443434343424242424141419C46002BEB
:103DB00030D477002BD04FEA37071CB503B44FF04F
:103DC00010004FF01001BAF1000F06D0BCF1000F47
:103DD000DCBF40F0080040F008014FF000000FBCCD
:103DE000BDE810400BF1010BBBF1010F08BF5FEA0A
:103DF000170722BF12F1010211F101014FF000413A
:103E000043F1000300F0004043EA00007047F9D39B
:103E10005708D0E746EA06464FEA164613F1400F28
:103E20001FDD13F1200FDFBF16430A4600212033A8
:103E30005B42BED0C3F1200746EA06464FEA16466B
:103E400002FA07F746EA070622FA03F2C3F120074F
:103E500001FA07F742EA070221FA03F14FF00003E3
:103E6000A7E746EA020646EA06464FEA164646EA4B
:103E70000106BCBF46EA0646360C4FF000034FF081
:103E800000024FF0000194E72DE9804C70B49A468F
:103E9000934691E8380007C831EA400C48BF34EA3D
:103EA000430C03D5FFF7E6FDFFF780FFF0BCBDE84C
:103EB000008C2DE9804C70B49A46934691E8380006
:103EC00007C810F0804F08BF13F0804F03D100F0F7
:103ED00005F8FFF76BFFF0BCBDE8008C20F07F47D2
:103EE00023F07F4C80EA030000F0004007EB0C0356
:103EF000A3F57C53A3F1FE0392F0000F00F0B38012
:103F000095F0000F00F077802DE901494FEA11404C
:103F100021EA00484FEA144624EA064700FB06FC63
:103F200008FB06F607FB08F818EB06484CEB164CA6
:103F300000FB07F718EB07484CEB17404FEA124B12
:103F400022EA0B4E4FEA154625EA06470BFB06FC14
:103F50000EFB06F607FB0EFE1EEB064E4CEB164C58
:103F60000BFB07F71EEB074E4CEB174B18EB0B0840
:103F700040F1000018EB0E0B58EB000840F1000078
:103F80008F1A4FF000014FF000063CBFC943661B7B
:103F900014BFB5EB040C00213CBFC943F61B4FEA2C
:103FA000174427EA04454FEA1C472CEA074C04FB58
:103FB000076205FB07F70CFB05F616EB074642EB1D
:103FC000174204FB0CFC16EB0C4642EB1C421BEBAD
:103FD000060658EB020241414EEA8E0E46EA9E0664
:103FE00001D5BDE80189B619524141EB0101A3F1A8
:103FF0000103BDE801894FEA144524EA05464FEA6A
:10400000114721EA074C05FB07F406FB07F70CFBF9
:1040100006F111EB074144EB174405FB0CFC11EBD7
:104020000C4144EB1C444FEA124722EA074C05FBC3
:1040300007F206FB07F70CFB06F616EB074642EB0A
:10404000174205FB0CFC16EB0C4642EB1C456A18AC
:1040500054F1000148BF7047B619524141EB0101CC
:10406000A3F10103704795F0000F37D04FEA1142DA
:1040700021EA02464FEA144724EA074C02FB07F103
:1040800006FB07F70CFB06F414EB074441EB174162
:1040900002FB0CFC14EB0C4441EB1C414FEA1547AE
:1040A00025EA074C02FB07F506FB07F70CFB06F6B3
:1040B00016EB074645EB174502FB0CFC16EB0C46CE
:1040C00045EB1C42121951F1000148BF7047B61967
:1040D000524141EB0101A3F1010370474FEA14453E
:1040E00024EA05464FEA114721EA074C05FB07F190
:1040F00006FB07F70CFB06F212EB074241EB1741F8
:1041000005FB0CFC12EB0C4251EB1C414FF000067E
:1041100048BF7047921841EB0101A3F101037047BA
:1041200003B401984100009850EAC12018BF042050
:104130004A0D18BF40F0010040F2FF72B2EB515F30
:1041400008BF40F00200012808BF052002B07047F8
:1041500010B500290AD00878002807D0054878440F
:10416000FCF7FAFC002801D0002010BD024878447A
:1041700010BD0000A20700009A07000021F00042D5
:1041800001F00043A2F16052B2F5801F28BFD2F1C6
:104190007F6C0BD95FEA001C43EAC20242EB50700D
:1041A00018BF704728BF20F001007047B2F5801F8C
:1041B000BCBF184670474FEA410C1CF5001F02D2E5
:1041C000084600F01FBB70B500F05CF900000089E4
:1041D000FFF7F6BF4FF00040A0F5800070470000E9
:1041E00010B591EA030F48BF83F0004300F1A681A8
:1041F000841A71EB030C05D2121943EB0C03001B5C
:1042000061EB0C014FEA1154A4EB135CDFF81CE1E5
:104210001EEA430F18BF9EEA445F00F0748021EA53
:10422000045123EA0E0343F48013DCF1200E32D351
:1042300022FA0CFE10EB0E0023FA0CFE41EB0E01ED
:10424000CCF1200E03FA0EFE10EB0E00CCF1200E86
:1042500051F10001B1F5801F32D201EB045112FA85
:104260000EF2BDE8104058BF7047401C38BF5FEAEF
:10427000420218BF7047002814BF20F0010041F12E
:1042800000014FEA410313F5001F38BF7047A1F149
:10429000C04100F045B9012A43EB0302ACF1200C08
:1042A000DCF11F0E32BF4FF0000E23FA0CF310EBBF
:1042B000030041EB0451B4EB115FD0D0A1EB0451EA
:1042C00001F58011490801EB04515FEA30000ED37B
:1042D00050F1000038BF12FA0EFE08D1BDE81040C0
:1042E000C9E7401C38BF5FEA4202CAD1C3E7BDE854
:1042F00010404FEA410313F5001F38BF7047A1F18A
:10430000C04100F00DB99EEA445F08D011EA5E0F8B
:10431000BDE8104004BF01F0004100207047BDE837
:10432000104070B500F0AEF864FBBE3E0000E0FF48
:1043300070B5DFF848C11CEA111E1EBF1CEA131538
:104340009EEA0C0F95EA0C0F00F06F8081EA0304DF
:104350004EEAD47EAE4421EA4C1123EA4C1341F4D8
:10436000801143F48013AEF17F7EA1FB024CA0FBD1
:104370000365361955EB0C05A1FB034C4CF100030A
:10438000A0FB021C16EB0C06654153F10003094229
:1043900018BF46F0010613F4007F0BD14FEA03313A
:1043A0004FEA053041EA155140EA165034036FF0E8
:1043B00003020AE04FEAC3214FEAC52041EA555102
:1043C00040EA5650F4026FF0020202EB2E4201EB7B
:1043D000025585EACE710AD05FEA440C18BF24F07A
:1043E000004450F1000041F1000120EAD47040F295
:1043F000FE7C624500D270BDA84214BF4FF08044DD
:104400004FF04044002E08BF0024BEF1806FA8BFCB
:10441000A1F1C041BDE8704080F2828001F1C0414D
:1044200001F000414FF0000070470CEA13159EEABE
:104430000C0F18BF95EA0C0F06D081EA030E4FF05F
:1044400000000EF0004170BD00F01CF88900013E34
:1044500000F007B800F009B84FEA430C5FEA5C5C73
:1044600008D081EA030100F05BB84FEA410C5FEA33
:104470005C5CF6D102494FF0000070470000FF0776
:104480000000F87F0EF1020E2EF0030E5EF8046BB2
:10449000364205D4012A43EB030515F5001F12D857
:1044A000012841EB010C1CF5001F0CD80ED14FEA7E
:1044B000D17C0CEB4C0C0CF1020C15F5001F08BF65
:1044C0004CEBD37C04E04FF0080C01E04FEAD37CC6
:1044D0000CEB4C0526FA05F606F00706B6F1040CBF
:1044E00006D20EEB860CBDE870404CF0010C604724
:1044F000DFE80CF0090B02024FF00041A1F50021AA
:104500004FF0000070BD19461046012851EB010420
:1045100018BFD4F5001484BF002001F0004170BD25
:104520000808A0F500114FEA3101704710B591EA73
:10453000030F48BF83F000433FF55AAE841A71EB76
:10454000030C07D28CF0004C121943EB0C03001B38
:1045500061EB0C014FEA1154A4EB135CDFF8A4E10A
:104560001EEA430F18BF9EEA445F00F0B48021EAC0
:10457000045123EA6E035242C3EB6E0338BF5B1E45
:10458000DCF1200E25D322FA0CFE10EB0E0043FACC
:104590000CFE41EB0E01CCF1200E03FA0EFE10EBE7
:1045A0000E00CCF1200E51F1000129D401EB045191
:1045B00012FA0EF2BDE8104058BF7047401C1CBFF5
:1045C000B2F1004F704700280CBF491C20F00100D9
:1045D000704712EB020E43EB030218BF4FF0010EBF
:1045E0004EEA4202ACF1200CDCF11E0E56D943FA21
:1045F0000CFE10EB0E00CCF11E0E51F1FF31D5D5A3
:104600000EF1010E12FA0EFE404141EB010101EBE9
:10461000445C5FEA5C5C10D901EB045110EBDE7086
:1046200038BFBEF1004FBDE8104018BF70470028EA
:104630000CBF491C20F00100704734D24FEAD42C43
:1046400024F4006411F500111BD0B1FA81F20B3A89
:10465000A41AA41ED2F12003914030FA03F31943A7
:10466000904001EBCC7101EB0451002CBDE81040EF
:10467000A8BF704701F1C04101F000414FF00000B8
:104680007047B0FA80F310FA03F102D1BDE8104090
:104690007047E41A173C4805C90AE2E701EB0451E8
:1046A000BDE81040704749104FEA300001EB04515B
:1046B000BDE8104002E04FF0000170474A0008BF1B
:1046C0000042F8D0B2F5001F28BF704701F000414A
:1046D0004FF0000070479EEA445F07D011EA5E0F7A
:1046E000BDE8104004BF002100207047BDE8104025
:1046F00070B5FFF7C7FE00BF40DFF63E104683F0FF
:10470000004170470000E0FF43004FEAD30C4FEA3E
:104710003C0C43401FBF40070CF1605113F0FE4FAB
:1047200070471CF0006F03D10CF00041002070476F
:104730000CF0004343EA507040EACC0010B500F0A2
:104740000EF800BF000000924FEA0001FFF7E8BE3C
:104750004FF00041A1F500214FF0000070470EF12D
:10476000020E2EF0030E5EF8044B244204D44FEAEE
:104770004102B2F17F4F11D84FEA4003B3F17F4FAE
:104780000CD80ED14FEAD07C0CEB4C0C0CF1020C87
:10479000B2F17F4F08BF4CEBD17C04E04FF0080C26
:1047A00001E04FEAD17C0CEB4C0324FA03F404F053
:1047B0000704B4F1040C06D20EEB840CBDE81040E3
:1047C0004CF0010C6047DFE80CF0070802024FF0E4
:1047D0000040A0F5800010BD0846420018BFD2F18D
:1047E000807288BF00F0004010BDF1EE100A4FF655
:1047F000FF71C0F2C03120EA010040F04070E1EEEC
:10480000100A7047FF2141EAD050C0057047FBF7FE
:1048100010BF000002400000000000A000000000E7
:1048200005400000000000C8000000000C4000002F
:104830000000409C00000000194000000020BCBEA9
:104840000000000034400000BFC91B8E00000004BF
:10485000B5400000504BCFD06607E2CF010000000A
:104860006C4100003E8251AADFEEA7340100000037
:10487000D9420000DCB5A0E23A301F97FFFFFFFFEE
:10488000B4450000FD25A0C8E9A3C14FFFFFFFFF0D
:10489000FF3F00000000008000000000FF3F00001C
:1048A0000000008000000000000000000000000088
:1048B00001020304060708090000000001020304C6
:1048C00002000000040000000800000010000000CA
:1048D000FDFFFFFFFBFFFFFFF7FFFFFFEFFFFFFF06
:1048E000204900080000002060000000F8010008D6
:1048F0008049000860000020400A000018020008FB
:104900001C00000043000000F8FFFFFF0C00000047
:104910000E0000000F0000002E000000000000004C
:104920000100000001000000100000000000000075
:104930000000000000000000000000000000000077
:104940000000000000000000000000000000000067
:104950000000000000000000000000000000000057
:104960000000000000000000040000000024F4002B
:10497000CDCCCC3E6F12033B0000003F0000000096
:040000050800019559
:00000001FF
