:020000040800F2
:10000000E836002499030008C9A2000839840008D2
:10001000C1A200085106000851F3000800000000CA
:10002000000000000000000000000000D1A900084E
:10003000810C000800000000E1A20008F1AB0008FC
:10004000B7030008B7030008B7030008B7030008A8
:10005000B7030008B7030008B7030008B703000898
:10006000B7030008B7030008B70300082108000819
:100070003108000841080008B7030008B70300086A
:10008000B7030008B7030008B7030008C90C00084D
:10009000D90C0008B7030008B7030008B70300082D
:1000A000B7030008B7030008B7030008B703000848
:1000B000B7030008B7030008B7030008B703000838
:1000C000B703000841840008B7030008B70300081D
:1000D000B703000851CB0008B7030008B7030008B6
:1000E000B7030008B703000800000000B7030008CA
:1000F000B7030008B7030008B7030008B7030008F8
:10010000B7030008B7030008B7030008B7030008E7
:10011000B703000891B00008B7030008B1AD0008AC
:10012000B7030008B7030008B7030008B7030008C7
:10013000B7030008B7030008B7030008B7030008B7
:1001400000000000000000000000000000000000AF
:10015000B7030008B7030008B7030008B703000897
:10016000B7030008B7030008B7030008B703000887
:10017000B7030008D1A20008B70300080000000080
:10018000B7030008B7030008A1B00008B7030008D0
:10019000B7030008B7030008B7030008B703000857
:1001A000B7030008B7030008B70300080000000009
:1001B000B7030008B7030008B7030008B703000837
:1001C000B7030008B70300080000000000000000AB
:1001D0000000000000000000B7030008000000005D
:1001E000000000000000000000000000000000000F
:1001F0000000000000000000B7030008B70300087B
:10020000B7030008B703000800000000B7030008A8
:10021000B7030008B7030008B7030008B7030008D6
:10022000B703000800000000B7030008000000004A
:10023000B7030008B703000800000000B703000878
:10024000B7030008B7030008B7030008B7030008A6
:10025000B7030008B7030008B7030008B703000896
:10026000B7030008B7030008B7030008B703000886
:10027000B7030008B7030008B70300080000000038
:10028000B7030008B7030008B7030008B703000866
:1002900000000000B7030008B703000800000000DA
:1002A00000000000B7030008B7030008C9B0000849
:1002B000B7030008B7030008B7030008B703000836
:1002C000B7030008B7030008B703000800F002F8FE
:1002D00000F052F814A696E8000CB244B344DA4594
:1002E00001D100F049F8BAE80F000FA696E83000F7
:1002F000A5EB040504EB0607AAEB0704A7F1010729
:100300004FEA15154FEA3414A4F10104AC4201D3AD
:1003100000F032F813F0010F18BFFB1A43F001038D
:1003200000F001F8DBE71847040D0100340D01006F
:10033000103A24BF78C878C1FAD8520724BF30C811
:1003400030C144BF04680C60704700007047000073
:100350000023002400250026103A28BF78C1FBD8CE
:10036000520728BF30C148BF0B6070471FB510F05F
:10037000CCFD1FBD10B510BD00F0D4F81146FFF73D
:10038000F5FF0FF0F9FB00F0F2F803B4FFF7F2FF0E
:1003900003BC00F0F9F800000A4880470A4880478B
:1003A0000A480047FEE7FEE7FEE7FEE7FEE7FEE756
:1003B000FEE7FEE7FEE7FEE705480649064A074B6B
:1003C00070470000990C0008D9AC0008CD02000865
:1003D000E8300024E8360024E8320024E832002423
:1003E00053EA020C00F069802DE9F04B4FF0000653
:1003F000002B1FBFB3FA83F503FA05F424FA05F6C0
:100400005E4012BF1643B2FA82F502FA05F4C5F156
:1004100020051EBF22FA05FC44EA0C04203556EAEA
:10042000044C4FEA144418BF641C4FF000084FF00E
:100430000009904271EB030C39D3002919BFB1FABE
:1004400081F701FA07F6B0FA80F700FA07F6C7F16C
:1004500020071EBF20FA07FC46EA0C062037B6FB31
:10046000F4FCA7EB0507103F07F01F0BCBF12006AC
:100470002CFA06F60CFA0BFB44BFB3460026202FDD
:10048000A4BF5E464FF0000B5BEA060C08BF4FF0BE
:10049000010B19EB0B0948EB0608ABFB027C06FBD2
:1004A00002CC0BFB03CCC01B71EB0C01C1E70B466C
:1004B000024641464846BDE8F08B13B5084318BFD5
:1004C0004FF0FF300146AFF30080BDE81C4070479D
:1004D0004FF0000200B5134694469646203922BFDD
:1004E000A0E80C50A0E80C50B1F12001BFF4F7AF28
:1004F000090728BFA0E80C5048BF0CC05DF804EB0A
:10050000890028BF40F8042B08BF704748BF20F877
:10051000022B11F0804F18BF00F8012B7047704775
:1005200070477047754600F02BF8AE4605006946E7
:10053000534620F00700854618B020B5FFF73CFF72
:10054000BDE820404FF000064FF000074FF00008D4
:100550004FF0000BAC46ACE8C009ACE8C009ACE811
:10056000C009ACE8C00921F007018D46704710B5FD
:100570000446AFF300802046BDE81040FFF705BFFA
:10058000004870472801002401491820ABBEFEE74F
:10059000260002007047000041F64C31A522C2F24D
:1005A00000410A704FF05A028A7142F64462C2F268
:1005B00000429269C1F8012060B1F0B5042800F052
:1005C000030E0BD24FF0000C0122BEF1000F26D11A
:1005D00032E000BF4FF0000C30E000BF002200F01E
:1005E000FC0C8C186578A678E378247915440432DD
:1005F000944535440CD000BF8E182B44234404325C
:100600007578B778347994451D44F3783D44F3D137
:100610002B44013204EB030CBEF1000F0CD08B5CB9
:10062000BEF1010F9C4407D00A44BEF1020F53787B
:100630009C4401D092789444BDE8F040C21C42F240
:10064000D070C2F20040642381F805C007F024BED8
:10065000FEE70000000000000020704700000000DE
:10066000002070470000000010B541F6543440F6F9
:100670000471C2F20044C2F20041002220460CF094
:100680004BFC40F204712046C2F200410CF034FCF5
:10069000002010BD0000000010B541F654340146A2
:1006A000C2F2004420460CF027FC20460CF000FC6F
:1006B000002010BD00000000002070470000000076
:1006C00041F20004C5F6020410F01EFB40F2DC26E5
:1006D00040F2AC170025C2F20046C2F2004700BF4C
:1006E00001204FF0FF310FF0ABFD40F252300FF020
:1006F0002FFF4FF400510122204603F035F84FF44C
:10070000FA700FF025FF4FF400510022204603F04D
:100710002BF835603D70E3E782B000208DF80700CC
:1007200010F0F2FA41F65C1742F2A864C2F20047F8
:100730004FF00308C2F200440DF107054FF0010924
:100740006E464FF0050A00900CE000BF8DF8078060
:10075000012264232046294607F09EFD0A213046E7
:100760000FF046FF97F8280000F0FD010129EDD0B9
:100770000228EDD197F82700012805D00328E7D1FA
:100780008DF80790E4E700BF8DF807A0E0E70000D0
:1007900082B010F0B9FA019042F64460C2F2004013
:1007A00041F65C1640F2AC1740F2981800F12C04A8
:1007B000C2F20046C2F20047C2F200484FF00109FF
:1007C0000DF1040A05E000BFFD70012150460FF055
:1007D0000FFF20460FF070F820460FF0E5F8204696
:1007E0000FF0A6F896F8280096F827507D7001289B
:1007F000EBD1681E0228E8D8012DE5D1F878012850
:10080000E2D038780028DFD1D8F800000021022299
:10081000002310F0DDF987F80090D5E70000000014
:1008200041F62070C2F2004000F05ABE0000000005
:1008300041F6A860C2F2004000F052BE0000000085
:1008400041F63060C2F2004000F04ABE00000000F5
:1008500040F20F42D0F800C0C4F20202944511DC0D
:100860006F22C4F20202944522DC3F22C4F202024B
:10087000944539DC1022C4F2020294455AD0282251
:1008800054E000BF40F26F42C4F2020294451BDC08
:1008900040F23F42C4F2020294452DDC40F2104285
:1008A000C4F20202944545D040F228423EE000BF27
:1008B0009F22C4F20202944528DC7022C4F2020294
:1008C000944537D0882231E040F29F42C4F20202C0
:1008D000944523DC40F27042C4F20202944529D0D0
:1008E00040F2884222E000BF4022C4F20202944556
:1008F00020D058221AE000BF40F24042C4F2020267
:10090000944517D040F2584210E000BFA022C4F234
:10091000020294450ED0B82208E000BF40F2B8426F
:10092000C4F20202944505D040F2A042C4F2020291
:10093000944517D10CF0F8024AF6AB23103ACAF6E8
:10094000AA23A2FB03310AA35F2AC1F302115B5C55
:1009500040F2FF312CEA0101C36588BF0431816593
:10096000084670472CF0FF0181650846704700BFBC
:10097000000610160006101670B540F26F44D0F84D
:1009800000C0C4F20204D0F858E0A4451ADC9F2548
:10099000C4F20205AC4533DC5725C4F20205AC4570
:1009A0005ADC1025C4F20205AC4500F098802825D9
:1009B000C4F20205AC4500F092804025C4F2020565
:1009C0008AE000BF45F22F45C5F60205AC452DDC97
:1009D00040F2B745C4F20205AC454BDC40F270452D
:1009E000C4F20205AC457AD040F28845C4F2020553
:1009F000AC4574D040F2A045C4F202056CE000BFE3
:100A000040F22745C4F20205AC4543DCA025C4F200
:100A10000205AC4563D0B825C4F20205AC455ED0F2
:100A200040F21045C4F2020556E000BF45F26B45A6
:100A3000C5F60205AC453FDC45F23045C5F602057A
:100A4000AC454CD045F24445C5F60205AC4546D010
:100A500045F258453EE000BF5825C4F20205AC45BA
:100A60003DD07025C4F20205AC4538D08825C4F2CB
:100A7000020531E040F2B845C4F20205AC452ED083
:100A800045F20845C5F60205AC4528D045F21C459F
:100A900020E000BF40F22845C4F20205AC451ED05C
:100AA00040F24045C4F20205AC4518D040F258452A
:100AB000C4F2020510E000BF45F26C45C5F6020520
:100AC000AC450CD045F29445C5F60205AC4506D0C0
:100AD00045F28045C5F60205AC4540F0D080456E34
:100AE000C66E002E866E6E601CBFD0E91C566E600E
:100AF000A44515DC9F24C4F20204A4452CDC572431
:100B0000C4F20204A44551DC1024C4F20204A4453A
:100B10007AD02824C4F20204A44575D040246FE0A2
:100B200045F22F44C5F60204A44529DC40F2B7443F
:100B3000C4F20204A44545DC40F27044C4F202044D
:100B4000A44561D040F28844C4F20204A4455BD0BD
:100B500040F2A04454E000BF40F22744C4F2020433
:100B6000A4453FDCA024C4F20204A4454CD0B82420
:100B7000C4F20204A44547D040F2104440E000BF54
:100B800045F26B44C5F60204A44555DC45F23044F9
:100B9000C5F60204A44561D045F24444C5F60204FA
:100BA000A4455BD045F2584454E000BF5824C4F239
:100BB0000204A44528D07024C4F20204A44523D022
:100BC00088241DE040F2B844C4F20204A4451BD0BE
:100BD00045F20844C5F60204A4453FD045F21C4442
:100BE00038E000BF40F22844C4F20204A4450BD010
:100BF00040F24044C4F20204A44505D040F25844F7
:100C0000C4F20204A4453AD18468C06D00F01F000C
:100C10003F2505FA00F0CEF80800DCF80000402C73
:100C200020F48020CCF80000CCF8043023D1CCF89C
:100C30000820CCF80C1070BD45F26C44C5F60204D7
:100C4000A4450BD045F28044C5F60204A44505D066
:100C500045F29444C5F60204A44510D1C46D0125A3
:100C600004F01F04806805FA04F4CEF8044040281C
:100C7000CCF80430DBD0CCF80810CCF80C2070BDD8
:100C80007047000000000000EFF3108072B600BF54
:100C9000FEE700000000000044F60400C5F6020074
:100CA000816841F0020181600168890409D401680A
:100CB00089045CBF01685FEA814102D4016889044C
:100CC000F2D570470000000041F69870C2F2004073
:100CD00001F082BF0000000042F23800C2F2004082
:100CE00001F07ABF000000002DE9F041044602F057
:100CF00043FD1CB3054694F83500022822D140F28A
:100D00000F462768C4F2020640F26F48B7426FF000
:100D10000E00C4F202081DDC6F21C4F202018F42F2
:100D20002ADC3F21C4F202018F4241DC1021C4F2CF
:100D300002018F4263D028215CE000BF0120BDE8A2
:100D4000F08100BF802060650120002184F834100C
:100D5000BDE8F08147451BDC40F23F41C4F202018F
:100D60008F422DDC40F21041C4F202018F4246D086
:100D700040F228413EE000BF9F21C4F202018F42B1
:100D800028DC7021C4F202018F4238D0882131E082
:100D900040F29F41C4F202018F4223DC40F27041D5
:100DA000C4F202018F422AD040F2884122E000BF03
:100DB0004021C4F202018F4221D058211AE000BF25
:100DC00040F24041C4F202018F4218D040F2584133
:100DD00010E000BFA021C4F202018F420FD0B82161
:100DE00008E000BF40F2B841C4F202018F4206D0D1
:100DF00040F2A041C4F202018F42394607D1394680
:100E0000386820F01E0041F8140B6FF080000A686B
:100E1000474500EA020008601ADC9F20C4F2020085
:100E2000874233DC5720C4F2020087425ADC10208C
:100E3000C4F20200874200F097802820C4F202002A
:100E4000874200F091804020C4F202008AE000BF97
:100E500045F22F40C5F6020087422DDC40F2B74034
:100E6000C4F2020087424BDC40F27040C4F2020040
:100E7000874279D040F28840C4F20200874273D0A2
:100E800040F2A040C4F202006CE000BF40F22740F4
:100E9000C4F20200874243DCA020C4F20200874271
:100EA00062D0B820C4F2020087425DD040F2104008
:100EB000C4F2020056E000BF45F26B40C5F60200E6
:100EC00087423FDC45F23040C5F6020087424BD0F6
:100ED00045F24440C5F60200874245D045F25840ED
:100EE0003EE000BF5820C4F2020087423CD0702090
:100EF000C4F20200874237D08820C4F2020031E0F9
:100F000040F2B840C4F2020087422DD045F20840BA
:100F1000C5F60200874227D045F21C4020E000BF02
:100F200040F22840C4F2020087421DD040F2404007
:100F3000C4F20200874217D040F25840C4F20200C7
:100F400010E000BF45F26C40C5F6020087420BD0AE
:100F500045F29440C5F60200874205D045F2804034
:100F6000C5F60200874204D1206E016821F4807129
:100F70000160386820F00100386000BF3868C007A1
:100F800010D002F0F9FB401B0628F7D32020606543
:100F9000032084F835000120002184F83410BDE8D6
:100FA000F08100BF2068B04210DC6F21C4F2020162
:100FB00088421DDC3F21C4F20201884234DC10214A
:100FC000C4F20201884255D028214FE040451BDC85
:100FD00040F23F41C4F2020188422DDC40F2104150
:100FE000C4F20201884245D040F228413EE000BFF1
:100FF0009F21C4F20201884228DC7021C4F2020160
:10100000884237D0882131E040F29F41C4F202018A
:10101000884223DC40F27041C4F20201884229D0A8
:1010200040F2884122E000BF4021C4F20201884220
:1010300020D058211AE000BF40F24041C4F2020122
:10104000884217D040F2584110E000BFA021C4F2FE
:10105000020188420ED0B82108E000BF40F2B8413A
:10106000C4F20201884205D040F2A041C4F202015C
:1010700088425BD1D4E9161202F01F023F2303FA23
:1010800002F28A6040455BDC9F21C4F20201884283
:1010900014DC5721C4F20201884227DC1021C4F27B
:1010A0000201884200F0A2802821C4F20201884295
:1010B00000F09C804021C4F2020195E040F22741FB
:1010C000C4F2020188421FDCA021C4F2020188425E
:1010D00000F08C80B821C4F20201884200F08680C2
:1010E00040F21041C4F202017EE000BF5821C4F278
:1010F000020188427AD07021C4F20201884275D080
:101100008821C4F202016FE040F22841C4F20201DA
:1011100088426BD040F24041C4F20201884265D05F
:1011200040F25841C4F202015EE000BFD4E9161259
:1011300002F01F02012303FA02F24A604045A3DDD8
:1011400045F22F41C5F60201884217DC40F2B74153
:10115000C4F20201884227DC40F27041C4F202016D
:10116000884243D040F28841C4F2020188423DD017
:1011700040F2A041C4F2020136E000BF45F26B41EB
:10118000C5F6020188421FDC45F23041C5F6020176
:1011900088422BD045F24441C5F60201884225D051
:1011A00045F258411EE000BF40F2B841C4F20201CE
:1011B00088421BD045F20841C5F60201884215D08D
:1011C00045F21C410EE000BF45F26C41C5F602013C
:1011D00088420BD045F29441C5F60201884205D001
:1011E00045F28041C5F6020188420BD1616EA26EC4
:1011F000E06E4A6030B1016821F480710160D4E989
:101200001C014160012084F835000020002184F891
:101210003410BDE8F0810000F0B190F835100229DB
:1012200018D180B540F20F420168C4F20202914227
:1012300014DC6F23C4F20203994225DC3F23C4F27D
:10124000020399423CDC1023C4F2020399425DD0B0
:10125000282357E0802141650120704740F26F4309
:10126000C4F2020399421BDC40F23F43C4F2020382
:1012700099422DDC40F21043C4F20203994245D05A
:1012800040F228433EE000BF9F23C4F2020399428C
:1012900028DC7023C4F20203994237D0882331E05E
:1012A00040F29F43C4F20203994223DC40F27043B0
:1012B000C4F20203994229D040F2884322E000BFE1
:1012C0004023C4F20203994220D058231AE000BF01
:1012D00040F24043C4F20203994217D040F258430F
:1012E00010E000BFA023C4F2020399420ED0B8233D
:1012F00008E000BF40F2B843C4F20203994205D0AF
:1013000040F2A043C4F20203994277D191424FF0D8
:10131000040280F8352011DC6F20C4F20200814203
:1013200022DC3F20C4F20200814239DC1020C4F2EA
:101330000200814259D0282054E000BF40F26F40A3
:10134000C4F2020081421BDC40F23F40C4F20200C2
:1013500081422DDC40F21040C4F20200814244D0B0
:1013600040F228403EE000BF9F20C4F202008142CC
:1013700028DC7020C4F20200814236D0882031E09F
:1013800040F29F40C4F20200814223DC40F27040F0
:10139000C4F20200814228D040F2884022E000BF1F
:1013A0004020C4F2020081421FD058201AE000BF42
:1013B00040F24040C4F20200814216D040F2584050
:1013C00010E000BFA020C4F2020081420DD0B8207E
:1013D00008E000BF40F2B840C4F20200814204D0ED
:1013E00040F2A040C4F202008142086820F00100EF
:1013F00008600021BDE88040084670470A6822F076
:101400000E020A6045F25742C5F6020291420A688E
:1014100022F001020A600FDC45F22F42C5F60202FB
:10142000914219DC45F20842C5F60202914229D0E8
:1014300045F21C4222E000BF45F27F42C5F602029F
:10144000914213DC45F25842C5F60202914219D08E
:1014500045F26C4212E000BF45F23042C5F602028E
:1014600091420FD045F2444208E000BF45F2944259
:10147000C5F60202914205D045F28042C5F602024D
:1014800091421AD1D0E9181CD0E916E30A6822F477
:1014900080720A6003F01F01012202FA01F1CEF806
:1014A0000410816ECCF80410C16E31B10A6822F4C8
:1014B00080720A60D0E91C124A60012180F8351060
:1014C000026D0021002A80F8341093D0904790E7F5
:1014D000406D70470000000090F835007047000034
:1014E0002DE9F04782B00021019140F20801044645
:1014F000C2F2004148F2B512C1F64E32A56D09683C
:1015000040F26F490068C4F20209A1FB0218484585
:101510002E68296816DC9F21C4F2020188422DDC66
:101520005721C4F20201884252DC1021C4F20201A8
:1015300088427CD02821C4F20201884277D0402121
:1015400070E000BF45F22F42C5F60202904229DC4E
:1015500040F2B742C4F20202904245DC40F27041D0
:10156000C4F20201884262D040F28841C4F2020112
:1015700088425CD040F2A04154E000BF40F22741D5
:10158000C4F2020188423FDCA021C4F20201884279
:101590004DD0B821C4F20201884248D040F2104137
:1015A00040E000BF45F26B42C5F60202904275DC96
:1015B00045F23042C5F60202904200F0828045F2C8
:1015C0004442C5F6020290427BD045F2584273E095
:1015D0005821C4F20201884229D07021C4F20201CC
:1015E000884224D088211DE040F2B842C4F20202B1
:1015F00090421CD045F20842C5F60202904260D0EB
:1016000045F21C4258E000BF40F22841C4F20201FA
:1016100088420CD040F24041C4F20201884206D018
:1016200040F25841C4F20201884240F05183E16D1A
:10163000082201F01F0140F20F4A8A40C4F2020A58
:10164000324200F0DE8050454FF0040312DC6F2779
:10165000C4F20207B8426DDC3F27C4F20207B84269
:1016600000F39C801027C4F20207B84200F0BD804E
:101670002827B5E0484569DC40F23F47C4F202073D
:10168000B84200F3938040F21047C4F20207B84218
:1016900000F0AB8040F22847A2E000BF45F26C4268
:1016A000C5F6020290420CD045F28042C5F6020215
:1016B000904206D045F29442C5F60202904240F0B4
:1016C00007830268E36D03F01F0304279F400F4266
:1016D00018BF12F0040623D102279F400F4218BF03
:1016E00012F0020642D1D940090740F1F18212F00E
:1016F000080100F0ED82016821F00E010160012077
:1017000000FA03F16960606584F83500E16C002936
:101710004FF0000084F8340040F0D582D8E200BFDA
:1017200011046F6034D4910636D4016821F00401AD
:10173000016031E09F27C4F20207B84240DC702705
:10174000C4F20207B84250D0882749E040F29F47D0
:10175000C4F20207B8423BDC40F27047C4F2020711
:10176000B84242D040F288473AE000BF11046F60AF
:1017700000F1B282910600F1B382016821F00A0102
:101780000160012084F83500002084F83400A7E2CD
:10179000D00301D4A16C95E2216C93E24027C4F2FE
:1017A0000207B84221D058271AE000BF40F2404754
:1017B000C4F20207B84218D040F2584710E000BF08
:1017C000A027C4F20207B8420FD0B82708E000BF34
:1017D00040F2A047C4F20207B84206D040F2B84730
:1017E000C4F20207B84218BF082307681F4208D096
:1017F000036823F004030360AA60626D42F00102F3
:10180000626501228A4032426FD0504510DC6F235E
:10181000C4F2020398421DDC3F23C4F20203984243
:1018200034DC1023C4F20203984256D028234FE040
:1018300048451BDC40F23F43C4F2020398422DDCD2
:1018400040F21043C4F20203984246D040F22843CB
:101850003EE000BF9F23C4F20203984228DC7023BD
:10186000C4F20203984238D0882331E040F29F430B
:10187000C4F20203984223DC40F27043C4F2020334
:1018800098422AD040F2884322E000BF4023C4F2AD
:101890000203984221D058231AE000BF40F240438F
:1018A000C4F20203984218D040F2584310E000BF3F
:1018B000A023C4F2020398420FD0B82308E000BF6F
:1018C00040F2A043C4F20203984206D040F2B8436B
:1018D000C4F20203984240F0058243691B0604D516
:1018E000AA60626D42F00202626504228A403242BE
:1018F0006FD0504510DC6F23C4F2020398421DDC08
:101900003F23C4F20203984234DC1023C4F20203E2
:10191000984256D028234FE048451BDC40F23F4315
:10192000C4F2020398422DDC40F21043C4F20203D9
:10193000984246D040F228433EE000BF9F23C4F2C5
:101940000203984228DC7023C4F20203984238D084
:10195000882331E040F29F43C4F20203984223DC23
:1019600040F27043C4F2020398422AD040F2884306
:1019700022E000BF4023C4F20203984221D0582342
:101980001AE000BF40F24043C4F20203984218D06C
:1019900040F2584310E000BFA023C4F20203984273
:1019A0000FD0B82308E000BF40F2A043C4F2020306
:1019B000984206D040F2B843C4F20203984240F085
:1019C000998103689B0704D5AA60626D42F0040206
:1019D0006265102202FA01F1314200F08180504527
:1019E0004FF0080210DC6F23C4F2020398421DDCA2
:1019F0003F23C4F20203984234DC1023C4F20203F2
:101A0000984256D028234FE048451BDC40F23F4324
:101A1000C4F2020398422DDC40F21043C4F20203E8
:101A2000984246D040F228433EE000BF9F23C4F2D4
:101A30000203984228DC7023C4F20203984238D093
:101A4000882331E040F29F43C4F20203984223DC32
:101A500040F27043C4F2020398422AD040F2884315
:101A600022E000BF4023C4F20203984221D0582351
:101A70001AE000BF40F24043C4F20203984218D07B
:101A800040F2584310E000BFA023C4F20203984282
:101A90000FD0B82308E000BF40F2A043C4F2020315
:101AA000984206D040F2B843C4F20203984218BFED
:101AB00004220368134213D0A96001684903016836
:101AC00008D4C90508D4016821F008010160216C1F
:101AD00021B905E008034FD4216C09B1204688479D
:101AE000E06D00F01F01202000FA01F2324200F008
:101AF000AD8020681023504510DC6F27C4F2020728
:101B0000B8421DDC3F27C4F20207B84238DC102778
:101B1000C4F20207B8425AD0282753E048451BDCDC
:101B200040F23F47C4F20207B84231DC40F21047AE
:101B3000C4F20207B8424AD040F2284742E000BF50
:101B40009F27C4F20207B8422CDC7027C4F20207B8
:101B5000B8423CD0882735E040F29F47C4F20207E4
:101B6000B84227DC40F27047C4F20207B8422ED0D8
:101B700040F2884726E000BFA16C0029AED1AFE754
:101B80004027C4F20207B84221D058271AE000BF0C
:101B900040F24047C4F20207B84218D040F258471A
:101BA00010E000BFA027C4F20207B8420FD0B82748
:101BB00008E000BF40F2A047C4F20207B84206D0D6
:101BC00040F2B847C4F20207B84218BF02230768C0
:101BD0001F423BD0AA6094F83520042A02681DD128
:101BE00022F016020260426922F080024261226CF9
:101BF0000AB9A26C1AB1026822F0080202603F2002
:101C00008840A860012084F83500216D00294FF03C
:101C1000000084F8340056D15AE000BF5103016837
:101C20000CD4C9050ED4016821F010010160012017
:101C300084F83500002084F8340003E0080301D460
:101C4000616C00E0E16B09B120468847606D0028B7
:101C50003ED0606DC00734D0042084F83500206881
:101C60004FEA9821026822F001020260019A0132D3
:101C700001928A421AD80268D20717D0019A01321B
:101C800001928A4212D80268D2070FD0019A01321B
:101C900001928A420AD80268D20707D0019A01321B
:101CA00001928A4202D80268D207DFD10068C007D9
:101CB0004FF0030008BF012084F83500002084F8AD
:101CC0003400E16C21B1204602B0BDE8F04708477E
:101CD00002B0BDE8F08700BFD00301D4616CF1E72A
:101CE000E16BEFE7026804228A4032427FF401AEE2
:101CF0006FE600BF02686CE62DE9F04381B0044650
:101D000001F03AFD002C00F0AF8040F26F4805462C
:101D10002068C4F20208404516DC9F21C4F202018B
:101D200088422DDC5721C4F20201884254DC102184
:101D3000C4F20201884200F07E802821C4F2020130
:101D4000884278D0402171E045F22F41C5F602016A
:101D5000884229DC40F2B741C4F20201884247DCE4
:101D600040F27041C4F20201884264D040F28841DE
:101D7000C4F2020188425ED040F2A04156E000BFAA
:101D800040F22741C4F20201884241DCA021C4F2A2
:101D9000020188424FD0B821C4F2020188424AD0E1
:101DA00040F2104142E000BF45F26B41C5F602012E
:101DB000884200F3BB8045F23041C5F602018842FB
:101DC00000F0C78045F24441C5F60201884200F0A8
:101DD000C08045F25841B7E05821C4F20201884260
:101DE00029D07021C4F20201884224D088211DE04C
:101DF00040F2B841C4F2020188421CD045F20841C9
:101E0000C5F60201884200F0A48045F21C419BE027
:101E100040F22841C4F2020188420CD040F2404115
:101E2000C4F20201884206D040F25841C4F20201D5
:101E3000884240F02381022184F83510002184F883
:101E40003410016821F00101016000BF20680168C1
:101E5000C9070DD001F090FC401B0628F6D32020C6
:101E60006065032084F83500012001B0BDE8F083EF
:101E700048F23F0204F108060168CFF610621140F3
:101E8000D4F818C06CCE11431943E3692943256A7D
:101E90000E43616A3343042943EA050343EA0C0312
:101EA00003D1D4E90B652E433343666843F48012B3
:101EB000A6F13F07A6F12905042FA6F1470938BF6F
:101EC0001346062DA6F14F0E38BF1346B9F1020F87
:101ED00026F0030738BF1346BEF1040F38BF134680
:101EE000742F08BF134604290360426922F00702D9
:101EF00041EA020140F0DE80D4E90A53002B41EAB6
:101F0000050100F0D780BCF5005F00F0B980BCF19E
:101F1000000F40F0C180022D00F0C180012D00F0C3
:101F2000B580002D00F0BB80C4E000BF45F26C41DD
:101F3000C5F6020188420CD045F28041C5F6020187
:101F4000884206D045F29441C5F60201884240F02D
:101F5000958004F1080E022184F83510002184F8E0
:101F600034100168A3699EE80450A2F18005E76976
:101F7000B5FA85F566696D09402A4FEA853543EA69
:101F800007026FF3101142EA060208BF102541EA6A
:101F9000DC0142EA0E02236A294341EAD20141EA06
:101FA000131140F80819C0B2CD2148433C2101EA81
:101FB0009020E0652046FEF74BFCE16D012201F028
:101FC0001F0102FA01F141602068404500F3818061
:101FD0009F21C4F20201884214DC5721C4F202019D
:101FE000884227DC1021C4F20201884200F0C78039
:101FF0002821C4F20201884200F0C1804021C4F2CD
:102000000201B9E040F22741C4F20201884221DC1A
:10201000A021C4F20201884200F0B180B821C4F2CC
:102020000201884200F0AB8040F21041C4F202018C
:10203000A2E000BF5821C4F20201884200F09F8054
:102040007021C4F20201884200F099808821C4F214
:10205000020191E040F22841C4F20201884200F0FE
:102060008E8040F24041C4F20201884200F0878035
:1020700040F25841C4F202017EE000BF4020EFE68A
:10208000032D17D8DFE805F00E0B0E02A3F1C07286
:10209000B2FA82F2520904E0032D03D30AD1C3F34A
:1020A00000623AB140206065012084F8350001B03B
:1020B000BDE8F08341612046FEF7CAFBE16D3F2297
:1020C00001F01F0102FA01F18160206840457FF7AD
:1020D0007FAF45F22F41C5F60201884216DC40F27F
:1020E000B741C4F20201884226DC40F27041C4F2DA
:1020F0000201884243D040F28841C4F20201884282
:102100003DD040F2A041C4F2020135E045F26B41FE
:10211000C5F6020188421FDC45F23041C5F60201D6
:1021200088422CD045F24441C5F60201884226D0AF
:1021300045F258411EE000BF40F2B841C4F202012E
:1021400088421CD045F20841C5F60201884216D0EB
:1021500045F21C410EE000BF45F26C41C5F602019C
:1021600088420CD045F29441C5F60201884206D05F
:1021700045F28041C5F60201884240F0E18045F217
:10218000574C45F6FC01C5F6020CC5F60201604548
:102190000EDC45F22F42C5F60202904218DC45F2F1
:1021A0000842C5F60202904228D045F21C4221E0C6
:1021B00045F27F42C5F60202904213DC45F25842D6
:1021C000C5F60202904219D045F26C4212E000BFFF
:1021D00045F23042C5F6020290420FD045F2444229
:1021E00008E000BF45F29442C5F60202904205D0D5
:1021F00045F28042C5F60202904247D100F0FC024F
:102200004CF6CD43083ACCF6CC43A2FB0323A1F114
:10221000FC05A1F17C061B0905EB830503F01F02F9
:10222000A3682566802B4FF0010303FA02F266666D
:10223000A26605D100206060286072601EE000BFC9
:102240006768FBB2013F072F2B60726016D85E1ED5
:10225000082E19D2604501F1440237DC45F22F47C0
:10226000C5F60207B84241DC45F20847C5F6020749
:10227000B84259D045F21C474AE000BF00206067D1
:10228000C4E91B005CE000BFE06E54E000F0F8021F
:102290004AF6AB23103ACAF6AA23A2FB032740F260
:1022A0000F43C4F2020308253A09984203F1AA0633
:1022B000134688BF05EB171340F60005B042C4F281
:1022C000020505F1800628BF1346A5E745F27F47C2
:1022D000C5F60207B84213DC45F25847C5F60207B7
:1022E000B84221D045F26C4712E000BF45F23047BA
:1022F000C5F60207B84217D045F2444708E000BFD0
:1023000045F28047C5F60207B8420DD045F2944722
:10231000C5F60207B84207D040F60000C4F202003A
:1023200000F1FC0100F5A07201EB83000121E066E1
:10233000B1402267616700210160D4E91C0141605E
:1023400000206065012184F8351001B0BDE8F083FC
:1023500040B1B0B5054690F83400012804D1022000
:10236000B0BD00BF01207047012085F8340095F80A
:102370003500012828D1022085F835000020686545
:102380002868046824F0010404602846FEF7F4FA83
:1023900040F20F422868C4F2020240F26F419042BC
:1023A000C4F2020118DC6F23C4F20203984225DC58
:1023B0003F23C4F2020398423CDC1023C4F2020320
:1023C00098425ED0282357E04FF4006068650020F3
:1023D00085F834000120B0BD88421BDC40F23F4349
:1023E000C4F2020398422DDC40F21043C4F202030F
:1023F000984246D040F228433EE000BF9F23C4F2FB
:102400000203984228DC7023C4F20203984238D0B9
:10241000882331E040F29F43C4F20203984223DC58
:1024200040F27043C4F2020398422AD040F288433B
:1024300022E000BF4023C4F20203984221D0582377
:102440001AE000BF40F24043C4F20203984218D0A1
:1024500040F2584310E000BFA023C4F202039842A8
:102460000FD0B82308E000BF40F2B843C4F2020323
:10247000984206D040F2A043C4F20203984240F0D2
:102480002F8103680B2464F3440303602B6C1BB19E
:102490000823046823430360884219DC9F23C4F2A5
:1024A0000203984232DC5723C4F20203984259DCFB
:1024B0001023C4F20203984200F096802823C4F24D
:1024C0000203984200F090804023C4F2020389E0A6
:1024D00045F22F43C5F6020398422DDC40F2B74384
:1024E000C4F2020398424BDC40F27043C4F2020390
:1024F000984279D040F28843C4F20203984273D0E4
:1025000040F2A043C4F202036CE000BF40F2274354
:10251000C4F20203984243DCA023C4F202039842AF
:1025200062D0B823C4F2020398425DD040F2104357
:10253000C4F2020356E000BF45F26B43C5F6020346
:1025400098423FDC45F23043C5F6020398424BD037
:1025500045F24443C5F60203984245D045F258433C
:102560003EE000BF5823C4F2020398423CD07023DF
:10257000C4F20203984237D08823C4F2020331E048
:1025800040F2B843C4F2020398422DD045F208430A
:10259000C5F60203984227D045F21C4320E000BF55
:1025A00040F22843C4F2020398421DD040F2404357
:1025B000C4F20203984217D040F25843C4F2020317
:1025C00010E000BF45F26C43C5F6020398420BD001
:1025D00045F29443C5F60203984205D045F2804384
:1025E000C5F60203984274D12B6E1C68E40303D530
:1025F0001C6844F480741C60EB6E1BB11D6845F4CC
:1026000080751D60904211DC6F21C4F20201884286
:102610001EDC3F21C4F20201884235DC1021C4F2E5
:102620000201884255D0282150E000BF88421BDCBF
:1026300040F23F41C4F2020188422DDC40F21041D9
:10264000C4F20201884244D040F228413EE000BF7B
:102650009F21C4F20201884228DC7021C4F20201E9
:10266000884236D0882131E040F29F41C4F2020115
:10267000884223DC40F27041C4F20201884228D033
:1026800040F2884122E000BF4021C4F202018842AA
:102690001FD058211AE000BF40F24041C4F20201AD
:1026A000884216D040F2584110E000BFA021C4F289
:1026B000020188420DD0B82108E000BF40F2B841C5
:1026C000C4F20201884204D040F2A041C4F20201E7
:1026D0008842016841F0010101600020B0BD00BFE7
:1026E0000368052464F3430303602B6C002B3FF461
:1026F000D3AE0423CDE60000B0B5044601F03CF8AB
:1027000040F200010546C2F20041621C097818BF80
:102710000C4400BF01F030F8401BA042FAD3B0BD1A
:1027200090F89830013B012B0ED80068836D0B4266
:1027300012D0836D0B408B4216D1C36D43F0020360
:10274000C3658B0514D418E000F19C01012002221E
:102750000B681A430A607047C36D43F00103C365F9
:102760008B0505D409E000BF0323C3658B0504D5A1
:10277000D0F8E0301343C0F8E0304B0504D5D0F872
:10278000E4301A43C0F8E4204FF6FF72436DC3F6FD
:10279000CF720A401A4342658A0F4AF6140100209C
:1027A000C4F200010B681A430A6070470000000081
:1027B00090F89830022B1BD12DE9F0430668D6F82B
:1027C000C03013F07C5F1BD0D6F8C4309B0221D4FC
:1027D000D6F8C4300C69C3F3044CD1E90035002DA0
:1027E0008D6821D023432B4343F0804E20E000BF6F
:1027F000D0F89C1041F00801C0F89C1001207047EF
:10280000D0F89C1041F02001C0F89C100120BDE8D8
:10281000F08300BFD0F89C1041F40071C0F89C1008
:102820000120BDE8F08300BF44EA834343EA050E7C
:10283000836ED0F88450D1E907970CFB03F48B69C1
:1028400049EA0767D1F81480D1F80C901F4305EBD3
:10285000840347EA080745F824E047EA09475F6030
:10286000CF6887B140F6C075083303320024C0F644
:10287000010500BF171957F8037C1F51CF680434B6
:10288000EF5DBC42F6D3012101FA0CF1C6F8D0107D
:10289000C0F894100020BDE8F083000000000000A4
:1028A000704700000000000090F89830012B0DD117
:1028B000012913D0F1B90068D0F8F01021F07C5153
:1028C00041EA0261C0F8F01000207047D0F89C1077
:1028D00041F00401C0F89C10012070470068D0F856
:1028E000A01021F0FE4141EA0261C0F8A0100020D2
:1028F000704700BF0068D0F8B01021F0FE4141EAF7
:102900000261C0F8B0100020704700000000000015
:1029100090F89820013A012A0CD880B50A68002A5C
:10292000CA680FD00B69072A43EA427E18D18B6927
:102930001BE000BFD0F89C1041F00201C0F89C10D1
:1029400001207047072A19D10A69D1E906C3120488
:1029500042EA032242EA0C0242F0605218E000BF51
:10296000D1F808C04B6943EA8C73006F496800EBEB
:10297000C10240F831E05360002080BD8B68D1E98E
:1029800004CE9B0743EAC26242EA0C4242EA0E02CC
:102990004968C06E40F82120002080BD0000000082
:1029A00090F898C0BCF1010F0ED19200006842EA85
:1029B0000111DDF800C041EA430141EA0C01C0F811
:1029C00080100020704700BFD0F89C1041F0040137
:1029D000C0F89C1001207047704700000000000004
:1029E00070470000000000002DE9F04390F8987057
:1029F000022F11D1402919D10668D6F8A07017F41A
:102A0000FE0F2FD0D6F8A4707F0635D0D6F8A4706C
:102A1000FF013BD400273CE0D0F89C1041F00801B6
:102A2000C0F89C100120BDE8F08300BF41290FD100
:102A30000668D6F8B07017F4FE0F13D0D6F8B4704D
:102A40007F0619D0D6F8B470FF012BD400272CE0F4
:102A5000076D8F4206D900F17C04456D4FF0000CE4
:102A60000E462BE0D0F89C1041F02001C0F89C10DD
:102A70000120BDE8F08300BFD0F89C1041F48071C4
:102A8000C0F89C100120BDE8F08300BFD6F8A0700C
:102A9000FF0FD6F8A46000F17404C6F30526F519FB
:102AA000466C0AE0D6F8B070FF0FD6F8B46000F1BB
:102AB0007804C6F30526F519C66CAC467543246840
:102AC00004EB850E54F8257017F08047576054F8D2
:102AD000257027F0604608BFC7F38A46166054F891
:102AE000257007F00057976054F8254004F0004423
:102AF0001461BEF80440D461BEF8064014F00F041F
:102B0000D460DEF8044004F480145461DEF804401C
:102B100004F4001494619EF8074004F07F041462EA
:102B2000DEF804404FEAD474546228D040F6C078EE
:102B30000024C0F601080EEB0406651C377A1F5509
:102B4000D76818F80770BD4219D21F19757A7D70C1
:102B5000D56818F80590A51C4D453FBFB57ABD70E6
:102B6000D56818F805903CBFE51C4D4507D2F57AAD
:102B70000434FD70D56818F80550AC42DBD3402909
:102B800006D10068C0F8A8C00020BDE8F08300BFEF
:102B9000412905D10068C0F8B8C00020BDE8F08325
:102BA0001F2909D80068012202FA01F1C0F8981023
:102BB0000020BDE8F08300BF006801F01F01012282
:102BC00002FA01F1C0F89C100020BDE8F08300007B
:102BD00070470000000000002DE9F04F89B0044666
:102BE0004AF61000C4F2000001684AF61400C4F26C
:102BF00000000268206802EA0108056DD0F85490D0
:102C0000036D0893436D0793036D0293436D019326
:102C1000076D436D0593036D0493436D0393D0F8E3
:102C200054A0D0F850B05FEACA5306970FD51BF4F2
:102C300080710CD04FF4807101654AF610010020BC
:102C4000C4F2000108602046FFF7C2FF20685FEA77
:102C50004A5105EA09064FEA887717D54AF610095E
:102C60001BF48061C4F2000914D0D0F8DC10D0F855
:102C7000E42011404FF4806202650020C9F8000092
:102C8000204600F085FC206804E000BF4AF61009E9
:102C9000C4F20009DDE9072101EA020506F47046E5
:102CA00057B10021016508F00300C9F80000204673
:102CB0003946FFF7F5FD2068DDE90121DDF80C80DC
:102CC00001EA020705F00F0546B106650020C9F8C4
:102CD00000002046314600F063FC206807F0F00653
:102CE00045B105650020C9F800002046294600F0DE
:102CF000A7FB2068DDE9045746B106650020C9F846
:102D000000002046314600F00BFC2068069E5FEA7A
:102D10000A510CD51BF4006109D04FF40061016524
:102D20000020C9F80000204600F03EFC20685FEA61
:102D30008A5111D51BF400710ED0D0F8D810D0F8FC
:102D4000E02011404FF4007202650020C9F8000035
:102D5000204600F021FC20685FEA0A310CD51BF404
:102D6000002109D04FF4002101650020C9F80000BE
:102D7000204600F061FB20685FEACA310CD51BF4E5
:102D8000803109D04FF4803101650020C9F800007E
:102D9000204600F0F9FB20685FEA4A3105EA0805A1
:102DA0000CD51BF4802109D04FF48021016500204F
:102DB000C9F80000204600F0E3FB20685FEA8A3192
:102DC00006EA070205F060710ED51BF400330BD044
:102DD0004FF4003303650023C9F80030D4F89C3069
:102DE00043F08003C4F89C3002F0715539B101659D
:102DF0000020C9F800002046FFF7F2FD206845B129
:102E000005650021C9F80010D4F89C102943C4F8C6
:102E10009C10A9F5016188420AD0D4F89C000028D2
:102E200068D0204609B0BDE8F04FFFF7D5BD00BF20
:102E3000606881688907F0D0016A426A036A476A5C
:102E4000114003EA070202F03005D0F82080D0F8E4
:102E50002490D0F820B0D0F824A0026A089211F093
:102E60000F01426A0792466A026A069203D0016223
:102E7000204600F079FB08EA09072DB16068294671
:102E80000562204600F078FB70060BEA0A0607F49C
:102E9000C0750ED5069810F040000AD06068402337
:102EA000C16BC26B090C02F03F020362204600F0C6
:102EB0005FFBDDE9071000EA010706F4FC462DB1CF
:102EC000606829460562204600F04AFB07F4F020BE
:102ED00036B161680E62D4F89C103143C4F89C107E
:102EE00000289AD061680862D4F89C100843C4F89E
:102EF0009C0092E709B0BDE8F08F000000000000E0
:102F0000F0B12DE9F04F83B04AF200080446C4F254
:102F100000080068404533D094F89810B9B381692F
:102F200021F01001816100F027FC054620688169CD
:102F3000090707D500F020FC401B0B28F6D312E050
:102F400001207047816941F00101816100F014FCAA
:102F5000054600BF20688169C90721D100F00CFC3B
:102F6000401B0B28F6D30120D4F89C100843C4F86A
:102F70009C00032084F89800012003B0BDE8F08F86
:102F800008F58071616094F898100029C7D100207D
:102F900084F89900204600F0B3F92068BFE700BF2D
:102FA000816941F002018161217C826922F0400245
:102FB000012918BF40328261617C826922F480421B
:102FC000012908BF02F580428261A17C826922F456
:102FD0008052012918BF02F580528261816921F473
:102FE0004073D4E902120B438361836923F0A40385
:102FF0008361036923F0100303619AB1012A0DD0A4
:10300000022A09D08369032A43F08003836103699C
:1030100043F01002026105D1202200E004228369FE
:103020001A438261D4E90572E369561E6FF0FF020C
:10303000256A02EB0323B1F5407F43EA4663A5F11D
:10304000010646EA030640F20003CFF6FF7303EBE6
:10305000074746EA0701C16110D1D4E90B65D4E9FD
:103060000917013F02EB06226FF00F063A4306EB09
:1030700005173A4303EB01411143C160236E2BB1A5
:10308000616ED0F8C0201143C0F8C010E16DCDE9E9
:103090000113D94240F62471C0F6010109D0D0F8DD
:1030A000C820A36E22F0070251F823301A43C0F85B
:1030B000C820D4F840A0BAF1000F09D0D0F8BC2045
:1030C000636C22F0070251F823301A43C0F8BC2089
:1030D000D4F848C0BCF1000F0AD0D0F8BC20E36C93
:1030E00022F0700251F8233042EA0312C0F8BC20EB
:1030F000D4F850B0BBF1000F0AD0D0F8BC20636DFB
:1031000022F4E06251F8231042EA0121C0F8BC1019
:10311000404504D161688A6822F003028A60002178
:10312000C4F89410C4F89C10012184F8981004F19C
:103130003409D0F884104FF6FC729143656C99E81D
:103140000C02009541EA8201C0F88410D0F8841086
:1031500021F47F0141EA0341C0F884109918D0F8A6
:1031600088306FF38F0343EA8103C0F88830D0F8CA
:10317000883023F4FE0343EA0943C0F8883001EBAA
:103180004903D0F8A0606FF38F0646EA8306C0F8C3
:10319000A060D0F8A06026F4FE0646EA0A46C0F811
:1031A000A06005FB0A36D0F8B0306FF38F0343EA16
:1031B0008603C0F8B030D0F8B03023F4FE0343EA01
:1031C0000C43C0F8B030E36CD0F8AC506FF38F050F
:1031D00003FB0C6645EA8605C0F8AC50D4F8548071
:1031E00008FB0B65D0F8F0606FF38F0646EA8506A2
:1031F000C0F8F060D0F8F0E0A66D2EF47C1747EA36
:103200000647C0F8F070F70007EB8507D0F8C0500C
:103210006FF38F052F43C0F8C070D0F8C070009DC9
:1032200027F47C1705FB0AF5DDF804A003FB0C531B
:1032300047EA0A47C0F8C0704AF20007D0F8C0E079
:10324000C4F20007DDF808C007F5406707EB82020B
:1032500007EB81012EF07C5747EA0C67C0F8C0707D
:1032600001EBC90008FB0B372167A16E00EB850558
:10327000606700EB8303E266C4E91E530AFB01F3B7
:1032800000EB87000CFB01F1C4F8800000EBC600E6
:10329000C4F8840000EB8300C4F8880000EB8100D0
:1032A0004DF2FC31C4F20001C4F89000884201D90B
:1032B000202059E682421FD21146002041F8040B1B
:1032C000D4F890309942BFF458AE506002F1080132
:1032D000D4F8903099423FBF906002F10C01D4F8CD
:1032E00090309942BFF449AED0601032D4F89010BB
:1032F0008A42E1D341E600BF002003B0BDE8F08F71
:10330000B0B5B6B0044602A8B8210025CDE93455C1
:10331000CDE932553195FDF7DBF84AF200412068DE
:10332000C4F2000188423DD04AF20001C4F200011B
:1033300088427DD1002003904FF4004002904FF06E
:1033400080501D9002A801F06FFF08B1FDF79CFCB2
:1033500040F2D82144F2E040C2F20041C5F602003A
:103360000A68002A02F101020A6008D1C16841F42A
:103370008071C160C16801F4807101910199016897
:10338000132441F008010160006800F0080001907A
:1033900040F200400199C5F60200032100F50060EB
:1033A00033E000BF4FF4004002904FF080501D907A
:1033B00002A8039501F038FF08B1FDF765FC40F263
:1033C000D82144F2E040C2F20041C5F602000A688A
:1033D000002A02F101020A6008D1C16841F480713B
:1033E000C160C16801F480710191019901681424E0
:1033F00041F0020101600068602100F002000190CC
:10340000019840F20040C5F602003191022132914C
:103410000021CDE933110921359131A900F0C8F817
:1034200000210022204600F08FFC204600F078FCAE
:1034300036B0B0BD00000000704700000000000082
:10344000B0B58EB04AF200050446C4F2000500682B
:10345000A84205D005F58061884259D00EB0B0BDB4
:1034600004AA02AB40212046FFF7BEFA0498A0F25E
:103470000121062947D8013841F68811C0B2C2F2AD
:103480000041C0EBC00001EB80008169322901F1ED
:103490000101816106D8BDF8081009BA090C018044
:1034A000818230E0BDF80810BDF80CE0BDF80A20BC
:1034B000B0F90030038109BA92FA82FC4FEA1C424B
:1034C00042809EFA8EF2120C8280C3EB11424FEAC8
:1034D000114C9DF80E10B2F5805FA0F800C081710C
:1034E00004DD01694A1E026108E000BF034612F5CF
:1034F000805F53F8102F01DA01321A60818A0CEBD9
:103500004232511AC160206805F580618842A5D118
:1035100004AA6B4640212046FFF766FA0EB0B0BD04
:10352000704700000000000090F8981001290DD1AC
:10353000022180F8981001688A6922F001028A61EC
:103540000021C0F89C100846704700BFD0F89C10BE
:1035500041F00401C0F89C100120704700000000F9
:1035600070470000000000007047000000000000ED
:1035700070470000000000007047000000000000DD
:1035800070470000000000007047000000000000CD
:1035900070470000000000007047000000000000BD
:1035A00070470000000000007047000000000000AD
:1035B0002DE9F04F82B00D68002D00F0C78000F1BA
:1035C000264242F2004402F1FF728305C5F602046E
:1035D0000A27A04243EA922208BF0927082A40F29C
:1035E000040C38BF1746C5F6000C4FF0000E0097CC
:1035F000002700260AE000BF01360D6835FA06F202
:1036000007F102070EF1040E00F0A080012202FA79
:1036100006FB15EA0B08EFD0D1F804A003220AF04C
:10362000030502FA07F36C1E6FEA0309012C0FD899
:103630008368CC6803EA0903BC4023438360CAF370
:103640000014436823EA0B03B4402343436003E0C0
:10365000032D01D1032520E0C3688C6803EA090328
:10366000BC40022D43EA0403C36016D16FF003028D
:103670000EF01C0502EA56030F22034402FA05FB72
:10368000D3F820A00C692AEA0B0AAC4044EA0A04E9
:103690001C62D1F804A00AF00305036805FA07F4D8
:1036A00003EA09031AF4403F43EA04030360A3D08A
:1036B00044F2F44240F2084AC5F60202C5F6000A96
:1036C000136843F00203136013680F2203F0020330
:1036D000019326F00303019C0EF00C0453F80A90AA
:1036E00002FA04F5009A29EA050502FA04F44FF0FB
:1036F000B0492C4343F80A40D9F800304C6843EAFB
:103700000805E20258BF23EA0805C9F80050A502DF
:10371000DCF8002042EA080358BF22EA0803A503A8
:10372000CCF80030DCF8802042EA080358BF22EAD7
:103730000803E403CCF88030DCF87C2042EA08037C
:1037400058BF22EA0803CCF87C3055E702B0BDE848
:10375000F08F0000000000000069084018BF012041
:103760007047000000000000002A08BF09048161C2
:10377000704700000000000042F68C60C2F200407A
:10378000006870470000000090F84120202A03D113
:1037900090F84020012A01D102207047242280F8AD
:1037A00041200268136823F001031360136823F4B7
:1037B00080531360136819431160116841F00101CF
:1037C0001160202180F84110002180F84010084647
:1037D000704700000000000090F84120202A03D12B
:1037E00090F84020012A01D102207047242280F85D
:1037F00041200268136823F001031360136823F467
:10380000706343EA01211160116841F00101116008
:10381000202180F84110002180F8401008467047B0
:10382000704700000000000070470000000000002A
:103830000268436B002B9169126808BF70471847F4
:10384000704700000000000010B310B5044690F867
:10385000410028B9002084F84000204600F0FCF820
:10386000242084F8410094E80910E2680168012AE4
:1038700021F00101016023F070610161816821F490
:103880000041816006D14CF4004181600CE000BF32
:1038900001207047022A4CF40441816004D1416840
:1038A00041F4006103E000BF416821F40061416020
:1038B00004F1100C416841F0007141F40041416095
:1038C000C16821F40041C1609CE80E10114341EA37
:1038D0000321C160216A41EA0C010160016841F0E5
:1038E0000101016000206064202184F84110206300
:1038F00084F8420010BD0000704700000000000086
:103900007047000000000000704700000000000049
:103910007047000000000000704700000000000039
:10392000F0B581B0044690F8410020280ED1104631
:10393000069A7AB11E46079B63B10D4621688F69CE
:103940003F0403D494F84070012F0BD1022738466E
:1039500001B0F0BD4FF4007060640127384601B03B
:10396000F0BD00BF012784F84070222784F8417021
:10397000402784F8427000276764626263850023F1
:10398000CFF6FF73E36249F2F923C0F600036363E5
:10399000E564638DFF2B29D9FF23012E238529D0D0
:1039A000070A8F62C0B22065E06B58B348F2916C91
:1039B00048F2914E2431C0F6000CC0F6000E0027EC
:1039C000C0E90FC7C0E913E7FEF7C2FC50B32020DF
:1039D00084F8410084F84270606C40F0100060642C
:1039E00084F840700127384601B0F0BD638D012E88
:1039F0002385D5D1C0B288624FF0FF302065E06BDF
:103A00000028D3D1202084F84100002084F842000F
:103A1000616C41F08001616484F840000127384600
:103A200001B0F0BDF1B220686FF39F2549F60003A5
:103A30004268CFF6004345EA01411A40114401F5BE
:103A40000051416084F84070016841F0F20101606A
:103A5000384601B0F0BD00002DE9F041B6B002A932
:103A6000044601F10800B021FCF732FD45F60001E3
:103A70002068C4F20001884202D036B0BDE8F0816F
:103A80000820029002A80026039601F0CDFB08B1A1
:103A9000FDF7FAF844F2E04540F22808C5F60205C1
:103AA00031A9C4F20208286840F0020028602868A2
:103AB00000F00200319031984FF4406031901220B4
:103AC000CDE932060420359040F200403496C5F628
:103AD0000200FFF76DFDA8684FF4806740F4800096
:103AE000A860A86841F6A865C2F2004500F480000D
:103AF00001900198242068604020C5E9020628460C
:103B0000C5F80080C5E90476C5E90666C5E908661A
:103B1000FEF7F2F808B1FDF7B7F8A56308F1180051
:103B2000AC6341F63065C2F200452860232068602E
:103B30000020C5E90200C5E90470C5E90600C5E931
:103B400008002846FEF7D8F808B1FDF79DF82120B7
:103B500005210022E563AC6300F0F6F8212000F0B7
:103B6000DFF836B0BDE8F0817047000000000000CB
:103B7000704700000000000040F2000042F68C6137
:103B8000C2F20040C2F2004100780A6810440860A6
:103B9000704700000000000080B5032000F004F929
:103BA00002F052FA44F2184140F69873C5F6020149
:103BB000C0F601030A68C2F303229A5C096801F0A7
:103BC0000F0102F01F02595CD04040F20C02C2F219
:103BD000004201F01F0120FA01F1116040F20801DA
:103BE000C2F2004108600F2000F00AF800281CBF54
:103BF000012080BD00F07CF8002080BD00000000A6
:103C000070B540F20006C2F200463178E1B10446D8
:103C100040F20800C2F200404FF47A72B2FBF1F1B8
:103C20000068B0FBF1F002F03FFD0F2C4FF00105F2
:103C300008D838B94FF0FF3000222146002500F0A7
:103C400083F87460284670BD012070BD000000003C
:103C500010B54EF6A05E4178CEF2000E90F800C08E
:103C60004EF8081CDEF8001021F00101CEF800101B
:103C700041684EF8041C017BC37A827A447B1B06A0
:103C800043EA0171837B41EAC241C27B41EA84413C
:103C9000447A41EA4341007A41EA024141EA04217F
:103CA00041EA400040EA0C00CEF8000010BD0000E0
:103CB0004EF62450CEF20000BFF35F8F016821F46E
:103CC00080310160002101677047000000000000A2
:103CD0004EF6245140F00100CEF20001086708685A
:103CE00040F480300860BFF34F8FBFF36F8F704791
:103CF00081B044F2F4400022C5F60200016841F0B0
:103D00000201016000680F2100F0020000906FF0D6
:103D10000100009B01B000F017B800000000000097
:103D2000002848BF704700F01F01012202FA01F18C
:103D30004EF20012C0F34A10CEF2000242F82010F8
:103D4000704700000000000070B54EF60C5C4FF0AC
:103D5000FF36CEF2000C00F1604505F56445DCF855
:103D60000030C3F3022E8EF00703042B28BF042378
:103D7000BEF1030406FA03F321EA030100F00F0386
:103D800038BF0024043B0028634406FA04F048BF0F
:103D900003F10C05A14022EA00000843000128704D
:103DA00070BD0000000000004EF60C514FF6FF03FE
:103DB000CEF200010A681A4060F30A2242F08060E5
:103DC00040F0FD700860704701680122C0F8D824F7
:103DD000002280F8CC24886940F000608861486D3A
:103DE00040F08052002042F003024A657047000014
:103DF0007047000000000000026800205162704718
:103E00002DE9F043D0F80080D8F8243081B1D8F8FB
:103E10002870B1F1010E03EB174355D05FFA8EF114
:103E20000EF0030C04290BD2002700212DE000BF67
:103E3000002043EA0241C8F82810BDE8F08300BF23
:103E40000EF0FC0908F1F405002108F5827600BFA8
:103E500055F8107F41F00100C0B241F00304E4B214
:103E600003EB174341F0020756F82000FFB204317C
:103E700003EB104056F8273056F82440CFB200EB41
:103E800013404F4500EB1443E2D1BCF1000F1BD0AF
:103E900008EB8700BCF1010FD0F8040103EB1043DD
:103EA00012D0481CBCF1020FC0B208EB8000D0F861
:103EB000040103EB104307D0881CC0B208EB80005C
:103EC000D0F8040103EB104308EB8E0043EA0241F3
:103ED000C0F804110020BDE8F083000000000000DD
:103EE000D0F8E00409F0C4BB01EBC10200EB820290
:103EF000D0F8E004126A09F01FBB000000000000C7
:103F000001EBC10200EB8202D0F8E004D2F860229B
:103F100009F072BB00000000D0F8E00409F0ACBB6F
:103F200010B54AB2044601F00F00B2F1FF3F00EBBA
:103F3000C00104EB81020BDD02F51571002382F84C
:103F4000553294F894240870012A0AD1022010BD39
:103F500002F114010123537594F894240870012A86
:103F6000F4D0012084F8940420680AF085F9002038
:103F700084F8940410BD0000B0B50279044601F045
:103F80000F00904202D90120B0BD00BF49B2B1F18B
:103F9000FF3F09DD00EBC001002304EB810202F5C5
:103FA000157182F8553207E000EBC001012304EBE4
:103FB000810202F11401537594F8942400258D7048
:103FC000012A087002D10220B0BD00BF012084F890
:103FD000940420680AF03CFC284684F89454B0BD50
:103FE00001F00F0101EBC10100EB8100D0F8680284
:103FF000704700000000000070B54CB2064601F0AA
:104000000F00B4F1FF3F00EBC00107DD06EB8104B8
:10401000002504F5157184F8555206E006EB810C75
:1040200001240CF114018CF815404D7808706FF3E1
:10403000DF228A60002D0B7118BF4883022B01D14B
:104040000020487196F89404012801D1022070BD27
:10405000012086F89404306809F09EFF002086F85D
:10406000940470BD0000000080B501F00F0E0EEB4F
:10407000CE0100EB810C0021CCE998238379CCF8A8
:1040800068128CF855120CF51571012B8CF854E25E
:1040900008BFCCF8702200681A460AF025FC002000
:1040A00080BD000000000000B0B50446007901F0BA
:1040B0000F05854202D90120B0BD00BF48B2B0F162
:1040C000FF3F09DD01EBC100002204EB800000F599
:1040D000157180F8552207E005EBC500012204EBBD
:1040E000800000F11401427594F894240120887036
:1040F000012A0D7002D10220B0BD00BF84F89404E3
:1041000020680AF0D1FB1DB1002084F89404B0BDF2
:10411000A179206804F29C420AF06AFB002084F82E
:104120009404B0BD0000000010B501F00F0C012494
:104130000CEBCC0100EB810E714601F814CF4FF06F
:10414000000CC1F814C090F806C04C70CA60BCF1F5
:10415000010F0B6108BFCEF83020006862460AF0FC
:10416000C3FB002010BD00002DE9F04F89B00568A9
:10417000824628460AF0D0FD10B109B0BDE8F08FA4
:10418000DAF800000AF0F8FD0028F6D0D5F80808A3
:10419000C0F30D20CAF8D404DAF800000AF0ECFDF0
:1041A0008007DAF8000003D5416901F0020141619E
:1041B00005F5006104910AF0DFFDC006DAF80000A1
:1041C00007953BD5816921F0100181612C6A04F0CB
:1041D0000F05C4F34340062818D0022827D147F61C
:1041E000F07014EA000622D005EBC50034090AEB92
:1041F000800707982246D7F860120AF0C1FDD7F869
:10420000600200EB1610C7F8600207E00AF29C415A
:10421000082207980AF0B4FDC4F30A1405EBC500A0
:104220000AEB8000D0F868122144C0F86812DAF86E
:104230000000816941F010018161079D0AF09CFD39
:10424000000340F10181DAF800000AF071FD002856
:1042500000F0FA8006460AF51D784FF430644FF0FE
:10426000000B0AF29C40089009E000BF0BF1010B23
:10427000760804F1200408F1240800F0E580F00736
:10428000F4D05FFA8BF9DAF8000049460AF06CFDC9
:104290000746C00771D0281901218160DAF80000B3
:1042A00004EB000C036CDCF808209AF80650012D92
:1042B00028D115073AD4950658D412F0280F079D37
:1042C0005BD143F20B01C4F654718B4202D312F45A
:1042D000004235D1D8F80020DCF810106FF3DF4130
:1042E000BBF1000FA2EB010148F80C1C19D1DAF860
:1042F0006422002A00F0A280DAF860020844CAF8BA
:1043000060020EE043F20B05C4F65475FF35AB4274
:104310001CD110042CD49006079D02D52020CCF887
:10432000080050464946FFF7EBFD26E043F20B003C
:10433000079DC4F6547083421FD312F400401CD072
:104340004FF40040CCF8080017E000BFBBF1000FAD
:1043500006D1DAF8641219B90021089A0AF048FA6D
:1043600050464946FFF7CCFD06E000BF202001E0A3
:104370004FF40040CCF80800079D38072CD52819C9
:104380000821816043F20B01DAF80000C4F6547191
:10439000056C20448D4281680AD311F4004107D096
:1043A0004FF400418160504600F082FD079D09E016
:1043B000504600F07DFD43F20B00C4F65470854278
:1043C000079D09D39AF80600012805D1DAF8000004
:1043D0000121089A0AF00CFAF80607D4B8070AD4A3
:1043E000B80620D4B8047FF541AF22E02819102187
:1043F0008160B807F4D56869000604D50499486857
:1044000040F48060486018F81D0C012806D1002097
:1044100008F81D0C5046494600F086FB2819022179
:104420008160B806DED5281920218160B8047FF5A7
:104430001DAF28194FF40051816017E70121089A38
:104440000AF0D6F96DE700BFDAF800000AF094FC34
:104450004003DDF810B040F1E180DAF800000AF026
:104460005FFC002800F0DA800646079800F5106728
:1044700000250AF29C400290CDF814A0039704E0B6
:10448000760805F1010500F0C980F007F8D0E9B21F
:10449000DAF8000008910AF053FC0446C0070BD17B
:1044A000200733D4E00637D460063BD4A0073FD4BE
:1044B0002006E5D555E000BF05F00F00012307EB0E
:1044C0004512DBF8341003FA00F021EA0000CBF8C3
:1044D000340093609AF80600012811D105EBC5005D
:1044E0000AEB8000D0E907121144016245B9DAF8FD
:1044F000240028B9DAF800000121029A0AF078F9BC
:1045000050460899FFF7F0FC2007CBD507EB451084
:1045100008218160E006C7D507EB451010218160B6
:104520006006C3D507EB451040218160A007BFD5C9
:10453000079829460AF080FB05EBC5000AEB8000CE
:1045400010F8171F012905D1002101705046089964
:1045500000F0E6FA07EB45100221816020067FF5A6
:104560008FAF05EBC5000AEB8002914659F8241F76
:10457000C84658F8040F8142FFF482AF9346DAF838
:1045800000400B1A5BF81C7FBB4238BF1F4604EB90
:104590004513069407F1030CD3F81879BFB2B7EBB3
:1045A0009C0F29D303F5106A02F12007D9F80010F7
:1045B00081421FD9081A0599DBF80040A0428A7988
:1045C00038BF044639680092A3B20698089A0AF0E8
:1045D00083FE3868E11C20443860D8F8000020448D
:1045E000C8F80000DAF8182092B2B2EB910FDDD2D1
:1045F000D9F80010DDF814A0DDE9037B81423FF615
:104600003FAF069A05F00F00012101FA00F0D2F841
:10461000341821EA0000C2F8340831E7DAF8000063
:104620000AF0AAFB00281BD4DAF800000AF0A4FB69
:10463000000534D4DAF800000AF09EFB00013FD4F4
:10464000DAF800000AF098FBC0044BD4DAF8000056
:104650000AF092FB8004DAF8000000F15C8175E159
:10466000DBF8040020F00100CBF804009AF8CC0439
:10467000012807D100208AF8CC0400215046FFF71A
:10468000B7FB02E0504600F0F7FBDAF800004169A2
:1046900001F0004141610AF06FFB0005CAD5DBF86B
:1046A0000800C00702D0504600F02AFCDAF80000EB
:1046B000416901F4006141610AF05EFB0001BFD570
:1046C000DAF80000416901F0006141619AF8CC1408
:1046D00001B3504600F014FCDAF800000AF04CFB7D
:1046E000C004B3D5DBF80400102120F00100CBF8A2
:1046F0000400DAF800000AF09FFA9AF804000106B4
:1047000000F0CF80C1B200F00300042916D20021CE
:104710007CE000BF01218AF8CC14406DC0F3830017
:10472000CAF8D0045046FFF763FBDAF800000AF03D
:1047300023FBC0047FF58AAFD4E700BF6FF06002AF
:10474000002302EA41124FF67F370021079C00BF89
:10475000E61880339A4201F10401C6F80879D6F8C8
:10476000005925F40015C6F80059C6F8087BD6F89C
:10477000005B25F40015C6F8005BD6F8005B45F039
:104780000065C6F8005BC6F82879D6F8205925F4EC
:104790000015C6F82059C6F8287BD6F8205B25F40A
:1047A0000015C6F8205BD6F8205B45F00065C6F81A
:1047B000205BC6F84879D6F8405925F40015C6F8AC
:1047C0004059C6F8487BD6F8405B25F40015C6F87A
:1047D000405BD6F8405B45F00065C6F8405BC6F824
:1047E0006879D6F8605925F40015C6F86059C6F8FE
:1047F000687BD6F8605B25F40015C6F8605BD6F8D8
:10480000605B45F00065C6F8605BA1D1002848D028
:10481000079A4D0102F5106302F5306203EB411671
:104820004FF67F3702EB41140128B7605E5926F43A
:1048300000165E51A760565926F400165651565977
:1048400046F0006656512CD04E1C02284FEA461402
:1048500003EB461502EB4616AF601D5925F4001513
:104860001D51B760175927F400171751175947F012
:104870000060105115D0881C4FF67F36470103EBBE
:10488000401102EB40108E60D95921F40011D9512A
:104890008660D05920F40010D051D05940F000600B
:1048A000D051DBF81C0040F00110CBF81C009AF846
:1048B0000F0048B1DBF8840040F00B00CBF8840017
:1048C0000BF1440009E000BFDBF8140042F22B01B9
:1048D0000843CBF814000BF1100001680AF29C4267
:1048E00041F00B010160DBF8000020F4FE60CBF822
:1048F00000009AF80610DAF8000009F079FFDAF8FB
:104900000000416901F4805141610AF035FA8004E8
:10491000DAF800001AD509F087FBDAF800000AF08F
:10492000EBF98AF80700DAF8004001F005FB9AF885
:104930000720014620460AF043FC504600F084FA66
:10494000DAF80000416901F4005141610AF014FAFB
:10495000000707D4DAF800000AF00EFA00060ED4B9
:1049600036E000BF504600F08BFADAF800004169EB
:1049700001F0080141610AF0FFF9000628D5079906
:10498000886920F0800088619AF8040002281FD30B
:10499000012440F27B2503E001342435844217D200
:1049A0001AF805100129F7D104F00F00220600EBD8
:1049B000C0000AEB800000F1140158BF00F515712A
:1049C000DAF800000AF0A8F89AF80400E4E700BF5B
:1049D000DAF800000AF0D0F9C0024FD4DAF800008B
:1049E0000AF0CAF9800240F17E809AF80410022988
:1049F0002BD30798013900F532600AF51F720123A5
:104A000004E000BF013900F120001ED017460668FF
:104A100012F8245B012DF5D1B6F1FF3FF2DCDAF894
:104A2000D45485EA1646F607ECD1079E07F8013CF8
:104A3000B76947F08007B76177693F06E2D4DBF8D2
:104A4000040040F40070CBF80400DAF8000041697B
:104A500001F4001141610AF08FF9400049D5504638
:104A6000FFF73EFADAF80000416901F08041416148
:104A70000AF082F9400743D4FFF77FBB9AF804009D
:104A8000022825D307990AF13C0501F51264012695
:104A9000012703E001372034874219D229462268D2
:104AA00015F8243B012BF5D1B2F1FF3FF2DC07F002
:104AB0000F0001F8016C00EBC0000AEB800000F170
:104AC0001401DAF800000AF027F89AF80400E1E788
:104AD000DAF80000416901F4801141610AF04CF9F3
:104AE00080023FF582AFDAF800000AF045F9400095
:104AF000B5D4DAF800000AF03FF940077FF53DAB86
:104B0000DAF800004468610704D55046FFF704FA5C
:104B1000DAF8000041682143416009B0BDE8F08F38
:104B2000D0F8E00408F00CBED0F8E00408F020BE95
:104B3000002800F02B81F0B581B0044690F8950470
:104B400028B9002084F89404204600F035F90320A9
:104B500084F89504206809F043FED4E90001267C1E
:104B6000D4E90223009609F06FFA002840F008818A
:104B7000206800210AF05CF9002840F0018194F8D7
:104B800004E0BEF1000F00F0F280BEF1040F0EF061
:104B9000030C4FF0000241D30EF0FC03A4F190008F
:104BA00003210125CE1E80F8A460A0F8BE608E1EF1
:104BB00080F8C8604F1CA0F8E2604E1E80F8EC60E0
:104BC0009F42A0F8066101F1040680F8A55080F824
:104BD000A820C0E92B22C0F8B42080F8C95080F882
:104BE000CC20C0E93422C0F8D82080F8ED5080F8FD
:104BF000F020C0E93D22C0F8FC2080F8115180F877
:104C00001011A0F82A11314680F81421C0E946227B
:104C1000C0F8202100F19000C4D1F21EBCF1000FB9
:104C20002DD002EBC2000121BCF1010F04EB800387
:104C30004FF0000059751A75DA851876C3E9070038
:104C400058621CD0531CBCF1020F03EBC30504EBEC
:104C5000850569752B75EB852876C5E907006862BF
:104C60000DD0901C012200EBC00104EB81014A75BC
:104C70000875C88500200876C1E907004862BEF1C2
:104C8000000F74D0BEF1040F4FF0000237D30EF0C6
:104C9000FC000321234600BFCF1E83F854728F1EF1
:104CA00083F878724F1E83F89C724F1C0D1D83F899
:104CB0005522874283F85822C3E99722C3F8642219
:104CC00083F8792283F87C22C3E9A022C3F88822E2
:104CD00083F89D2283F8A022C3E9A922C3F8AC225D
:104CE00083F8C12283F8C012294683F8C422C3E99D
:104CF000B222C3F8D02203F19003CDD1EA1EBCF159
:104D0000000F34D002EBC200BCF1010F04EB8001B4
:104D10004FF0000081F8550281F8542281F85802C2
:104D2000C1E99700C1F8640221D0511CBCF1020F07
:104D300001EBC10304EB830383F8550283F854129B
:104D400083F85802C3E99700C3F864020FD0901C9F
:104D5000002200EBC00104EB810181F8552281F8AB
:104D6000540281F85822C1E99722C1F86422D4E99B
:104D70000001277CD4E90223009709F0E1FA38B159
:104D8000022084F89504012001B0F0BD0120704795
:104D900000206074012084F89504207B012802D152
:104DA0002046FFF711F8206809F0BAFA002001B098
:104DB000F0BD00000000000010B5B0B002A904462C
:104DC00001F10800B021FBF783FB00212068C4F249
:104DD0000401884202D030B010BD00BF0020039013
:104DE00013904FF40010239002A84FF480210291F9
:104DF00002210C911022CDE90D210422CDE90F21D1
:104E00004FF44061119100F00FFA08B1FBF73CFF3D
:104E100000F0BAF844F2D8400022C5F6020001685A
:104E200041F0007101600068052100F00070019000
:104E300001984D20FEF788FF4D20FEF771FF30B03E
:104E400010BD00000000000010B50446C07928B174
:104E5000022801D0FBF718FF012100E00021D4F85F
:104E6000E00408F011FDD4F8E004BDE8104008F0BB
:104E7000BFBC000000000000D0F8E00408F0E8BC6F
:104E8000D0F8E00408F0F0BC10B5044690F89404A3
:104E9000012801D1022010BD012084F8940461741E
:104EA00020680AF079F9002084F8940410BD00000D
:104EB000D0F8E02400F29C41104608F0FDBC000050
:104EC00010B5044690F89404012801D1022010BDC9
:104ED0002068012184F89414C168490606D5617BD5
:104EE000012903D1816B41F48031816309F09CFE7B
:104EF000206809F005FA002084F8940410BD000031
:104F000010B50446D0F8E00408F032FD2068D0F86F
:104F1000001E41F00101C0F8001EE07A002808BF21
:104F200010BD4EF61050CEF20000016841F00601AF
:104F3000016010BD00000000B0B544F60C05C5F6D8
:104F4000020529684907296806D401F00701081AF3
:104F500018BF0120B0BD00BF21F007010843286041
:104F6000FEF70AFC044600BF55F8080C800407D47D
:104F7000FEF702FC001BB0F57A7FF5D90120B0BD29
:104F80000020B0BD0000000044F60C00C5F6020091
:104F9000016841F08071016070470000000000006E
:104FA00080B500F0C9FF44F2204140F69872C5F682
:104FB0000201C0F601020968C1F30211515C01F05F
:104FC0001F01C84080BD000080B544F2384EC5F6D0
:104FD000020E5EF8103C5EF8101C5EF80C2CC1F35B
:104FE000053CDEF80410BCF1000F15D0C908D2064C
:104FF00001EAE2716FF35F3100EE101A03F0030172
:105000000229B8EE400A0DD081B95EF8381C890635
:1050100010D49FED361A1BE000218160C0E9001119
:1050200080BD00BF9FED301A12E000BF9FED2D1A2A
:105030000EE000BF5EF8381C49F20002C0F2D03228
:10504000C1F3C10122FA01F101EE101AB8EE411AC2
:10505000DEF800109FED263A6FF35F2102EE101A82
:10506000DEF80010C1F34621B8EE422A00EE032A12
:1050700000EE10CAB7EE003AB8EE400A81EE000A20
:1050800032EE031A02EE101AB8EE422A20EE010A9E
:1050900032EE031A80EE011ABCEEC11A80ED001A3E
:1050A000DEF80010C1F3064101EE101AB8EE411A05
:1050B00031EE031A80EE011ABCEEC11A80ED011A1E
:1050C000DEF80010C1F3066101EE101AB8EE411AC5
:1050D00031EE031A80EE010ABCEEC00A10EE101A7F
:1050E000816080BD0024744A001BB74B0024744CBF
:1050F000000000390000000080B544F2404EC5F6C3
:10510000020E5EF8183C5EF8181C5EF8142CC1F311
:10511000055CDEF80410BCF1000F15D0C908D205FB
:1051200001EAE2716FF35F3100EE101A03F0030140
:105130000229B8EE400A0DD081B95EF8401C8906FC
:1051400010D49FED361A1BE000218160C0E90011E8
:1051500080BD00BF9FED301A12E000BF9FED2D1AF9
:105160000EE000BF5EF8401C49F20002C0F2D032EF
:10517000C1F3C10122FA01F101EE101AB8EE411A91
:10518000DEF800109FED263A6FF35F2102EE101A51
:10519000DEF80010C1F34621B8EE422A00EE032AE1
:1051A00000EE10CAB7EE003AB8EE400A81EE000AEF
:1051B00032EE031A02EE101AB8EE422A20EE010A6D
:1051C00032EE031A80EE011ABCEEC11A80ED001A0D
:1051D000DEF80010C1F3064101EE101AB8EE411AD4
:1051E00031EE031A80EE011ABCEEC11A80ED011AED
:1051F000DEF80010C1F3066101EE101AB8EE411A94
:1052000031EE031A80EE010ABCEEC00A10EE101A4D
:10521000816080BD0024744A001BB74B0024744C8D
:1052200000000039000000002DE9F0470446C07876
:1052300044F22C480007C5F6020833D5606E4FEAE9
:10524000305103290CD8DFE801F003111D2600BFFF
:10525000D8F8001041F40031C8F800101BE000BF7E
:1052600001266078C0070BD020E000BF04F10800E1
:10527000022105F069F8064660B16078C00715D1D3
:10528000354646E004F12800022105F0F1F8064613
:105290000028F2D1606ED8F8241021F440110843A0
:1052A000C8F8240000266078C007E9D0A06D042863
:1052B0000ED83546DFE800F00412181E1E0000BFAD
:1052C000D8F80000354640F40030C8F8000011E07E
:1052D00001250127607840071FD453E004F108003E
:1052E000002105F031F804E004F12800002105F068
:1052F000BFF805462F461DB1607840070DD441E048
:10530000D8F82400A16D20F0070000250843C8F854
:10531000240037466078400734D5D4F8A4004FEA1B
:10532000705005280CD8DFE800F00311171D1D1D73
:10533000D8F8000040F40030C8F8000012E000BFC8
:10534000012501266078000720D455E004F108000B
:10535000002104F0F9FF04E004F12800002105F029
:1053600087F805462E461DB1607800070ED443E04D
:10537000D8F82C00D4F8A41020F4600000250843CD
:10538000C8F82C003E466078000735D5D4F8A80050
:105390004FEA306005280DD8DFE800F00412181E2F
:1053A0001E1E00BFD8F8000040F40030C8F800000E
:1053B00012E000BF01250127E078800720D44EE0ED
:1053C00004F10800002104F0BFFF04E004F128000C
:1053D000002105F04DF805462F461DB1E078800705
:1053E0000ED43CE0D8F82C00D4F8A81020F0E060EF
:1053F00000250843C8F82C003746E07880072ED5F2
:10540000E06C4FEA301003280ED8DFE800F0090303
:10541000130900BFD8F8000040F40030C8F80000BD
:105420002E467DB912E000BF012501266078C00636
:1054300019D44CE004F10800022104F085FF054670
:105440002E461DB16078C0060DD440E0D8F820008B
:10545000E16C20F0300000250843C8F820003E46EB
:105460006078C00633D5E06D4FEA303004280DD89F
:10547000DFE800F00412181E1E0000BFD8F800007C
:1054800040F40030C8F8000012E000BF01250127F9
:10549000607880061FD44EE004F10800002104F07B
:1054A00053FF04E004F12800002104F0E1FF054669
:1054B0002F461DB1607880060DD43CE0D8F824005A
:1054C000E16D20F4E04000250843C8F82400374689
:1054D000607880062FD5206E4FEA3040052809D825
:1054E000DFE800F0040E1404040400BF2E46ADB93A
:1054F00018E000BF01250126607840061FD44FE068
:1055000004F10800012104F01FFF04E004F1280069
:10551000012104F0ADFF05462E461DB1607840061E
:105520000DD43DE0D8F82400216E20F4E0200025C1
:105530000843C8F824003E466078400630D5D4F8C9
:10554000AC004FEA3070052808D8DFE800F0030D02
:10555000130303032F46ADB918E000BF012501274F
:105560006078000620D442E004F10800012104F034
:10557000EBFE04E004F12800012104F079FF054668
:105580002F461DB1607800060ED430E0D8F82C000C
:10559000D4F8AC1020F0E04000250843C8F82C00F7
:1055A00037466078000622D5E06E58B1B0F1005F52
:1055B0000CD0B0F1805F2FD1D8F8000040F400305B
:1055C000C8F800002E469DB908E000BF04F10800AD
:1055D000012104F0B9FE05462E464DB9D8F8240045
:1055E000E16E20F0405000250843C8F824003E46F4
:1055F000E078C00733D0A06C032813D8DFE800F0B0
:1056000008021A08D8F8000040F40030C8F800007A
:10561000A946BDB91AE000BF01250126E078C00700
:10562000E9D11CE001254FF00109A07840061AD508
:105630001CE000BF04F10800022104F085FE0546CD
:10564000A9461DB1A07840060DD50FE0D8F820007E
:10565000A16C20F0030000250843C8F82000B146E3
:10566000A078400602D44F4618E000BFD8F8D40313
:1056700040F48070C8F8D403FEF77EF8064600BFF9
:10568000D8F8D403C00507D4FEF776F8801B642849
:10569000F6D90325032701E02F468DB12078C007F6
:1056A00061D0A06F4FEAF00005283BD8DFE800F09A
:1056B00004404604040400BF002D2E4646D149E0B4
:1056C000D8F84410D4F8B000414011F4407F11D014
:1056D000D8F84410D8F8442042F48032C8F8442066
:1056E000D8F8442021F4407122F48032C8F84420D4
:1056F000C8F84410B0F5807F40F0CE82FEF73CF849
:10570000064641F2883A0325032700BFD8F8440033
:10571000800700F1BF82FEF72FF8801B5045F5D9B6
:10572000BCE700BF01250126207880071FD44CE08C
:1057300004F10800012104F007FE04E004F1280050
:10574000012104F095FE05462E461DB12078800704
:105750000DD43AE0D8F82800A16F20F038000025D9
:105760000843C8F828003E46207880072DD5606F92
:10577000052809D8DFE800F0040E1404040400BF73
:105780002F46ADB918E000BF01250127207840075A
:105790001FD44DE004F10800012104F0D5FD04E020
:1057A00004F12800012104F063FE05462F461DB1D7
:1057B000207840070DD43BE0D8F82800616F20F036
:1057C000070000250843C8F828003746207840071E
:1057D0002ED5D4F89000052808D8DFE800F0030D96
:1057E000130303032E46ADB918E000BF01250126BF
:1057F0002078800620D451E004F10800012104F053
:10580000A3FD04E004F12800012104F031FE054667
:105810002E461DB1207880060ED43FE0D8F82C002B
:10582000D4F8901020F0070000250843C8F82C0099
:105830003E462078800631D5D4F88C004FEA30708F
:10584000052809D8DFE800F0040E1404040400BFA2
:105850002F46ADB918E000BF01250127207840068A
:1058600020D451E004F10800002104F06DFD04E0B3
:1058700004F12800022104F0FBFD05462F461DB16E
:10588000207840060ED43FE0D8F82800D4F88C10D9
:1058900020F0E04000250843C8F82800374620786B
:1058A000400631D5D4F898004FEAB020052809D831
:1058B000DFE800F0040E1404040400BF2E46ADB966
:1058C00018E000BF012501262078000620D454E00E
:1058D00004F10800002104F037FD04E004F1280081
:1058E000022104F0C5FD05462E461DB120780006B4
:1058F0000ED442E0D8F82C00D4F8981020F4E050F0
:1059000000250843C8F82C003E462078000634D510
:10591000D4F89C004FEA703005280FD8DFE800F07B
:1059200004141A04040400BF2F46E5B120680107DF
:1059300027D4C1063ED4000355D475E001250127C4
:1059400020680107F5D51CE004F10800002104F0EF
:10595000FBFC04E004F12800022104F089FD054667
:10596000002D2F46E2D1D8F82C00D4F89C1020F45A
:10597000604000250843C8F82C003746206801071E
:10598000D7D5D4F88000B0F5805F09D104F12800A4
:10599000022104F06DFD002818BF0127D4F8800013
:1059A000D8F8281021F440510843C8F8280020688E
:1059B000C106C0D5D4F89400B0F5807F09D104F1B8
:1059C0002800022104F054FD002818BF0127D4F854
:1059D0009400D8F82C1021F440710843C8F82C002A
:1059E0002068000320D5D4F8A000B0F5003F0FD008
:1059F000B0F5803F06D078BB04F10800002104F028
:105A0000A3FC04E004F12800022104F031FD054666
:105A10002E4655B9D8F82C00D4F8A01020F4403008
:105A200000250843C8F82C003E46A07840072BD537
:105A3000D4F88400B0F5401F0BD0B0F5001F11D092
:105A4000B0F5801F2AD1D8F8000040F40030C8F823
:105A500000002F46CDB90DE001250126A0784007B2
:105A6000E6D411E004F12800012104F001FD05460F
:105A70002F4655B9D8F82800D4F8841020F44010E7
:105A800000250843C8F828003746A078C0070AD187
:105A90003E462168880016D533E000BF0125012766
:105AA000A078C007F4D0206DB0F5803F10D018BBAF
:105AB000D8F8000040F40030C8F800002E4685B148
:105AC000216888001DD460688A0326D465E000BF81
:105AD00004F10800022104F037FC0546002D2E4693
