:020000040800F2
:10000000684F00205502000855360008092F0008E7
:100010005136000841050008794000080000000042
:10002000000000000000000000000000413B00084C
:100030008D06000800000000F1390008153C00089A
:100040006F0200086F0200086F0200086F020008CC
:100050006F0200086F0200086F0200086F020008BC
:100060006F0200086F0200086F0200086F020008AC
:100070006F0200086F0200086F0200086F0200089C
:100080006F0200086F0200086F0200086F0200088C
:10009000190600086F0200086F0200086F020008CE
:1000A000E93C00086F0200086F0200086F020008B8
:1000B0006F0200086F0200086F0200086F0200085C
:1000C0006F0200086F0200086F0200086F0200084C
:1000D0006F020008494000086F0200086F02000824
:1000E0006F0200086F0200086F0200086F0200082C
:1000F0006F0200086F0200086F0200086F0200081C
:100100006F0200086F0200086F0200086F0200080B
:100110006F0200086F0200086F0200086F020008FB
:100120006F0200086F020008810600086F020008D5
:100130006F0200086F0200086F0200086F020008DB
:10014000550600086F0200086F0200086F020008E1
:100150006F0200086F0200086F0200086D4000087F
:100160006F0200086F0200086F0200086F020008AB
:100170006F0200086F0200086F0200080000000014
:100180006F0200086F02000800F002F800F052F859
:1001900014A696E8000CB244B344DA4501D100F04D
:1001A00049F8BAE80F000FA696E83000A5EB040561
:1001B00004EB0607AAEB0704A7F101074FEA1515A0
:1001C0004FEA3414A4F10104AC4201D300F032F838
:1001D00013F0010F18BFFB1A43F0010300F001F800
:1001E000DBE71847A06D0000C06D0000103A24BF87
:1001F00078C878C1FAD8520724BF30C830C144BF8C
:1002000004680C6070470000704700000023002461
:1002100000250026103A28BF78C1FBD8520728BF16
:1002200030C148BF0B6070471FB506F0E8FD1FBD29
:1002300010B510BD00F0E4F81146FFF7F5FF04F02B
:10024000B3F900F002F903B4FFF7F2FF03BC00F0CA
:1002500005F900000948804709480047FEE7FEE726
:10026000FEE7FEE7FEE7FEE7FEE7FEE7FEE7FEE766
:1002700004480549054A064B70470000D53C000874
:100280008901000868490020684F0020684B002061
:10029000684B002053EA020C00F069802DE9F04B16
:1002A0004FF00006002B1FBFB3FA83F503FA05F4E5
:1002B00024FA05F65E4012BF1643B2FA82F502FA3E
:1002C00005F4C5F120051EBF22FA05FC44EA0C0422
:1002D000203556EA044C4FEA144418BF641C4FF012
:1002E00000084FF00009904271EB030C39D300294C
:1002F00019BFB1FA81F701FA07F6B0FA80F700FAF0
:1003000007F6C7F120071EBF20FA07FC46EA0C06D5
:100310002037B6FBF4FCA7EB0507103F07F01F0BD7
:10032000CBF120062CFA06F60CFA0BFB44BFB346C1
:100330000026202FA4BF5E464FF0000B5BEA060CA0
:1003400008BF4FF0010B19EB0B0948EB0608ABFB9C
:10035000027C06FB02CC0BFB03CCC01B71EB0C0137
:10036000C1E70B46024641464846BDE8F08B13B54F
:10037000084318BF4FF0FF300146AFF30080BDE8DF
:100380001C4070474FF0000200B513469446964655
:10039000203922BFA0E80C50A0E80C50B1F1200198
:1003A000BFF4F7AF090728BFA0E80C5048BF0CC046
:1003B0005DF804EB890028BF40F8042B08BF7047A4
:1003C00048BF20F8022B11F0804F18BF00F8012B16
:1003D000704770477047704710B500F009F8006823
:1003E00010BD10B5044600F003F8046010BD000015
:1003F00000487047600000200048704760000020FF
:100400007546FFF7F9FFAE4605006946534620F0F2
:100410000700854618B020B5FFF72AFFBDE8204049
:100420004FF000064FF000074FF000084FF0000BB0
:10043000AC46ACE8C009ACE8C009ACE8C009ACE81F
:10044000C00921F007018D46704710B50446AFF38F
:1004500000802046BDE81040FFF7F5BE0149182096
:10046000ABBEFEE7260002007047000082B06FF0CE
:10047000130405F0CFF9019040F2EC074FF6A85BAA
:1004800040F2001904F1130040F2D03640F2021895
:1004900041F2000AC2F20007CFF6FF7BC2F2000968
:1004A00084B2C2F20006C2F20008C4F2020A01AD30
:1004B0000AE000BF50464FF40061012201F0A6F8A7
:1004C0002846042104F0C6FDB7F902105846002959
:1004D00006DDB9F80010F860A1420BD119E000BFA9
:1004E000B1F1FF3F06DC4FF41670B9F80010F86068
:1004F000A1420ED0002003F01FFA032003F054FAAB
:10050000BDEEC00A10EE102A00200021002300F0EA
:100510003DF8002003F02AFA316800F5B96048631D
:10052000B8F80000132805D8B7F904006FF01301DC
:100530008842BFDC7888133080B22628BAD9BFE75A
:10054000FEE70000002440F2EC060027C4F202049B
:10055000C2F2000605E000BF00250A2004F02AFDD3
:100560002F462046012101F04BF80028F4D105F078
:1005700051F9054617B1E81B3328EED33078013026
:100580003070002004F0DAFDE7E70000B0B582B07B
:1005900040F2CC0CC2F2000C40F2FF14E6464EF8DA
:1005A000084F0024CCE90444040A8CF80100080A2E
:1005B0008CF80200100A8CF80400180A8CF8060067
:1005C00040F2203008258CF803108CF805208CF8B8
:1005D0000730C2F2000001AB71466246CCF81850F9
:1005E0008CF8004000F070F802B0B0BD80B58AB061
:1005F000012000210890CDE9061040F22030CDE91D
:100600000011CDE90211CDE90411C2F200006946E2
:1006100000F0AEF80AB080BD40F22030C2F2000017
:1006200000F0AEB980B58AB00E21012005910021FD
:100630000890CDE9061040F24830CDE90011CDE92F
:1006400002110491C2F20000694600F091F80AB06C
:1006500080BD000040F24830C2F2000000F090B9C6
:1006600010B5044600F0C0FC2046022100F014F84A
:10067000002808BF10BDBDE8104000F009B8000018
:1006800040F27030C2F2000000F044BD704700003C
:1006900072B600BFFEE7000090F82020013A012A60
:1006A00008D8006800F11402002013681943116093
:1006B000704700BF00F1240201204FF4802113682D
:1006C000194311607047000010B590F820E0D0F891
:1006D00000C0AEF1010EBEF1010FDCF808E011D848
:1006E0001EF0E05F18D0CEF3016E012000FA0EF08C
:1006F00018608B68D3B14868CC6844EAC0000343F3
:1007000018E000BF00F1240101204FF480220B68A3
:100710001A430A6010BD00BF00F1240101204FF40C
:1007200000120B681A430A6010BD00BF0868CB684E
:1007300043EA40530CEB0E10C0F880310B69C0F84F
:100740008431097D012905D100F5C2710B6843F49C
:1007500080730B605168C0F88C11126800F5C0718D
:10076000C0F88821002001220B681A430A6010BDDE
:1007700090F82020013A012A30D8B0B546F2006046
:10078000C4F20000026842F001020260026822F432
:100790007C520260D1F814E0CC694A6A0368012CEB
:1007A00043EA022202600EF01F024FF0010303FA37
:1007B00002F2C3696FEA020C23EA0203C36113D099
:1007C0002CBBC36803EA0C03C360CB688C8844EA83
:1007D000034300EBCE0423640B4611E0416A41F46D
:1007E0008021416201207047C3681343C3600B68D6
:1007F0008C8844EA034300EBCE04236401F10C032C
:100800008C681B8843EA044300EBCE0463644368AE
:100810008D6943EA0204D1F810E0096A002D08BF8F
:1008200003EA0C0444604369BEF1000F43EA02048A
:1008300008BF03EA0C040129446102D1C1691143D4
:10084000C161016821F0010101600020B0BD00001C
:100850007047000010B590F82040013C012C7BD877
:10086000D0F800C000290CBFDCF80C40DCF81040C8
:10087000A4077BD00CEB011CDCF8B0410CF5D87E52
:1008800014F004049460DCF8B04119BFE40854602B
:10089000640D1460DEF800400CF5DA7E04F002040A
:1008A000D460DCF8B44124075ABFDEF8004004F0FD
:1008B0000F0408241461DEF800400029C4F3072463
:1008C0009461DEF800404FEA14445461DCF8B8212A
:1008D0001A70026802EB0112D2F8B8214FEA122214
:1008E0005A70026802EB0112D2F8B8214FEA1242A4
:1008F0009A70026802EB0112D2F8B8214FEA126234
:10090000DA70026802EB0112D2F8BC211A71026897
:1009100002EB0112D2F8BC214FEA12225A7102688E
:1009200002EB0112D2F8BC214FEA12429A7102681E
:1009300002EB0112D2F8BC214FEA1262DA710068B0
:100940000CBF00F10C0100F11001002020220B6807
:100950001A430A6010BD00BF00F1240101204FF4CA
:1009600080220B681A430A6010BD00BF00F1240109
:1009700001204FF400120B681A430A6010BD0000FA
:100980002DE9F04F81B0044600684669D0F8049024
:100990008768D0F80CB0D0F810A0D0F81880F10714
:1009A00004D1002530071DD424E000BFF90710D082
:1009B0000121BA07816009D4780700F1AF803807B8
:1009C00000F1B680204600F03DFB02E0204600F03A
:1009D0003BFB0025F80500F18780F80300F1B180AA
:1009E000300707D51BF0100004D0206845F40075CF
:1009F0001021C160700708D51BF0080005D02068E1
:100A00000821C160204600F001FAB00706D5206831
:100A1000C068800702D0204600F0FAF9700607D5BA
:100A20001AF0100004D0206845F48065102101619F
:100A3000B00608D51AF0080005D020680821016129
:100A4000204600F0CBFAF00606D520680069800742
:100A500002D0204600F0C4FAB00308D519F0100007
:100A600005D0206810214160204600F0BBFAF00359
:100A700008D519F0080005D02068082141602046FB
:100A800000F0ECFA300440F19B805FEA497040F1DD
:100A9000948006F4807008EA102028435FEA887189
:100AA000014648BF41F00201B20558BF01465FEA66
:100AB00048700D4648BF45F00405700558BF0D4607
:100AC000300540F17A8018F0700000F07680103820
:100AD000000905286CD8DFE800F003595D616569FD
:100AE00045F0080564E000BF20684FF48071BA0546
:100AF00081600BD4780515D438051DD4204600F04C
:100B0000A5FAF8037FF56CAF1BE000BF204600F0AC
:100B10009FFAF8037FF564AF13E000BF4FF4006560
:100B200058E700BF05F50055F8037FF559AF08E019
:100B30004FF480554EE700BF05F58045F8037FF57B
:100B40004FAF20684FF48031BA0381600AD4780334
:100B500010D4380314D4204600F07CFA30073FF557
:100B600041AF47E7204600F077FA30073FF53AAF4C
:100B700040E700BF05F5004530073FF533AF39E7E3
:100B800005F5803530073FF52DAF33E745F010050B
:100B90000EE000BF45F020050AE000BF45F040052B
:100BA00006E000BF45F0800502E000BF45F4807517
:100BB0002068816921F07001816120680421416011
:100BC00055B1606A40EA05012046616201B0BDE8A6
:100BD000F04FFFF73DBE00BF01B0BDE8F08F000051
:100BE000002804BF01207047B0B5044690F82000EB
:100BF00010B9204600F06EF82068016841F001014C
:100C0000016000F009FD054620684168C90705D16B
:100C100000F002FD401B0B28F6D310E0016821F024
:100C20000201016000F0F8FC054600BF2068416841
:100C300089070DD500F0F0FC401B0B28F6D3606A45
:100C4000052140F400306062012084F82010B0BD1E
:100C5000217E0268012922F0800208BF80320260F2
:100C6000617E0268012922F0400208BF4032026022
:100C7000A17E0268012922F0200208BF2032026012
:100C8000E17E0268012922F0100218BF10320260D2
:100C9000217F0268012922F0080208BF08320260A1
:100CA000617F0268012922F0040208BF0432026059
:100CB000D4E901C2D4E9033561691A432A431143D7
:100CC000ACF101021143C16100200121606284F88E
:100CD0002010B0BD10B586B0006846F60002C4F220
:100CE000000200219042CDE90411CDE902110191E9
:100CF00042D046F20041C4F20001884240F08480B4
:100D000040F2F011C2F200010A6843F64000C4F25A
:100D10000200531C0B6052B900210091016841F0A0
:100D200000710160016801F00071009100990021DB
:100D3000009150F8102C42F0080240F8102C50F8A6
:100D4000100C022200F0080000900098032001908F
:100D500004900920059040F20040C4F20200CDE961
:100D6000022100F5006001A900F07AFB14200021A7
:100D70000022142443E000BF43F64000C4F2020006
:100D80000091016841F080610160016801F08061BB
:100D90000091009940F2F011C2F200010A68531C60
:100DA0000B6052B900210091016841F000710160AF
:100DB000016801F00071009100990021009150F844
:100DC000102C42F0020240F8102C50F8100C00F0E9
:100DD000020000900098602001900220CDE90201FD
:100DE000032004900920059040F20040C4F2020064
:100DF00001A900F035FB402005210022402400F02D
:100E000093FC204600F07EFC06B010BD7047000049
:100E10002DE9F04F8BB00446006846F2004BC4F257
:100E2000000B584508D00BF58061884200F0C58062
:100E30000BB0BDE8F08F00BF04AA02AB2046002132
:100E4000FFF708FD0498A0F2012106296AD8411E87
:100E5000C9B240F2506CC1EBC103C2F2000C0CEB02
:100E600083018A69571C322A8F6113D8BDF8082084
:100E7000BDF80A50BDF80C6012BA2DBA120C9DF8DC
:100E80000EE04FEA154835BA8A824FEA15491646F0
:100E90002AE000BFBDF808203CF92390BDF80A7095
:100EA000BDF80C5016BA320C3FBA2DBA9DF80EE0C0
:100EB000C9EB16464FEA1748B6F5805F4FEA154969
:100EC00004DD0D696F1E0F6109E000BF8A465AF804
:100ED000107F16F5805FBCBF0137CAF800708E8A9C
:100EE00002EB4735AD1BCD602CF8232013B2D51A89
:100EF000B5F5805F0A81A1F80280A1F8049081F81D
:100F000006E003DD0B69013B0B6107E00F4657F874
:100F1000103F15F5805FBCBF01333B6002EB4332ED
:100F2000921BCA60A0F20521062940D8FB30C0B24E
:100F300040F27051C0EBC000C2F2000101EB800032
:100F400081694A1C3229826106D8BDF8081009BAA5
:100F5000090C018081822AE0BDF80A70BDF80810F2
:100F60003FBA3F0C4780BDF80C70B0F900203FBA83
:100F70000BBA3F0C87809DF80E60C2EB1347190C2B
:100F8000B7F5805F02810180867103DD0269013A55
:100F9000026107E0034653F8102F17F5805FBCBFCE
:100FA00001321A60838A01EB4231C91AC16020689C
:100FB0000BF5806188427FF43BAF04AA6B46204664
:100FC0000021FFF747FC049811287FF431AF6846F1
:100FD00001F0BCFF0BB0BDE8F08F000070470000CF
:100FE0007047000070470000B0B5044690F820003C
:100FF00001281DD1022084F820002068016821F01A
:101000000101016000F008FB054600BF2068406850
:10101000C00713D000F000FB401B0B28F6D3606A1A
:1010200040F400306062052084F820000120B0BD4B
:10103000606A40F4002060620120B0BD0020606260
:10104000B0BD00007047000070470000704700000E
:1010500070470000704700007047000070470000B4
:1010600070B5866D044600F0D7FA94F83510022961
:1010700028D105462068216C026822F01602026021
:10108000426922F08002426109B9A16C19B101687C
:1010900021F008010160016821F00101016000BF39
:1010A00020680068C00715D000F0B6FA401B06287B
:1010B000F6D320206065032084F83500002184F8F1
:1010C000341070BD802060650120002184F8341048
:1010D00070BD00BFE06D3F2101FA00F0B06001205B
:1010E00084F835000020002184F8341070BD000021
:1010F00090F83510022909D1052180F835100068D3
:10110000016821F0010101600020704780214165E4
:1011100001207047F0B581B004460020009040F2F5
:101120005400C2F200000268D4E9166048F2B51318
:1011300037680821C1F64E3381403942A2FB0325AE
:101140000CD0226813685B0708D5136823F00403EA
:101150001360B160616D41F0010161650121814061
:10116000394208D022685269120604D5B160616D17
:1011700041F00201616504218140394208D02268B2
:101180001268920704D5B160616D41F00401616598
:1011900010218140394217D020680268120713D508
:1011A000B16002680168520308D4C90508D4016817
:1011B00021F008010160216C21B905E008033FD44A
:1011C000216C09B120468847E16D202000FA01F228
:1011D0003A4241D020680368DB063DD5B26094F8FE
:1011E00035300268052B1BD122F0160202604269DD
:1011F00022F080024261226C0AB9A26C1AB1026824
:1012000022F0080202603F208840B060012084F88C
:101210003500216D0020002984F8340052D157E0B8
:101220000168520310D4C90512D4016821F01001DD
:101230000160012084F83500002084F8340007E0C4
:10124000A16C0029BED1BFE7080301D4616C00E0A6
:10125000E16B09B120468847606DC8B3606DC00777
:101260002ED0052084F835002068A90A026822F0F3
:1012700001020260009A01328A4200921AD8026882
:10128000D20717D0009A01328A42009212D802681F
:10129000D2070FD0009A01328A4200920AD802681F
:1012A000D20707D0009A01328A42009202D802681F
:1012B000D207DFD1012084F83500002084F8340003
:1012C000E16C29B1204601B0BDE8F040084700BFFD
:1012D00001B0F0BD2DE9F041044600F09DF9ECB1FC
:1012E0000546022084F835000020216884F8340087
:1012F000086820F00100086021680868C00711D064
:1013000000F08AF9401B0528F6D903252023032085
:10131000636584F83550BDE8F08100BF0120BDE869
:10132000F08100BF086848F23F02CFF21002D4E912
:10133000013500EA020C04F10C0898E8C10143EA07
:101340000C032B431843D4E9072E30433843104392
:10135000626A40EA0E00042A40EA08031CD1206BAE
:10136000D4E90A2E40EA0E00184308604869BEF12D
:10137000000F20F0030040EA020040F0040C11D0FE
:10138000B8F5005F36D0B8F1000F45D1022A46D03B
:10139000012A3BD032B942E00B60486920F00700D7
:1013A00040EA020C01F0F8004AF6AB221038CAF607
:1013B000AA22A0FB02231A0946F66873C1F814C0DA
:1013C000C0F600039A5C40F2FF335F284FF03F0005
:1013D00021EA030100FA02F088BF0431C4E91612C1
:1013E0008860002301250020636584F83550BDE83E
:1013F000F08100BF032AD5D8012540230120DFE872
:1014000002F0030E030500BF82E700BFAEF1C0701B
:10141000B0FA80F0400904E0032A04D3C2D1CEF32D
:1014200000600028BED0012540230120636584F8B8
:101430003550BDE8F0810000B0B5044600F0ECF88E
:10144000054640F20000C2F200000078611C18BF9F
:10145000044400BF00F0E0F8401BA042FAD3B0BD46
:101460002DE9F04F82B000F13E4707F1FF77860586
:1014700046EA972741F60046C4F20206082243F6E0
:10148000004EB04208BF0722C4F2010E072F38BF3A
:101490003A46002600274FF00008009209E000BFFE
:1014A00008F101080237B8F1100F06F1040600F048
:1014B000A3800D68012202FA08F415EA0409EFD0AE
:1014C000D1F804B003220BF0030CACF10105BA40D3
:1014D000012D6FEA020A0FD88268CD6802EA0A027B
:1014E000BD402A4382604268A243CBF3001404FA51
:1014F00008F42243426005E0BCF1030F02D14FF033
:10150000030C1EE0C2688C6802EA0A02BC40224357
:10151000BCF1020FC26014D16FF0030202EA58025C
:101520000244D2F820C006F01C040F230D69A3402A
:101530002CEA0303A5402B431362D1F804B00BF04F
:10154000030C02680CFA07F302EA0A021A431BF4BE
:10155000403F0260A4D0002243F644030192C4F24B
:1015600002031A684FF6084C42F480421A601A6867
:10157000CFF6FF7C02F480420192019A28F0030228
:10158000724452F80C3006F00C050F24AC40A34313
:10159000009C04FA05F52B4342F80C30DEF80820D5
:1015A0004B6842EA090543F60C4CDC0258BF22EABC
:1015B0000905CEF80850C4F2010CDCF800209C02AA
:1015C00042EA090558BF22EA0905CCF80050DEF8C6
:1015D00004209C0342EA090558BF22EA0905CEF817
:1015E0000450DEF80020DB0342EA090558BF22EA76
:1015F0000905CEF8005053E702B0BDE8F08F0000B7
:101600000069084018BF012070470000002A08BF89
:10161000090481617047000044F20C70C2F20000BE
:101620000068704740F2000044F20C71C2F2000002
:10163000C2F2000100780A68104408607047000098
:1016400080B543F60040C4F20200016841F4007125
:101650000160016841F480610160016841F48071BA
:101660000160032000F08CF80F2000F005F800F076
:1016700027F8002080BD000070B540F20006C2F2DD
:10168000000640F254013278C2F200014FF47A733E
:101690000968B3FBF2F20446B1FBF2F1084600F030
:1016A00067FB0F2C4FF0010508D838B94FF0FF3019
:1016B00021460022002500F037F87460284670BDEE
:1016C00082B0002043F640010190C4F202014A6852
:1016D00042F480424A604A6802F480420192019AD0
:1016E00000900868002240F08050086008680F21D0
:1016F00000F08050009000986FF0010002B000F000
:1017000013B80000002848BF704700F01F010122F5
:1017100002FA01F11C2202EAD0004EF20012CEF2CF
:10172000000281507047000010B54EF60C5CCEF2FE
:10173000000CDCF80030C3F3022E8EF00704042CFA
:1017400028BF0424BEF103034FF0FF3E0EFA04F459
:1017500038BF0023A14399400EFA03F39A43114383
:1017600000F00F0200F160430901043A03F56443FD
:101770006244002848BF02F10C03197010BD00003C
:101780004EF60C51CEF200010A684FF6FF031A40E4
:1017900060F30A2242F0806040F0FD7008607047FC
:1017A000002804BF012070472DE9F04143F60808E6
:1017B000C4F202080446D8F8F8030D4600F007000A
:1017C000884207D288F8F853D8F8F80300F00700E9
:1017D000A84277D12068810717D5410705D5D8F8E9
:1017E000001041F4E051C8F80010010705D5D8F801
:1017F000001041F46041C8F80010D8F80010A26849
:1018000021F0F0011143C8F80010C00740D1D8F80A
:10181000F80300F00700A84207D988F8F853D8F871
:10182000F80300F00700A8424CD12068410707D513
:10183000D8F80010E26821F4E0511143C8F8001014
:10184000000708D5D8F80000216920F4604040EA7C
:10185000C100C8F8000000F07DF8D8F8001046F686
:101860005072C1F30311C0F60002515C40F2540201
:1018700020FA01F140F20400C2F200000068C2F256
:1018800000021160FFF7F8FE0020BDE8F08100BF04
:101890006068811E022907D258F8081C89015CBFC4
:1018A0000120BDE8F08111E0012807D158F8081C9B
:1018B00089035CBF0120BDE8F08107E058F8081CEF
:1018C000890703D40120BDE8F08100BFD8F80010DB
:1018D00021F003010843C8F80000FFF79DFE06460B
:1018E00041F28837D8F80000616800F00C00B0EBD6
:1018F000810F8CD0FFF790FE801BB842F2D90320F5
:10190000BDE8F08140F2540043F60801C2F2000045
:10191000C4F202010068096846F66072C1F38221D0
:10192000C0F60002515CC8407047000040F254000D
:1019300043F60801C2F20000C4F20201006809681F
:1019400046F66072C1F34231C0F60002515CC840F5
:101950007047000010B543F60404C4F20204606846
:1019600000F00C0008280BD0042819BF42F20040F8
:10197000C0F2F40041F60030C0F2B70010BD00BF65
:10198000206821682368490241F60031C0F2B7019E
:1019900000F03F02C3F388105CBF42F20041C0F286
:1019A000F401A1FB00010023FEF774FC2168022270
:1019B000C1F3014102EB4101B0FBF1F010BD0000A9
:1019C000002804BF012070472DE9F04182B0044691
:1019D000007843F60006C007C4F202060CD0B068D7
:1019E00000F00C00042840F081803068800303D5AB
:1019F0006068002800F06A81207880071BD5B068F5
:101A000010F00C0F09D0B06800F00C00082840F06E
:101A100087807068400200F183803068800703D5BA
:101A2000E068012840F052813068216920F0F80018
:101A300040EAC10030602078000713D420784007C6
:101A40002AD4A569002D00F03C81B06800F00C009C
:101A5000082840F0A180012D40F01081012002B043
:101A6000BDE8F0816069002840F20000C4F2472020
:101A700000F07E800121C0F8801EFFF7CDFD0546F5
:101A8000706F8007DAD4FFF7C7FD401B0228F7D933
:101A9000032002B0BDE8F081306C5FEAC0080AD4D0
:101AA00000200190306C40F080503064306C00F0C9
:101AB00080500190019847F20007C4F2000738688F
:101AC000C00547D4386840F480703860FFF7A4FD43
:101AD000054600BF3868C0053CD4FFF79DFD401B9C
:101AE0000228F7D9032002B0BDE8F081B06800F009
:101AF0000C00082803D1706840023FF576AF60689B
:101B0000B0F5803F07D0B0F5A02F40F09B80306843
:101B100040F480203060306840F4803030609BE0DA
:101B2000E06800285CD00020C4F247200121016059
:101B3000FFF772FD054600BF306880073FF574AFC0
:101B4000FFF76AFD401B0228F6D9032002B0BDE86A
:101B5000F08100BFA068012805D0052854D1306F5E
:101B600040F004003067306F40F00100306755E00E
:101B70000021C0F8801EFFF74FFD0546706F8007FB
:101B80007FF55CAFFFF748FD401B0228F6D9032024
:101B900002B0BDE8F08100BF0027C4F24727002053
:101BA0003866FFF739FD022D05460DD130688001FA
:101BB00040F19080FFF730FD401B02284FF00300FA
:101BC000F4D902B0BDE8F0813068800179D5FFF723
:101BD00023FD401B02284FF00300F5D9F1E700BFB9
:101BE0000020C4F2472000210160FFF715FD0546E3
:101BF000306880077FF51FAFFFF70EFD401B0228FE
:101C00004FF00300F4D9DCE7316F002821F0010127
:101C10003167316F21F0040131677DD0FFF7FCFCA3
:101C2000054641F2883700BF306F800700F186809B
:101C3000FFF7F2FC401BB842F6D9032002B0BDE822
:101C4000F08100BF3168002821F4803131603168B3
:101C500021F4802131607BD0FFF7DEFC054600BF18
:101C6000306880033FF5C8AEFFF7D6FC401B642800
:101C7000F6D9032002B0BDE8F08100BF7068E169C9
:101C800000F480028A4221D1216A00F03F028A4298
:101C90001CD147F6C071626A0140B1EB821F15D1B9
:101CA000A16A4FF6FF73C903994300F44032A1F5CE
:101CB00080318A420AD1E16A00F07060B0EB016FB6
:101CC00004D1002002B0BDE8F08100BF012002B0C5
:101CD000BDE8F08104F11C052FCD084340EA8210D5
:101CE000D9034FF6FF729143A1F5803140EA0560B8
:101CF0000843706001203866FFF78EFC044600BF81
:101D000030688001DDD4FFF787FC001B02284FF00C
:101D10000300F5D955E700BFFFF77EFC054641F209
:101D2000883700BF306F800708D5FFF775FC401B70
:101D3000B8424FF00300F5D943E700BFB8F1000FF8
:101D40003FF57FAE306C20F08050306479E600BF04
:101D5000FFF762FC054600BF306880037FF54CAE9C
:101D6000FFF75AFC401B64284FF00300F4D928E722
:101D7000411E0020B0EB116F1CBF012070474EF2D6
:101D80001002CEF2000251604EF62351CEF2000155
:101D9000F0230B70072190601160704770470000BE
:101DA0007047000090F83C20012A04BF02207047D1
:101DB000B0B501F108053CCDD1E900CE23F47C5348
:101DC00022F470521A432EF4F0431A432CF4E043E9
:101DD0001A4324F4C0431A432A43C96922F48042B7
:101DE000036811435964002180F83C10BDE8B040FD
:101DF0000846704790F83C20012A4FF0020254D068
:101E000010B580F83D200268D2F804E0D2F808C08E
:101E10000C682EF07003234341F2FF74C4F20004F7
:101E2000A24253600EDC40F2FF73C4F200039A42F8
:101E300016DCB2F1804F2BD040F20043C4F2000315
:101E400024E000BF40F2FF33C4F201039A4213DCE6
:101E500041F60003C4F200039A4219D0002313E0B4
:101E600040F60003C4F200039A4211D040F600434A
:101E7000C4F200030AE000BF44F20003C4F201030D
:101E80009A4205D040F20043C4F201039A4204D1C1
:101E900049682CF08003194391600121002280F8E9
:101EA0003D1080F83C20BDE810401046704700000F
:101EB000002804BF0120704710B5044690F83D008B
:101EC00028B9002084F83C00204600F01FF80220CA
:101ED00084F83D002068211D01F016FF012084F8E0
:101EE000460084F83E0084F83F0084F8400084F8FF
:101EF000410084F8420084F8430084F8440084F8E8
:101F0000450084F83D00002010BD0000006844F248
:101F10000001C4F20101884218BF704780B582B049
:101F20000020019043F64400C4F202000168002240
:101F300041F4803101600068002100F4803001909C
:101F400001981820FFF7F0FB182002B0BDE8804090
:101F5000FFF7D8BB90F83D1001291CBF0120704746
:101F6000022180F83D10006841F2FF72C168C4F29E
:101F70000002904241F00101C1600DDC40F2FF71AE
:101F8000C4F20001884215DCB0F1804F2AD040F243
:101F90000041C4F2000123E040F2FF31C4F201012C
:101FA000884213DC41F60001C4F20001884219D0D6
:101FB000002113E040F60001C4F20001884211D074
:101FC00040F60041C4F200010AE000BF44F2000103
:101FD000C4F20101884205D040F20041C4F201017F
:101FE000884206D1816801F00701062904BF00205C
:101FF0007047016841F00101016000207047000056
:1020000090F83C20012A4FF0020200F0C58080B514
:1020100080F83D20D0F800C04FF67772DCF8083029
:1020200023EA0202CCF808200B684F2B28DC1F2B78
:1020300044DD202B45D0302B43D0402B40F0AE80E8
:10204000D1F804E0C968DCF82030DCF8202022F068
:102050000102CCF82020DCF8182022F0F00242EA3D
:10206000011123F00A0242EA0E02CCF81810CCF853
:102070002020DCF8081041F0470121F0300180E019
:102080006F2B27DDB3F5005F48D0B3F5805F7AD0C2
:10209000702B40F08380D1E901E3C968DCF80820A7
:1020A00043EA0E0322F47F4243EA01211143CCF8B4
:1020B0000810DCF8081041F0770162E00BB1102B3A
:1020C0006CD1DCF8081021F07001194341F00701D0
:1020D00057E000BF502B35D0602B5FD1D1F804E022
:1020E000C968DCF82030DCF8202022F01002CCF89F
:1020F0002020DCF8182022F4704242EA013123F05B
:10210000A00242EA0E12CCF81810CCF82020DCF81D
:10211000081041F0670121F0100132E0D1E901E33C
:10212000C968DCF8082043EA0E0322F47F4243EA40
:1021300001211143CCF80810DCF8081041F480416B
:102140001FE000BFD1F804E0C968DCF82030DCF8FB
:10215000202022F00102CCF82020DCF8182022F008
:10216000F00242EA011123F00A0242EA0E02CCF820
:102170001810CCF82020DCF8081041F0570121F0AD
:102180002001CCF808100022012180F83D10002128
:1021900080F83C10BDE88040104670470122F3E70C
:1021A0007047000070B504460068C5680669B1074D
:1021B00016D515F0020113D06FF002010161012163
:1021C00021778069800703D02046FFF7E9FF05E00B
:1021D000204600F08FF8204600F008FA0020207713
:1021E000700719D515F0040016D020686FF00401AF
:1021F000016102212177806910F4407F04D02046DC
:10220000FFF7CEFF06E000BF204600F073F820463F
:1022100000F0ECF900202077300717D515F0080002
:1022200014D020686FF00801016104212177C06992
:10223000800703D02046FFF7B3FF05E0204600F0FB
:1022400059F8204600F0D2F900202077F00619D581
:1022500015F0100016D020686FF010010161082100
:102260002177C06910F4407F04D02046FFF798FF23
:1022700006E000BF204600F03DF8204600F0B6F929
:1022800000202077F00718BF15F0010002D13006BA
:1022900009D412E020686FF001010161204600F0CE
:1022A00037FA300609D515F0800006D020686FF0A7
:1022B000800101612046FFF771FD700609D515F018
:1022C000400006D020686FF040010161204600F018
:1022D0002FFAB00658BF70BD15F0200008D0216855
:1022E0006FF0200220460A61BDE87040FFF758BD3C
:1022F00070BD00007047000090F83C30012B04BF17
:10230000022070474FEAB202032A00F201812DE950
:10231000F043DFE802F0033F7FBF00BF036840F2F5
:1023200000461C6A1A6A24F0020422F001021A62B2
:102330001A46D3F804C052F818EF8F6843F480654A
:10234000C4F20106B54244EA070405D1CF6824F07F
:102350000C0427F004073C430F68B54206D1D1E9CD
:1023600005582CF440762E4346EA080C2EF07306EE
:102370003743C3F804C09F614F6809695F631C62FB
:102380009F6947F008079F619F6927F004079F61D5
:10239000B2E000BF036840F200481C6A1A6A24F0E9
:1023A000200422F010021A621A46D3F804C052F830
:1023B00018EF8F6843F48065C4F20108454544EA8C
:1023C000071407D1CF686FF0400624F0C00406EA76
:1023D00007163443D1F80090454506D1D1E905569A
:1023E0002CF440672E4347EA860C2EF4E64747EA72
:1023F0000927C3F804C09F614F6809699F631C6285
:102400009F6947F400679F619F6927F480679F6118
:1024100071E000BF036840F200481C6A1A6A24F4A5
:10242000007422F480721A621A46D3F804C052F87B
:102430001CEF8F6843F48065C4F20108454544EA07
:10244000072408D1CF6840F2FF463F0224F44064DD
:1024500027EA06063443D1F80090454506D1D1E974
:1024600005562CF440572E4347EA061C2EF07307FE
:1024700047EA0907C3F804C0DF614F680969DF63F1
:102480001C62DF6947F00807DF61DF6927F0040796
:10249000DF6131E0036840F20045D3F820C01A6ADA
:1024A00043F4806722F480521A621A465C6852F83C
:1024B0001CEFD1F800808E68C4F20105AF4204D150
:1024C0004D6924F4804444EA85142CF4005747EA0B
:1024D00006372EF4E64646EA08265C60DE614E6862
:1024E00009691E641F62DF6947F40067DF61DF6905
:1024F00027F48067DF610902136819431160002126
:10250000BDE8F043002280F83C200846704700BF39
:102510000121002280F83C2008467047002804BFB3
:102520000120704710B5044690F83D0028B90020FE
:1025300084F83C00204600F01FF8022084F83D009B
:102540002068211D01F0E0FB012084F8460084F89A
:102550003E0084F83F0084F8400084F8410084F88D
:10256000420084F8430084F8440084F8450084F86D
:102570003D00002010BD000080B582B0006840F62C
:102580000041C4F2000188421ED00021C4F20101C2
:10259000884228D10020019043F64000C4F2020096
:1025A0004168002241F0010141604068002100F0D3
:1025B0000100019001981820FFF7B6F8182002B02A
:1025C000BDE88040FFF79EB80020009043F6400031
:1025D000C4F20200016841F008010160006800F0E7
:1025E00008000090009802B080BD00007047000015
:1025F00041B1082910D0042914BF00F1410200F1B3
:102600003F020BE090F83E20012A1CBF01207047DA
:10261000022280F83E2013E000F140021278012AE5
:102620001CBF012070470222082907D0042914BFCB
:1026300080F8412080F83F2002E000BF80F8402071
:10264000006801F01F010122036A02FA01F123EA86
:1026500001020262026A114341F2FF72C4F20002F7
:102660009042016210DC40F2FF71C4F20001884226
:102670001CDCB0F1804F3FD040F20041C4F20001B9
:10268000884239D03DE000BF40F2FF31C4F2010181
:10269000884219DC41F60001C4F2000188422BD0C7
:1026A0000021C4F2010188421AD02AE040F600015C
:1026B000C4F2000188421FD040F60041C4F200017C
:1026C000884219D01DE000BF44F20001C4F20101AC
:1026D000884211D040F20041C4F20101884210D179
:1026E000416C40F2004340F48062C4F2010341F4C3
:1026F00000419A42416404D1816801F00701062932
:1027000003D0016841F00101016000207047000022
:10271000006844F20001C4F20101884218BF70470A
:1027200040F24830C2F200000121032200F0EEBB6B
:10273000704700007047000070470000B0B582B0DD
:10274000044600680168C368426901F02F05202D26
:1027500003F0200506D12DB1204602B0BDE8B040FF
:1027600001F07ABB5FEA017C1EBF02F0010E03F4A8
:10277000907212EB0E0243D1226BCD0618D5012ABE
:1027800016D113F0100213D00021019101680191BC
:10279000416801910199406940063BD4A08DE18DCB
:1027A000E28D002A18BF884240F0FE8102B0B0BD21
:1027B0000A0640F1E98013F0800200F0E58094F809
:1027C00041102129F2D1A168B1F5805F03D12169BF
:1027D000002900F06F82216A4A1C22620978416058
:1027E000E18C01390A04E184E0D1C16821F0800163
:1027F000C160C16841F04001C16002B0B0BD00BF1E
:10280000CA0718BF13F4807240F0DC804A0700F159
:10281000DF80E4E0E06B01684A68A38D91B2002993
:1028200000F0C680994280F0C380E285C069B0F5AF
:10283000807F00F09C80206850E8030F216820F41E
:10284000807041E80302DAB1206850E8030F216884
:1028500020F4807041E8030292B1206850E8030F31
:10286000216820F4807041E803024AB1206850E8F2
:10287000030F216820F4807041E80302002ADAD1B6
:10288000206850E8050F216820F0010041E80502AA
:10289000DAB1206850E8050F216820F0010041E816
:1028A000050292B1206850E8050F216820F0010070
:1028B00041E805024AB1206850E8050F216820F080
:1028C000010041E80502002ADAD1206850E8050F2E
:1028D000216820F0400041E80502DAB1206850E8A4
:1028E000050F216820F0400041E8050292B1206800
:1028F00050E8050F216820F0400041E805024AB188
:10290000206850E8050F216820F0400041E80502EA
:10291000002ADAD1202084F84200002020632068B9
:1029200050E8030F216820F0100041E80302DAB1FB
:10293000206850E8030F216820F0100041E80302EE
:1029400092B1206850E8030F216820F0100041E8A0
:1029500003024AB1206850E8030F216820F01000FC
:1029600041E80302002ADAD1E06BFEF779FB02208E
:102970006063A08DE18D401A81B2204602B0BDE8AF
:10298000B040FFF7D7BE00BF49067FF50FAF13F089
:1029900040013FF40BAFC16821F04001C16020212C
:1029A000204684F8411002B0BDE8B04000F0AABA59
:1029B0008B427FF4FBAEC069B0F5807F7FF4F6AE4A
:1029C00002226AE1626C42F0010262644A0706D5A3
:1029D000BEF1000F03D0626C42F0020262648A070B
:1029E00006D5BEF1000F03D0626C42F004026264AF
:1029F000BCF1000F06D55EEA050203D0626C42F01E
:102A000008026264626C002A3FF4D0AE890604D5E5
:102A10001DB1204601F020FA20684069616C00F089
:102A2000400001F00801401800F0B680206850E82E
:102A3000030F216820F4907041E80302BAB32068C4
:102A400050E8030F216820F4907041E8030272B34C
:102A5000206850E8030F216820F4907041E80302D9
:102A60002AB3206850E8030F216820F4907041E8F1
:102A70000302002ADAD11AE0206850E8050F216825
:102A800020F0010041E80502DAB1206850E8050FA6
:102A9000216820F0010041E8050292B1206850E869
:102AA000050F216820F0010041E805024AB12068C5
:102AB00050E8050F216820F0010041E80502002AD6
:102AC000DAD1206B012824D1206850E8030F216857
:102AD00020F0100041E80302DAB1206850E8030F4B
:102AE000216820F0100041E8030292B1206850E80C
:102AF000030F216820F0100041E803024AB120686A
:102B000050E8030F216820F0100041E80302002A7A
:102B1000DAD1202084F84200002020632068406938
:102B2000400640F1C180206850E8050F216820F080
:102B3000400041E80502DAB1206850E8050F21683D
:102B400020F0400041E8050292B1206850E8050FEE
:102B5000216820F0400041E805024AB1206850E8B1
:102B6000050F216820F0400041E80502002ADAD173
:102B7000E06B002800F0988043F64D61C0F600013C
:102B80000165FEF7B5FA00283FF410AEE06B016D69
:102B900002B0BDE8B04008472046FFF7CDFD002059
:102BA000606402B0B0BD00BF401A00BF216851E8A8
:102BB000031F226821F4907142E80313BBB321681C
:102BC00051E8031F226821F4907142E8031373B3A4
:102BD000216851E8031F226821F4907142E8031331
:102BE0002BB3216851E8031F226821F4907142E859
:102BF0000313002BDAD11AE0216851E8051F22687F
:102C000021F0010142E80513DBB1216851E8051FFD
:102C1000226821F0010142E8051393B1216851E8CF
:102C2000051F226821F0010142E805134BB121681C
:102C300051E8051F226821F0010142E80513002B2D
:102C4000DAD1202184F8421000212163216851E863
:102C5000031F226821F0100142E80313DBB1216851
:102C600051E8031F226821F0100142E8031393B1D9
:102C7000216851E8031F226821F0100142E8031384
:102C80004BB1216851E8031F226821F0100142E88E
:102C90000313002BDAD1022281B22046626302B014
:102CA000BDE8B040FFF746BD204602B0BDE8B040E9
:102CB000FFF742BD216A31F8022B6FF35F224260B9
:102CC00021628DE5002804BF0120704710B504463D
:102CD00090F8410028B9002084F84000204600F018
:102CE00021F8242084F841002068C16821F40051B3
:102CF000C160204601F030F92068016921F490415B
:102D00000161416921F02A014161C16841F400512A
:102D1000C16000202021606484F8411084F84210D2
:102D2000606310BD2DE9F04786B00446216841F28A
:102D30000042C4F2010200209142CDE90400CDE935
:102D4000020001906ED041F20000C4F20100814205
:102D500040F09B80002743F630000097C4F2020049
:102D60004169002541F0100141614169C4F2020549
:102D700001F01001009100990097016801AE41F047
:102D80000201016001684FF0020801F002010091A8
:102D90000099009701684FF0030941F001010160BB
:102DA00000684FF0070A00F00100009000988020B2
:102DB000019005F580603146CDE90287CDF810908D
:102DC000CDF814A0FEF74CFB4FF40070CDE90108DC
:102DD00003A880E8800628463146FEF741FB40F212
:102DE000703546F24040C2F20005C4F202004FF0D6
:102DF00000614FF480624FF4807385E883002846B9
:102E0000C5E90372C5E90577C5E907376F62FEF7C3
:102E100061FA002818BFFDF73BFCE563AC6325248D
:102E20002BE000BF43F630010090C4F202014A6972
:102E300042F020024A614A6902F020020092009AA0
:102E400000900A6842F040020A60096801F04001FF
:102E5000009100994FF4844101910221CDE90210C3
:102E600003200490082005900020C4F2020000F521
:102E7000C05001A9FEF7F4FA47242046052100229C
:102E8000FEF752FC2046FEF73DFC06B0BDE8F08799
:102E900090F84230202B07D100294FF0010318BFD2
:102EA000002A05D11846704702231846704700BF14
:102EB00000230363816222218285C285436480F8F6
:102EC00042100169006819B1C16841F48071C160A4
:102ED000416941F001014161C16841F02001C160D7
:102EE00018467047006841F20001C4F201018842AF
:102EF00018BF704740F23070C2F20000007806211F
:102F000000F0A8BD70470000FEE7000080B588B063
:102F1000080A8DF80500CC208DF8070004200690E3
:102F20000020CDE9040040F2FF60029040F24830FA
:102F30008DF804108DF80620C2F2000002A901AA43
:102F40006B46FDF7C1FB08B080BD00000178013978
:102F5000032988BF704780B5DFE801F00262162EB2
:102F600040F23851B0F802C08288C2F20001C08835
:102F70009FED521A9FED522A9FED4C0A01F1200E4F
:102F800001F11C0318315EE040F23851B0F802C084
:102F90008288C2F20001C0889FED413A9FED414A0C
:102FA0009FED411A9FED410A9FED412A01F1040E68
:102FB00001F108034BE000BF827841783E2303EA29
:102FC000920343EA811100EE101AB8EEC01A9FED89
:102FD000330A31EE011A81EE002AC1780379090122
:102FE00062F30D31427941EA131C910063F38D21A4
:102FF0008379C07941EA9312BFEE001A40F238514A
:1030000032EE012AC2F2000163F30D2081ED092A9C
:1030100001F1300E01F12C032831B0EE002A12E04C
:1030200040F23851B0F802C08288C2F20001C08874
:103030009FED201A9FED202A9FED1C0A01F1140E2E
:1030400001F110030C31B0EE424AB0EE413A05EE08
:1030500010CAB8EEC55A22EE052A05EE102A06EE71
:10306000100AB8EEC55AB8EEC66A82EE002A24EEFF
:10307000055A24EE064A85EE005A84EE000A32EE26
:10308000011A81ED001A35EE031A30EE030A83EDC2
:10309000001A8EED000ABDE88040704700FC7F46B4
:1030A000000034C30000B4430000B4C200FF7F47F7
:1030B000000034431F850BC21F858B4233336BC224
:1030C0003333EB4280EC020A7047000080B540F2D7
:1030D000203046F20041C2F20000C4F20001032297
:1030E000002380E80E0000F10C014FF4C02C4FF4D7
:1030F000A00E81E8085083618383FDF771FD0028ED
:1031000008BF80BDBDE88040FDF7C2BA80B540F27F
:10311000483046F60001C2F20000C4F2000103226A
:10312000002380E80E0000F10C014FF4102C4FF446
:10313000001E81E8085083618383FDF751FD00285C
:1031400008BF80BDBDE88040FDF7A2BA80B582B05F
:103150000020019043F63000C4F202000168002212
:1031600041F4800101600068052100F480000190B5
:1031700001983A20FEF7D8FA3A2002B0BDE8804024
:10318000FEF7C0BA70B596B01C480DF1400E0F9016
:103190001AA000F1040C9CE81E1080698EE81E1035
:1031A00015900FA8002101F02BFA40F2C006C2F2E0
:1031B00000061949306018A0051D08913ECD8069B0
:1031C0000DF1240C8CE83E000E9008A8002101F0BF
:1031D00017FA1849706017A0051D01912ECDD0E98E
:1031E00005400DF1080C8CE82E00CDE9064001A841
:1031F000002101F005FAB06016B070BD7D6F0008C7
:10320000B94B000800000000000000008000000032
:103210000000000000000000796F0008A5400008D1
:10322000FDFF0000000000000001000000000000A1
:1032300000000000706F00086D040008FDFF000032
:10324000000000000001000000000000000000007D
:10325000F0B587B0002643F6300006960196C4F21A
:103260000200016841F2000441F0020101600168BE
:10327000C4F2020401F00201019101990196016872
:10328000002241F04001016001684FF4006501F047
:103290004001019101990196016841F0010101602D
:1032A000016801F00101019101990196016841F065
:1032B00008010160016801F008010191019901967E
:1032C000016841F080010160016801F08001019115
:1032D00001990196016841F01001016000684FF406
:1032E000006100F01000019001982046FEF78EF971
:1032F000029502AD012720462946CDE903760596C1
:10330000FEF7AEF8A4F580502946CDE90276CDE966
:103310000466FEF7A5F807B0F0BD0000B0B598B0A0
:10332000002540F2D030C4F201050021C2F20000B5
:10333000A72244F61F631191CDE90F11CDE90D11BC
:10334000CDE90B11CDE90911CDE90711CDE9051141
:10335000CDE90311CDE90111C0E90052C0E9021322
:10336000C0E904118161FFF7D9F8002818BFFDF703
:103370008FF940F2D030C2F2000010A9FEF73AFDFA
:10338000002818BFFDF784F96020099040F2D03082
:103390000024C2F2000009A90022CDE90A44CDE9C7
:1033A0000C44CDE90E44FEF7A7FF002818BFFDF737
:1033B0006FF90594CDE90344CDE90144089440F246
:1033C000D0344FF40050C2F20004069001A9204608
:1033D000FEF7E8FC002818BFFDF75AF9206840F610
:1033E0000041C4F20001884216D0A84232D1002028
:1033F000139043F63000C4F2020001684FF40072EB
:1034000041F0100101600068012100F010001390EC
:10341000139805F5883013E00020139043F6300030
:10342000C4F2020001684FF4E05241F080010160F3
:103430000068022100F080001390139805F58E308B
:103440001392022214920022179113A9CDE915229A
:10345000FEF706F818B0B0BDB0B590B040F6004524
:1034600040F21840C4F200050021C2F200004FF6FD
:10347000FF72CDE90811CDE90611CDE90411C0E9CB
:103480000051C0E9021201618161FFF747F800288D
:1034900018BFFDF7FDF840F21840C2F2000008A97D
:1034A000FEF7A8FC002818BFFDF7F2F86020019095
:1034B0000020CDE90200059040F21840C2F2000061
:1034C00001A90022FEF718FF002818BFFDF7E0F859
:1034D00040F21840C2F2000001A90422FEF70CFFDE
:1034E000002818BFFDF7D4F840F21844C2F20004D7
:1034F00001A920460822FEF7FFFE002818BFFDF7AD
:10350000C7F82068A84219D00021C4F201018842FE
:1035100032D100200B9043F63000C4F20200016863
:103520004FF4007241F0100101600068012100F0C9
:1035300010000B900B9805F5013013E000200B9064
:1035400043F63000C4F2020001684FF4E05241F04B
:10355000800101600068022100F080000B900B9850
:1035600005F504300B9202220C9200220F910BA958
:10357000CDE90D22FDF774FF10B0B0BD80B584B069
:1035800040F2604044F200020021C2F20000C4F2A6
:10359000010244F29F134FF0630C0391CDE9011136
:1035A000C0E90023C0E9021C01618161FEF780FCD3
:1035B000002818BFFDF76CF84FF48050009040F2DF
:1035C0006040C2F200006946FEF71AFD002818BFED
:1035D000FDF75EF804B080BD80B540F2A84041F22E
:1035E0000001C2F20000C4F2010100234FF00C0CF4
:1035F0004FF4E13280E80E00C0E90333C0E905C3AF
:10360000C361FFF75FFB002808BF80BDBDE88040B5
:10361000FDF73EB880B540F2F04041F20041C2F201
:103620000000C4F2010100234FF00C0C4FF4E13212
:1036300080E80E00C0E90333C0E905C3C361FFF7AA
:1036400041FB002808BF80BDBDE88040FDF720B8E1
:10365000FEE70000FEE7000000285BD090ED123A84
:1036600080ED070A30EEC00AB0EEC04A90ED0F1AA6
:1036700090ED102AB4EE434AF1EE10FAC0ED060ABE
:1036800080ED0F0A80ED101A80ED112A03DA9FED0C
:103690004A0A0021C163017800293FD0012940F086
:1036A000878090ED015A90ED026A30EE414A31EE8A
:1036B000011A90ED037A25EE044A20EE065A30EE08
:1036C000410A32EE000AD0E90C2180ED0C0A20EE0E
:1036D000070A34EE051A90ED082A90ED043A80EDC1
:1036E0000B0A31EE000A32EE000AB4EE430AF1EEA4
:1036F00010FA80ED094A80ED0A5AC0E90D2180EDEB
:10370000080AC2BF80ED083AB0EE430A7047B1EE36
:10371000431A42E09FED280A704700BF90ED024A2D
:1037200090ED0A6A90ED012A90ED053A24EE004AE8
:1037300090ED035A34EE064A22EE002AD0E90C211D
:1037400030EE410AB4EE434A80ED0C0A20EE050A41
:10375000F1EE10FA80ED092A80ED0A4AC0E90D2148
:1037600080ED0B0A06DCB1EE433AB4EE434AF1EECB
:1037700010FA03DAB0EE434A80ED0A3A32EE042A38
:1037800090ED041A30EE020AB4EE410AF1EE10FA9E
:1037900080ED080A07DCB1EE411AB4EE410AF1EE01
:1037A00010FAA8BF7047B0EE410A80ED081A7047C2
:1037B00090ED080A704700BF00000000B0B52DED85
:1037C000068B40F2D47540F208049FED368A9FEDD7
:1037D000369AC2F20005C2F20004B6EE00AA2846EC
:1037E00000212246B0EE480AF0EE490AB0EE4A1A2D
:1037F00000F068F805F14C0000212246B0EE480ABE
:10380000F0EE490AB0EE4A1A00F05CF805F19800B3
:1038100000212246B0EE480AF0EE490AB0EE4A1AFC
:1038200000F050F805F1E40000212246B0EE480A0D
:10383000F0EE490AB0EE4A1A00F044F840F23C704B
:103840009FED1A0AB1EE008A04F10C02C2F20000E8
:10385000F3EE040A0021B0EE481A00F033F840F20B
:1038600088709FED130ADFED130A04F11802C2F20B
:1038700000000021B0EE481A00F024F840F6342091
:103880009FED0D0ADFED0D0A9FED0D1A04F12402E4
:10389000C2F200000021BDEC068BBDE8B04000F094
:1038A00011B800BF00803B460000FA4400003442DB
:1038B0000000C8420000484200409C4500C05A45F4
:1038C000CDCCCC3D002818BF002A01D1704700BFE5
:1038D00010B52DED028B0170044610682821606040
:1038E0005068B0EE418AA060906884ED040AE06000
:1038F00004F12000C4ED050AFCF744FD84ED128AB2
:10390000BDEC028BBDE810407047000010B540F2DE
:103910003850C2F2000090ED021A40F63424C2F290
:103920000004F0EE400A2046B0EE410AFFF794FE94
:1039300094ED080A10BD000010B540F2EE01C2F28D
:103940000001B1F9001040F23C7400EE101A01EED3
:10395000100AC2F20004B8EEC00AF8EEC10A20460E
:10396000FFF77AFE94ED080A10BD000010B540F292
:10397000F001C2F20001B1F9001040F2887400EECB
:10398000101A01EE100AC2F20004B8EEC00AF8EEF6
:10399000C10A2046FFF760FE94ED080ABDEEC00A9A
:1039A00010EE100A10BD000010B5013840F270533F
:1039B000C0EBC002C2F2000340F2D47103EB8202FA
:1039C000C2F200014C23B2F9022000FB0314F0EE16
:1039D000400A00EE102AB8EEC00A2046FFF73CFE6F
:1039E00094ED080A10BD0000000000000000000077
:1039F000EFF30980BFF36F8F154B1A681EF0100F9D
:103A000008BF20ED108A20E9F04F10602DE9090071
:103A10004FF0500080F31188BFF34F8FBFF36F8FCB
:103A200001F068FD4FF0000080F31188BDE8090047
:103A300019680868B0E8F04F1EF0100F08BFB0EC2E
:103A4000108A80F30988BFF36F8F704700BF00BFF3
:103A50002801002040F2FC0CC2F2000C9CF800305F
:103A6000032B6AD8DFE803F00250142AA52864D19A
:103A70009CF8011001208CF80000481C8CF8010013
:103A800040F2F410C2F20000A5224254704700BF79
:103A900080B59CF8012040F2F41E531C8CF80130D4
:103AA000C2F2000EDBB2023199420EF80200BDE80C
:103AB000804018BF704703203DE000BFFE2839D189
:103AC000DCF80C204FF6FF73108841BAACF80410F4
:103AD0005088994240BAACF80600928812BA4FEA70
:103AE0001242ACF808201EBF40F2EE02C2F2000201
:103AF000118098421EBF40F2F001C2F2000108801E
:103B00000020ACF8000070475A2813D19CF801102F
:103B1000022040F2F4128CF80000481CC2F20002AD
:103B20008CF801005A2352FA80F05354CCF80C0060
:103B3000704700BF00208CF80000704700000000B4
:103B4000074B19680868B0E8F04F80F30988BFF3A5
:103B50006F8F4FF0000080F31188704700BF00BFE7
:103B6000280100200000000082B001F053FE9FED0C
:103B7000268A9FED230B40F2EC079FED249A9FEDE0
:103B800024AA40F2C808C2F2000755EC104B01AE5F
:103B9000C2F20008B0EE48BA019024E03BEE09BA48
:103BA0002BEE0A0A10EE100A03F0B8F841EC100BE5
:103BB00001F09EFF51EC100B22462B4602F0B6FEA0
:103BC00002F026FC00EE100AFFF7A0FEBDEEC00AD0
:103BD00010EE102A002000210023FCF7D7FC30460D
:103BE0000A2101F037FA78880028D7D0D8F80000E9
:103BF00000F034FDB86801F0A1FAB0EE48BACDE7A4
:103C00000000000000006940000000000AD7233CCB
:103C1000B5C3903F80B5FDF705FD01F0EBFD012830
:103C200008BF80BDBDE8804001F060BDB0B592B076
:103C3000002443F64000CDE90A44CDE90844059448
:103C4000CDE90344CDE901440094C4F202000168C7
:103C5000022541F080510160006800F08050009022
:103C6000009847F200000094C4F20000016841F49B
:103C700080410160006800F48040009000980120BD
:103C800006904FF4803007904FF480000D9006208E
:103C90000E90A820CDE90F050420119006A80C95E0
:103CA000FDF78EFE10B172B6FEE700BF0F20CDE922
:103CB00001054FF4A05004904FF48050059001A8E6
:103CC00005210394FDF76CFD10B172B6FEE700BF4D
:103CD00012B0B0BD4EF68850CEF20000016841F43B
:103CE000700101607047000080B540F2D030C2F230
:103CF0000000FEF757FA40F26040C2F20000BDE853
:103D00008040FEF74FBA0000B0B540F6FF3E0568B0
:103D1000C4F2000E40F2004C7045C4F2010C27DCE6
:103D2000B0F1804F31D040F20043C4F2000398421A
:103D30002BD040F60003C4F20003984225D041F690
:103D4000FF73C4F2000398422ADC70453CDCB0F1FA
:103D5000804F5FD040F20043C4F20003984259D034
:103D600040F60003C4F20003984253D057E000BF6E
:103D700040F60043C4F20003984206D0604504D0E8
:103D80000023C4F201039842D9D14B6825F0700298
:103D900043EA020541F6FF73C4F200039842D4DD02
:103DA00043F6FF73C4F20103984221DC42F20003A0
:103DB000C4F2000398422DD00023C4F201039842BC
:103DC00028D0604526D02AE040F60043C4F2000324
:103DD00098421FD041F60003C4F20003984219D064
:103DE00041F60043C4F20003984213D017E000BF2D
:103DF00044F20003C4F2010398420BD044F60003DE
:103E0000C4F20103984205D044F20043C4F2010316
:103E1000984204D1CB6825F4407243EA02050A684F
:103E20008C684B69C46240F480648262644504BF5C
:103E300009690163026825F0800142F00402194318
:103E40000260012242610160B0BD0000806B002170
:103E5000C185FEF771BC000081B090F842102229A4
:103E600021D183680246B3F5805F09D152F8281F3B
:103E700052F8183C002B63D003685B680AE000BF6F
:103E800052F8281F13B90369002BF5D003685B684B
:103E900003F07F030B70116801311160C18D01398E
:103EA0000A04C18502D001B0704700BF0168CA682A
:103EB00022F02002CA60CA6822F48072CA604A698D
:103EC00022F001024A61202180F842100021416362
:103ED000026B012A3CD10163016851E8031F0268AB
:103EE00021F0100142E80313DBB1016851E8031F20
:103EF000026821F0100142E8031393B1016851E810
:103F0000031F026821F0100142E803134BB101685E
:103F100051E8031F026821F0100142E80313002B4F
:103F2000DAD101680A68D20606D5002200920A6832
:103F30000092496800910099818D01B0FEF7FABBAB
:103F4000026852686FF35F2221F8022B8162A5E7B5
:103F500001B0FEF7C7BF000010B504460068D4E901
:103F600002C22369016921F4405111430161626970
:103F700043EA0C01E3691143C268194349F20C6337
:103F80009A431143C1604169A26921F4407141F231
:103F90000043114340F48062C4F201039A4241613C
:103FA00002D1FDF7C3FC01E0FDF7ACFCE1696368F9
:103FB0001922B1F5004FA0FB020123D15A00DB0FFB
:103FC000FCF768F948F21F51C5F2EB11A0FB012381
:103FD0005A094FF69C73C0F6FF7303F1805302FB3E
:103FE0000300322303EBC000A0FB01014FF4F87083
:103FF00000EA111000EB0210C1F3421108442168DD
:10400000886010BD9A009B0FFCF744F948F21F51DD
:10401000C5F2EB11A0FB01235A094FF69C73C0F6C1
:10402000FF7302FB0300322303EB0010A0FB01012E
:10403000F02000EA511000EB0210C1F343110844D4
:104040002168886010BD000010B540F2A844C2F29B
:1040500000042046FEF772FB40F23071C2F200010C
:1040600020460122BDE81040FEF712BF40F2F040AA
:10407000C2F20000FEF762BBFEE7000040F2184308
:10408000010EC0F30742C2F2000302FB01FC1B68F1
:10409000C0F30722C0B24A43484358639A63C3F847
:1040A0003CC0704740F21844C2F200042046002190
:1040B000FEF79EFA20460421FEF79AFA20460821D0
:1040C000FEF796FA40F238049FED038AC2F200042C
:1040D00040F2E73502E000BF00007A44D4E9000175
:1040E0000026020E00EE102AC0F30742B8EE409AF6
:1040F00000EE102AC0F30722B8EE40AA00EE102A04
:10410000C0B2B8EE40BA00EE100A080EB8EE40CACF
:1041100000EE100AC1F3074001EE100AC1F30720B8
:1041200002EE100AC8B203EE100AB8EE400AB8EE6A
:10413000411AB8EE422AB8EE433A30EE490A31EE5F
:104140004A1A32EE4B2A33EE4C3A80EE08DA81EE10
:1041500008EA82EE08FAC3EE088A00BF3DEE099A2B
:10416000BCEEC90A3EEE0AAA10EE100ABCEECA0A5C
:1041700010EE101A3FEE0BBABCEECB0A38EE8CCA2A
:10418000090410EE102ABCEECC0A41EA006010EEE1
:10419000103A40EA02201843FFF770FF012000F0B8
:1041A00021FAAE4206F10106D8D3D4E90101002676
:1041B000020E00EE102AC0F30742B8EE409A00EE5D
:1041C000102AC0F30722B8EE40AA00EE102AC0B2AF
:1041D000B8EE40BA00EE100A080EB8EE40CA00EE83
:1041E000100AC1F3074001EE100AC1F3072002EEE6
:1041F000100AC8B203EE100AB8EE400AB8EE411A2F
:10420000B8EE422AB8EE433A30EE490A31EE4A1A85
:1042100032EE4B2A33EE4C3A80EE08DA81EE08EAB1
:1042200082EE08FAC3EE088A3DEE099ABCEEC90A8E
:104230003EEE0AAA10EE100ABCEECA0A10EE101AE0
:104240003FEE0BBABCEECB0A38EE8CCA090410EE76
:10425000102ABCEECC0A41EA006010EE103A40EAA7
:1042600002201843FFF70AFF012000F0BBF9AE421D
:1042700006F10106D8D3D4E902010026020E00EEB1
:10428000102AC0F30742B8EE409A00EE102AC0F39D
:104290000722B8EE40AA00EE102AC0B2B8EE40BA2B
:1042A00000EE100A080EB8EE40CA00EE100AC1F384
:1042B000074001EE100AC1F3072002EE100AC8B24F
:1042C00003EE100AB8EE400AB8EE411AB8EE422AE0
:1042D000B8EE433A30EE490A31EE4A1A32EE4B2A32
:1042E00033EE4C3A80EE08DA81EE08EA82EE08FA04
:1042F000C3EE088A3DEE099ABCEEC90A3EEE0AAA50
:1043000010EE100ABCEECA0A10EE101A3FEE0BBAFD
:10431000BCEECB0A38EE8CCA090410EE102ABCEEB3
:10432000CC0A41EA006010EE103A40EA022018433D
:10433000FFF7A4FE012000F055F9AE4206F1010698
:10434000D8D3D4E903010026020E00EE102AC0F3F0
:104350000742B8EE409A00EE102AC0F30722B8EEEA
:1043600040AA00EE102AC0B2B8EE40BA00EE100A21
:10437000080EB8EE40CA00EE100AC1F3074001EE85
:10438000100AC1F3072002EE100AC8B203EE100AA9
:10439000B8EE400AB8EE411AB8EE422AB8EE433AF7
:1043A00030EE490A31EE4A1A32EE4B2A33EE4C3ADD
:1043B00080EE08DA81EE08EA82EE08FAC3EE088A97
:1043C0003DEE099ABCEEC90A3EEE0AAA10EE100AAA
:1043D000BCEECA0A10EE101A3FEE0BBABCEECB0AC6
:1043E00038EE8CCA090410EE102ABCEECC0A41EA61
:1043F000006010EE103A40EA02201843FFF73EFE3C
:10440000012000F0EFF8AE4206F10106D8D3D4E95E
:1044100004010026020E00EE102AC0F30742B8EE97
:10442000409A00EE102AC0F30722B8EE40AA00EE30
:10443000102AC0B2B8EE40BA00EE100A080EB8EE6C
:1044400040CA00EE100AC1F3074001EE100AC1F3A2
:10445000072002EE100AC8B203EE100AB8EE400AB6
:10446000B8EE411AB8EE422AB8EE433A30EE490AA5
:1044700031EE4A1A32EE4B2A33EE4C3A80EE08DA2D
:1044800081EE08EA82EE08FAC3EE088A3DEE099A48
:10449000BCEEC90A3EEE0AAA10EE100ABCEECA0A29
:1044A00010EE101A3FEE0BBABCEECB0A38EE8CCAF7
:1044B000090410EE102ABCEECC0A41EA006010EEAE
:1044C000103A40EA02201843FFF7D8FD012000F01F
:1044D00089F8AE4206F10106D8D3D4E905010026D9
:1044E000020E00EE102AC0F30742B8EE409A00EE2A
:1044F000102AC0F30722B8EE40AA00EE102AC0B27C
:10450000B8EE40BA00EE100A080EB8EE40CA00EE4F
:10451000100AC1F3074001EE100AC1F3072002EEB2
:10452000100AC8B203EE100AB8EE400AB8EE411AFB
:10453000B8EE422AB8EE433A30EE490A31EE4A1A52
:1045400032EE4B2A33EE4C3A80EE08DA81EE08EA7E
:1045500082EE08FAC3EE088A3DEE099ABCEEC90A5B
:104560003EEE0AAA10EE100ABCEECA0A10EE101AAD
:104570003FEE0BBABCEECB0A38EE8CCA090410EE43
:10458000102ABCEECC0A41EA006010EE103A40EA74
:1045900002201843FFF772FD012000F023F8AE421D
:1045A00006F10106D8D399E5FDF74AF8FFF73EFB7F
:1045B000FEF74EFEFEF7CAFDFEF788FDFEF7A6FDEC
:1045C000FEF7DCFFFFF708F8FFF724F8FEF7A6FE7A
:1045D000FEF742FFFEF7D6FD00F00CF80120FCF7D5
:1045E0002BFFFBE780B5012898BF012000F0E2FC1B
:1045F000002080BD80B500F071FE002080BD00006D
:10460000B0B584B043698E4693B1846984B105899D
:10461000D0E9001C026928B2843D18BFC51CCDE951
:10462000005360467346029401F0A8F804B0B0BD90
:104630000589D0E90013028A28B2843D18BFC51C41
:1046400003AC18467346CDE9005401F067F80399AE
:10465000012818BF0021084604B0B0BD80B5EFF3B3
:10466000058189B101F0D6F901280FD14EF6045029
:10467000CEF200004FF080510160BFF34F8F002059
:10468000BFF36F8F80BD00BF00F0DCFD002080BD58
:1046900080B500F089FE002080BD00002DE9F041CA
:1046A000044600F097FB40F22816C2F2000630697B
:1046B00040F68025013030613068C2F2000548B113
:1046C0007069002840D13068E16AC06A884298BFAA
:1046D000346039E034603069012835D1284600F073
:1046E0001FFB05F1140000F01BFB05F1280000F092
:1046F00017FB05F13C0000F013FB05F1500000F042
:104700000FFB05F1640000F00BFB05F1780000F0F1
:1047100007FB40F2C818C2F20008404600F000FB58
:1047200008F11407384600F0FBFA06F1640000F0C7
:10473000F7FA06F13C0000F0F3FA06F1500000F041
:10474000EFFAC6F8308077637068B16801220131F2
:10475000B160E16A8A401043706001EB810005EBB3
:104760008000211D00F01EFB00F058FB706988B12D
:104770003068E16AC06A884228BFBDE8F0814EF621
:104780000450CEF200004FF080510160BFF34F8F14
:10479000BFF36F8FBDE8F08140F2281540F6802608
:1047A0004EF60458C2F20005C2F20006CEF200082E
:1047B0004FF0805703E000BF204600F047FBE86859
:1047C000D0B100F007FBA86CC468201D00F088FA87
:1047D000286901382861E8680138E86000F01EFBAC
:1047E00094F851000228EAD00128E5D070B9206B76
:1047F00000F02CFBE0E700BF30680228DFD3C8F8E8
:104800000070BFF34F8FBFF36F8FD8E74FF05000AA
:1048100080F31188BFF36F8FBFF34F8FFEE7000067
:104820002DE9F047DDE909878246386B089C00EBEB
:10483000820004389946002920F0070656D00878EF
:1048400087F83400087800284BD0487887F835007E
:104850004878002845D0887887F83600887800287E
:104860003FD0C87887F83700C878D0B3087987F880
:1048700038000879A8B3487987F83900487980B3B7
:10488000887987F83A00887958B3C87987F83B0067
:10489000C87930B3087A87F83C00087A08B3487AB8
:1048A00087F83D00487AE0B1887A87F83E00887A38
:1048B000B8B1C87A87F83F00C87A90B1087B87F80A
:1048C0004000087B68B1487B87F84100487B40B1D5
:1048D000887B87F84200887B00281CBFC87B87F84C
:1048E0004300002087F8430003E000BF002087F862
:1048F00034000025381D062C28BF0624FC62C7E9B9
:10490000114500F019FA07F1180000F015FA84F0CB
:104910000700B861304651464A463F617F62FD64F8
:1049200087F8505000F036F9B8F1000F386018BF22
:10493000C8F80070BDE8F08708480068006880F398
:1049400008884FF0000080F3148862B661B6BFF3A8
:104950004F8FBFF36F8F00DF00BF000008ED00E056
:1049600081B00020009040F25800C2F200000068C0
:104970004FF0500181F31188BFF36F8FBFF34F8F5A
:10498000013007D0FEE700BF009830B9009820B989
:10499000009810B900980028F6D001B070470000C8
:1049A00070B5044600F09EFD40F2A01CC2F2000C5F
:1049B000DCF8040050B19CF80000002818BF4FF04C
:1049C00000404FF0000544BB83E000BF40F60C30D0
:1049D000C2F20000420700F5705200F1070122F018
:1049E000070218BF21F007000021A2F10803CCE95B
:1049F0000601CCF8043042E90211DCF80420191A4F
:104A0000C0E9002101208CF800004FF00040CCE903
:104A10000211002C4FF000055BD0204059D124F04A
:104A2000070000F11002600708BF04F10802DCF87B
:104A30000800511E81424CD2604650F818EFDEF853
:104A4000045095422BD2DEF80010B9B174464D687F
:104A5000954217D20B68ABB15D68954216D21868C3
:104A6000A0B14568954215D204689CB1656895422D
:104A700014D22168A6460029E9D110E00CF11800F3
:104A80000DE000BF8E46204609E000BF9E46084666
:104A900005E000BF8646184601E000BFA646DCF8E8
:104AA00004108E4514D00168DEF80040AB1A112BBB
:104AB00004604DD30EEB0205680719D04FF050008B
:104AC00080F31188BFF36F8FBFF34F8FFEE700BFF6
:104AD000002500F029FF68075AD04FF0500080F3FE
:104AE0001188BFF36F8FBFF34F8F00BFFEE700BF8A
:104AF0000CF118006B60CEF8042000BF0368AB42D5
:104B00000AD21868A8420BD20368AB4204D21868D4
:104B10001A46A842F2D304E00246184601E000BF5C
:104B20001A4654686B681619AE4202D123441546E2
:104B30005360EC18844207D1DCF80440A04203D053
:104B4000D0E9000423446B60AA42286018BF1560B6
:104B5000DEF80400DCE9022301F10805111A99428C
:104B6000CCF8081038BFCCF80C109CF800100029C5
:104B70004FF0000118BF40F00040CEE90010DCF813
:104B800010000130CCF8100000F0CEFE6807A4D170
:104B9000284670BD034644F6611021F00101C0F6BD
:104BA00000004FF0807C03E903106FF00201A3F1D5
:104BB000440043E90912704782B0FEF7FFFDFBF79E
:104BC00015FDFBF72FFD40F22030C2F20000FBF78D
:104BD00047FD40F24830C2F20000FBF741FD40F2D1
:104BE000A84040F23071C2F20000C2F2000101227E
:104BF000FEF74EF940F2D030C2F2000000214FF033
:104C00000008FDF7F5FC40F26040C2F20000FDF73D
:104C1000A1F941F20000C4F202004FF40061002249
:104C2000FCF7F4FC9FED259A40F21810B6EE008ACE
:104C3000C2F20000B0EE480AF0EE490AFEF742FA6E
:104C400040F22010C2F20000B0EE480AF0EE490A2D
:104C5000FEF738FA40F2C800C2F200000068FFF721
:104C600017FD40F24550C0F6000015A17D2200233B
:104C7000CDF80080CDF8048000F050FD40F2EC0744
:104C8000C2F2000743F6693407F10806C0F60004D3
:104C90000EA502E00120FFF7A5FC38780128F9D124
:104CA000204629464FF480720023CDE9008600F0AB
:104CB00035FD002000F042FAECE700BF00000000E4
:104CC000427574746F6E5461736B00005365656B4D
:104CD0005F5461726765745F5461736B000000001C
:104CE000D0E9013201699A60D1F804C08268844534
:104CF000536008BF4A6000220261086801380860FA
:104D00000868704744F61013C2F20003036044F2CF
:104D10001070C2F200000860802010607047000030
:104D20004FF0FF31024642F8081F00214260C0E9FF
:104D300003220160704700000021016170470000FC
:104D400010B5D1F800E01EF1010213D000F1080403
:104D500062681368734511D853681C68744511D88C
:104D60005A68146874450FD854682368A44673457C
:104D7000EED90BE00269D2F804C007E0944622465F
:104D800004E000BF9C4601E094461A46C1F804C006
:104D9000CCF808108A605160086101680131016037
:104DA00010BD0000D0F800C0436808619A684B60ED
:104DB0008A609A68996051600CF101010160704746
:104DC000DFF80C00016841F47001016070470000D9
:104DD00088ED00E04FF0500080F31188BFF36F8F33
:104DE000BFF34F8F40F25800C2F2000001684A1C26
:104DF000026009B1704700BF4EF60450CEF20000C9
:104E00000068000608BF70474FF0500080F311881B
:104E1000BFF36F8FBFF34F8FFEE7000040F25800E3
:104E2000C2F20000016839B10139016018BF704752
:104E3000002080F3118870474FF0500080F31188F4
:104E4000BFF36F8FBFF34F8FFEE7000070B50028F0
:104E500008BF70BD40F2A015C2F2000504462878D4
:104E600054F8041C002818BF4FF0004008420DD031
:104E7000A4F1080632689AB14FF0500080F311880F
:104E8000BFF36F8FBFF34F8FFEE700BF4FF05000AF
:104E900080F31188BFF36F8FBFF34F8FFEE700BF22
:104EA00021EA000044F8040C00F01CFB54F8041C38
:104EB000A8680844A86005F1180000BF0368B34261
:104EC0000AD21868B04225D20368B34204D21868E7
:104ED0001A46B042F2D301E0024618465368D4188D
:104EE000B44202D11944164651607318834206D168
:104EF0006B68984203D0D0E9000319447160B24254
:104F0000306018BF1660686901306861BDE87040A4
:104F100000F00ABD1A465368D418B442E5D1E1E75F
:104F20004EF21000CEF2000000210160816040F2DC
:104F30005401C2F20001096844F6D352C1F2620280
:104F4000A1FB02124FF0FF3101EB921141600721EA
:104F50000160704740F2C010EFF305811029C2F2E2
:104F6000000011D34EF2F032CEF20002895C0278DA
:104F7000914209D24FF0500080F31188BFF36F8F38
:104F8000BFF34F8FFEE700BF4EF60C51CEF200018B
:104F90000968406801F4E061814298BF70474FF0B2
:104FA000500080F31188BFF36F8FBFF34F8F00BFA6
:104FB000FEE7000070B500283FD040F22815C2F28D
:104FC00000050446A86948B14FF0500080F31188ED
:104FD000BFF36F8FBFF34F8FFEE700BFA8690130AB
:104FE000A861EE6928680430FFF77AFE50B128689E
:104FF000A419446013D3686B29680431FFF7A0FE3D
:1050000016E000BF28680121C06A6A6801FA00F052
:1050100022EA000068602868A4194460EBD2286B7B
:1050200029680431FFF78CFE686A844238BF6C62DD
:1050300000F07AFC002818BF70BD4EF60450CEF286
:1050400000004FF080510160BFF34F8FBFF36F8FAF
:1050500070BD000070B588B1D1B140F22814C2F221
:105060000004A269F2B14FF0500080F31188BFF341
:105070006F8FBFF34F8F00BFFEE700BF4FF05000B0
:1050800080F31188BFF36F8FBFF34F8FFEE700BF30
:105090004FF0500080F31188BFF36F8FBFF34F8F35
:1050A000FEE700BFA2690132A261E26903689A4289
:1050B000194403D2994203D316E000BF994201D3A9
:1050C000914211D90160E56920688E1A0430FFF71A
:1050D00007FE58B12068AD19456014D3606B216894
:1050E0000431FFF72DFE17E0016015E02068012173
:1050F000C06A626801FA00F022EA0000606020687D
:10510000AD194560EAD2206B21680431FFF718FE23
:10511000606A854238BF656200F006FC002818BF4F
:1051200070BD4EF60450CEF200004FF08051016089
:10513000BFF34F8FBFF36F8F70BD000070B5044693
:10514000FFF748FE40F22816002CC2F2000608BF06
:105150003468251D2846FFF7C3FD80B9E06A40F694
:10516000802200EB8001C2F2000252F8211031B916
:105170000121726801FA00F022EA00007060A06A62
:1051800018B104F11800FFF7ABFD3068B168844234
:1051900001F10101B16019D030690138306194F832
:1051A0005100022809D0012804D0002840D1206BEA
:1051B000FFF74CFE2046FFF749FE306B006898B1C0
:1051C000306BC068C068406810E000BF06F13C006A
:1051D0002946FFF7E7FDF0680130F060FFF71EFE9B
:1051E000706948B970BD00BF4FF0FF307062FFF7C3
:1051F00015FE70690028F5D03068844218BF70BD74
:10520000B06948B14FF0500080F31188BFF36F8F41
:10521000BFF34F8FFEE700BF4EF60450CEF2000002
:105220004FF080510160BFF34F8FBFF36F8F70BDA0
:105230004FF0500080F31188BFF36F8FBFF34F8F93
:10524000FEE7000070B598B140F22816C2F20006E1
:1052500004463068A04208BF70BDFFF7BBFD60691F
:1052600006F1500188420DD0BDE87040FFF7D6BD71
:105270004FF0500080F31188BFF36F8FBFF34F8F53
:10528000FEE700BFA06A0028EED1251D2846FFF7E3
:1052900027FDE06A0121726881401143716040F688
:1052A000802100EB8000C2F2000101EB8000294662
:1052B000FFF778FDE06A3168C96A8842D4D34EF6B8
:1052C0000450CEF200004FF080510160BFF34F8FC9
:1052D000BFF36F8FBDE87040FFF7A0BDB0B588B0D9
:1052E0000020CDE9050006A805A904AAFFF70AFDDC
:1052F0000598B8B3069C002C3ED05421049A07911F
:105300000799542942D107992063022084F851005B
:1053100007A80025CDE9005044F29970C0F60000BE
:105320001FA100230294FFF77BFA2046FFF7B6F98E
:10533000079940F22810C2F20000016279B14FF0E3
:10534000500181F31188BFF36F8FBFF34F8F4FF080
:10535000FF31416201214161C56100F003F908B0EC
:10536000B0BD00BF4FF0500080F31188BFF36F8FC6
:10537000BFF34F8FFEE700BF4FF0500080F311885E
:10538000BFF36F8FBFF34F8FFEE700BF4FF05000AA
:1053900080F31188BFF36F8FBFF34F8FFEE700BF1D
:1053A00049444C450000000070B50446FFF712FD6B
:1053B00040F22816002CC2F2000608BF3468251DF2
:1053C0002846FFF78DFC80B9E06A40F6802200EBAA
:1053D0008001C2F2000252F8211031B90121726835
:1053E00001FA00F022EA00007060A06A18B104F12E
:1053F0001800FFF775FC06F150002946FFF7D2FCB4
:1054000094F85000012804BF002084F85000FFF7F2
:1054100005FD706978B1FFF7DDFC306B006828B1DD
:10542000306BC068C068406802E000BF4FF0FF30DA
:105430007062FFF7F3FC3068844218BF70BD70697A
:1054400060B1B06990B14FF0500080F31188BFF3A4
:105450006F8FBFF34F8F00BFFEE700BF306D316924
:1054600088420FD10020306070BD00BF4EF604505E
:10547000CEF200004FF080510160BFF34F8FBFF3B9
:105480006F8F70BDB06918B10120B06270BD00BFF0
:105490000020B0627068B0FA80F0C0B2C0F11F00A6
:1054A00040F6802100EB8000C2F2000151F820207C
:1054B00072B101EB800151F8040F40680A1D90425F
:1054C000086001D140680860C068306070BD00BFEE
:1054D0004FF0500080F31188BFF36F8FBFF34F8FF1
:1054E000FEE7000040F22810C2F20000816901319D
:1054F0008161704740F22810C2F2000081690029E2
:105500001EBF012181627047002181624168B1FAAA
:1055100081F1C9B2C1F11F0140F6802201EB810186
:10552000C2F2000252F8213063B102EB810252F85C
:10553000041F4968131D994211600DD0C9680160AC
:10554000704700BF4FF0500080F31188BFF36F8F9A
:10555000BFF34F8FFEE700BF49681160C968016063
:1055600070470000B0B584B04EF2004CCEF2000C93
:105570004CF27021C4F20F11DCF800294B1C9A4246
:105580000AD14FF0500080F31188BFF36F8FBFF343
:105590004F8F00BFFEE700BFDCF800298A4209D127
:1055A0004FF0500080F31188BFF36F8FBFF34F8F20
:1055B000FEE700BF9CF800100291FF218CF800105C
:1055C0009CF800108DF807109DF8071001F05002AC
:1055D00040F2C011C2F200010A7007224A609DF930
:1055E0000720B2F1FF3F6BDC032200BFD31C4B60EE
:1055F0009DF8070040008DF807009DF90700B0F105
:10560000FF3F24DC931C4B609DF8070040008DF8A1
:1056100007009DF90700B0F1FF3F18DC531C4B60F9
:105620009DF8070040008DF807009DF90700B0F1D4
:10563000FF3F0CDC4A609DF80700043A40008DF8FB
:1056400007009DF90700B0F1FF3FCFDD131D032BCD
:1056500036D14FF44070486002988CF80000DCF8B6
:10566000200940F47000CCF82009DCF8200940F053
:105670007040CCF82009FFF753FC40F25804C2F206
:10568000000400252560FFF79BFB4EF63470CEF238
:105690000000016841F040410160FFF74DF9FFF75C
:1056A00029FF039520684FF0500181F31188BFF363
:1056B0006F8FBFF34F8F013012D000BFFEE700BFE6
:1056C0004FF0500080F31188BFF36F8FBFF34F8FFF
:1056D000FEE700BF039830B9039820B9039810B9CA
:1056E00003980028F6D0002004B0B0BD80B54FF07C
:1056F000500080F31188BFF36F8FBFF34F8F00F01E
:105700008FF830B14EF60450CEF200004FF08051C9
:105710000160002080F3118880BD00002DE9F04376
:1057200083B007469000984615468946FFF738F93A
:10573000F8B106465420FFF733F9B8B10446DDE965
:105740000A100022266384F85120CDE90010384663
:1057500049462A4643460294FFF762F82046FEF780
:105760009DFF012003B0BDE8F08300BF3046FFF786
:105770006DFB4FF0FF3003B0BDE8F08370B586B02D
:105780000B9CCCB10C9E0EB354250495049D542D56
:1057900026D1049DDDF828C0022586F8515005ADBC
:1057A0003463CDE900C50296FFF73AF83046FEF7BC
:1057B00075FF059806B070BD4FF0500080F311885A
:1057C000BFF36F8FBFF34F8FFEE700BF4FF0500066
:1057D00080F31188BFF36F8FBFF34F8FFEE700BFD9
:1057E0004FF0500080F31188BFF36F8FBFF34F8FDE
:1057F000FEE7000040F22810C2F2000041690029D3
:105800000FBF01208069B0FA80F0400918BF400046
:105810007047000040F22810C2F20000C0697047D3
:105820002DE9F04740F22816C2F20006B06928B10F
:10583000F06A0130F0620020BDE8F087F06910F1F5
:10584000010AC6F81CA020D3306B006850B14FF09D
:10585000500080F31188BFF36F8FBFF34F8F00BFED
:10586000FEE700BF306B716B31637063B06B01306A
:10587000B063306B006828B1306BC068C0684068A6
:1058800002E000BF4FF0FF307062706A40F680287F
:105890008245C2F2000801D2002434E0306B0024BB
:1058A000006868B34FF0010916E000BFF86A71683C
:1058B00009FA00F2114300EB8000716008EB8000F0
:1058C0002946FFF76FFAF86A3168C96A326B884275
:1058D000106828BF4C4698B1306BC068C7683D4619
:1058E00055F8040F82450DD32846FFF7F9F9B86A39
:1058F0000028DBD007F11800FFF7F2F9D6E700BF68
:105900004FF0FF3070623068C06A00EB800058F8DA
:105910002000012888BF0124B06A002818BF012494
:105920002046BDE8F08700002DE9F04140F228153F
:10593000C2F20005A86968B1FFF74CFAA8690138FE
:10594000A861A86980B10024FFF768FA2046BDE885
:10595000F08100BF4FF0500080F31188BFF36F8FCC
:10596000BFF34F8FFEE700BF28690028EBD0686EB9
:1059700078B340F680280126C2F20008286FC76875
:1059800007F11800FFF7ACF93C1D2046FFF7A8F916
:10599000F86A696806FA00F2114300EB800069605A
:1059A00008EB80002146FFF7FDF9F86A2968C96A0B
:1059B000884228BFAE62686E0028DFD1286B00687D
:1059C00020B1286BC068C068406801E04FF0FF302C
:1059D0006862EC6A4CB10126FFF722FF002818BF6D
:1059E000AE62013CF8D10020E862A86A0028AAD083
:1059F0004EF60450CEF200004FF080510160BFF32C
:105A00004F8F0124BFF36F8FFFF708FA2046BDE8E0
:105A1000F081000040B32DE9F0410546FFF79AFA06
:105A2000EFF311874FF0500080F31188BFF36F8FB1
:105A3000BFF34F8F40F228166869C2F2000606F1E4
:105A40005001884209D1A86A38B9B069B0B105F1EE
:105A5000180106F16400FFF7A5F9002487F3118807
:105A60002046BDE8F08100BF4FF0500080F3118860
:105A7000BFF36F8FBFF34F8FFEE700BFE86A316857
:105A800005F10408C96A00248842404628BF012461
:105A9000FFF726F9E86A01217268814011437160BD
:105AA00040F6802100EB8000C2F2000101EB800093
:105AB0004146FFF777F987F311882046BDE8F0816A
:105AC00003B401984100009850EAC12018BF042097
:105AD0004A0D18BF40F0010040F2FF72B2EB515F77
