:020000040800F2
:100000004854002055020008CD2E0008E52A0008BB
:10001000C92E00084104000809360008000000004D
:10002000000000000000000000000000412F000858
:100030009904000800000000D12E00086D2F000870
:100040006F0200086F0200086F0200086F020008CC
:100050006F0200086F0200086F0200086F020008BC
:100060006F0200086F0200086F0200086F020008AC
:10007000510400085D0400086904000875040008C4
:10008000810400088D0400086F0200086F02000858
:10009000450400086F0200086F0200086F020008A4
:1000A0006F0200086F0200086F0200086F0200086C
:1000B0006F0200086F0200086F0200086F0200085C
:1000C0006F0200086F0200086F0200086F0200084C
:1000D0006F0200086F020008D9350008FD350008DE
:1000E0006F0200086F0200086F0200086F0200082C
:1000F0006F0200086F0200086F0200086F0200081C
:100100006F0200086F0200086F0200086F0200080B
:100110009D3100086F0200086F020008453000089A
:100120006F0200086F0200086F0200086F020008EB
:100130006F0200086F0200086F0200086F020008DB
:100140006F0200086F0200086F0200086F020008CB
:100150006F0200086F0200086F0200086F020008BB
:100160006F0200086F0200086F0200086F020008AB
:100170006F0200086F0200086F0200080000000014
:100180006F0200086F02000800F002F800F052F859
:1001900014A696E8000CB244B344DA4501D100F04D
:1001A00049F8BAE80F000FA696E83000A5EB040561
:1001B00004EB0607AAEB0704A7F101074FEA1515A0
:1001C0004FEA3414A4F10104AC4201D300F032F838
:1001D00013F0010F18BFFB1A43F0010300F001F800
:1001E000DBE718474450000064500000103A24BF79
:1001F00078C878C1FAD8520724BF30C830C144BF8C
:1002000004680C6070470000704700000023002461
:1002100000250026103A28BF78C1FBD8520728BF16
:1002200030C148BF0B6070471FB504F0C6FF1FBD4B
:1002300010B510BD00F0D6F81146FFF7F5FF03F03A
:100240006FFF00F0F4F803B4FFF7F2FF03BC03F014
:1002500065FF00000948804709480047FEE7FEE7C0
:10026000FEE7FEE7FEE7FEE7FEE7FEE7FEE7FEE766
:1002700004480549054A064B704700003130000824
:1002800089010008484E00204854002048500020B2
:1002900048500020704753EA020C00F069802DE9B5
:1002A000F04B4FF00006002B1FBFB3FA83F503FAA3
:1002B00005F424FA05F65E4012BF1643B2FA82F541
:1002C00002FA05F4C5F120051EBF22FA05FC44EA36
:1002D0000C04203556EA044C4FEA144418BF641C41
:1002E0004FF000084FF00009904271EB030C39D336
:1002F000002919BFB1FA81F701FA07F6B0FA80F7C1
:1003000000FA07F6C7F120071EBF20FA07FC46EAED
:100310000C062037B6FBF4FCA7EB0507103F07F0EF
:100320001F0BCBF120062CFA06F60CFA0BFB44BF90
:10033000B3460026202FA4BF5E464FF0000B5BEAB9
:10034000060C08BF4FF0010B19EB0B0948EB060830
:10035000ABFB027C06FB02CC0BFB03CCC01B71EB9E
:100360000C01C1E70B46024641464846BDE8F08B0A
:1003700013B5084318BF4FF0FF300146AFF30080BC
:10038000BDE81C4070474FF0000200B5134694468C
:100390009646203922BFA0E80C50A0E80C50B1F1DD
:1003A0002001BFF4F7AF090728BFA0E80C5048BFF1
:1003B0000CC05DF804EB890028BF40F8042B08BF8F
:1003C000704748BF20F8022B11F0804F18BF00F88B
:1003D000012B70477047704770477047004870475F
:1003E000680000207546FFF7F9FFAE460500694634
:1003F000534620F00700854618B020B5FFF738FFB8
:10040000BDE820404FF000064FF000074FF0000815
:100410004FF0000BAC46ACE8C009ACE8C009ACE852
:10042000C009ACE8C00921F007018D46704710B53E
:100430000446AFF300802046BDE81040FFF703BF3D
:10044000FEE7000040F2E050C2F2000000F09EB96A
:1004500040F28870C2F2000000F016BD40F2086061
:10046000C2F2000000F010BD40F2E870C2F20000DD
:1004700000F00ABD40F26860C2F2000000F004BD66
:1004800040F2C860C2F2000000F0FEBC40F22870EA
:10049000C2F2000000F0F8BC7047000072B600BF66
:1004A000FEE7000090F82020013A012A08D80068F1
:1004B00000F114020020136819431160704700BF57
:1004C00000F1240201204FF48021136819431160C8
:1004D0007047000010B590F820E0D0F800C0AEF1F1
:1004E000010EBEF1010FDCF808E011D81EF0E05F4C
:1004F00018D0CEF3016E012000FA0EF018608B6860
:10050000D3B14868CC6844EAC000034318E000BF98
:1005100000F1240101204FF480220B681A430A6085
:1005200010BD00BF00F1240101204FF400120B6840
:100530001A430A6010BD00BF0868CB6843EA405305
:100540000CEB0E10C0F880310B69C0F88431097DC6
:10055000012905D100F5C2710B6843F480730B606B
:100560005168C0F88C11126800F5C071C0F888217C
:10057000002001220B681A430A6010BD90F8202069
:10058000013A012A30D8B0B546F20060C4F200004A
:10059000026842F001020260026822F47C520260AA
:1005A000D1F814E0CC694A6A0368012C43EA0222BC
:1005B00002600EF01F024FF0010303FA02F2C3695A
:1005C0006FEA020C23EA0203C36113D02CBBC36899
:1005D00003EA0C03C360CB688C8844EA034300EB56
:1005E000CE0423640B4611E0416A41F4802141624C
:1005F00001207047C3681343C3600B688C8844EACA
:10060000034300EBCE04236401F10C038C681B88C8
:1006100043EA044300EBCE04636443688D6943EA14
:100620000204D1F810E0096A002D08BF03EA0C04A7
:1006300044604369BEF1000F43EA020408BF03EAC5
:100640000C040129446102D1C1691143C1610168EF
:1006500021F0010101600020B0BD000070470000E2
:1006600010B590F82040013C012C7BD8D0F800C098
:1006700000290CBFDCF80C40DCF81040A4077BD04C
:100680000CEB011CDCF8B0410CF5D87E14F004042E
:100690009460DCF8B04119BFE4085460640D146044
:1006A000DEF800400CF5DA7E04F00204D460DCF8D9
:1006B000B44124075ABFDEF8004004F00F040824B8
:1006C0001461DEF800400029C4F307249461DEF8C9
:1006D00000404FEA14445461DCF8B8211A700268F3
:1006E00002EB0112D2F8B8214FEA12225A700268C6
:1006F00002EB0112D2F8B8214FEA12429A70026856
:1007000002EB0112D2F8B8214FEA1262DA700268E5
:1007100002EB0112D2F8BC211A71026802EB01123D
:10072000D2F8BC214FEA12225A71026802EB011280
:10073000D2F8BC214FEA12429A71026802EB011210
:10074000D2F8BC214FEA1262DA7100680CBF00F1E6
:100750000C0100F11001002020220B681A430A60EE
:1007600010BD00BF00F1240101204FF480220B686E
:100770001A430A6010BD00BF00F1240101204FF4AC
:1007800000120B681A430A6010BD00002DE9F04FFB
:1007900081B0044600684669D0F804908768D0F8B4
:1007A0000CB0D0F810A0D0F81880F10704D10025C3
:1007B00030071DD424E000BFF90710D00121BA078B
:1007C000816009D4780700F1AF80380700F1B68066
:1007D000204600F0F1FA02E0204600F0EFFA002592
:1007E000F80500F18780F80300F1B180300707D5E4
:1007F0001BF0100004D0206845F400751021C16082
:10080000700708D51BF0080005D020680821C160DA
:10081000204600F0A3F9B00706D52068C06880071D
:1008200002D0204600F09CF9700607D51AF010009F
:1008300004D0206845F4806510210161B00608D518
:100840001AF0080005D0206808210161204600F058
:100850007FFAF00606D520680069800702D020469E
:1008600000F078FAB00308D519F0100005D0206820
:1008700010214160204600F06FFAF00308D519F00E
:10088000080005D0206808214160204600F0A0FA49
:10089000300440F19B805FEA497040F1948006F497
:1008A000807008EA102028435FEA8871014648BF3B
:1008B00041F00201B20558BF01465FEA48700D469B
:1008C00048BF45F00405700558BF0D46300540F19E
:1008D0007A8018F0700000F0768010380009052842
:1008E0006CD8DFE800F003595D61656945F00805E3
:1008F00064E000BF20684FF48071BA0581600BD4BA
:10090000780515D438051DD4204600F059FAF803AF
:100910007FF56CAF1BE000BF204600F053FAF803F0
:100920007FF564AF13E000BF4FF4006558E700BFE8
:1009300005F50055F8037FF559AF08E04FF48055F1
:100940004EE700BF05F58045F8037FF54FAF2068FF
:100950004FF48031BA0381600AD4780310D438038D
:1009600014D4204600F030FA30073FF541AF47E796
:10097000204600F02BFA30073FF53AAF40E700BFC2
:1009800005F5004530073FF533AF39E705F580350C
:1009900030073FF52DAF33E745F010050EE000BFFF
:1009A00045F020050AE000BF45F0400506E000BF25
:1009B00045F0800502E000BF45F48075206881693C
:1009C00021F07001816120680421416055B1606AA5
:1009D00040EA05012046616201B0BDE8F04FFFF733
:1009E0003DBE00BF01B0BDE8F08F0000002804BF8D
:1009F00001207047B0B5044690F8200010B9204699
:100A000000F06EF82068016841F00101016000F01B
:100A1000F5FC054620684168C90705D100F0EEFCE9
:100A2000401B0B28F6D310E0016821F002010160A1
:100A300000F0E4FC054600BF2068416889070DD539
:100A400000F0DCFC401B0B28F6D3606A052140F463
:100A500000306062012084F82010B0BD217E026861
:100A6000012922F0800208BF80320260617E0268A4
:100A7000012922F0400208BF40320260A17E0268D4
:100A8000012922F0200208BF20320260E17E0268C4
:100A9000012922F0100218BF10320260217F026883
:100AA000012922F0080208BF08320260617F026853
:100AB000012922F0040208BF04320260D4E901C215
:100AC000D4E9033561691A432A431143ACF10102A9
:100AD0001143C16100200121606284F82010B0BD83
:100AE000016846F20040C4F20000814218BF70471E
:100AF00080B586B0002143F630020191C4F20202B3
:100B0000136900F5CE3043F000731361136903F0ED
:100B100000730193019B0191136843F0010313607B
:100B2000126802F001020192019A4FF4C052019240
:100B30000222CDE90221032104910921059101A995
:100B400000F086FB14200521002200F0DFFC1420B9
:100B500000F0CAFC06B0BDE8804070477047000056
:100B6000016846F20042C4F20002914218BF704789
:100B7000F0B589B002AA6B460021FFF771FD02981B
:100B8000A0F2012103291FD80138C0B240F2C03CB5
:100B9000C0EBC002C2F2000C0CEB820081694B1C5E
:100BA0003229836138D8BDF80010BDF80230BDF895
:100BB000044009BA090C9DF806E01BBA24BA8182E8
:100BC0001B0C240C0D466AE0A0F20521062900F258
:100BD0008380FB30C0B240F2C031C0EBC000C2F233
:100BE000000101EB8000D0F8D8114A1C3229C0F86E
:100BF000D8212BD8BDF80010BDF80220BDF8047034
:100C000009BA12BA090C9DF806C0130C3ABAA0F83A
:100C1000D411120C0C4673E0BDF800103CF92240D0
:100C2000BDF80230BDF804700DBA1BBA3EBA9DF88B
:100C300006E0C4EB1547290C1B0CB7F5805F4FEAA3
:100C400016441FDD05696E1E066123E0BDF8001025
:100C5000B0F9C021BDF80230BDF804600FBA390CFC
:100C60001BBA36BA9DF806C0C2EB17471B0CB7F586
:100C7000805F4FEA164233DDD0F8D0717D1EC0F898
:100C8000D05136E0054655F8106F17F5805FBCBFB0
:100C900001362E60858A01EB4636761BC6602CF83D
:100CA00022100AB28F1AB7F5805F018143808480D9
:100CB00080F806E004DD0269013A026108E000BF45
:100CC000034653F8102F17F5805FBCBF01321A603E
:100CD00001EB4231491BC16009B0BDE8F0407047EB
:100CE000D0F8D05117F5805FBEBF00F5E877013529
:100CF0003D60B0F8D44101EB45373F1BC0F8CC71E3
:100D0000A0F8C4210AB2A0F8C2318B1AB3F5805FF3
:100D1000A0F8C811A0F8C01180F8C6C106DDD0F84F
:100D2000D021013AC0F8D02109E000BFD0F8D0218D
:100D300013F5805FBEBF00F5E87301321A6001EB66
:100D40004231091BC0F8CC1109B0BDE8F040704732
:100D5000704700007047000070470000B0B50446BF
:100D600090F8200001281DD1022084F8200020687E
:100D7000016821F00101016000F040FB054600BF61
:100D800020684068C00713D000F038FB401B0B28D8
:100D9000F6D3606A40F400306062052084F82000D9
:100DA0000120B0BD606A40F4002060620120B0BD47
:100DB00000206062B0BD0000704700007047000076
:100DC0007047000070470000704700007047000047
:100DD0007047000070B5866D044600F00FFB94F874
:100DE0003510022928D105462068216C026822F0BE
:100DF00016020260426922F08002426109B9A16CC8
:100E000019B1016821F008010160016821F00101B8
:100E1000016000BF20680068C00715D000F0EEFA3E
:100E2000401B0628F6D320206065032084F8350097
:100E3000002184F8341070BD8020606501200021FD
:100E400084F8341070BD00BFE06D3F2101FA00F05E
:100E5000B060012084F835000020002184F83410AF
:100E600070BD000090F83510022909D1052180F8E5
:100E700035100068016821F0010101600020704711
:100E80008021416501207047F0B581B00446002003
:100E9000009040F26000C2F200000268D4E91660DF
:100EA00048F2B51337680821C1F64E338140394204
:100EB000A2FB03250CD0226813685B0708D51368D2
:100EC00023F004031360B160616D41F001016165BD
:100ED00001218140394208D022685269120604D5A6
:100EE000B160616D41F002016165042181403942C8
:100EF00008D022681268920704D5B160616D41F094
:100F00000401616510218140394217D020680268D0
:100F1000120713D5B16002680168520308D4C905ED
:100F200008D4016821F008010160216C21B905E0B5
:100F300008033FD4216C09B120468847E16D202089
:100F400000FA01F23A4241D020680368DB063DD541
:100F5000B26094F835300268052B1BD122F01602DE
:100F60000260426922F080024261226C0AB9A26CDE
:100F70001AB1026822F0080202603F208840B06087
:100F8000012084F83500216D0020002984F8340008
:100F900052D157E00168520310D4C90512D4016838
:100FA00021F010010160012084F83500002084F850
:100FB000340007E0A16C0029BED1BFE7080301D4CB
:100FC000616C00E0E16B09B120468847606DC8B3F1
:100FD000606DC0072ED0052084F835002068A90A6E
:100FE000026822F001020260009A01328A420092F5
:100FF0001AD80268D20717D0009A01328A420092AA
:1010000012D80268D2070FD0009A01328A420092A9
:101010000AD80268D20707D0009A01328A420092A9
:1010200002D80268D207DFD1012084F83500002001
:1010300084F83400E16C29B1204601B0BDE8F040ED
:10104000084700BF01B0F0BD2DE9F041044600F0B3
:10105000D5F9ECB10546022084F83500002021685E
:1010600084F83400086820F00100086021680868EE
:10107000C00711D000F0C2F9401B0528F6D903259E
:1010800020230320636584F83550BDE8F08100BF5C
:101090000120BDE8F08100BF086848F23F02CFF2AE
:1010A0001002D4E9013500EA020C04F10C0898E8BA
:1010B000C10143EA0C032B431843D4E9072E304304
:1010C00038431043626A40EA0E00042A40EA0803EB
:1010D0001CD1206BD4E90A2E40EA0E0018430860A8
:1010E0004869BEF1000F20F0030040EA020040F022
:1010F000040C11D0B8F5005F36D0B8F1000F45D11F
:10110000022A46D0012A3BD032B942E00B6048693E
:1011100020F0070040EA020C01F0F8004AF6AB228A
:101120001038CAF6AA22A0FB02231A0945F2F613C8
:10113000C1F814C0C0F600039A5C40F2FF335F2888
:101140004FF03F0021EA030100FA02F088BF0431AA
:10115000C4E916128860002301250020636584F825
:101160003550BDE8F08100BF032AD5D801254023C2
:101170000120DFE802F0030E030500BF82E700BF95
:10118000AEF1C070B0FA80F0400904E0032A04D345
:10119000C2D1CEF300600028BED00125402301203B
:1011A000636584F83550BDE8F081000090F834C0E4
:1011B000BCF1010F04BF0220704770B54FF0010C65
:1011C00080F834C0D0F858E090F835C0BCF1010F79
:1011D00038D14FF0020C80F835C04FF0000CC0F849
:1011E00054C0D0F800C08468056CC06DDCF80060A5
:1011F000402C26F48026CCF80060CCF804300B4656
:1012000004BF13460A463F2101FA00F0CCF808302B
:10121000CCF80C20CEF80800DCF8000040F01600F6
:10122000CCF800002DB1DCF8000040F00800CCF84C
:101230000000DCF8000040F00100CCF800000020C5
:1012400070BD00BF002180F83410022070BD000086
:101250002DE9F04F82B000F13E4707F1FF77860598
:1012600046EA972741F60046C4F20206082243F6F2
:10127000004EB04208BF0722C4F2010E072F38BF4C
:101280003A46002600274FF00008009209E000BF10
:1012900008F101080237B8F1100F06F1040600F05A
:1012A000A3800D68012202FA08F415EA0409EFD0C0
:1012B000D1F804B003220BF0030CACF10105BA40E5
:1012C000012D6FEA020A0FD88268CD6802EA0A028D
:1012D000BD402A4382604268A243CBF3001404FA63
:1012E00008F42243426005E0BCF1030F02D14FF045
:1012F000030C1EE0C2688C6802EA0A02BC4022436A
:10130000BCF1020FC26014D16FF0030202EA58026E
:101310000244D2F820C006F01C040F230D69A3403C
:101320002CEA0303A5402B431362D1F804B00BF061
:10133000030C02680CFA07F302EA0A021A431BF4D0
:10134000403F0260A4D0002243F644030192C4F25D
:1013500002031A684FF6084C42F480421A601A6879
:10136000CFF6FF7C02F480420192019A28F003023A
:10137000724452F80C3006F00C050F24AC40A34325
:10138000009C04FA05F52B4342F80C30DEF80820E7
:101390004B6842EA090543F60C4CDC0258BF22EACE
:1013A0000905CEF80850C4F2010CDCF800209C02BC
:1013B00042EA090558BF22EA0905CCF80050DEF8D8
:1013C00004209C0342EA090558BF22EA0905CEF829
:1013D0000450DEF80020DB0342EA090558BF22EA88
:1013E0000905CEF8005053E702B0BDE8F08F0000C9
:1013F000002A08BF090481617047000044F6F030FC
:10140000C2F200000068704740F2040044F6F03178
:10141000C2F20000C2F2000100780A6810440860BD
:101420007047000080B543F60040C4F20200016836
:1014300041F400710160016841F48061016001685C
:1014400041F480710160032000F08CF80F2000F05F
:1014500005F800F027F8002080BD000070B540F2CC
:101460000406C2F2000640F260013278C2F20001C6
:101470004FF47A730968B3FBF2F20446B1FBF2F160
:10148000084600F003FC0F2C4FF0010508D838B9CE
:101490004FF0FF3021460022002500F037F874603D
:1014A000284670BD82B0002043F640010190C4F28E
:1014B00002014A6842F480424A604A6802F480426B
:1014C0000192019A00900868002240F08050086064
:1014D00008680F2100F08050009000986FF0010024
:1014E00002B000F013B80000002848BF704700F0B9
:1014F0001F01012202FA01F11C2202EAD0004EF281
:101500000012CEF2000281507047000010B54EF676
:101510000C5CCEF2000CDCF80030C3F3022E8EF02F
:101520000704042C28BF0424BEF103034FF0FF3E40
:101530000EFA04F438BF0023A14399400EFA03F3D6
:101540009A43114300F00F0200F160430901043A8D
:1015500003F564436244002848BF02F10C0319708C
:1015600010BD00004EF60C51CEF200010A684FF695
:10157000FF031A4060F30A2242F0806040F0FD70E1
:1015800008607047002804BF012070472DE9F04132
:1015900043F60808C4F202080446D8F8F8030D46DA
:1015A00000F00700884207D288F8F853D8F8F8030B
:1015B00000F00700A84277D12068810717D54107BE
:1015C00005D5D8F8001041F4E051C8F80010010723
:1015D00005D5D8F8001041F46041C8F80010D8F8DB
:1015E0000010A26821F0F0011143C8F80010C007F4
:1015F00040D1D8F8F80300F00700A84207D988F8CE
:10160000F853D8F8F80300F00700A8424CD120683E
:10161000410707D5D8F80010E26821F4E0511143E2
:10162000C8F80010000708D5D8F80000216920F498
:10163000604040EAC100C8F8000000F07DF8D8F82A
:10164000001045F2DE12C1F30311C0F60002515C36
:1016500040F2600220FA01F140F20800C2F20000FC
:101660000068C2F200021160FFF7F8FE0020BDE83A
:10167000F08100BF6068811E022907D258F8081C5B
:1016800089015CBF0120BDE8F08111E0012807D18C
:1016900058F8081C89035CBF0120BDE8F08107E011
:1016A00058F8081C890703D40120BDE8F08100BF69
:1016B000D8F8001021F003010843C8F80000FFF734
:1016C0009DFE064641F28837D8F80000616800F0B8
:1016D0000C00B0EB810F8CD0FFF790FE801BB8425E
:1016E000F2D90320BDE8F08140F2600043F6080122
:1016F000C2F20000C4F202010068096845F2EE126D
:10170000C1F38221C0F60002515CC840704700005E
:1017100040F2600043F60801C2F20000C4F2020188
:101720000068096845F2EE12C1F34231C0F60002CA
:10173000515CC8407047000010B543F60404C4F281
:101740000204606800F00C0008280BD0042819BFC0
:1017500042F20040C0F2F40047F64000C0F27D10B3
:1017600010BD00BF206821682368490247F6400188
:10177000C0F27D1100F03F02C3F388105CBF42F25B
:101780000041C0F2F401A1FB00010023FEF783FD3C
:1017900021680222C1F3014102EB4101B0FBF1F0EB
:1017A00010BD0000002804BF012070472DE9F04162
:1017B00082B00446007843F60006C007C4F2020671
:1017C0000CD0B06800F00C00042840F08180306834
:1017D000800303D56068002800F06A8120788007C4
:1017E0001BD5B06810F00C0F09D0B06800F00C00E9
:1017F000082840F087807068400200F183803068DC
:10180000800703D5E068012840F0528130682169E3
:1018100020F0F80040EAC10030602078000713D4BF
:10182000207840072AD4A569002D00F03C81B068DB
:1018300000F00C00082840F0A180012D40F010813C
:10184000012002B0BDE8F0816069002840F200008C
:10185000C4F2472000F07E800121C0F8801EFFF70F
:10186000CDFD0546706F8007DAD4FFF7C7FD401B3A
:101870000228F7D9032002B0BDE8F081306C5FEA9E
:10188000C0080AD400200190306C40F080503064D1
:10189000306C00F080500190019847F20007C4F2CC
:1018A00000073868C00547D4386840F48070386055
:1018B000FFF7A4FD054600BF3868C0053CD4FFF71C
:1018C0009DFD401B0228F7D9032002B0BDE8F0813E
:1018D000B06800F00C00082803D1706840023FF5A2
:1018E00076AF6068B0F5803F07D0B0F5A02F40F02C
:1018F0009B80306840F480203060306840F4803055
:1019000030609BE0E06800285CD00020C4F24720F3
:1019100001210160FFF772FD054600BF30688007B6
:101920003FF574AFFFF76AFD401B0228F6D903208C
:1019300002B0BDE8F08100BFA068012805D00528ED
:1019400054D1306F40F004003067306F40F0010038
:10195000306755E00021C0F8801EFFF74FFD0546B7
:10196000706F80077FF55CAFFFF748FD401B0228D2
:10197000F6D9032002B0BDE8F08100BF0027C4F211
:10198000472700203866FFF739FD022D05460DD1A7
:101990003068800140F19080FFF730FD401B022845
:1019A0004FF00300F4D902B0BDE8F0813068800147
:1019B00079D5FFF723FD401B02284FF00300F5D92E
:1019C000F1E700BF0020C4F2472000210160FFF7CB
:1019D00015FD0546306880077FF51FAFFFF70EFD48
:1019E000401B02284FF00300F4D9DCE7316F0028D8
:1019F00021F001013167316F21F0040131677DD0A1
:101A0000FFF7FCFC054641F2883700BF306F8007C6
:101A100000F18680FFF7F2FC401BB842F6D90320A4
:101A200002B0BDE8F08100BF3168002821F48031A8
:101A30003160316821F4802131607BD0FFF7DEFC1A
:101A4000054600BF306880033FF5C8AEFFF7D6FCFF
:101A5000401B6428F6D9032002B0BDE8F08100BF26
:101A60007068E16900F480028A4221D1216A00F0A5
:101A70003F028A421CD147F6C071626A0140B1EB55
:101A8000821F15D1A16A4FF6FF73C903994300F471
:101A90004032A1F580318A420AD1E16A00F07060DB
:101AA000B0EB016F04D1002002B0BDE8F08100BFAF
:101AB000012002B0BDE8F08104F11C052FCD0843E0
:101AC00040EA8210D9034FF6FF729143A1F58031AD
:101AD00040EA05600843706001203866FFF78EFC1D
:101AE000044600BF30688001DDD4FFF787FC001B8F
:101AF00002284FF00300F5D955E700BFFFF77EFC41
:101B0000054641F2883700BF306F800708D5FFF7E0
:101B100075FC401BB8424FF00300F5D943E700BF06
:101B2000B8F1000F3FF57FAE306C20F0805030648C
:101B300079E600BFFFF762FC054600BF306880030E
:101B40007FF54CAEFFF75AFC401B64284FF00300B2
:101B5000F4D928E770B538B10446406A30B10020A6
:101B6000206104F1140007E0012070BD6068B0F549
:101B7000827F03D004F11C00002101600026A662D0
:101B800094F8510020B9204684F8506000F03CF8E9
:101B9000022084F8510094E80F0001F48271056876
:101BA00002F4044225F040050560114403F400628C
:101BB0002369114403F002026369114403F0010236
:101BC000A369E569114403F40072114405F0380279
:101BD000256A114405F08002A56A114305F40052FC
:101BE00011430160626A042101EA134102F010020C
:101BF00011444160C16921F40061C1610120666541
:101C000084F85100304670BD016843F20000C4F210
:101C10000100814218BF704780B586B0002143F6AD
:101C200030020191C4F20202536900F5504043F4BE
:101C300080535361536903F480530193019B0191D5
:101C4000136843F001031360126802F0010201926D
:101C5000019AE02201920222CDE90221032104919E
:101C60000521059101A9FFF7F3FA06B0BDE8804010
:101C7000704700004EF21001CEF200010A680428FD
:101C800022F0040208BF04320A607047411E00209F
:101C9000B0EB116F1CBF012070474EF21002CEF264
:101CA000000251604EF62351CEF20001F0230B707A
:101CB0000721906011607047704700007047000076
:101CC00090F83C20012A4FF0020254D010B580F861
:101CD0003D200268D2F804E0D2F808C00C682EF06B
:101CE0007003234341F2FF74C4F20004A242536024
:101CF0000EDC40F2FF73C4F200039A4216DCB2F12C
:101D0000804F2BD040F20043C4F2000324E000BF18
:101D100040F2FF33C4F201039A4213DC41F60003A0
:101D2000C4F200039A4219D0002313E040F60003E6
:101D3000C4F200039A4211D040F60043C4F20003FB
:101D40000AE000BF44F20003C4F201039A4205D046
:101D500040F20043C4F201039A4204D149682CF0D6
:101D60008003194391600121002280F83D1080F822
:101D70003C20BDE81040104670470000002804BF1A
:101D80000120704710B5044690F83D0028B90020A6
:101D900084F83C00204600F01FF8022084F83D0043
:101DA0002068211D01F054F9012084F8460084F8D0
:101DB0003E0084F83F0084F8400084F8410084F835
:101DC000420084F8430084F8440084F8450084F815
:101DD0003D00002010BD0000006841F20041C4F247
:101DE0000001884218BF704780B582B00020019082
:101DF00043F64000C4F202000168002241F02001D5
:101E000001600068052100F0200001900198372052
:101E1000FFF77CFB372002B0BDE88040FFF764BBD2
:101E200090F83D1001291CBF01207047022180F865
:101E30003D10006841F2FF72C168C4F20002904296
:101E400041F00101C1600DDC40F2FF71C4F20001FC
:101E5000884215DCB0F1804F2AD040F20041C4F234
:101E6000000123E040F2FF31C4F20101884213DC9B
:101E700041F60001C4F20001884219D0002113E0AC
:101E800040F60001C4F20001884211D040F6004142
:101E9000C4F200010AE000BF44F20001C4F20101F3
:101EA000884205D040F20041C4F20101884206D1C7
:101EB000816801F00701062904BF0020704701680E
:101EC00041F00101016000207047000070470000F0
:101ED00070B504460068C5680669B10716D515F0E7
:101EE000020113D06FF002010161012121778069A5
:101EF000800703D02046FFF7E9FF05E0204600F009
:101F00008FF8204600F08EF800202077700719D552
:101F100015F0040016D020686FF004010161022161
:101F20002177806910F4407F04D02046FFF7CEFF70
:101F300006E000BF204600F073F8204600F072F87B
:101F400000202077300717D515F0080014D020683E
:101F50006FF00801016104212177C069800703D077
:101F60002046FFF7B3FF05E0204600F059F8204671
:101F700000F058F800202077F00619D515F0100071
:101F800016D020686FF01001016108212177C06927
:101F900010F4407F04D02046FFF798FF06E000BF12
:101FA000204600F03DF8204600F03CF80020207765
:101FB000F00718BF15F0010002D1300609D412E075
:101FC00020686FF001010161204600F02DF8300615
:101FD00009D515F0800006D020686FF080010161FE
:101FE0002046FFF769FE700609D515F0400006D0BF
:101FF00020686FF040010161204600F065F8B006EE
:1020000058BF70BD15F0200008D021686FF0200285
:1020100020460A61BDE87040FFF750BE70BD000069
:10202000704700007047000070B582B040F20A119E
:102030000446C2F2000100200C2201F08BFB206854
:1020400041F20041C4F20001884234D140F218103C
:10205000C2F20000007870BB40F21820C2F200000B
:10206000451C9FED160A2846012101F0AFFFBDEE89
:10207000C00A10EE104A9FED120A2846022101F014
:10208000A5FFBDEEC00A10EE106A9FED0E0A2846AD
:10209000032101F09BFF40F2C030BDEEC00AC2F246
:1020A000000010EE103A002500F2162021463246BC
:1020B000009501F0FBFF02B070BD00BF00E0AB4532
:1020C00000C0A34400F0EB457047000070470000DB
:1020D00070470000B0B582B0044600680168C3686C
:1020E000426901F02F05202D03F0200506D12DB106
:1020F000204602B0BDE8B04001F076B95FEA017C4D
:102100001EBF02F0010E03F4907212EB0E0243D1D7
:10211000226BCD0618D5012A16D113F0100213D068
:102120000021019101680191416801910199406983
:1021300040063BD4A08DE18DE28D002A18BF884275
:1021400040F0F28102B0B0BD0A0640F1E78013F022
:10215000800200F0E38094F841102129F2D1A168B7
:10216000B1F5805F03D12169002900F06382216A03
:102170004A1C226209784160E18C01390A04E18439
:10218000E0D1C16821F08001C160C16841F0400127
:10219000C16002B0B0BD00BFCA0718BF13F480729F
:1021A00040F0D0804A0700F1D380D8E0E06B0168AE
:1021B00049688AB2002AC5D0A38D9A42C2D2E1856D
:1021C000C069B0F5807F00F09D80206850E8030F63
:1021D000216820F4807041E80302DAB1206850E8F9
:1021E000030F216820F4807041E8030292B1206857
:1021F00050E8030F216820F4807041E803024AB1DF
:10220000206850E8030F216820F4807041E8030241
:10221000002ADAD1206850E8050F216820F001007B
:1022200041E80502BAB3206850E8050F216820F0A4
:10223000010041E8050272B3206850E8050F2168EB
:1022400020F0010041E805022AB3206850E8050F9C
:10225000216820F0010041E80502002ADAD11AE0E5
:10226000206850E8050F216820F0400041E8050291
:10227000DAB1206850E8050F216820F0400041E8FD
:10228000050292B1206850E8050F216820F0400057
:1022900041E805024AB1206850E8050F216820F0A6
:1022A000400041E80502002ADAD1202084F84200EB
:1022B00000202063206850E8030F216820F0100000
:1022C00041E80302DAB1206850E8030F216820F0EA
:1022D000100041E8030292B1206850E8030F216822
:1022E00020F0100041E803024AB1206850E8030FD3
:1022F000216820F0100041E80302002ADAD1E06BE7
:10230000FEF768FD02206063A08DE18D401A81B266
:10231000204602B0BDE8B040FFF7D8BE49067FF5C1
:1023200011AF13F040013FF40DAFC16821F040013F
:10233000C1602021204684F8411002B0BDE8B040C1
:1023400000F0CCBB626C42F0010262644A0706D521
:10235000BEF1000F03D0626C42F0020262648A0791
:1023600006D5BEF1000F03D0626C42F00402626435
:10237000BCF1000F06D55EEA050203D0626C42F0A4
:1023800008026264626C002A3FF4DCAE890604D560
:102390001DB1204601F028F820684069616C00F00A
:1023A000400001F00801401800F0B680206850E8B5
:1023B000030F216820F4907041E80302BAB320684B
:1023C00050E8030F216820F4907041E8030272B3D3
:1023D000206850E8030F216820F4907041E8030260
:1023E0002AB3206850E8030F216820F4907041E878
:1023F0000302002ADAD11AE0206850E8050F2168AC
:1024000020F0010041E80502DAB1206850E8050F2C
:10241000216820F0010041E8050292B1206850E8EF
:10242000050F216820F0010041E805024AB120684B
:1024300050E8050F216820F0010041E80502002A5C
:10244000DAD1206B012824D1206850E8030F2168DD
:1024500020F0100041E80302DAB1206850E8030FD1
:10246000216820F0100041E8030292B1206850E892
:10247000030F216820F0100041E803024AB12068F0
:1024800050E8030F216820F0100041E80302002A01
:10249000DAD1202084F842000020206320684069BF
:1024A000400640F1C180206850E8050F216820F007
:1024B000400041E80502DAB1206850E8050F2168C4
:1024C00020F0400041E8050292B1206850E8050F75
:1024D000216820F0400041E805024AB1206850E838
:1024E000050F216820F0400041E80502002ADAD1FA
:1024F000E06B002800F0988043F2A911C0F60001BB
:102500000165FEF7AFFC00283FF41CAEE06B016DE7
:1025100002B0BDE8B04008472046FFF7D9FD0020D3
:10252000606402B0B0BD00BF401A00BF216851E82E
:10253000031F226821F4907142E80313BBB32168A2
:1025400051E8031F226821F4907142E8031373B32A
:10255000216851E8031F226821F4907142E80313B7
:102560002BB3216851E8031F226821F4907142E8DF
:102570000313002BDAD11AE0216851E8051F226805
:1025800021F0010142E80513DBB1216851E8051F84
:10259000226821F0010142E8051393B1216851E856
:1025A000051F226821F0010142E805134BB12168A3
:1025B00051E8051F226821F0010142E80513002BB4
:1025C000DAD1202184F8421000212163216851E8EA
:1025D000031F226821F0100142E80313DBB12168D8
:1025E00051E8031F226821F0100142E8031393B160
:1025F000216851E8031F226821F0100142E803130B
:102600004BB1216851E8031F226821F0100142E814
:102610000313002BDAD1022281B22046626302B09A
:10262000BDE8B040FFF752BD204602B0BDE8B04063
:10263000FFF74EBD216A31F8022B6FF35F22426033
:10264000216299E5002804BF0120704710B50446B7
:1026500090F8410028B9002084F84000204600F09E
:1026600021F8242084F841002068C16821F4005139
:10267000C160204600F038FF2068016921F49041D4
:102680000161416921F02A014161C16841F40051B1
:10269000C16000202021606484F8411084F8421059
:1026A000606310BD2DE9F04F87B00446006844F226
:1026B0000041C4F2000100278842CDE90577CDE949
:1026C000037702977AD044F60001C4F200018842F1
:1026D00000F0F88044F60041C4F20001884240F066
:1026E0006381002643F630000196C4F202000169BE
:1026F00046F2280841F4002101610169C4F2020890
:1027000001F40021019101990196016841F0040151
:102710000160006802A900F00400019001984FF4E4
:10272000406002900220CDE90306032005900820B6
:1027300006900020C4F2020000F50060FEF788FD5C
:1027400040F2086508F11800C2F200054FF000677A
:102750004FF4806A4FF48079C5E900072846C5E93F
:102760000266C5E904A6C5E90669C5E90866FEF77B
:102770006BFC002818BFFDF791FEE563AC6340F2E7
:10278000686508F14800C2F200054021C5E900076C
:1027900005F1080080E842042846C5E90566C5E958
:1027A00007966E62FEF750FC002818BFFDF776FE14
:1027B000A56305F138003425EDE000BF43F6300095
:1027C0000197C4F202000169002541F40031016162
:1027D0000169C4F2020501F40031019101990197E8
:1027E000016802AE41F00101016001684FF0020989
:1027F00001F0010101910199019701684FF0030A6D
:1028000041F00801016000684FF0070B00F008007C
:10281000019001980420029028463146CDE90397A3
:10282000CDF814A0CDF818B0FEF712FD04A84FF0B3
:10283000400880E8800C46F2280B05F540603146E0
:10284000CDE90289C4F2020BFEF702FD40F22875C1
:102850000BF17800C2F200054FF000664FF4806A79
:102860004FF4807985E841012846C5E9037AC5E936
:102870000577C5E907976F62FEF7E6FB002818BFEA
:10288000FDF70CFEA563AC6340F2C8650BF1600078
:10289000C2F200050021C5E900062846C5E902117B
:1028A000C5E904A1C5E90619C5E90811FEF7CCFB85
:1028B000002818BFFDF7F2FDE56305F13800262575
:1028C00069E000BF002643F630000196C4F2020022
:1028D000016946F2280841F4802101610169C4F2CE
:1028E000020801F48021019101990196016841F0EB
:1028F00002010160006802A900F002000190019845
:102900004FF4406002900220CDE9030603200590B9
:10291000072006900020C4F2020000F58060FEF758
:1029200097FC40F2E87508F13000C2F200054FF064
:1029300000674021C5E9000705F108004FF4806AEF
:102940004FF4807980E842042846C5E90566C5E968
:1029500007966E62FEF778FB002818BFFDF79EFD14
:10296000A563AC6340F28875C2F200052846C5E94C
:102970000087C5E90266C5E904A6C5E90669C5E997
:102980000866FEF761FB002818BFFDF787FDE563C9
:1029900005F1380027250460284605210022FEF7AE
:1029A000B5FD2846FEF7A0FD07B0BDE8F08F00009A
:1029B00090F84230202B07D100294FF0010318BFB7
:1029C000002A05D11846704702231846704700BFF9
:1029D00000230363816222218285C285436480F8DB
:1029E00042100169006819B1C16841F48071C16089
:1029F000416941F001014161C16841F02001C160BC
:102A000018467047006844F20041C4F20001884251
:102A100018BF704740F6EC70C2F20000007800F07A
:102A20000FBF0000B0B5044690F8410020281CBF3D
:102A30000220B0BD00294FF001004DD0002A1346FE
:102A400008BFB0BD4FF0000C21202162A384E384B5
:102A5000C4F844C084F84100A06B43F2313E43F215
:102A6000E1352268C0F6000EC0F60005C0E90FE5AA
:102A700043F2B515C0F600050432C0E9135CFEF759
:102A800095FB20686FF04001016000BF206850E8AE
:102A9000050F216840F0800041E80502DAB12068A6
:102AA00050E8050F216840F0800041E8050292B12E
:102AB000206850E8050F216840F0800041E80502D9
:102AC0004AB1206850E8050F216840F0800041E8D5
:102AD0000502002ADAD10020B0BD000070470000D6
:102AE00070470000FEE7000080B540F2E05046F27B
:102AF0000041C2F20000C4F200010322002380E87A
:102B00000E0000F10C014FF4C02C4FF4A00E81E830
:102B1000085083618383FDF769FF002808BF80BDEB
:102B2000BDE88040FDF7BABC80B582B000200190BE
:102B300043F63000C4F202000168002241F40011A3
:102B400001600068052100F40010019001980C203C
:102B5000FEF7DCFC0C20FEF7C7FC0D20052100224F
:102B6000FEF7D4FC0D20FEF7BFFC0E20052100224D
:102B7000FEF7CCFC0E20FEF7B7FC0F20052100224B
:102B8000FEF7C4FC0F20FEF7AFFC10200521002249
:102B9000FEF7BCFC1020FEF7A7FC11200521002247
:102BA000FEF7B4FC112002B0BDE88040FEF79CBCEB
:102BB00070B596B01C480DF1400E0F901AA000F1B0
:102BC000040C9CE81E1080698EE81E1015900FA85A
:102BD000002101F0CFFA40F2C806C2F200061949FE
:102BE000306018A0051D08913ECD80690DF1240CC0
:102BF0008CE83E000E9008A8002101F0BBFA1849AD
:102C0000706017A0051D01912ECDD0E905400DF192
:102C1000080C8CE82E00CDE9064001A8002101F047
:102C2000A9FAB06016B070BD1A520008652F0008EE
:102C30000000000000000000800000000000000014
:102C4000000000000E520008554700080000000078
:102C500000000000800000000000000000000000F4
:102C6000FE5100085D470008000000000000000061
:102C70008000000000000000000000002DE9F04F7F
:102C800087B0002443F6300006940194C4F2020099
:102C90000168002641F0800101600168C4F202066B
:102CA00001F080010191019901940168002241F035
:102CB000010101600168082701F0010101910199FA
:102CC0000194016841F004010160016801F0040110
:102CD000019101990194016841F0020101600168CC
:102CE00001F00201019101990194016841F008018C
:102CF00001600068082100F008000190019830464A
:102D0000FEF776FB06F500652846102100224FF0FD
:102D1000100AFEF76DFB06F5406840464FF48071DF
:102D200000224FF48079FEF763FB029702AF4FF069
:102D3000010B30463946CDE903B40594FEF788FA15
:102D400030463946CDE902A40494FEF781FA2846BC
:102D50003946CDE902ABCDE90444FEF779FA4046A5
:102D60003946CDE9029BCDE90444FEF771FA07B07C
:102D7000BDE8F08F80B540F6480043F20001C2F292
:102D80000000C4F201014FF48272002380E80E00BB
:102D900000F114014FF4007C4FF0180E81E8085048
:102DA0000A21C0E90333C0E90833C0E90A31FEF75C
:102DB000D1FE002808BF80BDBDE88040FDF76EBB96
:102DC00080B582B040F6A00041F200420021C2F27C
:102DD0000000C4F2000242F2CF034FF0C70CCDE96D
:102DE0000011C0E90023C0E9021C8161FEF7C6FFA3
:102DF000002818BFFDF752FB40F6A000C2F2000009
:102E00006946FEF75DFF002818BFFDF747FB02B0DB
:102E100080BD000080B540F6781044F60041C2F253
:102E20000000C4F2000100234FF00C0C4FF4E1321B
:102E300080E80E00C0E90333C0E905C3C361FFF7B2
:102E400001FC002808BF80BDBDE88040FDF726BB1F
:102E500080B540F6E80044F20041C2F20000C4F23E
:102E6000000100234FF00C0C4FF4E13280E80E001B
:102E7000C0E90333C0E905C3C361FFF7E3FB0028E2
:102E800008BF80BDBDE88040FDF708BB80B540F6B7
:102E9000301044F60001C2F20000C4F20001002329
:102EA0004FF00C0C4FF4165280E80E00C0E90333CB
:102EB000C0E905C3C361FFF7C5FB002808BF80BD9B
:102EC000BDE88040FDF7EABAFEE70000FEE700003B
:102ED000EFF30980BFF36F8F154B1A681EF0100FC8
:102EE00008BF20ED108A20E9F04F10602DE909009D
:102EF0004FF0500080F31188BFF34F8FBFF36F8FF7
:102F000001F052FE4FF0000080F31188BDE8090087
:102F100019680868B0E8F04F1EF0100F08BFB0EC59
:102F2000108A80F30988BFF36F8F704700BF00BF1E
:102F300078010020000000000000000000000000F8
:102F4000074B19680868B0E8F04F80F30988BFF3B1
:102F50006F8F4FF0000080F31188704700BF00BFF3
:102F600078010020012001F0F7F8FBE780B5FEF7BB
:102F70004BFA01F099FF012808BF80BDBDE88040F1
:102F800001F00EBFB0B592B0002443F64000CDE989
:102F90000A44CDE908440594CDE90344CDE9014450
:102FA0000094C4F202000168022541F080510160E2
:102FB000006800F080500090009847F200000094F4
:102FC000C4F20000016841F480410160006800F42F
:102FD000804000900098012006904FF480300790C8
:102FE0004FF480000D9019200E904FF4A870CDE999
:102FF0000F050420119006A80C95FEF7D3FB18B11D
:1030000072B600BFFEE700BF0F20CDE901054FF407
:10301000A05004904FF48050059001A8052103941E
:10302000FEF7B0FA10B172B6FEE700BF12B0B0BD45
:103030004EF68850CEF20000016841F47001016044
:103040007047000040F6A000C2F20000FEF740BF4B
:1030500010B540F6FF3E0368C4F2000E40F2004C8B
:103060007045C4F2010C27DCB0F1804F31D040F242
:103070000042C4F2000290422BD040F60002C4F29B
:103080000002904225D041F6FF72C4F20002904245
:1030900029DC70453CDCB0F1804F5FD040F200424B
:1030A000C4F20002904259D040F60002C4F200027D
:1030B000904253D056E000BF40F60042C4F20002F6
:1030C000904206D0604504D00022C4F20102904232
:1030D000D9D14A6823F07003134341F6FF72C4F25A
:1030E00000029042D5DD43F6FF72C4F20102904225
:1030F00022DC42F20002C4F2000290422ED00022F2
:10310000C4F20102904229D0604527D02AE000BFD6
:1031100040F60042C4F2000290421FD041F6000285
:10312000C4F20002904219D041F60042C4F20002FB
:10313000904213D016E000BF44F20002C4F2010234
:1031400090420BD044F60002C4F20102904205D036
:1031500044F20042C4F20102904203D1CA6823F44F
:103160004073134323F080024B69D1F800E08C6870
:103170001A430260C46240F48062C0F828E06245ED
:1031800004BF09690163012141610169C90708BFE1
:1031900010BD016921F00101016110BD40F67810F8
:1031A000C2F20000FEF796BF806B0021C185C1848A
:1031B000FEF78EBF806B01684A6990F84130212B81
:1031C0002DD112F080022AD00021C184016851E87B
:1031D000031F026821F0C00142E80313DBB101685C
:1031E00051E8031F026821F0C00142E8031393B1C4
:1031F000016851E8031F026821F0C00142E803138F
:103200004BB1016851E8031F026821F0C00142E898
:103210000313002BDAD1202180F84110016849699D
:1032200090F84220222A40F07D8011F0400179D0B0
:103230000021C185016851E8031F026821F49071E3
:1032400042E80313BBB3016851E8031F026821F48D
:10325000907142E8031373B3016851E8031F0268D9
:1032600021F4907142E803132BB3016851E8031F66
:10327000026821F4907142E80313002BDAD11AE0BE
:10328000016851E8051F026821F0010142E80513B9
:10329000DBB1016851E8051F026821F0010142E835
:1032A000051393B1016851E8051F026821F001017F
:1032B00042E805134BB1016851E8051F026821F08F
:1032C000010142E80513002BDAD1016B012924D159
:1032D000016851E8031F026821F0100142E803135E
:1032E000DBB1016851E8031F026821F0100142E8D8
:1032F000031393B1016851E8031F026821F0100124
:1033000042E803134BB1016851E8031F026821F042
:10331000100142E80313002BDAD1202180F842107B
:1033200000210163416C41F010014164FEF7D0BE01
:103330000168806B0968C90548BFFFF7CFBB002152
:10334000C18400BF016851E8051F026821F08001B7
:1033500042E8051383B3016851E8051F026821F0B4
:10336000800142E805133BB3016851E8051F02687C
:1033700021F0800142E80513F3B1016851E8051F0F
:10338000026821F0800142E80513002BDAD113E036
:10339000016851E8031F026841F0400142E803134D
:1033A000002B08BF7047016851E8031F026841F015
:1033B000400142E8031393B1016851E8031F02681A
:1033C00041F0400142E803134BB1016851E8031F8B
:1033D000026841F0400142E80313002BD8D1704746
:1033E000806BFFF77DBB000081B090F8421022296E
:1033F00021D183680246B3F5805F09D152F8281FB6
:1034000052F8183C002B63D003685B680AE000BFE9
:1034100052F8281F13B90369002BF5D003685B68C5
:1034200003F07F030B70116801311160C18D013908
:103430000A04C18502D001B0704700BF0168CA68A4
:1034400022F02002CA60CA6822F48072CA604A6907
:1034500022F001024A61202180F8421000214163DC
:10346000026B012A3CD10163016851E8031F026825
:1034700021F0100142E80313DBB1016851E8031F9A
:10348000026821F0100142E8031393B1016851E88A
:10349000031F026821F0100142E803134BB10168D9
:1034A00051E8031F026821F0100142E80313002BCA
:1034B000DAD101680A68D20606D5002200920A68AD
:1034C0000092496800910099818D01B0FEF7FEBD20
:1034D000026852686FF35F2221F8022B8162A5E730
:1034E00001B0FFF78FBA000010B504460068D4E9B8
:1034F00002C22369016921F44051114301616269EB
:1035000043EA0C01E3691143C268194349F20C63B1
:103510009A431143C1604169A26921F4407141F2AB
:103520000043114340F48062C4F201039A424161B6
:1035300002D1FEF7EDF801E0FEF7D6F8E169636825
:103540001922B1F5004FA0FB020123D15A00DB0F75
:10355000FCF7A1FE48F21F51C5F2EB11A0FB0123BD
:103560005A094FF69C73C0F6FF7303F1805302FBB8
:103570000300322303EBC000A0FB01014FF4F870FD
:1035800000EA111000EB0210C1F342110844216857
:10359000886010BD9A009B0FFCF77DFE48F21F511A
:1035A000C5F2EB11A0FB01235A094FF69C73C0F63C
:1035B000FF7302FB0300322303EB0010A0FB0101A9
:1035C000F02000EA511000EB0210C1F3431108444F
:1035D0002168886010BD000010B540F6E804C2F212
:1035E00000042046FEF776FD40F6EC71C2F20001C1
:1035F00020460122BDE81040FFF7DAB940F630104E
:10360000C2F20000FEF766BDFEE700004FF6FF7253
:1036100051B170B501294AF2010E09D100230024ED
:10362000C90769D192E000BF4FF6FF7398B27047A7
:1036300001F0FE03C3F1000C6FF00103C418A5787C
:10364000E4786A408EEA5205D60708BF55088EEA2C
:103650005502EE0708BF6A088EEA5205D60708BF72
:1036600055088EEA5502EE0708BF6A088EEA520531
:10367000D60708BF55088EEA5502EE0708BF6A084C
:103680008EEA5205D60708BF55088EEA5502EE07A6
:1036900008BF6A0862408EEA5204D50708BF540882
:1036A0008EEA5402E50708BF62088EEA5204D50785
:1036B00008BF54088EEA5402E50708BF62088EEA84
:1036C0005204D50708BF54088EEA5402E50708BF24
:1036D00062088EEA5204D50708BF54088EEA5402E5
:1036E0000233E50708BF62080CEB03040234A5D1DE
:1036F0009C1C1346C90729D0005D50408EEA50013A
:10370000C20708BF41088EEA5100CA0708BF48082F
:103710008EEA5001C20708BF41088EEA5100CA076D
:1037200008BF48088EEA5001C20708BF41088EEA68
:103730005100CA0708BF48088EEA5001C20708BFF7
:1037400041088EEA5103C80708BF4B08BDE8704026
:1037500098B270472DE9F04FCBB045F6A523ADF8F0
:1037600000308DF802208DF803005AB1042A02F0CF
:10377000030C09D204230020BCF1000F1D462ED1FA
:1037800042E000BF04253FE002F0FC00C0F1000E63
:1037900001F1010804236FF00300E94608EB00067D
:1037A000F578DFB296F805B0347909F8075047F09C
:1037B0000205043047F0010AB67909F805B00EEBAE
:1037C000000509F80A4047F003040433043509F8FA
:1037D0000460E3D10430BCF1000F1D4614D00F5C2F
:1037E0005D1CDEB26C46BCF1010FA7550CD0014444
:1037F0004F78981CEEB2BCF1020F0546A75503D0D6
:103800008978DD1CC0B22154101D6C46C1B220461F
:10381000FFF7FCFE010A6A1CEBB2E154A91CD2B20C
:10382000A054E81CC9B2FF226254C2B240F678101C
:10383000C2F200002146FFF7F5F84BB0BDE8F08F6B
:103840002DE9F04381B040F2D809C2F2000999F89D
:103850000110072900F28C81DFE801F004142C3EEE
:1038600056707890A5284BD140F20110A9F80100BC
:1038700040F29020C2F20000A521017001B0BDE825
:10388000F08300BFA52800F06D815A2840F07081B8
:1038900099F80210022089F80100481C89F80200FA
:1038A00040F29020C2F200005A22425401B0BDE81A
:1038B000F08300BF99F80220032189F80110511C00
:1038C00089F8021040F29021C2F20001885489F870
:1038D000030001B0BDE8F083042189F8011099F8D4
:1038E000021099F8032040F290274B1CC2F2000707
:1038F000785457FA83F089F80230C9F81800B2B149
:1039000001B0BDE8F08300BF99F80320D9F8187022
:1039100099F802103A4440F290274B1CC2F200077B
:1039200089F8023057FA83F39A427854E8D1052097
:1039300089F8010001B0BDE8F08300BF062189F8D5
:103940000110A9F8040001B0BDE8F083B9F8041033
:1039500099F802E04FF6FF7640EA012CBEF1000F25
:10396000A9F804C000F0F08040F29028BEF1010FE9
:10397000C2F200084ED10021B2E000BFA52800F03D
:10398000F180FF2840F0F480D9F8187099ED080B09
:103990003C6851EC100BC9F814407E68C9F80C6003
:1039A000BD68C9F8105001F089FB00EE100A01EE65
:1039B000104A31EE000A89ED020ABDEEC00A40F25B
:1039C000D85110EE100AC2F200014880387889F808
:1039D0003200787889F83300B87889F83400F878BC
:1039E00089F8366089F83500300A89F83700300CDC
:1039F00089F83800300E89F83900280A89F83B0028
:103A0000280C89F83C00280E89F83A5089F83D00C6
:103A1000AEE000BF0EF0FE024AF2010155426FF027
:103A2000010200BF08EB0207BB78FF7873409EB22B
:103A300081EA5604DB0708BF740881EA5403E607ED
:103A400008BF630881EA5304DE0708BF5C0881EA07
:103A50005403E60708BF630881EA5304DE0708BF82
:103A60005C0881EA5403E60708BF630881EA53044F
:103A7000DE0708BF5C0881EA5403E60708BF630855
:103A80007B4081EA5304DE0708BF5C0881EA5403E7
:103A9000E60708BF630881EA5304DE0708BF5C0835
:103AA00081EA5403E60708BF630881EA5304DE078E
:103AB00008BF5C0881EA5403E60708BF630881EA8F
:103AC0005304DE0708BF5C08E30702F1020281EA43
:103AD000540605EB020308BF66080233A2D1911C0D
:103AE0005FEACE7230D018F8011086EA01024AF27D
:103AF000010193B2CFF6FF7181EA5307D20708BFE5
:103B00005F08C7F34E02FB0718BF4A40C2F34E03DB
:103B1000D20718BF4B40C3F34E02DB0718BF4A4021
:103B2000C2F34E03D20718BF4B40C3F34E02DB076C
:103B300018BF4A40C2F34E03D20718BF4B40C3F32D
:103B40004E06DA0718BF4E40B1B21FFA8CF28A4215
:103B500006D1072089F8010001B0BDE8F08300BF5D
:103B6000A52805D1012089F8010001B0BDE8F08346
:103B7000002089F8010001B0BDE8F0832DE9F04F85
:103B800081B02DED0A8B40F20C06C2F2000640F621
:103B9000886A9FEDA9AA9FEDA98A06F11808C2F2CA
:103BA000000A514600224346B0EE4A0AF0EE480AA7
:103BB000044600F0F3F99FEDA2BA06F1240740F69F
:103BC000B831B2EE04CAC2F20001204600223B46E0
:103BD000B0EE4B0AF0EE4C0A00F0E0F940F69049E6
:103BE0009FED989A06F13005C2F200092046494639
:103BF00000222B46B0EE4A0AF0EE490A00F0CEF958
:103C000006F13C0B40F6C016C2F2000620463146D3
:103C100000225B46B0EE4B0AF0EE4C0A00F0BEF913
:103C20000AF14801204600224346B0EE4A0AF0EE6F
:103C3000480A00F0B3F940F6B830C2F2000000F1D3
:103C40004801204600223B46B0EE4B0AF0EE4C0AFB
:103C500000F0A4F909F14801204600222B46B0EEFD
:103C60004A0AF0EE490A00F099F906F148012046A7
:103C700000225B46B0EE4B0AF0EE4C0A00F08EF9E3
:103C80000AF19001204600224346B0EE4A0AF0EEC7
:103C9000480A00F083F940F6B830C2F2000000F1A3
:103CA0009001204600223B46B0EE4B0AF0EE4C0A53
:103CB00000F074F909F19001204600222B46B0EE85
:103CC0004A0AF0EE490A00F069F906F1900120462F
:103CD00000225B46B0EE4B0AF0EE4C0A00F05EF9B3
:103CE0000AF1D801204600224346B0EE4A0AF0EE1F
:103CF000480A00F053F940F6B830C2F2000000F173
:103D0000D801204600223B46B0EE4B0AF0EE4C0AAA
:103D100000F044F909F1D801204600222B46B0EE0C
:103D20004A0AF0EE490A00F039F906F1D8012046B6
:103D300000225B46B0EE4B0AF0EE4C0A00F02EF982
:103D400040F668569FED40AA40F20C08C2F2000609
:103D5000C2F200082046314600224346B0EE480A2F
:103D6000F0EE4A0A00F01AF940F698279FED37BAAC
:103D700008F10C05C2F200072046394600222B4606
:103D8000B0EE480AF0EE4B0A00F008F906F14801DF
:103D9000204600224346B0EE480AF0EE4A0A00F000
:103DA000FDF807F14801204600222B46B0EE480AF4
:103DB000F0EE4B0A00F0F2F806F1900120460022E6
:103DC0004346B0EE480AF0EE4A0A00F0E7F807F181
:103DD0009001204600222B46B0EE480AF0EE4B0A36
:103DE00000F0DCF806F1D801204600224346B0EE90
:103DF000480AF0EE4A0A00F0D1F807F1D80120464F
:103E000000222B46B0EE480AF0EE4B0A00F0C6F84E
:103E100040F21820C2F20000011D08F148032046BC
:103E20000022B0EE480AF0EE490ABDEC0A8B01B060
:103E3000BDE8F04F00F0B2B800409C4600401C4680
:103E40000000C8430000FA4300409C450000964330
:103E500000294FD0087891ED0F1A91ED102A81EDCD
:103E6000070A30EEC00A0028C1ED060A81ED0F0AEC
:103E700081ED101A81ED112A40D0012840F0888090
:103E800091ED015A91ED026A30EE414A31EE011A8C
:103E900091ED037A24EE054A20EE065A30EE410AEF
:103EA00032EE000AD1E90C2081ED0C0A20EE070A5F
:103EB00034EE051A91ED082A91ED043A81ED0B0AD2
:103EC00031EE000A32EE000AB4EE430AF1EE10FAC7
:103ED00081ED094A81ED0A5AC1E90D2081ED080AF8
:103EE000C2BF81ED083AB0EE430A7047B1EE431A03
:103EF00043E000BF9FED280A704700BF91ED024AE2
:103F000091ED0A6A91ED012A91ED053A24EE004AFD
:103F100091ED035A34EE064A20EE022AD1E90C2034
:103F200030EE410AB4EE434A81ED0C0A20EE050A58
:103F3000F1EE10FA81ED092A81ED0A4AC1E90D205E
:103F400081ED0B0A06DCB1EE433AB4EE434AF1EEE2
:103F500010FA03DAB0EE434A81ED0A3A32EE042A4F
:103F600091ED041A30EE020AB4EE410AF1EE10FAB5
:103F700081ED080A07DCB1EE411AB4EE410AF1EE18
:103F800010FAA8BF7047B0EE410A81ED081A7047D9
:103F900091ED080A704700BF00000000002918BF1B
:103FA000002B01D1704700BF80B50A7018684860C7
:103FB00058688860986881ED040AC860C1ED050AF8
:103FC00001F120002821FCF7DEF980BDF0B581B0B9
:103FD000481E40F2C03200EBC006C0EBC000C2F287
:103FE000000202EB800740F6B831B7F8C001C2F218
:103FF000000140F21825F0EE400A01EBC60400EE85
:10400000100AC2F20005B8EE400A28462146FFF722
:104010001FFF40F68860B7F9C211C2F20000D4ED6C
:10402000080A00EBC60400EE101AB8EEC00A2846D3
:104030002146FFF70DFF94ED080A01B0F0BD000026
:10404000086846F20042C4F20002904218BF70476E
:1040500080B58AB001200022CDE90620CDE90022FA
:10406000CDE90222CDE904226A46089008461146AD
:10407000FCF784FA002818BFFCF710FA0AB0BDE874
:104080008040704710B508460C46FCF767FE0028D4
:1040900018BFFCF703FA20460221FCF703FA0028B8
:1040A00008BF10BDBDE81040FCF7F8B980B58AB074
:1040B00040F2FF1001900020CDE903000820059098
:1040C000080ADDF830C08DF82000100A8DF82200B3
:1040D000180A8DF824004FEA1C208DF8260040F2C3
:1040E000E0508DF821108DF823208DF82530C2F294
:1040F000000001A908AA07AB8DF827C0FCF7EAF970
:104100000AB080BD10B504200C46FDF7B3FD40F2A7
:104110008C20C2F20000046010BD00007047000057
:10412000FDF780F9FEF72EFFFEF7A8FDFEF7FCFC79
:10413000FEF7DAFCFEF71EFEFEF742FEFEF76AFE11
:10414000FEF786FEFEF7A2FE00F0D0FAFEF730FD85
:1041500000F00AF8FEE7000080B5012898BF0120B2
:1041600000F064FC002080BD80B500F0AFFC0020B2
:1041700080BD0000B0B584B043698E4693B18469B8
:1041800084B10589D0E9001C026928B2843D18BFBA
:10419000C51CCDE9005360467346029400F048FE0A
:1041A00004B0B0BD0589D0E90013028A28B2843D6D
:1041B00018BFC51C03AC18467346CDE9005400F087
:1041C00007FE0399012818BF0021084604B0B0BDBE
:1041D0002DE9F041044600F069FB40F27816C2F286
:1041E0000006306940F66075013030613068C2F217
:1041F000000548B17069002840D13068E16AC06AA2
:10420000884298BF346039E034603069012835D184
:10421000284600F0F1FA05F1140000F0EDFA05F17E
:10422000280000F0E9FA05F13C0000F0E5FA05F19C
:10423000500000F0E1FA05F1640000F0DDFA05F14C
:10424000780000F0D9FA40F26428C2F20008404633
:1042500000F0D2FA08F11407384600F0CDFA06F162
:10426000640000F0C9FA06F13C0000F0C5FA06F15E
:10427000500000F0C1FAC6F8308077637068B1680A
:1042800001220131B160E16A8A401043706001EBA4
:10429000810005EB8000211D00F0F0FA00F02AFB00
:1042A000706988B13068E16AC06A884228BFBDE899
:1042B000F0814EF60450CEF200004FF080510160C4
:1042C000BFF34F8FBFF36F8FBDE8F08140F27815D9
:1042D00040F660764EF60458C2F20005C2F20006BF
:1042E000CEF200084FF0805703E000BF204600F0F8
:1042F00019FBE868D0B100F0D9FAA86CC468201D99
:1043000000F05AFA286901382861E8680138E86045
:1043100000F0F0FA94F851000228EAD00128E5D024
:1043200070B9206B00F0FEFAE0E700BF30680228A9
:10433000DFD3C8F80070BFF34F8FBFF36F8FD8E79C
:104340004FF0500080F31188BFF36F8FBFF34F8F92
:10435000FEE700002DE9F047DDE909878246386B6A
:10436000089C00EB820004389946002920F00706DB
:1043700056D0087887F83400087800284BD0487861
:1043800087F835004878002845D0887887F83600C7
:10439000887800283FD0C87887F83700C878D0B32D
:1043A000087987F838000879A8B3487987F8390080
:1043B000487980B3887987F83A00887958B3C87902
:1043C00087F83B00C87930B3087A87F83C00087A50
:1043D00008B3487A87F83D00487AE0B1887A87F8D0
:1043E0003E00887AB8B1C87A87F83F00C87A90B1A1
:1043F000087B87F84000087B68B1487B87F841005C
:10440000487B40B1887B87F84200887B00281CBF2E
:10441000C87B87F84300002087F8430003E000BF13
:10442000002087F834000025381D062C28BF0624FC
:10443000FC62C7E9114500F0EBF907F1180000F044
:10444000E7F984F00700B861304651464A463F61BB
:104450007F62FD6487F8505000F036F9B8F1000F24
:10446000386018BFC8F80070BDE8F08708480068D9
:10447000006880F308884FF0000080F3148862B66B
:1044800061B6BFF34F8FBFF36F8F00DF00BF000037
:1044900008ED00E081B00020009040F26400C2F21C
:1044A000000000684FF0500181F31188BFF36F8F57
:1044B000BFF34F8F013007D0FEE700BF009830B93F
:1044C000009820B9009810B900980028F6D001B0E3
:1044D0007047000070B5044600F05EFB40F2F01C2F
:1044E000C2F2000CDCF8040050B19CF80000002877
:1044F00018BF4FF000404FF0000544BB83E000BF01
:1045000040F6ED70C2F20000420700F5705200F173
:10451000070122F0070218BF21F007000021A2F1D5
:104520000803CCE90601CCF8043042E90211DCF8BA
:104530000420191AC0E9002101208CF800004FF076
:104540000040CCE90211002C4FF000055BD0204068
:1045500059D124F0070000F11002600708BF04F1F0
:104560000802DCF80800511E81424CD2604650F827
:1045700018EFDEF8045095422BD2DEF80010B9B1E6
:1045800074464D68954217D20B68ABB15D68954291
:1045900016D21868A0B14568954215D204689CB13E
:1045A0006568954214D22168A6460029E9D110E039
:1045B0000CF118000DE000BF8E46204609E000BF58
:1045C0009E46084605E000BF8646184601E000BF4B
:1045D000A646DCF804108E4514D00168DEF80040D1
:1045E000AB1A112B04604DD30EEB0205680719D0EE
:1045F0004FF0500080F31188BFF36F8FBFF34F8FE0
:10460000FEE700BF002500F0E3FC68075AD04FF03A
:10461000500080F31188BFF36F8FBFF34F8F00BF3F
:10462000FEE700BF0CF118006B60CEF8042000BF5D
:104630000368AB420AD21868A8420BD20368AB42A7
:1046400004D218681A46A842F2D304E0024618467B
:1046500001E000BF1A4654686B681619AE4202D1D9
:10466000234415465360EC18844207D1DCF804401B
:10467000A04203D0D0E9000423446B60AA42286022
:1046800018BF1560DEF80400DCE9022301F108051B
:10469000111A9942CCF8081038BFCCF80C109CF8CD
:1046A000001000294FF0000118BF40F00040CEE993
:1046B0000010DCF810000130CCF8100000F088FC8D
:1046C0006807A4D1284670BD034644F2954021F006
:1046D0000101C0F600004FF0807C03E903106FF089
:1046E0000201A3F1440043E909127047B0B540F25A
:1046F000BC30C2F200000130A821FFF703FD40F2F8
:104700001820C2F20000FFF739FA40F2C030C2F2BE
:10471000000040F2E05500F50574C2F200052046A5
:104720002946FFF78DFC20462946FFF7ABFC40F6F3
:10473000A000C2F20000FDF773FB40F6E80040F66F
:10474000EC71C2F20000C2F200010122BDE8B040EB
:10475000FEF72EB90120FFF7FFFCFBE7CCB001AC60
:1047600045F6A52840F20A1740F67815261DC0F236
:104770000C08C2F200074FF0FF09C2F2000500BFAB
:1047800038687968BA683060716020461021CDF8C9
:104790000480B260FEF73AFF010A8DF814108DF81C
:1047A00015002846214613228DF81690FEF73AF997
:1047B0001420FFF7D1FCE3E7D0E9013201699A60E8
:1047C000D1F804C082688445536008BF4A60002263
:1047D00002610868013808600868704744F6F453BD
:1047E000C2F20003036044F6F430C2F20000086035
:1047F00080201060704700004FF0FF31024642F801
:10480000081F00214260C0E90322016070470000D8
:10481000002101617047000010B5D1F800E01EF1E1
:10482000010213D000F1080462681368734511D8BF
:1048300053681C68744511D85A68146874450FD8B9
:1048400054682368A4467345EED90BE00269D2F898
:1048500004C007E09446224604E000BF9C4601E005
:1048600094461A46C1F804C0CCF808108A6051601A
:10487000086101680131016010BD0000D0F800C07E
:10488000436808619A684B608A609A6899605160D1
:104890000CF1010101607047DFF80C00016841F480
:1048A000700101607047000088ED00E04FF050009B
:1048B00080F31188BFF36F8FBFF34F8F40F2640016
:1048C000C2F2000001684A1C026009B1704700BFD3
:1048D0004EF60450CEF200000068000608BF704794
:1048E0004FF0500080F31188BFF36F8FBFF34F8FED
:1048F000FEE7000040F26400C2F20000016839B136
:104900000139016018BF7047002080F3118870479B
:104910004FF0500080F31188BFF36F8FBFF34F8FBC
:10492000FEE7000070B5002808BF70BD40F2F0152A
:10493000C2F200050446287854F8041C002818BF69
:104940004FF0004008420DD0A4F1080632689AB139
:104950004FF0500080F31188BFF36F8FBFF34F8F7C
:10496000FEE700BF4FF0500080F31188BFF36F8F58
:10497000BFF34F8FFEE700BF21EA000044F8040CAC
:1049800000F00AF954F8041CA8680844A86005F16E
:10499000180000BF0368B3420AD21868B04225D29B
:1049A0000368B34204D218681A46B042F2D301E059
:1049B000024618465368D418B44202D11944164628
:1049C00051607318834206D16B68984203D0D0E9D6
:1049D000000319447160B242306018BF1660686904
:1049E00001306861BDE8704000F0F2BA1A465368C1
:1049F000D418B442E5D1E1E74EF21000CEF2000047
:104A000000210160816040F26001C2F2000109688A
:104A100044F6D352C1F26202A1FB02124FF0FF3101
:104A200001EB9211416007210160704770B50028C9
:104A30003FD040F27815C2F200050446A86948B19B
:104A40004FF0500080F31188BFF36F8FBFF34F8F8B
:104A5000FEE700BFA8690130A8616E6A28680430CB
:104A6000FFF7AAFE50B12868A419446013D3686BFD
:104A700029680431FFF7D0FE16E000BF2868012145
:104A8000C06A6A6801FA00F022EA000068602868DB
:104A9000A4194460EBD2286B29680431FFF7BCFEEF
:104AA000286A844238BF2C6200F092FA002818BFAE
:104AB00070BD4EF60450CEF200004FF08051016000
:104AC000BFF34F8FBFF36F8F70BD0000B0B588B0DC
:104AD0000020CDE9050006A805A904AAFFF77EFE7F
:104AE0000598B8B3069C002C3ED05421049A079137
:104AF0000799542942D107992063022084F8510074
:104B000007A80025CDE9005044F2CD20C0F60000F2
:104B10001FA100230294FFF71DFC2046FFF758FB5E
:104B2000079940F27810C2F20000C16179B14FF0EC
:104B3000500181F31188BFF36F8FBFF34F8F4FF098
:104B4000FF31016201214161456200F065F808B062
:104B5000B0BD00BF4FF0500080F31188BFF36F8FDE
:104B6000BFF34F8FFEE700BF4FF0500080F3118876
:104B7000BFF36F8FBFF34F8FFEE700BF4FF05000C2
:104B800080F31188BFF36F8FBFF34F8FFEE700BF35
:104B900049444C450000000040F27810C2F2000089
:104BA000816901318161704740F27810C2F20000E2
:104BB000816900291EBF0121816270470021816245
:104BC0004168B1FA81F1C9B2C1F11F0140F66072CA
:104BD00001EB8101C2F2000252F8213063B102EB15
:104BE000810252F8041F4968131D994211600DD0CB
:104BF000C9680160704700BF4FF0500080F3118812
:104C0000BFF36F8FBFF34F8FFEE700BF496811609E
:104C1000C968016070470000B0B584B04EF2004C26
:104C2000CEF2000C4CF27021C4F20F11DCF8002916
:104C30004B1C9A420AD14FF0500080F31188BFF309
:104C40006F8FBFF34F8F00BFFEE700BFDCF8002976
:104C50008A4209D14FF0500080F31188BFF36F8F63
:104C6000BFF34F8FFEE700BF9CF800100291FF21B9
:104C70008CF800109CF800108DF807109DF80710B4
:104C800001F0500240F21021C2F200010A70072226
:104C90004A609DF90720B2F1FF3F6BDC032200BFA1
:104CA000D31C4B609DF8070040008DF807009DF96C
:104CB0000700B0F1FF3F24DC931C4B609DF8070018
:104CC00040008DF807009DF90700B0F1FF3F18DCA8
:104CD000531C4B609DF8070040008DF807009DF9BC
:104CE0000700B0F1FF3F0CDC4A609DF80700043A72
:104CF00040008DF807009DF90700B0F1FF3FCFDDC0
:104D0000131D032B36D14FF44070486002988CF885
:104D10000000DCF8200940F47000CCF82009DCF831
:104D2000200940F07040CCF82009FFF765FE40F202
:104D30006404C2F2000400252560FFF7ADFD4EF6C5
:104D40003470CEF20000016841F040410160FFF78D
:104D50008DFBFFF729FF039520684FF0500181F389
:104D60001188BFF36F8FBFF34F8F013012D000BF98
:104D7000FEE700BF4FF0500080F31188BFF36F8F44
:104D8000BFF34F8FFEE700BF039830B9039820B9F7
:104D9000039810B903980028F6D0002004B0B0BDE5
:104DA00080B54FF0500080F31188BFF36F8FBFF3D1
:104DB0004F8F00F089F830B14EF60450CEF200006B
:104DC0004FF080510160002080F3118880BD000009
:104DD0002DE9F04383B00746900098461546894672
:104DE000FFF778FBF8B106465420FFF773FBB8B124
:104DF0000446DDE90A100022266384F85120CDE93B
:104E00000010384649462A4643460294FFF7A2FA64
:104E10002046FFF7DDF9012003B0BDE8F08300BFB5
:104E20003046FFF77FFD4FF0FF3003B0BDE8F08361
:104E300070B586B00B9CCCB10C9E0EB35425049576
:104E4000049D542D26D1049DDDF828C0022586F846
:104E5000515005AD3463CDE900C50296FFF77AFAEB
:104E60003046FFF7B5F9059806B070BD4FF0500019
:104E700080F31188BFF36F8FBFF34F8FFEE700BF42
:104E80004FF0500080F31188BFF36F8FBFF34F8F47
:104E9000FEE700BF4FF0500080F31188BFF36F8F23
:104EA000BFF34F8FFEE7000040F27810C2F200001F
:104EB000416900290FBF01208069B0FA80F04009E4
:104EC00018BF4000704700002DE9F04740F2781607
:104ED000C2F20006B06928B1F06A0130F062002029
:104EE000BDE8F087706A10F1010AC6F824A020D34B
:104EF000306B006850B14FF0500080F31188BFF361
:104F00006F8FBFF34F8F00BFFEE700BF306B716B39
:104F100031637063B06B0130B063306B006828B1EF
:104F2000306BC068C068406802E000BF4FF0FF30DF
:104F30003062306A40F660788245C2F2000801D2E1
:104F4000002434E0306B0024006868B34FF001099E
:104F500016E000BFF86A716809FA00F2114300EB2D
:104F60008000716008EB80002946FFF787FCF86A33
:104F70003168C96A326B8842106828BF4C4698B1C4
:104F8000306BC068C7683D4655F8040F82450DD3A5
:104F90002846FFF711FCB86A0028DBD007F118009B
:104FA000FFF70AFCD6E700BF4FF0FF3030623068F1
:104FB000C06A00EB800058F82000012888BF012457
:104FC000B06A002818BF01242046BDE8F087000021
:104FD0002DE9F04140F27815C2F20005A86968B1E8
:104FE000FFF764FCA8690138A861A86980B10024B2
:104FF000FFF780FC2046BDE8F08100BF4FF0500075
:1050000080F31188BFF36F8FBFF34F8FFEE700BFB0
:1050100028690028EBD0686E78B340F660780126E6
:10502000C2F20008286FC76807F11800FFF7C4FB39
:105030003C1D2046FFF7C0FBF86A696806FA00F2DB
:10504000114300EB8000696008EB80002146FFF708
:1050500015FCF86A2968C96A884228BFAE62686E82
:105060000028DFD1286B006820B1286BC068C068B9
:10507000406801E04FF0FF302862EC6A4CB1012635
:10508000FFF722FF002818BFAE62013CF8D10020D4
:10509000E862A86A0028AAD04EF60450CEF20000BA
:1050A0004FF080510160BFF34F8F0124BFF36F8F2A
:1050B000FFF720FC2046BDE8F081000021F000420F
:1050C00001F00043A2F16052B2F5801F28BFD2F177
:1050D0007F6C0BD95FEA001C43EAC20242EB5070BE
:1050E00018BF704728BF20F001007047B2F5801F3D
:1050F000BCBF184670474FEA410C1CF5001F02D296
:10510000084600F067B870B500F009F800000089A3
:10511000FFF7F6BF4FF00040A0F5800070470EF19A
:10512000020E2EF0030E5EF8046B364205D4012AFF
:1051300043EB030515F5001F12D8012841EB010CC4
:105140001CF5001F0CD80ED14FEAD17C0CEB4C0C97
:105150000CF1020C15F5001F08BF4CEBD37C04E0EA
:105160004FF0080C01E04FEAD37C0CEB4C0526FA1B
:1051700005F606F00706B6F1040C06D20EEB860C17
:10518000BDE870404CF0010C6047DFE80CF0090B03
:1051900002024FF00041A1F500214FF0000070BD68
:1051A00019461046012851EB010418BFD4F500142C
:1051B00084BF002001F0004170BDF1EE100A4FF6EF
:1051C000FF71C0F2C03120EA010040F04070E1EE12
:1051D000100A7047FF2141EAD050C0057047000017
:1051E0000000000000000102030406070809000097
:1051F0000000010203040006101600061016546198
:10520000736B5F74785F746F5F7570706500546165
:10521000736B5F72656D6F74650064656661756C54
:10522000745461736B0000004852000800000020B5
:1052300068000000EC010008B0520008680000207F
:10524000E05300000C020008010000000100000013
:105250001000000000002041000000000000A040FD
:105260000000803F0AD7233C0000803F000020421E
:10527000CDCCCC3D0000A0400000803F00000000ED
:105280000000803F00002042CDCCCC3D0000A0407B
:1052900000004040000000000000803F0000C841C6
:1052A000000000000000803F0024F400AAAAAAAA7F
:040000050800018965
:00000001FF
