:020000040800F2
:10000000380F0020550200081D2C0008052A0008A2
:10001000192C0008610400084D330008000000009E
:10002000000000000000000000000000252C000877
:100030009504000800000000212C0008292C00086D
:100040006F0200086F0200086F0200086F020008CC
:100050006F0200086F0200086F0200086F020008BC
:100060006F0200086F0200086F0200086F020008AC
:100070006F020008710400086F0200087D04000888
:100080006F0200086F0200086F0200086F0200088C
:100090006F0200086F0200086F0200086F0200087C
:1000A0006F0200086F0200086F0200086F0200086C
:1000B0006F0200086F0200086F0200086F0200085C
:1000C0006F0200086F0200086F0200086F0200084C
:1000D0006F020008413300086F0200086F02000839
:1000E0006F0200086F0200086F0200086F0200082C
:1000F0006F0200086F0200086F0200086F0200081C
:100100006F0200086F0200086F0200086F0200080B
:10011000452E00086F0200086F020008ED2C000851
:100120006F0200086F020008890400086F020008CF
:100130006F0200086F0200086F0200086F020008DB
:10014000650400086F0200086F0200086F020008D3
:100150006F0200086F0200086F0200086F020008BB
:100160006F0200086F0200086F0200086F020008AB
:100170006F0200086F0200086F0200080000000014
:100180006F0200086F02000800F002F800F052F859
:1001900014A696E8000CB244B344DA4501D100F04D
:1001A00049F8BAE80F000FA696E83000A5EB040561
:1001B00004EB0607AAEB0704A7F101074FEA1515A0
:1001C0004FEA3414A4F10104AC4201D300F032F838
:1001D00013F0010F18BFFB1A43F0010300F001F800
:1001E000DBE718472456000044560000103A24BFAD
:1001F00078C878C1FAD8520724BF30C830C144BF8C
:1002000004680C6070470000704700000023002461
:1002100000250026103A28BF78C1FBD8520728BF16
:1002200030C148BF0B6070471FB505F034FA1FBDE1
:1002300010B510BD00F0E6F81146FFF7F5FF03F02A
:10024000D1FF00F004F903B4FFF7F2FF03BC03F0A1
:10025000C7FF00000948804709480047FEE7FEE75E
:10026000FEE7FEE7FEE7FEE7FEE7FEE7FEE7FEE766
:1002700004480549054A064B70470000D92C000880
:100280008901000838090020380F0020380B0020B1
:10029000380B0020704753EA020C00F069802DE90A
:1002A000F04B4FF00006002B1FBFB3FA83F503FAA3
:1002B00005F424FA05F65E4012BF1643B2FA82F541
:1002C00002FA05F4C5F120051EBF22FA05FC44EA36
:1002D0000C04203556EA044C4FEA144418BF641C41
:1002E0004FF000084FF00009904271EB030C39D336
:1002F000002919BFB1FA81F701FA07F6B0FA80F7C1
:1003000000FA07F6C7F120071EBF20FA07FC46EAED
:100310000C062037B6FBF4FCA7EB0507103F07F0EF
:100320001F0BCBF120062CFA06F60CFA0BFB44BF90
:10033000B3460026202FA4BF5E464FF0000B5BEAB9
:10034000060C08BF4FF0010B19EB0B0948EB060830
:10035000ABFB027C06FB02CC0BFB03CCC01B71EB9E
:100360000C01C1E70B46024641464846BDE8F08B0A
:1003700013B5084318BF4FF0FF300146AFF30080BC
:10038000BDE81C4070474FF0000200B5134694468C
:100390009646203922BFA0E80C50A0E80C50B1F1DD
:1003A0002001BFF4F7AF090728BFA0E80C5048BFF1
:1003B0000CC05DF804EB890028BF40F8042B08BF8F
:1003C000704748BF20F8022B11F0804F18BF00F88B
:1003D000012B7047704770477047704710B500F0A9
:1003E00009F8006810BD10B5044600F003F8046079
:1003F00010BD000000487047B00000200048704762
:10040000B00000207546FFF7F9FFAE4605006946CB
:10041000534620F00700854618B020B5FFF728FFA7
:10042000BDE820404FF000064FF000074FF00008F5
:100430004FF0000BAC46ACE8C009ACE8C009ACE832
:10044000C009ACE8C00921F007018D46704710B51E
:100450000446AFF300802046BDE81040FFF7F3BE2E
:10046000FEE7000040F2F430C2F2000000F08CB968
:1004700040F21C40C2F2000000F082BD40F27C401D
:10048000C2F2000000F07CBD40F2DC40C2F200008D
:1004900000F076BD7047000072B600BFFEE70000B6
:1004A00090F82020013A012A08D8006800F11402CF
:1004B0000020136819431160704700BF00F1240247
:1004C00001204FF480211368194311607047000028
:1004D00010B590F820E0D0F800C0AEF1010EBEF1EA
:1004E000010FDCF808E011D81EF0E05F18D0CEF361
:1004F000016E012000FA0EF018608B68D3B14868D5
:10050000CC6844EAC000034318E000BF00F12401B6
:1005100001204FF480220B681A430A6010BD00BF0F
:1005200000F1240101204FF400120B681A430A6005
:1005300010BD00BF0868CB6843EA40530CEB0E10B7
:10054000C0F880310B69C0F88431097D012905D1DB
:1005500000F5C2710B6843F480730B605168C0F8FA
:100560008C11126800F5C071C0F8882100200122AA
:100570000B681A430A6010BD90F82020013A012A46
:1005800030D8B0B546F20060C4F20000026842F014
:1005900001020260026822F47C520260D1F814E089
:1005A000CC694A6A0368012C43EA022202600EF019
:1005B0001F024FF0010303FA02F2C3696FEA020C53
:1005C00023EA0203C36113D02CBBC36803EA0C0304
:1005D000C360CB688C8844EA034300EBCE042364F9
:1005E0000B4611E0416A41F48021416201207047CD
:1005F000C3681343C3600B688C8844EA034300EB71
:10060000CE04236401F10C038C681B8843EA044385
:1006100000EBCE04636443688D6943EA0204D1F8B9
:1006200010E0096A002D08BF03EA0C044460436926
:10063000BEF1000F43EA020408BF03EA0C040129DB
:10064000446102D1C1691143C161016821F0010116
:1006500001600020B0BD00007047000010B590F8A8
:100660002040013C012C7BD8D0F800C000290CBFF1
:10067000DCF80C40DCF81040A4077BD00CEB011C2C
:10068000DCF8B0410CF5D87E14F004049460DCF87A
:10069000B04119BFE4085460640D1460DEF80040F6
:1006A0000CF5DA7E04F00204D460DCF8B4412407CF
:1006B0005ABFDEF8004004F00F0408241461DEF88D
:1006C00000400029C4F307249461DEF800404FEA9B
:1006D00014445461DCF8B8211A70026802EB01126C
:1006E000D2F8B8214FEA12225A70026802EB0112C6
:1006F000D2F8B8214FEA12429A70026802EB011256
:10070000D2F8B8214FEA1262DA70026802EB0112E5
:10071000D2F8BC211A71026802EB0112D2F8BC2196
:100720004FEA12225A71026802EB0112D2F8BC2180
:100730004FEA12429A71026802EB0112D2F8BC2110
:100740004FEA1262DA7100680CBF00F10C0100F18F
:100750001001002020220B681A430A6010BD00BF60
:1007600000F1240101204FF480220B681A430A6033
:1007700010BD00BF00F1240101204FF400120B68EE
:100780001A430A6010BD00002DE9F04F81B0044605
:1007900000684669D0F804908768D0F80CB0D0F8AB
:1007A00010A0D0F81880F10704D1002530071DD41F
:1007B00024E000BFF90710D00121BA07816009D4F5
:1007C000780700F1AF80380700F1B680204600F0CE
:1007D0006FFB02E0204600F06DFB0025F80500F1FC
:1007E0008780F80300F1B180300707D51BF01000B7
:1007F00004D0206845F400751021C160700708D549
:100800001BF0080005D020680821C160204600F0D8
:10081000FFF9B00706D52068C068800702D02046DF
:1008200000F0F8F9700607D51AF0100004D020681F
:1008300045F4806510210161B00608D51AF0080062
:1008400005D0206808210161204600F0FDFAF0067D
:1008500006D520680069800702D0204600F0F6FA2D
:10086000B00308D519F0100005D0206810214160B0
:10087000204600F0EDFAF00308D519F0080005D085
:10088000206808214160204600F01EFB300440F142
:100890009B805FEA497040F1948006F4807008EA1A
:1008A000102028435FEA8871014648BF41F00201E9
:1008B000B20558BF01465FEA48700D4648BF45F093
:1008C0000405700558BF0D46300540F17A8018F0D8
:1008D000700000F076801038000905286CD8DFE839
:1008E00000F003595D61656945F0080564E000BFEB
:1008F00020684FF48071BA0581600BD4780515D457
:1009000038051DD4204600F0D7FAF8037FF56CAF08
:100910001BE000BF204600F0D1FAF8037FF564AF7A
:1009200013E000BF4FF4006558E700BF05F5005520
:10093000F8037FF559AF08E04FF480554EE700BF4C
:1009400005F58045F8037FF54FAF20684FF48031FF
:10095000BA0381600AD4780310D4380314D4204633
:1009600000F0AEFA30073FF541AF47E7204600F010
:10097000A9FA30073FF53AAF40E700BF05F500455B
:1009800030073FF533AF39E705F5803530073FF5E0
:100990002DAF33E745F010050EE000BF45F0200510
:1009A0000AE000BF45F0400506E000BF45F08005C5
:1009B00002E000BF45F480752068816921F0700174
:1009C000816120680421416055B1606A40EA0501F7
:1009D0002046616201B0BDE8F04FFFF73DBE00BFA9
:1009E00001B0BDE8F08F0000002804BF012070476F
:1009F000B0B5044690F8200010B9204600F06EF81B
:100A00002068016841F00101016000F06DFD0546BC
:100A100020684168C90705D100F066FD401B0B281E
:100A2000F6D310E0016821F00201016000F05CFDE6
:100A3000054600BF2068416889070DD500F054FDC8
:100A4000401B0B28F6D3606A052140F40030606239
:100A5000012084F82010B0BD217E0268012922F017
:100A6000800208BF80320260617E0268012922F0A4
:100A7000400208BF40320260A17E0268012922F0D4
:100A8000200208BF20320260E17E0268012922F0C4
:100A9000100218BF10320260217F0268012922F083
:100AA000080208BF08320260617F0268012922F053
:100AB000040208BF04320260D4E901C2D4E903355C
:100AC00061691A432A431143ACF101021143C16128
:100AD00000200121606284F82010B0BD80B586B08E
:100AE000006846F60002C4F2000200219042CDE9FF
:100AF0000411CDE9021101913ED046F20041C4F249
:100B00000001884240F0828040F21011C2F20001E0
:100B10000A6843F64000C4F20200531C0B6052B94D
:100B200000210091016841F000710160016801F04D
:100B30000071009100990021009150F8102C42F0B2
:100B4000010240F8102C50F8100C00F00100009049
:100B500000984FF4C05001900220CDE9020103201B
:100B60000490092005900020C4F2020001A900F0C1
:100B7000EBFB06B080BD00BF43F64000C4F20200AC
:100B80000091016841F080610160016801F08061BD
:100B90000091009940F21011C2F200010A68531C42
:100BA0000B6052B900210091016841F000710160B1
:100BB000016801F00071009100990021009150F846
:100BC000101C41F0020140F8101C50F8100C01A953
:100BD00000F00200009000984FF440500190022075
:100BE000029001200390032004900920059000202A
:100BF000C4F2020000F5806000F0A6FB4020002156
:100C0000002200F0F3FC402000F0DEFC06B080BDC6
:100C100070470000006846F60001C4F200018842F7
:100C200018BF7047B0B58AB040F2F430C2F200008D
:100C300003AA01AB0021FFF711FD0398A0F20121E7
:100C4000032921D8013840F24811C0B2C2F2000194
:100C500001EB4010D0F818114A1C3229C0F81821B5
:100C60003AD8BDF80410BDF80620BDF8083009BA1E
:100C700012BA090C9DF80AC04FEA124E1ABAA0F82F
:100C80001411120C0B4676E0A0F20521062900F2A1
:100C90009880FB3040F24811C0B2C2F2000101EB73
:100CA0004010D0F818124A1C3229C0F8182231D846
:100CB000BDF80410BDF80620BDF8083009BA12BA14
:100CC000090C9DF80AC04FEA124E1ABAA0F8141285
:100CD000120C0B468DE000BFBDF80410BDF80640B5
:100CE000B0F90051BDF808200BBA24BA4FEA144EEF
:100CF00012BA9DF80AC0C5EB1344190CB4F5805F15
:100D00004FEA124224DDD0F81031013BC0F8103117
:100D100027E000BFBDF80410BDF80650B0F900226E
:100D2000BDF808400BBA2DBA4FEA154E25BA9DF80A
:100D30000AC0C2EB1344190CB4F5805F4FEA1542A8
:100D400044DDD0F81032013BC0F8103247E000BF5C
:100D5000D0F8103114F5805FBEBF00F58874013300
:100D6000236001EB4334B0F81431D0F81C51E41A7D
:100D70002C44C0F80C41A0F804210AB28C1AB4F536
:100D8000805FA0F80811A0F80011A0F802E180F837
:100D900006C105DDD0F81021013AC0F8102108E0A5
:100DA000D0F8102114F5805FBEBF00F588750132C0
:100DB0002A6001EB4231D0F81C21C91A1144C0F855
:100DC0000C110AB0BDE8B040704700BFD0F8103237
:100DD00014F5805FBEBF00F504740133236001EB9E
:100DE0004334B0F81432D0F81C52E41A2C44C0F842
:100DF0000C42A0F804220AB28C1AB4F5805FA0F865
:100E00000812A0F80012A0F802E280F806C205DD80
:100E1000D0F81022013AC0F8102208E0D0F81022D1
:100E200014F5805FBEBF00F5047501322A6001EB46
:100E30004231D0F81C22C91A1144C0F80C120AB071
:100E4000BDE8B040704700007047000070470000E8
:100E500070470000B0B5044690F8200001281DD16D
:100E6000022084F820002068016821F0010101605F
:100E700000F03AFB054600BF20684068C00713D069
:100E800000F032FB401B0B28F6D3606A40F40030C0
:100E90006062052084F820000120B0BD606A40F443
:100EA000002060620120B0BD00206062B0BD000083
:100EB0007047000070470000704700007047000056
:100EC00070470000704700007047000070B5866DE5
:100ED000044600F009FB94F83510022928D1054694
:100EE0002068216C026822F016020260426922F03A
:100EF0008002426109B9A16C19B1016821F00801B1
:100F00000160016821F00101016000BF20680068F4
:100F1000C00715D000F0E8FA401B0628F6D32020C1
:100F20006065032084F83500002184F8341070BD1A
:100F3000802060650120002184F8341070BD00BF5E
:100F4000E06D3F2101FA00F0B060012084F8350027
:100F50000020002184F8341070BD000090F8351096
:100F6000022909D1052180F835100068016821F0B7
:100F70000101016000207047802141650120704718
:100F8000F0B581B004460020009040F23C00C2F26F
:100F900000000268D4E9166048F2B51337680821EA
:100FA000C1F64E3381403942A2FB03250CD02268A2
:100FB00013685B0708D5136823F004031360B1605E
:100FC000616D41F00101616501218140394208D024
:100FD00022685269120604D5B160616D41F00201C8
:100FE000616504218140394208D022681268920765
:100FF00004D5B160616D41F004016165102181404B
:10100000394217D020680268120713D5B160026810
:101010000168520308D4C90508D4016821F0080109
:101020000160216C21B905E008033FD4216C09B1AE
:1010300020468847E16D202000FA01F23A4241D073
:1010400020680368DB063DD5B26094F8353002684D
:10105000052B1BD122F016020260426922F08002A9
:101060004261226C0AB9A26C1AB1026822F008022D
:1010700002603F208840B060012084F83500216D77
:101080000020002984F8340052D157E0016852034F
:1010900010D4C90512D4016821F0100101600120AB
:1010A00084F83500002084F8340007E0A16C0029A2
:1010B000BED1BFE7080301D4616C00E0E16B09B168
:1010C00020468847606DC8B3606DC0072ED00520EC
:1010D00084F835002068A90A026822F00102026043
:1010E000009A01328A4200921AD80268D20717D0B9
:1010F000009A01328A42009212D80268D2070FD0B9
:10110000009A01328A4200920AD80268D20707D0B8
:10111000009A01328A42009202D80268D207DFD1D7
:10112000012084F83500002084F83400E16C29B1F6
:10113000204601B0BDE8F040084700BF01B0F0BD57
:101140002DE9F041044600F0CFF9ECB1054602204C
:1011500084F835000020216884F83400086820F005
:101160000100086021680868C00711D000F0BCF9D0
:10117000401B0528F6D9032520230320636584F846
:101180003550BDE8F08100BF0120BDE8F08100BF0F
:10119000086848F23F02CFF21002D4E9013500EAB4
:1011A000020C04F10C0898E8C10143EA0C032B433C
:1011B0001843D4E9072E304338431043626A40EAAB
:1011C0000E00042A40EA08031CD1206BD4E90A2E41
:1011D00040EA0E00184308604869BEF1000F20F095
:1011E000030040EA020040F0040C11D0B8F5005FA3
:1011F00036D0B8F1000F45D1022A46D0012A3BD0A3
:1012000032B942E00B60486920F0070040EA020C66
:1012100001F0F8004AF6AB221038CAF6AA22A0FB69
:1012200002231A0945F60003C1F814C0C0F60003F2
:101230009A5C40F2FF335F284FF03F0021EA030140
:1012400000FA02F088BF0431C4E916128860002356
:1012500001250020636584F83550BDE8F08100BFAA
:10126000032AD5D8012540230120DFE802F0030E30
:10127000030500BF82E700BFAEF1C070B0FA80F096
:10128000400904E0032A04D3C2D1CEF30060002851
:10129000BED0012540230120636584F83550BDE8A8
:1012A000F081000090F834C0BCF1010F04BF0220AF
:1012B000704770B54FF0010C80F834C0D0F858E09A
:1012C00090F835C0BCF1010F38D14FF0020C80F816
:1012D00035C04FF0000CC0F854C0D0F800C084688E
:1012E000056CC06DDCF80060402C26F48026CCF83C
:1012F0000060CCF804300B4604BF13460A463F2179
:1013000001FA00F0CCF80830CCF80C20CEF8080038
:10131000DCF8000040F01600CCF800002DB1DCF83D
:10132000000040F00800CCF80000DCF8000040F0BD
:101330000100CCF80000002070BD00BF002180F843
:101340003410022070BD00002DE9F04F82B000F192
:101350003E4707F1FF77860546EA972741F60046A4
:10136000C4F20206082243F6004EB04208BF07222C
:10137000C4F2010E072F38BF3A46002600274FF06F
:101380000008009209E000BF08F101080237B8F137
:10139000100F06F1040600F0A3800D68012202FA86
:1013A00008F415EA0409EFD0D1F804B003220BF0D9
:1013B000030CACF10105BA40012D6FEA020A0FD807
:1013C0008268CD6802EA0A02BD402A438260426810
:1013D000A243CBF3001404FA08F42243426005E070
:1013E000BCF1030F02D14FF0030C1EE0C2688C6801
:1013F00002EA0A02BC402243BCF1020FC26014D1CF
:101400006FF0030202EA58020244D2F820C006F04C
:101410001C040F230D69A3402CEA0303A5402B43B2
:101420001362D1F804B00BF0030C02680CFA07F356
:1014300002EA0A021A431BF4403F0260A4D00022D1
:1014400043F644030192C4F202031A684FF6084CB3
:1014500042F480421A601A68CFF6FF7C02F48042A0
:101460000192019A28F00302724452F80C3006F0FF
:101470000C050F24AC40A343009C04FA05F52B4354
:1014800042F80C30DEF808204B6842EA090543F6C2
:101490000C4CDC0258BF22EA0905CEF80850C4F211
:1014A000010CDCF800209C0242EA090558BF22EA40
:1014B0000905CCF80050DEF804209C0342EA090537
:1014C00058BF22EA0905CEF80450DEF80020DB03FD
:1014D00042EA090558BF22EA0905CEF8005053E751
:1014E00002B0BDE8F08F000040F63010C2F20000FC
:1014F0000068704740F2040040F63011C2F200006C
:10150000C2F2000100780A681044086070470000C9
:1015100080B543F60040C4F20200016841F4007156
:101520000160016841F480610160016841F48071EB
:101530000160032000F086F80F2000F005F800F0AD
:1015400027F8002080BD000070B540F20406C2F20A
:10155000000640F23C013278C2F200014FF47A7387
:101560000968B3FBF2F20446B1FBF2F1084600F061
:101570006DFB0F2C4FF0010508D838B94FF0FF3044
:1015800021460022002500F031F87460284670BD25
:1015900082B0002043F640010190C4F202014A6883
:1015A00042F480424A604A6802F480420192019A01
:1015B0000090086840F080500860086800F0805093
:1015C0000090009802B07047002848BF704700F0B4
:1015D0001F01012202FA01F11C2202EAD0004EF2A0
:1015E0000012CEF2000281507047000010B54EF696
:1015F0000C5CCEF2000CDCF80030C3F3022E8EF04F
:101600000704042C28BF0424BEF103034FF0FF3E5F
:101610000EFA04F438BF0023A14399400EFA03F3F5
:101620009A43114300F00F0200F160430901043AAC
:1016300003F564436244002848BF02F10C031970AB
:1016400010BD00004EF60C51CEF200010A684FF6B4
:10165000FF031A4060F30A2242F0806040F0FD7000
:1016600008607047002804BF012070472DE9F04151
:1016700043F60808C4F202080446D8F8F8030D46F9
:1016800000F00700884207D288F8F853D8F8F8032A
:1016900000F00700A84277D12068810717D54107DD
:1016A00005D5D8F8001041F4E051C8F80010010742
:1016B00005D5D8F8001041F46041C8F80010D8F8FA
:1016C0000010A26821F0F0011143C8F80010C00713
:1016D00040D1D8F8F80300F00700A84207D988F8ED
:1016E000F853D8F8F80300F00700A8424CD120685E
:1016F000410707D5D8F80010E26821F4E051114302
:10170000C8F80010000708D5D8F80000216920F4B7
:10171000604040EAC100C8F8000000F07DF8D8F849
:10172000001045F2E872C1F30311C0F60002515CEB
:1017300040F23C0220FA01F140F20800C2F200003F
:101740000068C2F200021160FFF7FEFE0020BDE853
:10175000F08100BF6068811E022907D258F8081C7A
:1017600089015CBF0120BDE8F08111E0012807D1AB
:1017700058F8081C89035CBF0120BDE8F08107E030
:1017800058F8081C890703D40120BDE8F08100BF88
:10179000D8F8001021F003010843C8F80000FFF753
:1017A000A3FE064641F28837D8F80000616800F0D1
:1017B0000C00B0EB810F8CD0FFF796FE801BB84277
:1017C000F2D90320BDE8F08140F23C0043F6080165
:1017D000C2F20000C4F202010068096845F2F87222
:1017E000C1F38221C0F60002515CC840704700007E
:1017F00040F23C0043F60801C2F20000C4F20201CC
:101800000068096845F2F872C1F34231C0F600027F
:10181000515CC8407047000010B543F60404C4F2A0
:101820000204606800F00C0008280BD0042819BFDF
:1018300042F20040C0F2F40047F64000C0F27D10D2
:1018400010BD00BF206821682368490247F64001A7
:10185000C0F27D1100F03F02C3F388105CBF42F27A
:101860000041C0F2F401A1FB00010023FEF713FDCB
:1018700021680222C1F3014102EB4101B0FBF1F00A
:1018800010BD0000002804BF012070472DE9F04181
:1018900082B00446007843F60006C007C4F2020690
:1018A0000CD0B06800F00C00042840F08180306853
:1018B000800303D56068002800F06A8120788007E3
:1018C0001BD5B06810F00C0F09D0B06800F00C0008
:1018D000082840F087807068400200F183803068FB
:1018E000800703D5E068012840F052813068216903
:1018F00020F0F80040EAC10030602078000713D4DF
:10190000207840072AD4A569002D00F03C81B068FA
:1019100000F00C00082840F0A180012D40F010815B
:10192000012002B0BDE8F0816069002840F20000AB
:10193000C4F2472000F07E800121C0F8801EFFF72E
:10194000D3FD0546706F8007DAD4FFF7CDFD401B4D
:101950000228F7D9032002B0BDE8F081306C5FEABD
:10196000C0080AD400200190306C40F080503064F0
:10197000306C00F080500190019847F20007C4F2EB
:1019800000073868C00547D4386840F48070386074
:10199000FFF7AAFD054600BF3868C0053CD4FFF735
:1019A000A3FD401B0228F7D9032002B0BDE8F08157
:1019B000B06800F00C00082803D1706840023FF5C1
:1019C00076AF6068B0F5803F07D0B0F5A02F40F04B
:1019D0009B80306840F480203060306840F4803074
:1019E00030609BE0E06800285CD00020C4F2472013
:1019F00001210160FFF778FD054600BF30688007D0
:101A00003FF574AFFFF770FD401B0228F6D90320A5
:101A100002B0BDE8F08100BFA068012805D005280C
:101A200054D1306F40F004003067306F40F0010057
:101A3000306755E00021C0F8801EFFF755FD0546D0
:101A4000706F80077FF55CAFFFF74EFD401B0228EB
:101A5000F6D9032002B0BDE8F08100BF0027C4F230
:101A6000472700203866FFF73FFD022D05460DD1C0
:101A70003068800140F19080FFF736FD401B02285E
:101A80004FF00300F4D902B0BDE8F0813068800166
:101A900079D5FFF729FD401B02284FF00300F5D947
:101AA000F1E700BF0020C4F2472000210160FFF7EA
:101AB0001BFD0546306880077FF51FAFFFF714FD5B
:101AC000401B02284FF00300F4D9DCE7316F0028F7
:101AD00021F001013167316F21F0040131677DD0C0
:101AE000FFF702FD054641F2883700BF306F8007DF
:101AF00000F18680FFF7F8FC401BB842F6D90320BE
:101B000002B0BDE8F08100BF3168002821F48031C7
:101B10003160316821F4802131607BD0FFF7E4FC33
:101B2000054600BF306880033FF5C8AEFFF7DCFC18
:101B3000401B6428F6D9032002B0BDE8F08100BF45
:101B40007068E16900F480028A4221D1216A00F0C4
:101B50003F028A421CD147F6C071626A0140B1EB74
:101B6000821F15D1A16A4FF6FF73C903994300F490
:101B70004032A1F580318A420AD1E16A00F07060FA
:101B8000B0EB016F04D1002002B0BDE8F08100BFCE
:101B9000012002B0BDE8F08104F11C052FCD0843FF
:101BA00040EA8210D9034FF6FF729143A1F58031CC
:101BB00040EA05600843706001203866FFF794FC36
:101BC000044600BF30688001DDD4FFF78DFC001BA8
:101BD00002284FF00300F5D955E700BFFFF784FC5A
:101BE000054641F2883700BF306F800708D5FFF700
:101BF0007BFC401BB8424FF00300F5D943E700BF20
:101C0000B8F1000F3FF57FAE306C20F080503064AB
:101C100079E600BFFFF768FC054600BF3068800327
:101C20007FF54CAEFFF760FC401B64284FF00300CB
:101C3000F4D928E74EF21001CEF200010A68042818
:101C400022F0040208BF04320A607047411E0020DF
:101C5000B0EB116F1CBF012070474EF21002CEF2A4
:101C6000000251604EF62351CEF20001F0230B70BA
:101C700007219060116070477047000070470000B6
:101C800090F83C20012A4FF0020254D010B580F8A1
:101C90003D200268D2F804E0D2F808C00C682EF0AB
:101CA0007003234341F2FF74C4F20004A242536064
:101CB0000EDC40F2FF73C4F200039A4216DCB2F16C
:101CC000804F2BD040F20043C4F2000324E000BF59
:101CD00040F2FF33C4F201039A4213DC41F60003E1
:101CE000C4F200039A4219D0002313E040F6000327
:101CF000C4F200039A4211D040F60043C4F200033C
:101D00000AE000BF44F20003C4F201039A4205D086
:101D100040F20043C4F201039A4204D149682CF016
:101D20008003194391600121002280F83D1080F862
:101D30003C20BDE81040104670470000002804BF5A
:101D40000120704710B5044690F83D0028B90020E6
:101D500084F83C00204600F01FF8022084F83D0083
:101D60002068211D00F0C8FF012084F8460084F897
:101D70003E0084F83F0084F8400084F8410084F875
:101D8000420084F8430084F8440084F8450084F855
:101D90003D00002010BD0000006841F20041C4F287
:101DA0000001884218BF704780B582B000200190C2
:101DB00043F64000C4F202000168002241F0200115
:101DC00001600068002100F0200001900198372098
:101DD000FFF70CFC372002B0BDE88040FFF7F4BBF2
:101DE00090F83D1001291CBF01207047022180F8A6
:101DF0003D10006841F2FF72C168C4F200029042D7
:101E000041F00101C1600DDC40F2FF71C4F200013C
:101E1000884215DCB0F1804F2AD040F20041C4F274
:101E2000000123E040F2FF31C4F20101884213DCDB
:101E300041F60001C4F20001884219D0002113E0EC
:101E400040F60001C4F20001884211D040F6004182
:101E5000C4F200010AE000BF44F20001C4F2010133
:101E6000884205D040F20041C4F20101884206D107
:101E7000816801F00701062904BF0020704701684E
:101E800041F0010101600020704700007047000030
:101E900070B504460068C5680669B10716D515F027
:101EA000020113D06FF002010161012121778069E5
:101EB000800703D02046FFF7E9FF05E0204600F049
:101EC0008FF8204600F08EF800202077700719D593
:101ED00015F0040016D020686FF0040101610221A2
:101EE0002177806910F4407F04D02046FFF7CEFFB1
:101EF00006E000BF204600F073F8204600F072F8BC
:101F000000202077300717D515F0080014D020687E
:101F10006FF00801016104212177C069800703D0B7
:101F20002046FFF7B3FF05E0204600F059F82046B1
:101F300000F058F800202077F00619D515F01000B1
:101F400016D020686FF01001016108212177C06967
:101F500010F4407F04D02046FFF798FF06E000BF52
:101F6000204600F03DF8204600F03CF800202077A5
:101F7000F00718BF15F0010002D1300609D412E0B5
:101F800020686FF001010161204600F02DF8300655
:101F900009D515F0800006D020686FF0800101613E
:101FA0002046FFF769FE700609D515F0400006D0FF
:101FB00020686FF040010161204600F0A9F8B006EA
:101FC00058BF70BD15F0200008D021686FF02002C6
:101FD00020460A61BDE87040FFF750BE70BD0000AA
:101FE00070470000704700002DE9F04381B001F018
:101FF000AFF940F24004C2F20004204601F0ECFECA
:10200000204601F03DFB204601F05EFD204601F038
:10201000DFFB94ED000B51EC100B02F045FE00EEDF
:10202000100A40F21460C2F20000451C284601214B
:1020300001F0E2FA94ED101BBDEEC00A51EC110B59
:1020400010EE108A02F030FE00EE100A284602213F
:1020500001F0D2FA94ED081BBDEEC00A51EC110B51
:1020600010EE107A02F020FE00EE100A284603213E
:1020700001F0C2FA40F24810C2F20000BDEEC00A00
:1020800000F2822610EE103A4FF000093046414629
:102090003A46CDF8009001F01BFF94ED020B51EC95
:1020A000100B02F001FE00EE100A2846012101F09B
:1020B000C5FA94ED0A1BBDEEC00A51EC110B10EEEF
:1020C000107A02F0F1FD00EE100A2846022101F01C
:1020D000B5FA94ED121BBDEEC00A51EC110B10EED7
:1020E000104A02F0E1FD00EE100A2846032101F03B
:1020F000A5FABDEEC00A10EE103A30463946224627
:10210000CDF8009001F010FF01B0BDE8F0830000B1
:10211000704700007047000070470000B0B582B003
:10212000044600680168C368426901F02F05202D4C
:1021300003F0200506D12DB1204602B0BDE8B04025
:1021400001F006B85FEA017C1EBF02F0010E03F445
:10215000907212EB0E0243D1226BCD0618D5012AE4
:1021600016D113F0100213D00021019101680191E2
:10217000416801910199406940063BD4A08DE18DF1
:10218000E28D002A18BF884240F0F28102B0B0BD53
:102190000A0640F1E78013F0800200F0E38094F833
:1021A00041102129F2D1A168B1F5805F03D12169E5
:1021B000002900F06382216A4A1C2262097841608A
:1021C000E18C01390A04E184E0D1C16821F0800189
:1021D000C160C16841F04001C16002B0B0BD00BF44
:1021E000CA0718BF13F4807240F0D0804A0700F18C
:1021F000D380D8E0E06B016849688AB2002AC5D074
:10220000A38D9A42C2D2E185C069B0F5807F00F00B
:102210009D80206850E8030F216820F4807041E819
:102220000302DAB1206850E8030F216820F48070BF
:1022300041E8030292B1206850E8030F216820F4BE
:10224000807041E803024AB1206850E8030F21681A
:1022500020F4807041E80302002ADAD1206850E8B7
:10226000050F216820F0010041E80502BAB320689B
:1022700050E8050F216820F0010041E8050272B323
:10228000206850E8050F216820F0010041E80502B0
:102290002AB3206850E8050F216820F0010041E8CA
:1022A0000502002ADAD11AE0206850E8050F2168FB
:1022B00020F0400041E80502DAB1206850E8050F3F
:1022C000216820F0400041E8050292B1206850E802
:1022D000050F216820F0400041E805024AB120685E
:1022E00050E8050F216820F0400041E80502002A6F
:1022F000DAD1202084F8420000202063206850E8D2
:10230000030F216820F0100041E80302DAB12068D1
:1023100050E8030F216820F0100041E8030292B159
:10232000206850E8030F216820F0100041E8030204
:102330004AB1206850E8030F216820F0100041E8FE
:102340000302002ADAD1E06BFEF7C0FD02206063D1
:10235000A08DE18D401A81B2204602B0BDE8B040A8
:10236000FFF7D8BE49067FF511AF13F040013FF4E7
:102370000DAFC16821F04001C1602021204684F8E2
:10238000411002B0BDE8B04000F03ABB626C42F0D0
:10239000010262644A0706D5BEF1000F03D0626CE9
:1023A00042F0020262648A0706D5BEF1000F03D034
:1023B000626C42F004026264BCF1000F06D55EEA72
:1023C000050203D0626C42F008026264626C002A6B
:1023D0003FF4DCAE890604D51DB1204600F0B8FEFE
:1023E00020684069616C00F0400001F0080140186D
:1023F00000F0B680206850E8030F216820F4907048
:1024000041E80302BAB3206850E8030F216820F4C2
:10241000907041E8030272B3206850E8030F21680E
:1024200020F4907041E803022AB3206850E8030FBB
:10243000216820F4907041E80302002ADAD11AE002
:10244000206850E8050F216820F0010041E80502EE
:10245000DAB1206850E8050F216820F0010041E85A
:10246000050292B1206850E8050F216820F00100B4
:1024700041E805024AB1206850E8050F216820F0C4
:10248000010041E80502002ADAD1206B012824D19D
:10249000206850E8030F216820F0100041E8030293
:1024A000DAB1206850E8030F216820F0100041E8FD
:1024B000030292B1206850E8030F216820F0100059
:1024C00041E803024AB1206850E8030F216820F078
:1024D000100041E80302002ADAD1202084F84200EB
:1024E0000020206320684069400640F1C1802068D8
:1024F00050E8050F216820F0400041E80502DAB1FC
:10250000206850E8050F216820F0400041E80502EE
:1025100092B1206850E8050F216820F0400041E8A2
:1025200005024AB1206850E8050F216820F04000FC
:1025300041E80502002ADAD1E06B002800F098801B
:1025400042F65161C0F600010165FEF707FD002863
:102550003FF41CAEE06B016D02B0BDE8B04008472F
:102560002046FFF7D9FD0020606402B0B0BD00BF77
:10257000401A00BF216851E8031F226821F49071BE
:1025800042E80313BBB3216851E8031F226821F41A
:10259000907142E8031373B3216851E8031F226866
:1025A00021F4907142E803132BB3216851E8031F13
:1025B000226821F4907142E80313002BDAD11AE06B
:1025C000216851E8051F226821F0010142E8051346
:1025D000DBB1216851E8051F226821F0010142E8C2
:1025E000051393B1216851E8051F226821F001010C
:1025F00042E805134BB1216851E8051F226821F01C
:10260000010142E80513002BDAD1202184F84210A1
:1026100000212163216851E8031F226821F0100185
:1026200042E80313DBB1216851E8031F226821F05F
:10263000100142E8031393B1216851E8031F226897
:1026400021F0100142E803134BB1216851E8031F48
:10265000226821F0100142E80313002BDAD1022294
:1026600081B22046626302B0BDE8B040FFF752BDC0
:10267000204602B0BDE8B040FFF74EBD216A31F8F8
:10268000022B6FF35F224260216299E5002804BFAC
:102690000120704710B5044690F8410028B9002089
:1026A00084F84000204600F021F8242084F84100FE
:1026B0002068C16821F40051C160204600F0C8FDC7
:1026C0002068016921F490410161416921F02A01EA
:1026D0004161C16841F40051C16000202021606463
:1026E00084F8411084F84210606310BD2DE9F04772
:1026F00086B00446006841F20001C4F201010026E0
:102700008842CDE90466CDE9026601966CD044F6B4
:102710000041C4F20001884240F0BB8043F6300023
:102720000096C4F20200016946F2400841F400211B
:1027300001610169C4F2020801F4002100910099CD
:102740000096016841F0010101600068022100F07B
:10275000010000900098032001900490082005904B
:102760000020CDE90216C4F2020001A9FEF7ECFD3B
:1027700040F21C45C2F200054FF000674FF4806A3A
:102780004FF480792846C5E90087C5E90266C5E9A6
:1027900004A6C5E90669C5E90866FEF7D1FC00286C
:1027A00018BFFDF779FEE563AC6340F27C4508F1A4
:1027B0003000C2F200054021C5E9000705F108001C
:1027C00080E842042846C5E90566C5E907966E62B9
:1027D000FEF7B6FC002818BFFDF75EFEA56305F105
:1027E000380034254CE000BF43F630000096C4F2B8
:1027F0000200416941F010014161416901F010019D
:10280000009100990096016841F0010101600068A3
:1028100001A900F00100009000984FF4C060019001
:102820000220CDE902060320049007200590002035
:10283000C4F20200FEF788FD46F24000C4F2020036
:1028400040F2DC4500F58060C2F200054FF0006107
:102850004FF480624FF4807385E843002846C5E951
:102860000362C5E90566C5E907366E62FEF768FCD6
:10287000002818BFFDF710FEE56305F13800252597
:102880000460284600210022FEF7B0FE2846FEF72D
:102890009BFE06B0BDE8F08770B582B0044690F8A4
:1028A000420020280AD113460A4600294FF00100B1
:1028B00018BF002B06D102B070BD00BF022002B0CD
:1028C00070BD00BF002622202663A262A385666435
:1028D00084F84200E06B42F6D97C43F23915216856
:1028E000C0F6000CC0F60005C0E90FC542F65D65F4
:1028F000C0F600050431C0E91356FEF7D3FC01967B
:10290000206801680191406801900198206928B30E
:10291000206850E8030F216840F4807041E803020A
:10292000E2B1206850E8030F216840F4807041E86C
:1029300003029AB1206850E8030F216840F48070C8
:1029400041E8030252B1206850E8030F216840F4C7
:10295000807041E80302002ADAD100BF206850E805
:10296000050F216840F0010041E80502BAB3206874
:1029700050E8050F216840F0010041E8050272B3FC
:10298000206850E8050F216840F0010041E8050289
:102990002AB3206850E8050F216840F0010041E8A3
:1029A0000502002ADAD11AE0206850E8050F2168F4
:1029B00040F0400041E80502DAB1206850E8050F18
:1029C000216840F0400041E8050292B1206850E8DB
:1029D000050F216840F0400041E805024AB1206837
:1029E00050E8050F216840F0400041E80502002A48
:1029F000DAD1002002B070BD7047000070470000BF
:102A000070470000FEE7000080B540F2CC3046F28F
:102A10000041C2F20000C4F200010322002380E85A
:102A20000E0000F10C014FF4C02C4FF4A00E81E811
:102A3000085083618383FDF7D7FF002808BF80BD5E
:102A4000BDE88040FDF728BD80B540F2F43046F681
:102A50000001C2F20000C4F200010322002380E85A
:102A60000E0000F10C014FF4C02C4FF4A00E81E8D1
:102A7000085083618383FDF7B7FF002808BF80BD3E
:102A8000BDE88040FDF708BD80B582B0002043F668
:102A900030010190C4F202010A6842F400120A6097
:102AA0000A6802F400120192019A0090086800225C
:102AB00040F4800008600868002100F48000009065
:102AC00000980D20FEF792FD0D20FEF77DFD0F20F2
:102AD00000210022FEF78AFD0F20FEF775FD3A2047
:102AE00000210022FEF782FD3A2002B0BDE88040BE
:102AF000FEF76ABD83B0002043F630010290C4F2B5
:102B000002010A6842F080020A600A6802F080024C
:102B10000292029A01900A6842F001020A600A6871
:102B200002F001020192019A0090086840F0020050
:102B30000860086800F002000090009803B0704739
:102B400080B582B040F23C5041F200420021C2F216
:102B50000000C4F2000242F2CF034FF0130CCDE9A3
:102B60000011C0E90023C0E9021C8161FFF7E6F80B
:102B7000002818BFFDF790FC40F23C50C2F2000064
:102B80006946FFF77DF8002818BFFDF785FC02B005
:102B900080BD000080B540F2CC5044F60041C2F246
:102BA0000000C4F2000100234FF00C0C4FF4E1329E
:102BB00080E80E00C0E90333C0E905C3C361FFF735
:102BC00065FD002808BF80BDBDE88040FDF764BCFE
:102BD00080B540F2845041F2000C48F2A062C2F28B
:102BE0000000C4F2010CC0F201024FF48053002136
:102BF0004FF00C0EC0E900C2C0E90231C0E9041E6A
:102C0000C0E90611FFF742FD002808BF80BDBDE8FE
:102C10008040FDF741BC0000FEE70000FEE7000039
:102C20007047000070470000FEF764BCB0B592B07A
:102C3000002443F64000CDE90A44CDE90844059458
:102C4000CDE90344CDE901440094C4F202000168D7
:102C5000022541F080510160006800F08050009032
:102C6000009847F200000094C4F20000016841F4AB
:102C700080410160006800F48040009000980120CD
:102C800006904FF4803007904FF480000D9019208B
:102C90000E904FF4A870CDE90F050420119006A8FE
:102CA0000C95FEF7EFFD18B172B600BFFEE700BF4E
:102CB0000F20CDE901054FF4A05004904FF480504F
:102CC000059001A805210394FEF7CCFC10B172B663
:102CD000FEE700BF12B0B0BD4EF68850CEF2000045
:102CE000016841F4700101607047000040F23C50FF
:102CF000C2F20000FFF7CCB810B540F6FF3E036803
:102D0000C4F2000E40F2004C7045C4F2010C27DC06
:102D1000B0F1804F31D040F20042C4F20002904244
:102D20002BD040F60002C4F20002904225D041F6BA
:102D3000FF72C4F20002904229DC70453CDCB0F125
:102D4000804F5FD040F20042C4F20002904259D05E
:102D500040F60002C4F20002904253D056E000BF99
:102D600040F60042C4F20002904206D0604504D012
:102D70000022C4F201029042D9D14A6823F07003C4
:102D8000134341F6FF72C4F200029042D5DD43F6D0
:102D9000FF72C4F20102904222DC42F20002C4F24D
:102DA000000290422ED00022C4F20102904229D0AB
:102DB000604527D02AE000BF40F60042C4F200027E
:102DC00090421FD041F60002C4F20002904219D096
:102DD00041F60042C4F20002904213D016E000BF58
:102DE00044F20002C4F2010290420BD044F6000209
:102DF000C4F20102904205D044F20042C4F2010242
:102E0000904203D1CA6823F44073134323F0800235
:102E10004B69D1F800E08C681A430260C46240F448
:102E20008062C0F828E0624504BF0969016301219E
:102E300041610169C90708BF10BD016921F00101A5
:102E4000016110BD40F2CC50C2F20000FFF766B93C
:102E5000806B0021C185C184FFF75EB9806B01687A
:102E60004A6990F84130212B2DD112F080022AD0EE
:102E70000021C184016851E8031F026821F0C001EC
:102E800042E80313DBB1016851E8031F026821F037
:102E9000C00142E8031393B1016851E8031F0268BF
:102EA00021F0C00142E803134BB1016851E8031F50
:102EB000026821F0C00142E80313002BDAD120217F
:102EC00080F841100168496990F84220222A40F0B8
:102ED0007D8011F0400179D00021C185016851E861
:102EE000031F026821F4907142E80313BBB3016829
:102EF00051E8031F026821F4907142E8031373B391
:102F0000016851E8031F026821F4907142E803133D
:102F10002BB3016851E8031F026821F4907142E865
:102F20000313002BDAD11AE0016851E8051F02688B
:102F300021F0010142E80513DBB1016851E8051FEA
:102F4000026821F0010142E8051393B1016851E8DC
:102F5000051F026821F0010142E805134BB1016829
:102F600051E8051F026821F0010142E80513002B1A
:102F7000DAD1016B012924D1016851E8031F0268ED
:102F800021F0100142E80313DBB1016851E8031F8F
:102F9000026821F0100142E8031393B1016851E87F
:102FA000031F026821F0100142E803134BB10168CE
:102FB00051E8031F026821F0100142E80313002BBF
:102FC000DAD1202180F8421000210163416C41F0E8
:102FD00010014164FFF7A0B80168806B0968C9055A
:102FE00000F19F800021C185016851E8031F02683C
:102FF00021F4807142E80313E3B1016851E8031F33
:10300000026821F4807142E803139BB1016851E822
:10301000031F026821F4807142E8031353B1016871
:1030200051E8031F026821F4807142E80313002B6A
:10303000DAD100BF016851E8051F026821F00101E3
:1030400042E80513BBB3016851E8051F026821F08F
:10305000010142E8051373B3016851E8051F0268D6
:1030600021F0010142E805132BB3016851E8051F67
:10307000026821F0010142E80513002BDAD11AE0C1
:10308000016851E8051F026821F0400142E805137C
:10309000DBB1016851E8051F026821F0400142E8F8
:1030A000051393B1016851E8051F026821F0400142
:1030B00042E805134BB1016851E8051F026821F091
:1030C000400142E80513002BDAD1202180F842109C
:1030D000016B012925D100BF016851E8031F026877
:1030E00021F0100142E80313DBB1016851E8031F2E
:1030F000026821F0100142E8031393B1016851E81E
:10310000031F026821F0100142E803134BB101686C
:1031100051E8031F026821F0100142E80313002B5D
:10312000DAD100214163016B012918BFFFF764BCAC
:10313000818DFEF7EFBF0000806B01214163016BC1
:10314000012918BFFFF75ABC818D4908FEF7E2BF7D
:1031500081B090F84210222921D183680246B3F54C
:10316000805F09D152F8281F52F8183C002B63D019
:1031700003685B680AE000BF52F8281F13B90369AF
:10318000002BF5D003685B6803F07F030B701168B8
:1031900001311160C18D01390A04C18502D001B02D
:1031A000704700BF0168CA6822F02002CA60CA687E
:1031B00022F48072CA604A6922F001024A61202129
:1031C00080F8421000214163026B012A3CD1016367
:1031D000016851E8031F026821F0100142E803135F
:1031E000DBB1016851E8031F026821F0100142E8D9
:1031F000031393B1016851E8031F026821F0100125
:1032000042E803134BB1016851E8031F026821F043
:10321000100142E80313002BDAD101680A68D206D4
:1032200006D5002200920A68009249680091009930
:10323000818D01B0FEF76EBF026852686FF35F22A6
:1032400021F8022B8162A5E701B0FFF7D5BB000092
:1032500010B504460068D4E902C22369016921F46B
:10326000405111430161626943EA0C01E369114372
:10327000C268194349F20C639A431143C160416922
:10328000A26921F4407141F20043114340F480628D
:10329000C4F201039A42416102D1FEF7A9FA01E0AA
:1032A000FEF792FAE16963681922B1F5004FA0FBBD
:1032B000020123D15A00DB0FFCF7EDFF48F21F514A
:1032C000C5F2EB11A0FB01235A094FF69C73C0F61F
:1032D000FF7303F1805302FB0300322303EBC000B2
:1032E000A0FB01014FF4F87000EA111000EB02108E
:1032F000C1F3421108442168886010BD9A009B0FF9
:10330000FCF7C9FF48F21F51C5F2EB11A0FB0123E6
:103310005A094FF69C73C0F6FF7302FB0300322379
:1033200003EB0010A0FB0101F02000EA511000EBBC
:103330000210C1F3431108442168886010BD0000E9
:1033400040F28450C2F20000FEF7E8BEFEE7000043
:10335000B0B540F21A10C2F20000827890F804C0B2
:1033600090F801E0C378D5084FEA8C0C417962F3FC
:103370000A2E63F34A154CEA9313827961F38A2388
:10338000490862F3CA119409C2F3011280F8272098
:10339000AEF58062C283A5F580620284A3F58062E7
:1033A000A1F5806180F8264042848184B0BD000090
:1033B000F0B581B02DED048B40F20C05C2F2000592
:1033C00040F658079FED2A8A9FED2A9A05F12406B8
:1033D000C2F20007394600223346B0EE480AF0EE4A
:1033E000490A044600F0F0F807F14801204600229F
:1033F0003346B0EE480AF0EE490A00F0E5F807F16E
:103400009001204600223346B0EE480AF0EE490A09
:1034100000F0DAF840F218669FED179AC2F2000643
:103420002046314600222B46B0EE480AF0EE490A0B
:1034300000F0CAF806F1480105F10C03204600220D
:10344000B0EE480AF0EE490A00F0BEF806F190012D
:1034500005F1180320460022B0EE480AF0EE490AB2
:10346000BDEC048B01B0BDE8F04000F0ADB800BF8A
:1034700000409C4600401C460080BB4500294FD0C0
:10348000087891ED0F1A91ED102A81ED070A30EEC0
:10349000C00A0028C1ED060A81ED0F0A81ED101A5D
:1034A00081ED112A40D0012840F0888091ED015A29
:1034B00091ED026A30EE414A31EE011A91ED037A44
:1034C00024EE054A20EE065A30EE410A32EE000A9A
:1034D000D1E90C2081ED0C0A20EE070A34EE051A22
:1034E00091ED082A91ED043A81ED0B0A31EE000AC4
:1034F00032EE000AB4EE430AF1EE10FA81ED094A09
:1035000081ED0A5AC1E90D2081ED080AC2BF81EDA3
:10351000083AB0EE430A7047B1EE431A43E000BFE9
:103520009FED280A704700BF91ED024A91ED0A6AAB
:1035300091ED012A91ED053A24EE004A91ED035AEE
:1035400034EE064A20EE022AD1E90C2030EE410A80
:10355000B4EE434A81ED0C0A20EE050AF1EE10FAB2
:1035600081ED092A81ED0A4AC1E90D2081ED0B0A9E
:1035700006DCB1EE433AB4EE434AF1EE10FA03DA58
:10358000B0EE434A81ED0A3A32EE042A91ED041A74
:1035900030EE020AB4EE410AF1EE10FA81ED080AAB
:1035A00007DCB1EE411AB4EE410AF1EE10FAA8BF01
:1035B0007047B0EE410A81ED081A704791ED080A94
:1035C000704700BF00000000002918BF002B01D188
:1035D000704700BF80B50A701868486058688860F6
:1035E000986881ED040AC860C1ED050A01F1200068
:1035F0002821FCF7C8FE80BD10B540F24812481ED5
:10360000C2F2000200EBC00102EB401040F218626F
:10361000B0F90201C2F20002F0EE400A02EBC1046E
:1036200000EE100A40F21460B8EEC00AC2F20000C8
:103630002146FFF723FF94ED080A10BD10B540F2B4
:103640004812481EC2F2000200EBC00102EB40101B
:1036500040F65802B0F90202C2F20002F0EE400A4F
:1036600002EBC10400EE100A40F21460B8EEC00A8A
:10367000C2F200002146FFF701FF94ED080A10BDD9
:103680002DE9F0412DED048B40F2481CC2F2000CF4
:10369000DCE98323DCE98B65A2EB43324EF20103C4
:1036A000C0F2FF33A2FB03418046C809A6EB4536B2
:1036B00000EB4030A6FB0354101ADCE9937500EED2
:1036C000100AE00900EB4030A7EB4535301AA5FBA6
:1036D00003379FED2B1A03EE100A9FED2A2AB8EE4E
:1036E000433AF80923EE013A00EB4030B8EE400AC5
:1036F00023EE023A281A20EE010A32EE438A03EE44
:10370000100A20EE020AB8EE433A32EE400A23EEE7
:10371000011A21EE021A10EE100A32EE419A01F05F
:1037200049FF9FED150B55EC106B32462B4601F00F
:1037300049FD01F0B9FAC8F8100018EE100A01F0BE
:1037400039FF32462B4601F03DFD01F0ADFAC8F8D5
:10375000300019EE100A01F02DFF32462B4601F021
:1037600031FD01F0A1FAC8F85000BDEC048BBDE8B2
:10377000F08100BF00BF00BF0B95C0A646DF913FA0
:10378000000000390000B44340F21810C2F20000FB
:103790000178002918BF704740F24811C2F20001B9
:1037A000B1F8002241F22923D21AC1F81C22B1F843
:1037B000202241F6E713D21AB1F84032C1F83C2278
:1037C000A3F63C72C1F85C22012101707047000031
:1037D0002DE9F04F81B02DED028B88B08346D0E902
:1037E0000405DBE90C9801F0E5FE074641EC180BF7
:1037F00028460E4601F0DEFE9FEDAB0B5AEC105B47
:103800002A46534601F0DEFC02460B463846314656
:1038100001F0E2FD01F048FACBF81800484601F04B
:10382000C9FE064640460F4601F0C4FE2A465346EE
:1038300001F0C8FC02460B463046394601F0CCFD8B
:1038400001F032FACBF83800DBF8500001F0B2FE9C
:103850000646DBF854000F4601F0ACFE2A465346FC
:1038600001F0B0FC02460B463046394601F0B4FD8B
:1038700001F01AFACBF85800DBF8600001F09AFE6C
:103880009FED8B0B55EC107B3A462B4601F09AFCD2
:1038900001F00AFA8046DBF8640001F08BFE3A463C
:1038A0002B4601F08FFC01F0FFF90646DBF86800BB
:1038B00001F080FE3A462B4601F084FC01F0F4F959
:1038C0008146304601F076FEB0EE480AF0EE680A16
:1038D000054605900C46049100F056FDB0EE408A76
:1038E0004046F0EE608A01F065FE8246DBF810008B
:1038F0000F46069101F05EFE41EC100B00F0E0FC7B
:1039000051EC100B52463B46CDF808A001F05AFC92
:1039100006460F4653EC182B2846214601F052FC70
:1039200032463B4601F0F2F9074648460E4601F0A2
:1039300041FE9FED610B53EC102B01F043FC8046E0
:10394000DBF818000D46039101F034FE41EC100B3A
:1039500000F01AFD53EC102B40462946CDF80480A8
:1039600001F030FC3A46334601F0D0F99FED540B9C
:1039700053EC102B0093079201F024FC41EC100B48
:10398000DBF830008BED000B01F014FE41EC100B66
:1039900000F0FAFCDBF83000B0EE408AF0EE608A0E
:1039A00001F008FE41EC100B00F08AFC069C51EC83
:1039B000100B5246234601F005FCDDF81490049FDD
:1039C00005460E4653EC182B4846394601F0FAFBE3
:1039D0002A46334601F09AF90646DBF838008A4653
:1039E00001F0E8FD41EC100B00F0CEFC4046DDF8A4
:1039F0000C8053EC102B414601F0E4FB3246534659
:103A000001F084F9DDF800A0079A534601F0DAFBD3
:103A100041EC100BDBF850008BED080B01F0CAFDF8
:103A200041EC100B00F0B0FCDBF85000B0EE408A27
:103A3000F0EE608A01F0BEFD41EC100B00F040FC9E
:103A4000029A51EC100B234601F0BCFB05460E46D2
:103A500053EC182B4846394601F0B4FB2A4633464E
:103A600001F054F90646DBF858000D4601F0A2FDBE
:103A700041EC100B00F088FC019853EC102B4146F0
:103A800001F0A0FB32462B4601F040F9079A53465D
:103A900001F098FB41EC100B8BED100B08B0BDEC66
:103AA000028B01B0BDE8F08F0B95C0A646DF913FB9
:103AB00034EED67905343340A4703D0AD7A3C03F15
:103AC00000000000000034402DE9F04F81B02DEDE2
:103AD000028B8CB08046D0E90470D8E90C4901F023
:103AE00069FD9FEDB50B5AEC10BB5A46534601F0E9
:103AF00069FB054638460E4601F05CFD02460B4662
:103B000041EC180B2846314601F066FC01F0CCF878
:103B1000C8F81C00484601F04DFD5A46534601F0D6
:103B200051FB054620460E4601F044FD02460B4679
:103B30002846314601F050FC01F0B6F8C8F83C00C8
:103B4000D8F8540001F036FD5A46534601F03AFBCE
:103B50000546D8F850000E4601F02CFD02460B46F3
:103B60002846314601F038FC01F09EF8C8F85C00A8
:103B7000D8F8600001F01EFDB0EE480AD8E91959E6
:103B8000F0EE680A06460B900C46009100F0FCFB34
:103B9000B0EE408A2846F0EE608A01F00BFD054643
:103BA0000290D8F810000F46019101F003FD41EC9E
:103BB000100B00F085FB53EC102B2846394601F022
:103BC00001FB05460F4653EC182B3046214601F009
:103BD000F9FA2A463B4601F0FFFB824648468B46EF
:103BE00001F0E8FC9FED760B074653EC102B069096
:103BF0000D46059101F0E6FA06460A90D8F81C0039
:103C00000C46099101F0D6FC41EC100B00F058FB7A
:103C100053EC102B3046214601F0D4FA9FED6A0B8D
:103C200053EC102BCDE9072301F0CCFA9FED680B84
:103C30000646894653EC102B50465946CDE90323DE
:103C400001F0C0FA02460B463046494601F05EF8E4
:103C50003A462B4601F0C0FB41EC100BD8F830007F
:103C600088ED020B01F0A6FC41EC100B00F08CFB80
:103C7000D8F83000B0EE408AF0EE608A01F09AFC8D
:103C800041EC100B00F01CFBDDF808B0DDF80490EF
:103C900053EC102B5846494601F094FADDF800A089
:103CA00005460B980E4653EC182B514601F08AFA44
:103CB0002A46334601F090FB0446D8F83C000E46F5
:103CC00001F078FC41EC100B00F0FAFADDE9091084
:103CD00053EC102B01F076FADDE9072301F072FABC
:103CE000DDE9032307460D462046314601F06AFA16
:103CF00002460B463846294601F008F8DDE9053250
:103D000001F06AFB41EC100BD8F8500088ED0A0B6B
:103D100001F050FC41EC100B00F036FBD8F85000DD
:103D2000B0EE408AF0EE608A01F044FC41EC100BEA
:103D300000F0C6FA53EC102B5846494601F042FAFF
:103D400005460B980E4653EC182B514601F03AFAF3
:103D50002A46334601F040FB0446D8F85C000E4684
:103D600001F028FC41EC100B00F0AAFADDE9091083
:103D700053EC102B01F026FADDE9072301F022FABB
:103D8000DDE9032307460D462046314601F01AFAC5
:103D900002460B463846294600F0B8FFDDE90532F9
:103DA00001F01AFB41EC100B88ED120B0CB0BDECCE
:103DB000028B01B0BDE8F08F0B95C0A646DF913FA6
:103DC000A4703D0AD7A3C03F8EDD0E68D8EA3BC081
:103DD0008EDD0E68D8EA3B4040F21A11C2F20001B3
:103DE000B1F922209FED101A00EE102AB1F91E2021
:103DF000B1F92410B8EEC00A02EE101AB8EEC22AC9
:103E000080EE010A82EE011A02EE102A9FED073AB7
:103E1000B8EEC22A82EE032A80ED180A80ED191A44
:103E200080ED1A2A704700BF00005C42000020426B
:103E300080B58AB0086846F60002C4F200029042DB
:103E400018D046F20042C4F20002904229D101206B
:103E50000022CDE90620CDE90022CDE90222CDE9FC
:103E600004226A46089008461146FCF785FBB0B963
:103E700017E000BF0E2005900021099040F2F430B9
:103E800006910122CDE90011CDE902110491C2F29F
:103E900000006946CDE90722FCF76EFB08B1FCF78C
:103EA000FBFA0AB080BD000010B508460C46FCF7CE
:103EB000D1FF002818BFFCF7EFFA20460221FCF7DB
:103EC000EFFA002808BF10BDBDE81040FCF7E4BAC7
:103ED00080B58AB04FF4007004900020CDE9060050
:103EE00008200890080ADDF830C08DF80800100A94
:103EF0008DF80A00180A8DF80C004FEA1C208DF886
:103F00000E0040F2F4308DF809108DF80B208DF87A
:103F10000D30C2F2000004A902AA01AB8DF80FC057
:103F2000FCF7D6FA0AB080BD80B58AB040F2FF1027
:103F300004900020CDE9060008200890080ADDF86A
:103F400030C08DF80800100A8DF80A00180A8DF8A4
:103F50000C004FEA1C208DF80E0040F2F4308DF872
:103F600009108DF80B208DF80D30C2F2000004A965
:103F700002AA01AB8DF80FC0FCF7AAFA0AB080BD07
:103F80002DE9F04147F65D124A43130E4FF40772D4
:103F90004EF2180003FB121840F2141CCEF200007F
:103FA000B1F5077FC2F2000C50D3DCF8001043F6E5
:103FB0006052C0F20802514313F00304A3F1010E52
:103FC00041D050F8045C0268002607E01644F61B56
:103FD000974228BF2E448E423A460DD20768974238
:103FE000F4D107689742F1D107689742EED107688C
:103FF0009742F3D0EAE700BF012C05D1013BBEF1A7
:10400000030F71D222E000BF50F8045C076800265D
:1040100008E000BF3E44B61ABA4228BF2E448E4282
:1040200017460DD20268BA42F4D10268BA42F1D101
:104030000268BA42EED10268BA42F3D0EAE700BFA2
:10404000022C2DD1023BBEF1030F4DD25FEA084195
:1040500008BFBDE8F08150F8041CDCF800201FFA0E
:1040600088F35A434FF47A7306685A43002307E0F3
:104070003344DB1BB74228BF0B4493423E460DD26C
:104080000768B742F4D10768B742F1D10768B74271
:10409000EED10768B742F3D0EAE700BFBDE8F08190
:1040A00050F8044C0668002508E000BF3544AD1AFE
:1040B000B24228BF25448D4216460DD20268B24254
:1040C000F4D10268B242F1D10268B242EED1026884
:1040D000B242F3D0EAE700BF033BBEF1030F03D2C5
:1040E000B4E700BF043BB1D050F8045C0768002679
:1040F00008E000BF3E44B61ABA4228BF2E448E42A2
:1041000017460DD20268BA42F4D10268BA42F1D120
:104110000268BA42EED10268BA42F3D0EAE700BFC1
:1041200050F8045C0768002608E000BF3E44B61A59
:10413000BA4228BF2E448E4217460DD20268BA42B8
:10414000F4D10268BA42F1D10268BA42EED10268F3
:10415000BA42F3D0EAE700BF50F8045C07680026D3
:1041600008E000BF3E44B61ABA4228BF2E448E4231
:1041700017460DD20268BA42F4D10268BA42F1D1B0
:104180000268BA42EED10268BA42F3D0EAE700BF51
:1041900050F8045C0768002608E000BF3E44B61AE9
:1041A000BA4228BF2E448E4217469BD20268BA42BA
:1041B000F4D10268BA42F1D10268BA42EED1026883
:1041C000BA42F3D0EAE7000010B504200C46FDF730
:1041D00031FD40F21410C2F20000046010BD000076
:1041E00070470000FDF794F9FEF720FDFEF782FC12
:1041F000FEF74AFCFEF728FCFEF7A2FCFEF7CAFC1D
:10420000FEF7E6FCFEF700FC00F002F8FEE7000017
:1042100040F24410C2F20000441C2046A821FFF7DF
:10422000D3FF40F21460C2F20000FFF7C1F840F281
:104230004810C2F2000040F2F43600F52075C2F2D8
:10424000000628463146FFF7F3FD28463146FFF7C2
:104250002BFE40F21A10C2F20000411C40F28450C2
:10426000C2F200001222FEF717FB20464FF47A71CB
:10427000FFF786FE40F24000C2F20000FFF784FA2A
:1042800040F23C50C2F20000FDF7AAFD03B40198D1
:104290004100009850EAC12018BF04204A0D18BF01
:1042A00040F0010040F2FF72B2EB515F08BF40F0F6
:1042B0000200012808BF052002B07047000000007E
:1042C00010B52F499FED2C1B2DED020B84B00598E6
:1042D00020F000408842D8BF9DED040B2DDD294918
:1042E000884209D1049840B94FF00100FCF77BF8EF
:1042F00000F0A2FC06B010BD05DB9DED040B00F044
:104300008FFC06B010BD68469DED040B00F0A0F8D0
:1043100010F0030004BF9DED021B9DED000B0CD0BF
:1043200001280ED09DED021B9DED000B022817D039
:10433000012000F0DDFB06B010BD00F0A5FA06B0CC
:1043400010BD9DED021B9DED000B012000F0D0FB88
:1043500051EC100B00F09CFC06B041EC100B10BDB2
:1043600000F092FA51EC100B00F092FC06B041EC18
:10437000100B10BD00000000000000000000000055
:10438000FB21E93F0000F07F10B52F499FED2C1B6A
:104390002DED020B84B0059820F000408842DCBF70
:1043A00000209DED040B32DD2849884209D1049894
:1043B00040B94FF00100FCF716F800F03DFC06B0E4
:1043C00010BD05DB9DED040B00F02AFC06B010BD0E
:1043D00068469DED040B00F03BF810F0030011D08F
:1043E000012818D09DED021B9DED000B02281AD06C
:1043F00000F04AFA51EC100B00F04AFC06B041EC18
:10440000100B10BD9DED021B9DED000B012000F077
:104410006FFB06B010BD9DED021B9DED000B00F083
:1044200033FA06B010BD012000F062FB51EC100B16
:1044300000F02EFC06B041EC100B10BD0000000097
:104440000000000000000000FB21E93F0000F07FB9
:104450002DE9F14F04462DED020B2DED088B8AB0AE
:104460009FEDE70B80ED020B139EE74826F0004519
:1044700085420ADC9DED120B002084ED000B0AB092
:10448000BDEC088B03B0BDE8F08FE0489FEDE0ABDA
:104490009FEDE1BBA84247DDE14F9FEDE39B9FED20
:1044A000E48B9DED120B53EC1A2B51EC100B002EEC
:1044B0001CDD00F091FF41EC100BBD4208D053EC25
:1044C0001B2B51EC100B00F087FFC4E900010BE03F
:1044D00053EC192B51EC100B00F07EFF53EC182B12
:1044E00000F07AFFC4E900010120C8E700F00EFCEB
:1044F00041EC100BBD4208D053EC1B2B51EC100BC0
:1045000000F004FCC4E900010BE053EC192B51EC62
:10451000100B00F0FBFB53EC182B00F0F7FBC4E989
:1045200000014FF0FF30AAE7C348A84279DB9DEDB8
:10453000120B51EC100B00F09FFB41EC180B9FEDA0
:10454000C00B53EC102B00F03DFE9FEDBF1B53EC56
:10455000112B00F0DBFB00F0DBFD074600F007FE4F
:1045600041EC190B53EC1A2B00F02CFE53EC182BDA
:1045700000F026FF41EC180B53EC1B2B51EC190BF0
:1045800000F020FEDFF8C8A241EC100B4FEA1558EE
:104590000125FA4453EC102B51EC180B00F01CFFD2
:1045A000032DC4E900013DD0C1F30A5005EB4511CC
:1045B000A8EB00001139814234DA0AEB051BB0EE9A
:1045C00048AA9BED000BF0EE68AA53EC102B51ECBF
:1045D000190B00F0F7FD41EC1B0B51EC1A0B53ECDF
:1045E0001B2B00F0F9FE41EC180B51EC1A0B53ECAD
:1045F000182B00F0F1FE53EC1B2B00F0EDFE9BEDB1
:10460000020B41EC1A0B53EC102B51EC190B00F080
:10461000D9FD53EC1A2B00F0DFFE41EC100B6D1CA2
:10462000B8E70EE0002EA8BF3846BFF628AF94EDDD
:10463000000B51EC100B00F02BFBC4E90001784299
:104640001DE7C6F3130040F4801EC6F30A50A0F223
:10465000F530471100F01F05C5F12000DDF848B026
:1046600008900020069007900520EC467949002D1F
:1046700007EB0002794408BF51F8221009D051F825
:10468000223001EB8201AB404A68089922FA01F11D
:104690001943A1FB0E26A1FB0B131A449A4234BF07
:1046A0000123002303EB06080CEB8003D3E901A6EA
:1046B0000E448E4234BF0121002192448A4411B13C
:1046C000924502D903E0924501D2012100E0002188
:1046D000C3E901A641444CF82010011EA0F10100DD
:1046E000C4DC029800F10050850F0298DDE90367F1
:1046F0008000DDF8148000F03AFD41EC1A0B3046E2
:1047000000F04CFD9FED541B53EC112B00F05AFDB3
:1047100041EC1B0B384600F041FD9FED511B53EC63
:10472000112B00F04FFD41EC180B404600F036FD18
:104730009FED4D1B53EC112B00F044FD41EC190B88
:1047400051EC180B53EC192B00F0E0FA53EC1B2B37
:1047500000F0DCFA53EC1A2B00F0D8FACDE908018E
:10476000002008909DED080B53EC1A2B51EC100B18
:1047700000F032FE53EC1B2B00F02EFE53EC182BF6
:1047800000F02AFE53EC192B00F01AFE9FED381BA7
:1047900053EC112B00F016FD9FED370B41EC180B7D
:1047A00053EC102B9DED080B51EC100B00F00AFDA3
:1047B00053EC182B00F0AAFA9FED310B41EC180BCB
:1047C00053EC102B9DED080B51EC100B00F0FAFC94
:1047D00053EC182B00F09AFA41EC100B139810F0E0
:1047E000004F06D06D4251EC100B00F051FA41EC35
:1047F000100B284684ED000B41E60000000000008D
:104800000000000000000000FB21E93F7CD90240CD
:1048100000004054FB21F93F3163621A61B4D03D7E
:10482000FB21F93F000000000000601A61B4D03D98
:104830007370032E8A19A33BFB213941000000004D
:1048400083C8C96D305FE43F000000000000E03F16
:104850005A110000A8100000000000000000103EE7
:10486000000000000000103C000000000000103AB2
:10487000182D4454FB21F93D3326A611460B113C5B
:1048800000000054FB21F93D10B52DED040B2DED7A
:10489000088B82B0B0EE419AF0EE619A0B9820F04E
:1048A00000449FED4BABB4F1795F11DA9DED0A0B3B
:1048B00051EC100B00F02CFC002801BFB0EE4A0AAE
:1048C000F0EE6A0A02B0BDEC088B04BF04B010BD64
:1048D0009DED0A0B53EC102B51EC100B00F072FC09
:1048E00041EC180B3C480621B0EE480AF0EE680A8D
:1048F000784400F081F853EC182B51EC100B00F0C9
:1049000061FC9DED0A0B41EC1B0B53EC192B51EC98
:10491000100B00F057FC41EC190B53EC1B2B51EC26
:10492000180B00F04FFC53EC192B00F055FD9FEDD8
:104930002C0B41EC190B53EC102B51EC180B00F025
:1049400041FC41EC100B2848844210DA53EC192B3F
:1049500051EC100B00F040FD53EC1A2B00F030FD31
:1049600041EC100B02B0BDEC088B04B010BD1F4829
:10497000A042BCBF9FED1E1B8DED001B06DBA4F506
:1049800000100190002000909DED001B51EC100BD9
:1049900053EC112B00F020FD9DED000B41EC180BAA
:1049A00053EC102B51EC1A0B00F016FD41EC1A0BD6
:1049B00053EC192B51EC180B00F00EFD53EC1A2B95
:1049C00000F0FEFC41EC100BCCE700000000000002
:1049D000000000000000F03FCC0D000000000000CF
:1049E000000000000000E03F3333D33F0000E93F08
:1049F000000000000000D23F70B504462DED028B90
:104A00004D1E00EBC500B0EE408AF0EE608A90EDDE
:104A1000000B35F0060017D053EC182B51EC100B9F
:104A200000F0D0FB41EC100B6D1E04EBC50090EDC7
:104A3000001B51EC100B53EC112B00F067F941EC0B
:104A4000100B35F00600E7D1022D36D0042D1CD016
:104A5000062D1CBFBDEC028B70BD53EC182B51EC26
:104A6000100B00F0AFFB94ED0A1B53EC112B00F080
:104A70004DF953EC182B00F0A5FB94ED081B53ECFB
:104A8000112B00F043F941EC100B53EC182B51ECB7
:104A9000100B00F097FB94ED061B53EC112B00F06C
:104AA00035F953EC182B00F08DFB94ED040B53EC0F
:104AB000102B00F02BF941EC100B53EC182B51ECA0
:104AC000100B00F07FFB94ED021B53EC112B00F058
:104AD0001DF953EC182B00F075FB94ED001B53EC03
:104AE000112B00F013F9BDEC028B41EC100B70BDE3
:104AF00031B504462DED040B2DED0A8BB0EE41BA15
:104B0000F0EE61BA0B989DED0A0B20F00040B0F179
:104B1000795F0DDA51EC100BFFF7B8FB042808BFE2
:104B200000F09AF89DED0A0BBDEC0A8B05B030BD84
:104B300053EC102B51EC100B00F044FB41EC180B24
:104B40009DED0A0B53EC182B51EC100B00F03AFBC7
:104B500041EC190B2C48B0EE480AF0EE680A05212A
:104B60007844FFF749FF9FED2ACBB0EE40AAF0EE64
:104B700060AA9CB353EC1C2B51EC190B00F022FBE8
:104B800041EC1C0B53EC1A2B51EC190B00F01AFBE7
:104B90009FED210B41EC190B53EC102B51EC1B0B2F
:104BA00000F010FB53EC192B00F016FC53EC182B03
:104BB00000F008FB53EC1B2B00F00EFC53EC1C2BFD
:104BC00000F00AFC9DED0A1B53EC112B00F0F8FBE2
:104BD000BDEC0A8B05B041EC100B30BDFFE753EC88
:104BE0001A2B51EC180B00F0EDFA53EC1C2B00F0D3
:104BF0008DF853EC192B00F0E5FA9DED0A1B53ECF0
:104C0000112B00F083F8E3E75C0C000000000000CB
:104C1000495555555555C5BF000000000000E03FFF
:104C200010B553EC102B51EC100B00F06FF841EC69
:104C3000100B10BD000000009FED050B10B553ECEC
:104C4000102B51EC100B00F009F941EC100B10BDCA
:104C500000000000000000009FED050B10B553ECB4
:104C6000102B51EC100B00F0ADFA41EC100B10BD05
:104C7000000000000000001082B0CDE9000121F02A
:104C8000004001909DED000B02B051EC100B7047FD
:104C900081F00041704780F00040704721F00041F2
:104CA000704720F00040704721F0004201F00043BF
:104CB000A2F16052B2F5801F28BFD2F17F6C0BD9F0
:104CC0005FEA001C43EAC20242EB507018BF704713
:104CD00028BF20F001007047B2F5801FBCBF184606
:104CE00070474FEA410C1CF5001F02D2084600F045
:104CF000DFBC70B500F010FB00000089FFF7F6BFC5
:104D00004FF00040A0F580007047000010B591EA18
:104D1000030F48BF83F0004300F16683841A71EBF0
:104D2000030C05D2121943EB0C03001B61EB0C01C1
:104D30004FEA1154A4EB135CDFF81CE11EEA430FA9
:104D400018BF9EEA445F00F0748021EA045123EA10
:104D50000E0343F48013DCF1200E32D322FA0CFE52
:104D600010EB0E0023FA0CFE41EB0E01CCF1200EED
:104D700003FA0EFE10EB0E00CCF1200E51F10001F3
:104D8000B1F5801F32D201EB045112FA0EF2BDE8E8
:104D9000104058BF7047401C38BF5FEA420218BF3E
:104DA0007047002814BF20F0010041F100014FEAD4
:104DB000410313F5001F38BF7047A1F1C04100F057
:104DC000F9BA012A43EB0302ACF1200CDCF11F0E0F
:104DD00032BF4FF0000E23FA0CF310EB030041EB4F
:104DE0000451B4EB115FD0D0A1EB045101F5801157
:104DF000490801EB04515FEA30000ED350F1000086
:104E000038BF12FA0EFE08D1BDE81040C9E7401CB9
:104E100038BF5FEA4202CAD1C3E7BDE810404FEA9B
:104E2000410313F5001F38BF7047A1F1C04100F0E6
:104E3000C1BA9EEA445F08D011EA5E0FBDE8104097
:104E400004BF01F0004100207047BDE8104070B57C
:104E500000F062FA64FBBE3E0000E0FF2DE9C041B5
:104E600030B4DFF8A4C23CEA111418BF3CEA1314B2
:104E700000F0ED801CEA111481EA030544EAD574C0
:104E800018BF1CEA131500F0C880A4EB050404F158
:104E90007F7404F500344FF0004545EAC12145EA2E
:104EA000C32341EA505143EA52534FEAC0204FEA2C
:104EB000C222994208BF904200F09D804FEA1365DC
:104EC0000FF24416765D4FEA134506FB05F7C7F16E
:104ED000807706FB07F74FEAD737A7FB03687642D0
:104EE000A7FB06CEC8F5803838BFA8F1010807FB3C
:104EF00008E6A6FB028C4FF0000EE6FB03CEDCF1C9
:104F0000000CCEF1004E38BFAEF1010EA6FB0C58DE
:104F10004FF00007E6FB0E87A1FB08C6A0FB07CEFB
:104F200016EB0E064FF0000545F10005E1FB0765A5
:104F300015F1E04E7EBFA4F580345FEA46066D4170
:104F400016F1800745F100054FEA172747EA056784
:104F50004FEA15254FEA0666A6F1DE46B6F1805FF8
:104F600020D9384605EBC47124F0010C01EB0C117B
:104F7000BCF1FE6F02D8F0BCBDE8008124425CBFEA
:104F800001F5801E9EEAC47F02D4F0BCBDE800811A
:104F9000244200F13980A1F1C041F0BCBDE80041DC
:104FA00000F008BA4FEAD02040EA41504FEAD12140
:104FB0004FEAD22242EA43524FEAD323A7FB0286AA
:104FC00007FB036605FB02661EEA0E0F58BFA6EB41
:104FD0000056B6EB00564FEA520E4EEAC37E18EB6F
:104FE0000E0E56EB530EBCD518EB02085E417F1C2B
:104FF00055F10005B5E74FF480154FF000074FF06D
:1050000000064FF00008ACE701F1C04101F000419B
:105010004FF00000F0BCBDE800810CEA131511EA66
:105020000C1F00D00CE013EA0C1F00F026804FF09C
:10503000000081EA030101F00041F0BCBDE80081FD
:10504000F0BCBDE8004181EA030100F0B3B9F0BC57
:10505000BDE8004170B500F05FF900BF097EFC3E7D
:1050600000F007B84FF0000081EA030101F00041B1
:10507000704781EA030100F09DB9F0BCBDE8004132
:1050800022494FF000007047FFFDFBF9F7F5F4F2FD
:10509000F0EEEDEBE9E8E6E4E3E1E0DEDDDBDAD8D3
:1050A000D7D5D4D3D1D0CFCDCCCBCAC8C7C6C5C431
:1050B000C2C1C0BFBEBDBCBBBAB9B8B7B6B5B4B348
:1050C000B2B1B0AFAEADACABAAA9A8A8A7A6A5A433
:1050D000A3A3A2A1A09F9F9E9D9C9C9B9A999998F7
:1050E0009797969595949393929191908F8F8E8E9A
:1050F0008D8C8C8B8B8A8989888887878685858427
:1051000084838382828181800000FF070000F87F12
:105110004FEA41034FEA5353A3F58063D3F11E03D3
:10512000C8BFD3F1210C0CDD4FF0004242EAC1228E
:1051300042EA505232FA03FC8CEAE17CACEBE170BB
:105140007047102BC4BF0020704703F5787CBCF17A
:10515000FF3F04D06FF0004282EA2100704770B533
:1051600000F0DAF84992248000207047F2E710F04E
:10517000004248BF4042B0FA80F310FA03F10AD06F
:10518000C3F11D0303F5806302EB03524FEA415064
:1051900002EBD12170474FF000007047B0FA80F366
:1051A00010FA03F10AD0C3F11D0303F580634FEA3F
:1051B00003524FEA415002EBD12170474FF00000FB
:1051C0007047000070B5DFF848C11CEA111E1EBF11
:1051D0001CEA13159EEA0C0F95EA0C0F00F06F8085
:1051E00081EA03044EEAD47EAE4421EA4C1123EA5C
:1051F0004C1341F4801143F48013AEF17F7EA1FB88
:10520000024CA0FB0365361955EB0C05A1FB034CC2
:105210004CF10003A0FB021C16EB0C06654153F198
:105220000003094218BF46F0010613F4007F0BD1BA
:105230004FEA03314FEA053041EA155140EA165072
:1052400034036FF003020AE04FEAC3214FEAC5209E
:1052500041EA555140EA5650F4026FF0020202EB67
:105260002E4201EB025585EACE710AD05FEA440C6A
:1052700018BF24F0004450F1000041F1000120EA81
:10528000D47040F2FE7C624500D270BDA84214BFCB
:105290004FF080444FF04044002E08BF0024BEF180
:1052A000806FA8BFA1F1C041BDE8704080F282804C
:1052B00001F1C04101F000414FF0000070470CEADD
:1052C00013159EEA0C0F18BF95EA0C0F06D081EA61
:1052D000030E4FF000000EF0004170BD00F01CF80E
:1052E0008900013E00F007B800F009B84FEA430C0E
:1052F0005FEA5C5C08D081EA030100F05BB84FEA2A
:10530000410C5FEA5C5CF6D102494FF00000704747
:105310000000FF070000F87F0EF1020E2EF0030ED2
:105320005EF8046B364205D4012A43EB030515F5FC
:10533000001F12D8012841EB010C1CF5001F0CD8EE
:105340000ED14FEAD17C0CEB4C0C0CF1020C15F594
:10535000001F08BF4CEBD37C04E04FF0080C01E0C9
:105360004FEAD37C0CEB4C0526FA05F606F007064F
:10537000B6F1040C06D20EEB860CBDE870404CF082
:10538000010C6047DFE80CF0090B02024FF000410E
:10539000A1F500214FF0000070BD1946104601280C
:1053A00051EB010418BFD4F5001484BF002001F0B4
:1053B000004170BD0808A0F500114FEA31017047A7
:1053C00010B591EA030F81F000413FF5A7AC83F0DF
:1053D000004300F009B8000010B591EA030F48BF80
:1053E00083F000433FF59AAC841A71EB030C07D2AB
:1053F0008CF0004C121943EB0C03001B61EB0C0109
:105400004FEA1154A4EB135CDFF8A4E11EEA430F4A
:1054100018BF9EEA445F00F0B48021EA045123EAF9
:105420006E035242C3EB6E0338BF5B1EDCF1200EED
:1054300025D322FA0CFE10EB0E0043FA0CFE41EBD2
:105440000E01CCF1200E03FA0EFE10EB0E00CCF193
:10545000200E51F1000129D401EB045112FA0EF291
:10546000BDE8104058BF7047401C1CBFB2F1004F50
:10547000704700280CBF491C20F00100704712EB58
:10548000020E43EB030218BF4FF0010E4EEA420238
:10549000ACF1200CDCF11E0E56D943FA0CFE10EBD9
:1054A0000E00CCF11E0E51F1FF31D5D50EF1010EDB
:1054B00012FA0EFE404141EB010101EB445C5FEA50
:1054C0005C5C10D901EB045110EBDE7038BFBEF10B
:1054D000004FBDE8104018BF704700280CBF491CA2
:1054E00020F00100704734D24FEAD42C24F4006439
:1054F00011F500111BD0B1FA81F20B3AA41AA41EC7
:10550000D2F12003914030FA03F31943904001EBAC
:10551000CC7101EB0451002CBDE81040A8BF7047CE
:1055200001F1C04101F000414FF000007047B0FAB6
:1055300080F310FA03F102D1BDE810407047E41A7D
:10554000173C4805C90AE2E701EB0451BDE81040E9
:10555000704749104FEA300001EB0451BDE810409C
:1055600002E04FF0000170474A0008BF0042F8D047
:10557000B2F5001F28BF704701F000414FF0000056
:1055800070479EEA445F07D011EA5E0FBDE8104005
:1055900004BF002100207047BDE8104070B5FFF740
:1055A000BBFE00BF40DFF63E104683F0004170476F
:1055B0000000E0FF43004FEAD30C4FEA3C0C4340AD
:1055C0001FBF40070CF1605113F0FE4F70471CF0F5
:1055D000006F03D10CF00041002070470CF0004335
:1055E00043EA507040EACC0010B500F00EF800BF5E
:1055F000000000924FEA0001FFF7DCBE4FF00041CF
:10560000A1F500214FF0000070470EF1020E2EF0C0
:10561000030E5EF8044B244204D44FEA4102B2F177
:105620007F4F11D84FEA4003B3F17F4F0CD80ED112
:105630004FEAD07C0CEB4C0C0CF1020CB2F17F4F1A
:1056400008BF4CEBD17C04E04FF0080C01E04FEABE
:10565000D17C0CEB4C0324FA03F404F00704B4F1FE
:10566000040C06D20EEB840CBDE810404CF0010C8B
:105670006047DFE80CF0070802024FF00040A0F599
:10568000800010BD0846420018BFD2F1807288BF6A
:1056900000F0004010BDF1EE100A4FF6FF71C0F2AD
:1056A000C03120EA010040F04070E1EE100A70477E
:1056B000FF2141EAD050C005704700000000000003
:1056C0004C5555555555A53F7751C1166CC156BF20
:1056D0009015CB19A001FA3EAD529C804F7E92BE30
:1056E000C4B1B4BD9EEE213ED43888BEE9FAA8BD4F
:1056F00000004054FB21F93F3163621A61B4D03D90
:105700000000601A61B4D03D7370032E8A19A33B68
:105710000000002E8A19A33BC14920259A837B39BA
:1057200000000000000000006E83F9A22915444E1D
:10573000D15727FCC0DD34F5999562DB4190433C9D
:10574000AB6351FE61C5BBDE3A6E24B7E0D24D4279
:10575000EA2E49061C92D1091CEB1DFE3EA729B179
:10576000F53582E88444BB2E26709CE9417E5FB407
:1057700039D69139F43953838B5F849C3B28F9BD2A
:10578000FF97F81F0F9805DE8B112FEF1F6D0A5A38
:10579000CF7E366DB709CB27663F464F2DEA5F9E19
:1057A000C7BA27757BF1E5EBF739073DEA92528AD4
:1057B000B15FFB6B085D8D1F463003560000000093
:1057C000A6F810111111813FD561C119A0012ABF9E
:1057D0007DFEB157E31DC73EEB9C2B8AE6E55ABE22
:1057E0007CD5CF5A3AD9E53D00000000000000000A
:1057F0000102030406070809000000000102030477
:105800000006101600061016285800080000002098
:10581000B0000000EC010008D8580008B0000020DB
:10582000880E00000C0200080100000001000000CA
:10583000100000000000A0416F12833A0000704188
:105840000000A0416F12833A0000704100009041B7
:105850006F12833A00007041000096430000000080
:10586000000040400024F4000000000000000000A0
:1058700000000000000000000000000000000743DE
:105880000000000000000000000000000000000018
:105890000000000000000000000000000000344292
:1058A00000000000000000000000000000000000F8
:1058B000000000000000000000000000000087431E
:1058C00000000000000000000000000000000000D8
:0858D0000000000000000000D0
:040000050800018965
:00000001FF
