:020000040800F2
:10000000780B0020B5010008092F0008F929000825
:100010001D2E00084D0300085134000800000000A8
:100020000000000000000000000000004D3000084B
:100030005D030008000000000D2F00089D3000083F
:10004000CF010008CF010008CF010008CF01000850
:10005000CF010008CF010008CF010008CF01000840
:10006000CF010008CF010008CF010008CF01000830
:10007000CF010008CF010008CF010008CF01000820
:10008000CF01000851030008CF010008CF0100088C
:10009000CF010008CF010008CF010008CF01000800
:1000A000CF010008A5300008CF010008CF010008EB
:1000B000B1300008BD300008CF010008CF010008B2
:1000C000CF010008CF010008CF010008CF010008D0
:1000D000CF01000809340008CF0100082D340008C2
:1000E000CF010008CF010008CF01000800F002F89E
:1000F00000F050F814A696E8000CB244B344DA4578
:1001000001D100F047F8BAE80F000FA696E83000DA
:10011000A5EB040504EB0607AAEB0704A7F101070A
:100120004FEA15154FEA3414A4F10104AC4201D38F
:1001300000F030F813F0010F18BFFB1A43F0010371
:1001400000F001F8DBE71847744200009442000019
:10015000103A24BF78C878C1FAD8520724BF30C8F3
:1001600030C144BF04680C60704700007047000055
:100170000023002400250026103A28BF78C1FBD8B0
:10018000520728BF30C148BF0B6070471FB51FBD65
:1001900010B510BD00F058F81146FFF7F7FF03F057
:1001A000B7FA00F076F803B4FFF7F2FF03BC00F0F3
:1001B0007DF800000948804709480047FEE7FEE750
:1001C000FEE7FEE7FEE7FEE7FEE7FEE7FEE7FEE707
:1001D00004480549054A064B70470000A130000855
:1001E000ED00000878050020780B0020780700203B
:1001F000780700204FF0000200B51346944696465B
:10020000203922BFA0E80C50A0E80C50B1F1200129
:10021000BFF4F7AF090728BFA0E80C5048BF0CC0D7
:100220005DF804EB890028BF40F8042B08BF704735
:1002300048BF20F8022B11F0804F18BF00F8012BA7
:100240007047704770477047754600F02BF8AE4610
:1002500005006946534620F00700854618B020B5D2
:10026000FFF7B6FFBDE820404FF000064FF0000753
:100270004FF000084FF0000BAC46ACE8C009ACE80A
:10028000C009ACE8C009ACE8C00921F007018D46FF
:10029000704710B50446AFF300802046BDE810401B
:1002A000FFF781BF0048704728000020014918204F
:1002B000ABBEFEE7260002007047000070B501B239
:1002C00040F6004485B2B0F1FF3F80EAE130C4F26D
:1002D00001044FF00002A0EBE13620464FF48051BC
:1002E000C8BF012200F02CFBEA0B20464FF400515E
:1002F00000F026FB40F2C030C2F20000006831B2CC
:10030000416370BD70B501B240F6004485B2B0F1F2
:10031000FF3F80EAE130C4F201044FF00002A0EB9D
:10032000E13620464FF48041C8BF012200F008FBAF
:10033000EA0B20464FF4004100F002FB40F2C030CF
:10034000C2F20000006831B2816370BDFEE70000B8
:1003500040F2A420C2F2000000F086B8704700000E
:10036000EFF3108072B600BFFEE70000014690F880
:100370002100022816D10868D1E90FC3026822F0D3
:100380000E020260026822F001020260012000FAFF
:1003900003F2CCF8042081F821000020002281F82B
:1003A00020207047042088630120002281F820204B
:1003B0007047000090F82110022923D102681168CB
:1003C00021F00E0111602F211368C4F202018A424C
:1003D00040F20401C4F2020123F00103136015DDB1
:1003E0003023C4F202039A421CD04423C4F2020315
:1003F0009A421BD05823C4F202039A421CD14FF4F4
:10040000803321E004218163012070470823C4F276
:1004100002039A420ED01C23C4F202039A420BD16B
:10042000102311E04FF480730EE000BF4FF48053AF
:100430000AE000BF012307E001F1680C4FF0807370
:10044000624508BF4FF480130B60012180F8211032
:10045000426B002180F8201022B180B59047002126
:10046000BDE880400846704710B5D0E90FCE01685E
:10047000DCF800300A6823FA0EF35C072AD512F084
:10048000040427D00A68920603D40A6822F0040202
:100490000A602F22C4F20202914240F20402C4F226
:1004A00002025BDD3023C4F20203994272D044237E
:1004B000C4F20203994273D05823C4F20203994252
:1004C00040F07A804FF480231360C16A002940F025
:1004D00098806FE09C0727D512F0020424D00A68A8
:1004E000920606D40A6822F00A020A60012280F805
:1004F00021202F22C4F20202914240F20402C4F2EF
:1005000002023BDD3023C4F20203994260D044234F
:10051000C4F2020399425FD05823C4F20203994205
:1005200060D14FF4003365E01B0743D512F0080299
:1005300008BF10BD0A6822F00E020A60012101FA0C
:100540000EF2CCF80420816380F82110016B0022A8
:10055000002980F8202054D12CE000BF0823C4F2E9
:100560000203994222D01C23C4F20203994223D1F0
:1005700040231360C16A002943D11BE00823C4F261
:10058000020399422CD01C23C4F20203994229D1C0
:1005900020232FE04FF480631360C16A89BB09E018
:1005A0004FF480431360C16A59BB03E00423136016
:1005B000C16A31BB10BD00BF02F168044FF0806317
:1005C000A14208BF4FF480031360C16AC9B9F1E7C3
:1005D0004FF400730EE000BF4FF400530AE000BF79
:1005E000022307E002F168044FF00073A14208BF44
:1005F0004FF400131360816A0022002980F8202044
:10060000D8D0BDE810400847014600284FF001004F
:1006100008BF70472DE9F0470A684FF6F873CBF62C
:10062000FD7302EB030C4CF6CD43CCF6CC43ACFB94
:10063000033C6FF00307002607EA9C07C4F202069A
:1006400001F10C0AC1E90F670227D1E9013E9AE8DE
:100650003004D1E9069881F82170176843F6F076E6
:10066000B7433B4343EA0E0323432B4343EA0A03C6
:1006700043EA090343EA0803136000228A6381F80E
:10068000210081F820200020BDE8F04770470000DD
:1006900090F820C0BCF1010F04BF02207047F0B5F4
:1006A0004FF0010E80F820E090F821C0BCF1010F5E
:1006B00026D14FF0020C80F821C04FF0000CC0F89A
:1006C00038C0D0E900C4C56AC66BDCF80070102CD5
:1006D00027F00107CCF80070006C0EFA00F0706093
:1006E0000846CCF8043004BF10460A46CCF808008F
:1006F000CCF80C20DCF8000045B140F00E000DE015
:10070000002180F820100220F0BD00BF20F004007E
:10071000CCF80000DCF8000040F00A00CCF8000043
:10072000DCF8000040F00100CCF800000020F0BD33
:100730002DE9F04F82B00E68002E00F0FD8041F2EE
:100740000042C4F20102042340F2004E904208BF6E
:1007500003234FF6FF7CC4F2010E00930024012313
:10076000C1F2100C4FF0000A4FF0000944E000BF46
:10077000012704F00C030F229A402BEA020207FA29
:1007800003F34FEA9A051A4346F825204E6840F2D3
:100790000C45F202DEF8082054BF22EA080242EAC1
:1007A0000802C4F20105CEF808202A68B30254BF3B
:1007B00022EA080242EA08022A60B303DEF80420B3
:1007C00054BF22EA080242EA0802F303CEF80420EA
:1007D000DEF800204FF0010354BF22EA080242EA8B
:1007E0000802CEF800200E680AF1010A36FA0AF271
:1007F00004F1040400F0A08003FA0AFB16EA0B08D7
:10080000F1D04E68664511DC122E55D8DFE806F0AF
:10081000340A44485454545454545454545454541E
:10082000544C5000D1F80C9046E000BF4FF6FF72D8
:10083000C1F2210296420FDC0022C1F2110296425F
:100840001AD00022C1F21202964215D00022C1F243
:100850002102964210D02FE00022C1F222029642DD
:100860000AD00022C1F23102964205D00022C1F224
:100870003202964220D100BF8A684AB1012A14BFD1
:10088000C0F814B0C0F810B04FF0080914E000BF71
:100890004FF0040910E000BFCA6802F108090BE03C
:1008A0004FF0000908E000BFCA6802F1040903E044
:1008B000CA6802F10C0900BF22460646B8F5807FDF
:1008C00024BF203A043637680F25954027EA0505EE
:1008D00009FA02F22A433260CA79D2067FF583AF61
:1008E00041F21803C4F202031A68AEF57E7642F0B4
:1008F00001021A601A6802F001020192019A2AF0BC
:10090000030256F802B040F60002C4F2010290421F
:1009100010D040F60042C4F2010290423FF428AFEA
:1009200041F20002C4F20102009F904208BF022778
:100930001FE700BF00271CE702B0BDE8F08F0000F2
:10094000002A08BF090401617047000040F270509E
:10095000C2F200000068704740F2000040F270519F
:10096000C2F20000C2F2000100780A681044086078
:100970007047000080B542F20000C4F20200016836
:1009800041F010010160032000F08CF80F2000F00E
:1009900005F800F027F8002080BD000070B540F297
:1009A0000006C2F2000640F224013278C2F20001D1
:1009B0004FF47A730968B3FBF2F20446B1FBF2F12B
:1009C000084600F089FB0F2C4FF0010508D838B914
:1009D0004FF0FF3021460022002500F037F8746008
:1009E000284670BD82B041F21800C4F202000168CE
:1009F000022241F001010160016801F00101019151
:100A00000199416841F080514160406800F0805098
:100A1000009000980420C4F20100016862F31A619A
:100A2000016002B070470000002848BF704700F026
:100A30001F01012202FA01F11C2202EAD0004EF24B
:100A40000012CEF2000281507047000010B54EF641
:100A50000C5CCEF2000CDCF80030C3F3022E8EF0FA
:100A60000704042C28BF0424BEF103034FF0FF3E0B
:100A70000EFA04F438BF0023A14399400EFA03F3A1
:100A80009A43114300F00F0200F160430901043A58
:100A900003F564436244002848BF02F10C03197057
:100AA00010BD00004EF60C51CEF200010A684FF660
:100AB000FF031A4060F30A2242F0806040F0FD70AC
:100AC00008607047002804BF012070472DE9F043FB
:100AD00081B042F20008C4F202080446D8F80000CF
:100AE0000D4600F0070088420CD2D8F8000020F034
:100AF00007002843C8F80000D8F8000000F00700FD
:100B0000A8426CD1206841F204098107C4F20209AD
:100B100017D5410705D5D9F8001041F4E061C9F8AF
:100B20000010010705D5D9F8001041F46051C9F84B
:100B30000010D9F80010A26821F0F0011143C9F8A3
:100B40000010C00742D1D8F8000000F00700A8420A
:100B50000CD9D8F8000020F007002843C8F800009E
:100B6000D8F8000000F00700A84238D120684107FB
:100B700007D5D9F80010E26821F4E0611143C9F803
:100B80000010000708D5D9F80000216920F4605052
:100B900040EAC100C9F80000D9F8002002F00C00BA
:100BA000082841F20020C0F27A0051D144F2AC335F
:100BB000C2F38341C0F60003595CD2033CD440F633
:100BC0000010C0F23D00484342E000BF60680228C8
:100BD0000AD001282AD159F8041C890308D401201D
:100BE00001B0BDE8F08300BF59F8041C8901F6D5B7
:100BF000D9F8001021F003010843C9F80000FFF7FD
:100C0000A5FE064641F28837D9F80000616800F079
:100C10000C00B0EB810F96D0FFF798FE801BB84216
:100C2000F2D9032001B0BDE8F08300BF59F8041CDD
:100C30008907D4D5DCE700BFD9F8002044F2AA33F5
:100C4000C2F34042C0F600039A5C4843B0FBF2F0A6
:100C5000D9F8001044F29232C1F30311C0F6000239
:100C6000515C40F2240220FA01F140F20400C2F289
:100C700000000068C2F200021160FFF78FFE002042
:100C800001B0BDE8F083000040F2240041F204010D
:100C9000C2F20000C4F202010068096844F2A23204
:100CA000C1F30221C0F60002515CC8407047000049
:100CB00040F2240041F20401C2F20000C4F2020139
:100CC0000068096844F2A232C1F3C221C0F60002F2
:100CD000515CC84070470000002804BF01207047E5
:100CE0002DE9F04182B00446007841F20006C007C9
:100CF000C4F202060CD0706800F00C00042840F02A
:100D000081803068800303D56068002800F04E8140
:100D1000207880071BD5706810F00C0F09D0706820
:100D200000F00C00082840F08B807068C00300F1D0
:100D300087803068800703D52069012840F036811C
:100D40003068616920F0F80040EAC1003060207826
:100D5000000713D4207840072CD4E569002D00F05B
:100D60002081706800F00C00082840F0AF80012D51
:100D700040F00C81012002B0BDE8F081A06900289C
:100D800000F08C800020C4F242200121C0F88014C1
:100D9000FFF7DCFD054600BF706A800700F1BA80EE
:100DA000FFF7D4FD401B0228F6D9032002B0BDE8AE
:100DB000F08100BFF0695FEAC00808D4F06940F034
:100DC0008050F061F06900F080500090009847F288
:100DD0000007C4F200073868C0054DD4386840F4F5
:100DE00080703860FFF7B2FD054600BF3868C00567
:100DF00042D4FFF7ABFD401B6428F7D9032002B0B3
:100E0000BDE8F081706800F00C00082803D170681C
:100E1000C0033FF576AF6068002800F00981B0F5A7
:100E2000A02F00F01D81B0F5803F00F01D813068DB
:100E300020F480303060306820F4802017E100BF5B
:100E40002069002840F20000C4F2422000F08C80AB
:100E500001210160FFF77AFD054600BF3068800779
:100E60003FF56EAFFFF772FD401B0228F6D9032055
:100E700002B0BDE8F08100BFE068002800F09A8071
:100E8000052800F0B180012800F0B280306A20F01F
:100E900001003062306A20F00400ACE00020C4F2AF
:100EA00042200021C0F88014FFF750FD054600BF26
:100EB000706A80077FF54EAFFFF748FD401B0228A0
:100EC000F6D9032002B0BDE8F08100BF0027C4F2CC
:100ED000422700203866FFF739FD022D05460DD167
:100EE0003068800140F1D680FFF730FD401B0228BA
:100EF0004FF00300F4D902B0BDE8F0813068800102
:100F00004FD5FFF723FD401B02284FF00300F5D912
:100F1000F1E700BF40F22400C2F20000006844F68E
:100F2000D351C1F26201A0FB0101480A019000BF48
:100F300000BF0198411E002801913FF40BAF00BF94
:100F40000198411E002801913FF404AF00BF0198B1
:100F5000411E002801913FF4FDAE00BF0198411EE3
:100F600000280191E4D1F5E600210160FFF7EEFCD5
:100F7000054600BF306880077FF5E9AEFFF7E6FC65
:100F8000401B02284FF00300F4D9B4E77068216ACF
:100F900000F480328A4209D1616A00F470108842FC
:100FA00004D1002002B0BDE8F08100BF012002B0F2
:100FB000BDE8F081306A20F001003062306A20F034
:100FC00004003062FFF7C2FC054641F2883700BFDB
:100FD000306A800722D5FFF7B9FC401BB8424FF0BA
:100FE0000300F5D987E700BF306A40F004003062A3
:100FF000306A40F001003062FFF7A8FC054641F27C
:10100000883700BF306A800708D4FFF79FFC401B79
:10101000B842F7D9032002B0BDE8F081B8F1000F63
:101020003FF59BAEF06920F08050F06195E600BF7F
:10103000306820F480303060306820F480203060E8
:10104000FFF784FC054600BF306880037FF560AE83
:10105000FFF77CFC401B64284FF00300F4D94AE7FB
:10106000306840F480203060306840F48030306078
:10107000FFF76CFC054600BF306880033FF548AEC3
:10108000FFF764FC401B6428F6D9032002B0BDE8DA
:10109000F08100BF206AB0F5803F05D17168A26879
:1010A00021F40031114371607168626A21F4741196
:1010B00011430843706001203866FFF747FC04467F
:1010C000306880013FF56DAFFFF740FC001B022840
:1010D0004FF00300F4D90EE7411E0020B0EB116F72
:1010E0001CBF012070474EF21002CEF20002516088
:1010F0004EF62351CEF20001F0230B7007219060D1
:1011000011607047704700007047000090F83C2065
:10111000012A4FF0020236D010B580F83D20026857
:10112000D2F804E0D2F808C00C682EF07003234314
:1011300040F2FF74C4F20004A24253600ADCB2F130
:10114000804F13D040F20043C4F200039A420DD006
:1011500011E000BF42F60043C4F201039A4205D0F9
:1011600040F60003C4F200039A4204D149682CF00F
:101170008003194391600121002280F83D1080F81E
:101180003C20BDE81040104670470000002804BF16
:101190000120704710B5044690F83D0028B90020A2
:1011A00084F83C00204600F067F8022084F83D00F7
:1011B000206840F2FF730268C4F2000342F6004C5C
:1011C0009842C4F2010C15DCB0F1804F1AD040F205
:1011D0000041C4F20001884214D0984218DCB0F1FA
:1011E000804F1DD040F20041C4F20001884217D068
:1011F0001AE000BF604505D040F60001C4F20001CE
:101200008842EAD1A16822F070020A439842E6DDE2
:10121000604505D040F60001C4F20001884203D1C8
:10122000216922F440720A43A36922F08001D4F8B4
:1012300004E0E268194360450160C262C0F828E03A
:1012400002D16169CCF8301001214161002084F89D
:10125000461084F83E1084F83F1084F8401084F85B
:10126000411084F8421084F8431084F8441084F844
:10127000451084F83D1010BD006842F60041C4F2EC
:101280000101884218BF704780B582B041F2180052
:10129000C4F202000168012241F4006101600068AB
:1012A000002100F40060019001981920FFF7CEFBA7
:1012B000192002B0BDE88040FFF7B6BB90F83D10A2
:1012C00001291CBF01207047022180F83D100068F1
:1012D00040F2FF72C168C4F20002904241F0010185
:1012E000C16009DCB0F1804F12D040F20041C4F27D
:1012F000000188420CD012E042F60041C4F2010124
:10130000884205D040F60001C4F20001884206D1AF
:10131000816801F00701062904BF002070470168B9
:1013200041F00101016000207047000090F83C206E
:10133000012A4FF0020200F0C58080B580F83D2000
:10134000D0F800C04FF67772DCF8083023EA0202CA
:10135000CCF808200B684F2B28DC1F2B44DD202BFA
:1013600045D0302B43D0402B40F0AE80D1F804E084
:10137000C968DCF82030DCF8202022F00102CCF82B
:101380002020DCF8182022F0F00242EA011123F0BC
:101390000A0242EA0E02CCF81810CCF82020DCF841
:1013A000081041F0470121F0300180E06F2B27DD6C
:1013B000B3F5005F48D0B3F5805F7AD0702B40F072
:1013C0008380D1E901E3C968DCF8082043EA0E0311
:1013D00022F47F4243EA01211143CCF80810DCF8E3
:1013E000081041F0770162E00BB1102B6CD1DCF8F2
:1013F000081021F07001194341F0070157E000BFC8
:10140000502B35D0602B5FD1D1F804E0C968DCF8EF
:101410002030DCF8202022F01002CCF82020DCF86C
:10142000182022F4704242EA013123F0A00242EA7D
:101430000E12CCF81810CCF82020DCF8081041F07F
:10144000670121F0100132E0D1E901E3C968DCF85D
:10145000082043EA0E0322F47F4243EA01211143AC
:10146000CCF80810DCF8081041F480411FE000BF00
:10147000D1F804E0C968DCF82030DCF8202022F044
:101480000102CCF82020DCF8182022F0F00242EA19
:10149000011123F00A0242EA0E02CCF81810CCF82F
:1014A0002020DCF8081041F0570121F02001CCF891
:1014B00008100022012180F83D10002180F83C1026
:1014C000BDE88040104670470122F3E7002804BFC2
:1014D000012070472DE9F04F81B0044690F83D009F
:1014E0000D4628B9002084F83C00204600F094F80E
:1014F000022084F83D00206844F20702816840F22F
:10150000FF73914381600268C4F2000342F6004C0D
:101510009842C4F2010C15DCB0F1804F1AD040F2B1
:101520000041C4F20001884214D0984218DCB0F1A6
:10153000804F1DD040F20041C4F20001884217D014
:101540001AE000BF604505D040F60001C4F200017A
:101550008842EAD1A16822F070020A439842E6DD8F
:10156000604505D040F60001C4F20001884203D175
:10157000216922F440720A43A36922F08001D4F861
:1015800004E0E268194360450160C262C0F828E0E7
:1015900002D16169CCF830104FF00109C0F8149005
:1015A0008268D0F818E0D0F820C0D5E90038D5E935
:1015B000027B43EA020AAB694FF6FF712EEA010E85
:1015C00047EA03234FF6FC47BB43D5E907724BEAD2
:1015D0000E012E69194341EA072141EA061141EA49
:1015E00002312CF022026B6942EA080242EA03123D
:1015F000C0F808A08161026284F8469084F83E90A9
:1016000084F83F9084F8429084F8439084F83D90A9
:10161000002001B0BDE8F08F10B586B0006840F240
:101620000041C4F2000188424FF00001CDE90411ED
:10163000CDE902111CD0B0F1804F44D141F2180025
:10164000C4F2020041681C2441F00101416041687C
:1016500001F0010101910199016841F0040101606B
:10166000006800F0040001900198032018E000BF1A
:1016700041F21800C4F2020041681D2441F0020149
:101680004160416801F0020101910199016841F056
:1016900004010160006800F0040001900198C0207E
:1016A00002900020CDE9030040F60000C4F20100E2
:1016B00002A9FFF73DF8204600210022FFF7C6F9F6
:1016C0002046FFF7B1F906B010BD000080B590F8D4
:1016D0003E2090F83F3090F842E090F843C0042953
:1016E0000AD0B9B9012A4FF0010208BFBEF1010FBB
:1016F00034D0104680BD00BF012B4FF0010208BF5F
:10170000BCF1010FF5D1022180F83F1080F84310A1
:1017100000681EE0012A4FF0010208BF012BE8D14A
:10172000BEF1010FE5D1BCF1010FE2D1022280F838
:101730003E2080F83F2080F8422080F8432091B17D
:101740000068016A21F001010162016A41F00101B2
:10175000016210216FF0100209E000BF022180F841
:101760003E1080F84210006801216FF00102036A08
:101770001A400262026A114301620168002241F0CC
:1017800001010160104680BD7047000010B501687E
:1017900004460869800744BFC8685FEA807039D48E
:1017A0000869400744BFC8685FEA40703ED40869D2
:1017B000000744BFC8685FEA007045D40869C006E6
:1017C00044BFC8685FEAC0604AD40869C0071CBF4C
:1017D000C8685FEAC07051D10869000644BFC86894
:1017E0005FEA006052D40869400644BFC8685FEAF7
:1017F000406053D40869800646BFC8685FEA8060CD
:1018000010BD6FF0200220460A61BDE81040FFF7CE
:101810007BBC00BF6FF0020008610120207788695F
:10182000800743D02046FFF7AFFF45E06FF004008C
:10183000086102202077886910F4407F40D020465C
:10184000FFF7A2FF42E000BF6FF00800086104202C
:101850002077C86980073DD02046FFF795FF3FE01D
:101860006FF01000086108202077C86910F4407FED
:101870003AD02046FFF788FF3CE000BF6FF0010040
:101880000861204600F03AFA2168A5E76FF0800071
:1018900008612046FFF736FC2168A4E76FF040009E
:1018A0000861204600F0ACFA2168A3E7204600F06A
:1018B00025F8204600F0B2F92168002020776FE774
:1018C000204600F01BF8204600F0A8F9216800200F
:1018D00020776CE7204600F011F8204600F09EF9D2
:1018E00021680020207769E7204600F007F82046AD
:1018F00000F094F921680020207766E77047000027
:1019000090F83C30012B04BF022070474FEAB2022E
:10191000032A3DD82DE9F043DFE802F002407CB60F
:10192000036842F600461D6A1A6AC4F2010622F0F4
:1019300001021A621A465C6852F818CFB3428E68E8
:10194000D1F800E025F0020545EA06050CD1CE6885
:10195000D1E9057824F4407425F00C0526F004063E
:101960003C43354344EA08042CF0730747EA0E076A
:101970005C609F614F6809695F631D629F6947F002
:1019800008079F619F6927F004079F61ACE000BFD3
:101990000121002280F83C2008467047036842F687
:1019A00000461D6A1A6AC4F2010622F010021A6289
:1019B0001A46D3F804C052F8184FB3428E68D1F8D3
:1019C00000E025F0200545EA06150FD1CE68D1E9E3
:1019D00005986FF0400725F0C00507EA0616354365
:1019E0002CF4406748EA090647EA860C24F4E644EA
:1019F00044EA0E27C3F804C09F614F6809699F63DA
:101A00001D629F6947F400679F619F6927F48067A3
:101A10009F6168E0036842F600461D6A1A6AC4F2D4
:101A2000010622F480721A621A46D3F804C052F8F2
:101A30001CEFB3428E680C6825F4007545EA062554
:101A40000FD1CE68D1E90598360240F2FF4725F460
:101A50004065BE4335432CF4405748EA090647EA3F
:101A6000061C2EF073072743C3F804C0DF614F68DC
:101A70000969DF631D62DF6947F00807DF61DF691D
:101A800027F00407DF612FE0036842F60047D3F830
:101A900020C01A6AC4F2010722F480521A621A4660
:101AA0005C6852F81C5FD1F800E08E68BB4204D13C
:101AB0004F6924F4804444EA87142CF4005747EA21
:101AC000063725F4E64646EA0E265C60DE614E687F
:101AD00009691E641F62DF6947F40067DF61DF691F
:101AE00027F48067DF610902136819431160002140
:101AF000BDE8F043002280F83C2008467047000013
:101B0000002804BF0120704710B5044690F83D003E
:101B100028B9002084F83C00204600F067F8022035
:101B200084F83D00206840F2FF730268C4F20003AD
:101B300042F6004C9842C4F2010C15DCB0F1804F23
:101B40001AD040F20041C4F20001884214D09842F9
:101B500018DCB0F1804F1DD040F20041C4F200010A
:101B6000884217D01AE000BF604505D040F600015A
:101B7000C4F200018842EAD1A16822F070020A434F
:101B80009842E6DD604505D040F60001C4F2000150
:101B9000884203D1216922F440720A43A36922F0EA
:101BA0008001D4F804E0E268194360450160C26234
:101BB000C0F828E002D16169CCF830100121416100
:101BC000002084F8461084F83E1084F83F1084F812
:101BD000401084F8411084F8421084F8431084F8CF
:101BE000441084F8451084F83D1010BD006840F69C
:101BF0000001C4F20001884218BF704781B041F271
:101C00001C00C4F20200016841F004010160006898
:101C100000F004000090009801B070477047000089
:101C200041B1082910D0042914BF00F1410200F18C
:101C30003F020BE090F83E20012A1CBF01207047B4
:101C4000022280F83E2013E000F140021278012ABF
:101C50001CBF012070470222082907D0042914BFA5
:101C600080F8412080F83F2002E000BF80F840204B
:101C7000006801F01F010122036A8A4023EA020181
:101C80000162036A42F64441C4F201011A43A1F120
:101C90004403984202620FD040F2FF71C4F2000187
:101CA000884213DCB0F1804F1CD040F20041C4F2F6
:101CB0000001884216D01AE00A6842F400420A6025
:101CC00040F2FF71C4F200018842EBDD42F60041B0
:101CD000C4F20101884205D040F60001C4F20001BF
:101CE000884204D1816801F00701062903D0016808
:101CF00041F001010160002070470000006842F6D9
:101D00000041C4F20101884218BF70472DE9F04F2D
:101D100081B040F23030C2F2000000684FF6FF732D
:101D20000168426AC9064FF0000148BFD21A4162F9
:101D300040F2783040F2EC0BC2F20000C2F2000B2D
:101D40000068CBF800200768466AFF0648BFF61A0D
:101D500041620121CFF6FF71501A18BF1046751A63
:101D600018BF354601F03DFE0746DBF80400DBF8FE
:101D700014808A4602F038F840F20009C3F6E07990
:101D800000224B4601F044FE04460E4638465146BA
:101D900000224B4601F03CFE2246334601F04AFD4C
:101DA00001F0F0FDCBF8000002F032F9CBF80400AE
:101DB000284601F016FE044640460D4602F014F88F
:101DC00000224B4601F024FE06460F4620462946D7
:101DD00000224B4601F01CFE32463B4601F02AFD34
:101DE00001F0D0FDCBF8100002F012F9CBF814008E
:101DF00001F016F801B0BDE8F04F01F029B900007C
:101E0000704700007047000070470000B0B582B016
:101E1000044600680168C368426901F02F05202D5F
:101E200003F0200506D12DB1204602B0BDE8B04038
:101E300001F06ABA5FEA017C1EBF02F0010E03F4F2
:101E4000907212EB0E0243D1226BCD0618D5012AF7
:101E500016D113F0100213D00021019101680191F5
:101E6000416801910199406940063BD4A08DE18D04
:101E7000E28D002A18BF884240F0F28102B0B0BD66
:101E80000A0640F1E78013F0800200F0E38094F846
:101E900041102129F2D1A168B1F5805F03D12169F8
:101EA000002900F06382216A4A1C2262097841609D
:101EB000E18C01390A04E184E0D1C16821F080019C
:101EC000C160C16841F04001C16002B0B0BD00BF57
:101ED000CA0718BF13F4807240F0D0804A0700F19F
:101EE000D380D8E0E06B016849688AB2002AC5D087
:101EF000A38D9A42C2D2E1858069202800F09E809D
:101F0000206850E8030F216820F4807041E8030244
:101F1000DAB1206850E8030F216820F4807041E8AE
:101F2000030292B1206850E8030F216820F480700A
:101F300041E803024AB1206850E8030F216820F409
:101F4000807041E80302002ADAD1206850E8050FCA
:101F5000216820F0010041E80502C2B3206850E882
:101F6000050F216820F0010041E805027AB32068DE
:101F700050E8050F216820F0010041E8050232B366
:101F8000206850E8050F216820F0010041E80502B3
:101F9000002ADAD11BE000BF206850E8050F216855
:101FA00020F0400041E80502DAB1206850E8050F52
:101FB000216820F0400041E8050292B1206850E815
:101FC000050F216820F0400041E805024AB1206871
:101FD00050E8050F216820F0400041E80502002A82
:101FE000DAD1202084F8420000202063206850E8E5
:101FF000030F216820F0100041E80302DAB12068E5
:1020000050E8030F216820F0100041E8030292B16C
:10201000206850E8030F216820F0100041E8030217
:102020004AB1206850E8030F216820F0100041E811
:102030000302002ADAD1E06BFEF798F90220606310
:10204000A08DE18D401A81B2204602B0BDE8B040BB
:10205000FFF7D8BE49067FF511AF13F040013FF4FA
:102060000DAFC16821F04001C1602021204684F8F5
:10207000411002B0BDE8B04000F0BABC626C42F062
:10208000010262644A0706D5BEF1000F03D0626CFC
:1020900042F0020262648A0706D5BEF1000F03D047
:1020A000626C42F004026264BCF1000F06D55EEA85
:1020B000050203D0626C42F008026264626C002A7E
:1020C0003FF4DCAE890604D51DB1204601F01CF9B1
:1020D00020684069616C00F0400001F00801401880
:1020E00000F0B680206850E8030F216820F490705B
:1020F00041E80302BAB3206850E8030F216820F4D6
:10210000907041E8030272B3206850E8030F216821
:1021100020F4907041E803022AB3206850E8030FCE
:10212000216820F4907041E80302002ADAD11AE015
:10213000206850E8050F216820F0010041E8050201
:10214000DAB1206850E8050F216820F0010041E86D
:10215000050292B1206850E8050F216820F00100C7
:1021600041E805024AB1206850E8050F216820F0D7
:10217000010041E80502002ADAD1206B012824D1B0
:10218000206850E8030F216820F0100041E80302A6
:10219000DAB1206850E8030F216820F0100041E810
:1021A000030292B1206850E8030F216820F010006C
:1021B00041E803024AB1206850E8030F216820F08B
:1021C000100041E80302002ADAD1202084F84200FE
:1021D0000020206320684069400640F1C1802068EB
:1021E00050E8050F216820F0400041E80502DAB10F
:1021F000206850E8050F216820F0400041E8050202
:1022000092B1206850E8050F216820F0400041E8B5
:1022100005024AB1206850E8050F216820F040000F
:1022200041E80502002ADAD1E06B002800F098802E
:1022300043F2C901C0F600014163FEF7BBF8002874
:102240003FF41CAEE06B416B02B0BDE8B040084704
:102250002046FFF7D9FD0020606402B0B0BD00BF8A
:10226000401A00BF216851E8031F226821F49071D1
:1022700042E80313BBB3216851E8031F226821F42D
:10228000907142E8031373B3216851E8031F226879
:1022900021F4907142E803132BB3216851E8031F26
:1022A000226821F4907142E80313002BDAD11AE07E
:1022B000216851E8051F226821F0010142E8051359
:1022C000DBB1216851E8051F226821F0010142E8D5
:1022D000051393B1216851E8051F226821F001011F
:1022E00042E805134BB1216851E8051F226821F02F
:1022F000010142E80513002BDAD1202184F84210B5
:1023000000212163216851E8031F226821F0100198
:1023100042E80313DBB1216851E8031F226821F072
:10232000100142E8031393B1216851E8031F2268AA
:1023300021F0100142E803134BB1216851E8031F5B
:10234000226821F0100142E80313002BDAD10222A7
:1023500081B22046626302B0BDE8B040FFF752BDD3
:10236000204602B0BDE8B040FFF74EBD216A31F80B
:10237000022B6FF35F224260216299E5002804BFBF
:102380000120704710B5044690F8410028B900209C
:1023900084F84000204600F063F8242084F84100CF
:1023A0002068D4E90212C36823F40053C3600369B0
:1023B00023F440531A430261D4E904231143C26851
:1023C000194341F20C639A431143C1604169A26908
:1023D00021F44071114343F60002C4F2010290421D
:1023E000416103D0FEF750FC02E000BFFEF760FC45
:1023F000D4E90023192148439900B0FBF1F048F2D9
:102400001F5CC5F2EB1CA0FB0C314FF69C73490915
:10241000C0F6FF7301FB0300322303EB0010A0FBA7
:102420000C03F02000EA531000EB0110C3F343113A
:10243000084490601069202120F490401061506998
:1024400020F02A005061D06840F40050D060002095
:10245000606484F8411084F84210606310BD00008D
:10246000F0B585B00446006844F20041C4F20001B2
:10247000002788420497CDE90277019744D044F6BB
:102480000001C4F20001884200F08A8043F6000196
:10249000C4F20101884240F0BD8041F21800C4F24C
:1024A0000200016840F6000441F4804101600168C7
:1024B000C4F2010401F4804100910099016801AD6A
:1024C00041F0040101600068294600F0040000901A
:1024D00000984FF4007001900220029003200490B5
:1024E0002046FEF725F94FF4806001900020CDE9E9
:1024F000020020462946FEF71BF925200021002274
:10250000FEF7A4FA252083E041F21800C4F202008D
:10251000416840F6000541F4003141604168C4F271
:10252000010501F4003100910099016801AE41F00C
:10253000040101600068314600F00400009000983A
:102540000420019002200290032004902846FEF708
:10255000EFF80820CDE90107284631460397FEF73A
:10256000E7F840F2A4258020C2F20005C4F2020080
:102570001021802220234FF4405685E8830028460E
:10258000C5E90327C5E90573EE61FEF73DF80028AC
:1025900018BFFDF7E5FEA5636C6205B0F0BD00BF96
:1025A00041F21800C4F20200416801AD41F48021FB
:1025B0004160416801F4802100910099016841F077
:1025C000080101600068294600F0080000900098AA
:1025D0004FF480600190022002900320049040F6A6
:1025E0000000C4F2010000F580642046FEF7A0F868
:1025F0004FF4006001900020CDE9020020462946FA
:10260000FEF796F8272000210022FEF71FFA272068
:10261000FEF70AFA05B0F0BD90F84230202B07D142
:1026200000294FF0010318BF002A05D11846704752
:1026300002231846704700BF0023036381622221F2
:102640008285C285436480F842100169006819B12F
:10265000C16841F48071C160416941F0010141618B
:10266000C16841F02001C1601846704770B544F65A
:1026700000050446C4F20005006805F57041884273
:102680000AD0A84218BF70BD40F26810C2F2000024
:10269000BDE8704000F0B2B940F20C16C2F200067C
:1026A0007078072100F034FC307838B10020FDF755
:1026B00005FE0020FDF726FEF8E700BF2068E0E7F2
:1026C0002DE9F04381B0044690F84100202840F005
:1026D000B180884600294FF0010000F0D6801646F0
:1026E000002A00F0D2800020606421201D4684F87A
:1026F0004100FEF72BF9A684E684A1680646B1F5F1
:10270000805F03D12069002800F0988047464FF091
:102710000008E18C2068002900F0968005F101098D
:102720000BE000BF47B317F8011B4160E18C013992
:10273000E184E18C002900F0878001680906F1D46A
:10274000B9F1000F0AD0EDB1FEF700F9801BA842E5
:1027500018D8206801680906F6D5E3E7016809067C
:10276000E0D4016809065CBF01685FEA0161D9D461
:1027700001680906F2D5D5E738F8021B00276FF388
:102780005F21D2E7206850E8030F216820F4D07061
:1027900041E80302BAB3206850E8030F216820F42F
:1027A000D07041E8030272B3206850E8030F21683B
:1027B00020F4D07041E803022AB3206850E8030FE8
:1027C000216820F4D07041E80302002ADAD11AE02F
:1027D000206850E8050F216820F0010041E805025B
:1027E000DAB1206850E8050F216820F0010041E8C7
:1027F000050292B1206850E8050F216820F0010021
:1028000041E805024AB1206850E8050F216820F030
:10281000010041E80502002ADAD1202084F84100B5
:1028200084F84200002084F84000032001B0BDE895
:10283000F08300BF022001B0BDE8F0830027E18CE7
:10284000206800297FF46AAF0168490619D4FDB1F8
:10285000691C0DD10168490613D4016849065CBFA3
:1028600001685FEA41610CD401684906F2D508E0CD
:10287000FEF76CF8801BA8420AD820680068400662
:10288000F6D5202084F84100002001B0BDE8F08397
:10289000206850E8030F216820F4D07041E803025B
:1028A000002A3ED0206850E8030F216820F4D07041
:1028B00041E80302AAB3206850E8030F216820F41E
:1028C000D07041E8030262B3206850E8030F21682A
:1028D00020F4D07041E80302002AD9D121E000BFE2
:1028E000206850E8050F216820F0010041E805024A
:1028F000002A3FF492AF206850E8050F216820F0CD
:10290000010041E80502002A3FF487AF206850E843
:10291000050F216820F0010041E80502002A3FF47C
:102920007CAF206850E8050F216820F0010041E8E5
:102930000502002AD4D170E770B5044690F8410032
:1029400020281CBF022070BD00294FF001004DD08F
:10295000002A134608BF70BD4FF0000C21202162F1
:10296000A384E384C4F844C084F841002268A06BC7
:1029700043F2512E43F2013543F2D506C0F6000E64
:10298000C0F60005C0F600060432C0E90AE5C0E959
:102990000C6CFDF77DFE20686FF04001016000BF08
:1029A000206850E8050F216840F0800041E80502EA
:1029B000DAB1206850E8050F216840F0800041E856
:1029C000050292B1206850E8050F216840F08000B0
:1029D00041E805024AB1206850E8050F216840F03F
:1029E000800041E80502002ADAD1002070BD000015
:1029F0007047000070470000FEE70000B0B540F2ED
:102A00008805C2F200052978552905D10278532A94
:102A100002D101226A7002E06A78012A40D140F2B4
:102A2000200CC2F2000C2A46BCF9003002F8021F4A
:102A30000078591C8CB2D0540B2C4FF00000ACF82D
:102A4000001030D10121ACF80010A978EA782B7978
:102A50006C7911441944AA792144EB79114495F811
:102A600008C00B446A7A6344AC7A1344E97A23447D
:102A700019442B7BC9B29942288018BFB0BD4CEADB
:102A8000022000B201F0C4FA4FF0605101F040FBA7
:102A90000021C4F2343101F03BFB68630120B0BD7A
:102AA000007828700020B0BD80B582B041F21400DB
:102AB000C4F202000168002241F0010101600068D7
:102AC000002100F00100019001981120FDF7BEFFE8
:102AD000112002B0BDE88040FDF7A6BF70B584B0FC
:102AE00041F21800C4F20200016840F6004441F0CF
:102AF000200101600168C4F2010401F0200100918D
:102B000000990168002241F00401016001684FF45E
:102B1000704501F00401009100990168002641F020
:102B20000801016000684FF4704100F00800009057
:102B300000982046FDF704FF0120CDE901060220A0
:102B40000390694620460095FDF7F2FD04B070BD84
:102B500080B586B040F2E82042F600420021C2F281
:102B60000000C4F2010241F61F434FF0630C0591CF
:102B7000CDE90311CDE90011C0E90023C0E9021C31
:102B8000C0E904118161FEF701FB002818BFFDF7C1
:102B9000E7FB4FF48050029040F2E820C2F20000C0
:102BA00002A9FEF7C3FB002818BFFDF7D9FB40F2CE
:102BB000E820C2F200006946FEF7A8FA002818BF14
:102BC000FDF7CEFB06B080BD80B58CB040F2303052
:102BD0000021C2F200004FF08042C0E90021032230
:102BE0004FF6FF73CDE903210122CDE90011C0E9C1
:102BF000021301618161CDE90521CDE90711CDE91C
:102C000009210B9103A9FEF761FC002818BFFDF70D
:102C1000A7FB40F23030C2F200006946FEF776FAB8
:102C2000002818BFFDF79CFB0CB080BD80B58CB0B0
:102C300040F2783040F200420021C2F20000C4F2BB
:102C40000002C0E9002103224FF6FF73CDE9032102
:102C50000122CDE90011C0E9021301618161CDE9D2
:102C60000521CDE90711CDE909210B9103A9FEF753
:102C70002DFC002818BFFDF773FB40F27830C2F23C
:102C800000006946FEF742FA002818BFFDF768FB0E
:102C90000CB080BDB0B590B040F6000540F2C03039
:102CA000C4F200050021C2F2000041F61F42CDE946
:102CB0000811CDE90611CDE90411C0E90051C0E9C0
:102CC000021201618161FEF71BFF002818BFFDF7AA
:102CD00047FB40F2C030C2F2000008A9FEF716FA26
:102CE000002818BFFDF73CFB602001900020CDE9D3
:102CF0000200059040F2C030C2F2000001A900229B
:102D0000FEF7FEFD002818BFFDF72AFB40F2C03495
:102D1000C2F2000401A920460422FEF7F1FD0028BA
:102D200018BFFDF71DFB20680021A8420E9101D0BD
:102D300010B0B0BD41F21800C4F20200016841F0C9
:102D40000801016000680CA900F008000B900B98C6
:102D5000C0200C9002200D900F9005F58230FDF7F9
:102D6000E7FC10B0B0BD000080B540F2084043F66B
:102D70000001C2F20000C4F2010100234FF00C0C6C
:102D80004FF4E13280E80E00C0E90333C0E905C327
:102D9000C361FFF7F3FA002808BF80BDBDE880409B
:102DA000FDF7DEBA80B540F2504044F20041C2F275
:102DB0000000C4F2000100234FF00C0C4FF4E1328C
:102DC00080E80E00C0E90333C0E905C3C361FFF723
:102DD000D5FA002808BF80BDBDE88040FDF7C0BA25
:102DE00080B540F2984044F60001C2F20000C4F2FF
:102DF000000100234FF00C0C4FF4E13280E80E008C
:102E0000C0E90333C0E905C3C361FFF7B7FA00287F
:102E100008BF80BDBDE88040FDF7A2BAFEE7000014
:102E20002DE9F04140F2DC06C2F20006B6F90400DA
:102E300001F0EEF840F21C14C2F200040146A01C9E
:102E400000F050FC01F0C8F831887288B080531847
:102E5000511A1D1A0A18091A184401347181B081D7
:102E600009B22046F580328100F0F4FA01F0B4F89E
:102E7000B6F90C107081204600F008FB01F0ACF8A8
:102E8000B6F90A10B08108B240F600488FB2B1F12D
:102E9000FF3F81EAE031C4F201084FF00002A1EBEC
:102EA000E03540464FF480514FF00004C8BF012286
:102EB000FDF746FDFA0B40464FF40051FDF740FD8B
:102EC00040F2C037C2F20007386829B24163B6F950
:102ED0000C0001B285B2B0F1FF3F80EAE130C8BF1B
:102EE0000124A0EBE13640464FF480412246FDF735
:102EF00027FDEA0B40464FF40041FDF721FD3868FD
:102F000031B28163BDE8F081FEE700007047000048
:102F10002DE9F04340F20C18C2F2000898F80220A4
:102F2000032A00F29080DFE802F0031B2D4500BF6A
:102F3000A52840F0888098F80310012088F8020046
:102F4000481C40F2691288F80300C2F20002C0B2C5
:102F5000A52310445354C8F80400BDE8F08300BF13
:102F600098F8032040F26914531C88F80330DBB250
:102F7000013BC2F200048B42A05418BFBDE8F083AD
:102F800002205EE098F8032040F26919531CC2F257
:102F9000000988F8033009F8020029B3042901F078
:102FA000030C23D200214FF0010EBCF1000F33D1EE
:102FB00041E000BF5A2843D1D8F8040040F2DC03B6
:102FC0000188C2F20003A8F8081042881980A8F806
:102FD0000A2080885A80A8F80C0098800020A8F861
:102FE0000200BDE8F08300BF002124E001F0FC02F4
:102FF0000021002409EB04056E78AF78EB783144AA
:103000002D79394419440434A2422944F2D104F1FF
:10301000010EBCF1000F0ED019F80E20BCF1010F0B
:10302000114408D00EEB09025378BCF1020F194489
:103030001CBF92781144C9B2814201D1032000E043
:10304000002088F80200BDE8F0830000704700000F
:1030500080B540F29521C2F20001A520087040F22F
:10306000E200C2F2000002884088A1F8012002EBD1
:1030700012220244C870030A02EB102048715A2041
:10308000887140F25040C2F2000007220B71FFF736
:1030900053FC0020C4F20200006880BDFDF75CBC58
:1030A0007047000040F2E820C2F20000FEF76EBB5D
:1030B00040F23030C2F20000FEF768BB40F27830D8
:1030C000C2F20000FEF762BB406A0021C185C184E4
:1030D000FEF79ABE406A01684A6990F84130212B98
:1030E0002DD112F080022AD00021C184016851E85C
:1030F000031F026821F0C00142E80313DBB101683D
:1031000051E8031F026821F0C00142E8031393B1A4
:10311000016851E8031F026821F0C00142E803136F
:103120004BB1016851E8031F026821F0C00142E879
:103130000313002BDAD1202180F84110016849697E
:1031400090F84220222A40F07D8011F0400179D091
:103150000021C185016851E8031F026821F49071C4
:1031600042E80313BBB3016851E8031F026821F46E
:10317000907142E8031373B3016851E8031F0268BA
:1031800021F4907142E803132BB3016851E8031F47
:10319000026821F4907142E80313002BDAD11AE09F
:1031A000016851E8051F026821F0010142E805139A
:1031B000DBB1016851E8051F026821F0010142E816
:1031C000051393B1016851E8051F026821F0010160
:1031D00042E805134BB1016851E8051F026821F070
:1031E000010142E80513002BDAD1016B012924D13A
:1031F000016851E8031F026821F0100142E803133F
:10320000DBB1016851E8031F026821F0100142E8B8
:10321000031393B1016851E8031F026821F0100104
:1032200042E803134BB1016851E8031F026821F023
:10323000100142E80313002BDAD1202180F842105C
:1032400000210163416C41F010014164FEF7DCBDD7
:103250000168406A0968890648BFFFF7C9BB0021B9
:10326000C18400BF016851E8051F026821F0800198
:1032700042E8051383B3016851E8051F026821F095
:10328000800142E805133BB3016851E8051F02685D
:1032900021F0800142E80513F3B1016851E8051FF0
:1032A000026821F0800142E80513002BDAD113E017
:1032B000016851E8031F026841F0400142E803132E
:1032C000002B08BF7047016851E8031F026841F0F6
:1032D000400142E8031393B1016851E8031F0268FB
:1032E00041F0400142E803134BB1016851E8031F6C
:1032F000026841F0400142E80313002BD8D1704727
:10330000406AFFF777BB000081B090F84210222995
:1033100021D183680246B3F5805F09D152F8281F96
:1033200052F8183C002B63D003685B680AE000BFCA
:1033300052F8281F13B90369002BF5D003685B68A6
:1033400003F07F030B70116801311160C18D0139E9
:103350000A04C18502D001B0704700BF0168CA6885
:1033600022F02002CA60CA6822F48072CA604A69E8
:1033700022F001024A61202180F8421000214163BD
:10338000026B012A3CD10163016851E8031F026806
:1033900021F0100142E80313DBB1016851E8031F7B
:1033A000026821F0100142E8031393B1016851E86B
:1033B000031F026821F0100142E803134BB10168BA
:1033C00051E8031F026821F0100142E80313002BAB
:1033D000DAD101680A68D20606D5002200920A688E
:1033E0000092496800910099818D01B0FEF70ABDF5
:1033F000026852686FF35F2221F8022B8162A5E711
:1034000001B0FFF733B9000010B540F20844C2F232
:1034100000042046FEF7FAFC40F20D11C2F2000152
:1034200020460122BDE81040FFF7F6B810B540F283
:103430009844C2F200042046FEF7E8FC40F268110E
:10344000C2F2000120460122BDE81040FFF7E4B8B7
:10345000FEE70000B0B540F2EC00C2F200000068E8
:103460000C4600F0D5FD0546204600F0D1FD40F2A7
:10347000E044034640F21C10C2F20004C2F2000015
:1034800021462A4600F05AF8206AB0BDB0B540F295
:10349000FC00C2F2000000680C4600F0B9FD0546D1
:1034A000204600F0B5FD40F2E0440346C2F20004BD
:1034B00040F21C1004F14801C2F200002A4600F05C
:1034C0003DF8A06EB0BD00002DE9F04182B040F2A1
:1034D000E04540F2080640F200080027C2F200056D
:1034E000C2F20006C4F22018C4F27A57294600221C
:1034F00033460446CDE9007800F0DCF805F14801D8
:10350000204600223346CDE9007800F0D3F840F29F
:103510001C10002748F20005C2F20000C4F2483730
:10352000C4F23B55011D06F10C0320460022CDE9F3
:10353000005700F0BFF802B0BDE8F0812DE9F04F70
:1035400081B0002954D0D1E90F680C4618461146C5
:10355000C4E91068C4E9063200F0A6FE21780746E7
:103560000029E0634AD0012940F09E803846314668
:1035700000F09AFED4E9011BD4E9039500F0C8FDE0
:10358000824660623846594600F0C2FD8346D4E95F
:103590000C10C4F828B0C4E90D103046314600F0D4
:1035A0004FFC0146384600F07FFE0146404600F0E1
:1035B00047FC4946206300F0ABFD0646E0625046FA
:1035C000594600F03DFC314600F03AFC216A0246C3
:1035D0000846114600F034FC29460646206200F0F9
:1035E000ADFC002850D12562284601B0BDE8F08F1F
:1035F0000025284601B0BDE8F08F00BFD4E9011BCB
:10360000D4F80CA0D4F81490384600F081FD804620
:10361000A56A60625846394600F07AFD294600F0F6
:103620000FFC0546D4E90C10A562C4E90D1038461C
:10363000314600F039FE5146206300F069FD064630
:10364000E0622846494600F06BFC30B989F0004939
:103650002846494600F06BFC10B94D46C4F8289046
:103660004046294600F0ECFB0146304600F0E8FBFE
:10367000256906462946206200F060FC20B92562D3
:10368000284601B0BDE8F08F85F000473046394646
:1036900000F04DFC3546002804BF27623D46284611
:1036A00001B0BDE8F08F00BF256A284601B0BDE833
:1036B000F08F0000002918BF002B01D1704700BF18
:1036C00080B50A701868039A4860586888609868DE
:1036D000029B4A61C1E9030301F120002821FCF7A4
:1036E00089FD80BDB0B540F29C20C2F20000B0F967
:1036F00002000C4600F08CFC40F21C15C2F20005E2
:103700000246291D28462346FFF718FF686AB0BD08
:1037100092B04AF6FF200024C0F276000194009097
:10372000FDF728F90120CDE90D44CDE90B440890BF
:103730000C904FF4E0104FF480310225119008A84E
:10374000CDE90914CDE90F51FDF7C6FA20B1EFF329
:10375000108072B6FEE700BF0F20CDE903054FF4DD
:103760008060CDE9060403A802210594FDF7AAF9BB
:1037700020B1EFF3108072B6FEE700BFFFF7AEF99D
:10378000FFF792F9FFF7E4F9FFF71EFAFFF74EFA99
:10379000FFF780FAFFF7E8FAFFF704FBFFF720FBDB
:1037A00040F29840C2F20000694605226423FEF709
:1037B00087FF00F003F800BFFEE7000040F21C1096
:1037C000C2F20000FFF780FE40F2084040F20D1107
:1037D000C2F20000C2F200010122FEF71DFF40F21A
:1037E000984040F26811C2F20000C2F200010122CA
:1037F000FEF712FF40F2E820C2F20000FDF75EFD86
:1038000040F23030C2F200000421FDF75FFF40F2C9
:103810007830C2F200000421FDF758FF40F2C034B6
:10382000C2F2000420460021FEF7FAF920460421E6
:10383000FEF7F6F910B591EA030F48BF83F0004395
:1038400000F1EC81841A71EB030C05D2121943EBE1
:103850000C03001B61EB0C014FEA1154A4EB135C49
:10386000DFF81CE11EEA430F18BF9EEA445F00F038
:10387000748021EA045123EA0E0343F48013DCF13F
:10388000200E32D322FA0CFE10EB0E0023FA0CFEAF
:1038900041EB0E01CCF1200E03FA0EFE10EB0E00F0
:1038A000CCF1200E51F10001B1F5801F32D201EBB5
:1038B000045112FA0EF2BDE8104058BF7047401C88
:1038C00038BF5FEA420218BF7047002814BF20F0DB
:1038D000010041F100014FEA410313F5001F38BF19
:1038E0007047A1F1C04100F08BB9012A43EB0302FC
:1038F000ACF1200CDCF11F0E32BF4FF0000E23FAAA
:103900000CF310EB030041EB0451B4EB115FD0D08A
:10391000A1EB045101F58011490801EB04515FEA64
:1039200030000ED350F1000038BF12FA0EFE08D15D
:10393000BDE81040C9E7401C38BF5FEA4202CAD167
:10394000C3E7BDE810404FEA410313F5001F38BF3D
:103950007047A1F1C04100F053B99EEA445F08D01E
:1039600011EA5E0FBDE8104004BF01F000410020E5
:103970007047BDE8104070B500F0F4F864FBBE3E3F
:103980000000E0FF4FEA41034FEA5353A3F5806381
:10399000D3F11E03C8BFD3F1210C0CDD4FF0004260
:1039A00042EAC12242EA505232FA03FC8CEAE17C3C
:1039B000ACEBE1707047102BC4BF0020704703F5DB
:1039C000787CBCF1FF3F04D06FF0004282EA210016
:1039D000704770B500F0C6F8499224800020704707
:1039E000F2E710F0004248BF4042B0FA80F310FA0C
:1039F00003F10AD0C3F11D0303F5806302EB035208
:103A00004FEA415002EBD12170474FF00000704760
:103A100070B5DFF848C11CEA111E1EBF1CEA131561
:103A20009EEA0C0F95EA0C0F00F06F8081EA030408
:103A30004EEAD47EAE4421EA4C1123EA4C1341F401
:103A4000801143F48013AEF17F7EA1FB024CA0FBFA
:103A50000365361955EB0C05A1FB034C4CF1000333
:103A6000A0FB021C16EB0C06654153F10003094252
:103A700018BF46F0010613F4007F0BD14FEA033163
:103A80004FEA053041EA155140EA165034036FF011
:103A900003020AE04FEAC3214FEAC52041EA55512B
:103AA00040EA5650F4026FF0020202EB2E4201EBA4
:103AB000025585EACE710AD05FEA440C18BF24F0A3
:103AC000004450F1000041F1000120EAD47040F2BE
:103AD000FE7C624500D270BDA84214BF4FF0804406
:103AE0004FF04044002E08BF0024BEF1806FA8BFF5
:103AF000A1F1C041BDE8704080F2828001F1C04177
:103B000001F000414FF0000070470CEA13159EEAE7
:103B10000C0F18BF95EA0C0F06D081EA030E4FF088
:103B200000000EF0004170BD00F01CF88900013E5D
:103B300000F007B800F009B84FEA430C5FEA5C5C9C
:103B400008D081EA030100F05BB84FEA410C5FEA5C
:103B50005C5CF6D102494FF0000070470000FF079F
:103B60000000F87F0EF1020E2EF0030E5EF8046BDB
:103B7000364205D4012A43EB030515F5001F12D880
:103B8000012841EB010C1CF5001F0CD80ED14FEAA7
:103B9000D17C0CEB4C0C0CF1020C15F5001F08BF8E
:103BA0004CEBD37C04E04FF0080C01E04FEAD37CEF
:103BB0000CEB4C0526FA05F606F00706B6F1040CE8
:103BC00006D20EEB860CBDE870404CF0010C60474D
:103BD000DFE80CF0090B02024FF00041A1F50021D3
:103BE0004FF0000070BD19461046012851EB01044A
:103BF00018BFD4F5001484BF002001F0004170BD4F
:103C00000808A0F500114FEA3101704710B591EA9C
:103C1000030F48BF83F000433FF514AE841A71EBE5
:103C2000030C07D28CF0004C121943EB0C03001B61
:103C300061EB0C014FEA1154A4EB135CDFF8A4E133
:103C40001EEA430F18BF9EEA445F00F0B48021EAE9
:103C5000045123EA6E035242C3EB6E0338BF5B1E6E
:103C6000DCF1200E25D322FA0CFE10EB0E0043FAF5
:103C70000CFE41EB0E01CCF1200E03FA0EFE10EB10
:103C80000E00CCF1200E51F1000129D401EB0451BA
:103C900012FA0EF2BDE8104058BF7047401C1CBF1E
:103CA000B2F1004F704700280CBF491C20F0010002
:103CB000704712EB020E43EB030218BF4FF0010EE8
:103CC0004EEA4202ACF1200CDCF11E0E56D943FA4A
:103CD0000CFE10EB0E00CCF11E0E51F1FF31D5D5CC
:103CE0000EF1010E12FA0EFE404141EB010101EB13
:103CF000445C5FEA5C5C10D901EB045110EBDE70B0
:103D000038BFBEF1004FBDE8104018BF7047002813
:103D10000CBF491C20F00100704734D24FEAD42C6C
:103D200024F4006411F500111BD0B1FA81F20B3AB2
:103D3000A41AA41ED2F12003914030FA03F31943D0
:103D4000904001EBCC7101EB0451002CBDE8104018
:103D5000A8BF704701F1C04101F000414FF00000E1
:103D60007047B0FA80F310FA03F102D1BDE81040B9
:103D70007047E41A173C4805C90AE2E701EB045111
:103D8000BDE81040704749104FEA300001EB045184
:103D9000BDE8104002E04FF0000170474A0008BF44
:103DA0000042F8D0B2F5001F28BF704701F0004173
:103DB0004FF0000070479EEA445F07D011EA5E0FA3
:103DC000BDE8104004BF002100207047BDE810404E
:103DD00070B5FFF7C7FE00BF40DFF63E104683F028
:103DE000004170470000E0FF43004FEAD30C4FEA68
:103DF0003C0C43401FBF40070CF1605113F0FE4FD5
:103E000070471CF0006F03D10CF000410020704798
:103E10000CF0004343EA507040EACC0010B500F0CB
:103E2000F8F900BF000000924FEA0001FFF7E8BE7A
:103E30004FF00041A1F500214FF000007047000055
:103E400090EA010F48BF81F0004100F13482421A2C
:103E50003CBF801A89184FEAD052A2EBD1534FF0E1
:103E60007F4C1CEA410F18BF9CEA026F00F03B80B8
:103E70004FF0004C4CEA00204CEA012121FA03FCEF
:103E800010EB0C0C1ED202F1FF325FEA1C2040EB5B
:103E9000C25038BF70471CF07F0F4FEA400C18BF6C
:103EA000BCF17F4F38BF7047C3F12003994008BF72
:103EB00020F00100BCF17F4F38BF7047A0F1C04037
:103EC00000F0EDB94FEA3C00000A40EBC25028BFB9
:103ED0001CF0FF0F4FEA400CE6D018BFBCF17F4F3B
:103EE00038BF7047EAE79CEA026F05D010EA5C0F22
:103EF00008BF00F00040704710B500F08AF900BF1D
:103F000064FBBE3E10B500F033F80CBF012000206A
:103F100010BD10B500F02CF814BF0120002010BD1A
:103F200010B500F08DF88CBF0120002010BD10B539
:103F300000F086F82CBF0120002010BD10B500F065
:103F4000B3F894BF0120002010BD10B500F0ACF80C
:103F500034BF0120002010BD401058BFC0F14040C8
:103F6000491058BFC1F140418142EFF300807047D2
:103F700050EA010C00F113801CF5000F58BFBCF58E
:103F8000000F01D48842704707D710F5000F58BFC3
:103F900011F5000F15D488427047894270471CF50F
:103FA000000F04D5BCF5000FF7D5814270474FF0E4
:103FB000807C1CEB400F38BF1CEB410F01D28142CB
:103FC000704710B500F025F9922449004FF00050D9
:103FD0004FF08051FFF7C0BF41000B0ED3F19E029E
:103FE00008D950F400034FEA032323FA02F048BF34
:103FF0004042704710B500F00CF900BF4992248090
:10400000002070476FF0004282EA200070470000F5
:1040100010F0004148BF4042B0FA80F310FA03F2BA
:10402000C3F19D030BD051EAC35101EB122053069B
:1040300038BF704700F1010008BF20F00100704751
:1040400050EA010C00F113801CF5000F58BFBCF5BD
:10405000000F01D48842704707D710F5000F58BFF2
:1040600011F5000F15D488427047894270471CF53E
:10407000000F04D5BCF5000FF7D5814270474FF013
:10408000807C1CEB400F38BF1CEB410F01D28142FA
:10409000704710B500F0BDF8922449004FF08050F1
:1040A0004FF00051FFF758BF50EA010C00F11380A8
:1040B0001CF5000F58BFBCF5000F01D488427047B3
:1040C00007D710F5000F58BF11F5000F15D488421F
:1040D0007047894270471CF5000F04D5BCF5000FEE
:1040E000F7D5814270474FF0807C1CEB400F38BF02
:1040F0001CEB410F01D28142704710B500F089F8E6
:10410000922449004FF000504FF08051FFF724BF38
:104110004FF47F0C1CEAD0121EBF1CEAD11392EAA6
:104120000C0F93EA0C0F00F0478090EA010F48BF94
:1041300042F480724FF0004C4CEA00204CEA01211E
:1041400002EB0302A0FB0113A2F50002002918BF35
:1041500043F001035B0028BF4FEA330342EB2242E6
:104160005FEA132C4CEBC2502EBFBCEB436FB2F591
:104170007C0F70474FEA036CBCF1004F08BF20F082
:104180000100B2F57C0F38BF70470BD582F0FF02FB
:1041900012F5803FC8BF704700F1C040D8BF00F0A3
:1041A0000040704700F5000C5FEA4C0C48BF7047B8
:1041B000B0F1C04000F073B80CEAD11390EA010FDF
:1041C00048BF42F48072624538BF634504D280EA3A
:1041D000010000F00040704710B500F01AF800BF71
:1041E0008900013E00F007B800F009B85FEA410C11
:1041F0005FEA1C6C08D080EA010000F050B85FEA6A
:10420000400C5FEA1C6CF6D14FF00040A0F5800036
:1042100070470EF1020E2EF0030E5EF8044B24429E
:1042200004D44FEA4102B2F17F4F11D84FEA400364
:10423000B3F17F4F0CD80ED14FEAD07C0CEB4C0C75
:104240000CF1020CB2F17F4F08BF4CEBD17C04E0C3
:104250004FF0080C01E04FEAD17C0CEB4C0324FA40
:1042600003F404F00704B4F1040C06D20EEB840C42
:10427000BDE810404CF0010C6047DFE80CF0070887
:1042800002024FF00040A0F5800010BD0846420039
:1042900018BFD2F1807288BF00F0004010BDFF212E
:1042A00041EAD050C005704790EA010F48BF81F045
:1042B00000413FF5CCAD421A04D882F00042A0EB99
:1042C000020011444FEAD052A2EBD1534FF07F4C81
:1042D0001CEA410F18BF9CEA026F4AD04FF0004C15
:1042E0004CEA00204CEA012121FA03FCB0EB0C0C53
:1042F0000FD412F0FE0F36D05FEA4C001DD500122D
:1043000040EBC25038BF70471CF03F0F18BF7047DA
:104310000BE05FEA1C20A2F1010240EBC25038BF63
:1043200070471CF07F0F18BF7047C3F120039940FE
:1043300014BF401E20F0010070474FEA122380088E
:1043400008BF7047B0FA80FCA2EB0C02CCF1280C3D
:1043500060FA0CF093EA122F04BF00EBC2507047D2
:104360004FEAC3707047130A5FEADC1008BF70475A
:10437000F6E79CEA026F04D010EA5C0F08BF002049
:10438000704710B5FFF745FF40DFF63E81F0004073
:10439000704700000000000000000102030406074F
:1043A00008090000000001020304010202030405E1
:1043B000060708090A0B0C0D0E0F1010E043000849
:1043C00000000020280000005001000808440008F8
:1043D00028000020500B00007001000800000000C1
:1043E0000100000010000000CDCC8C3F0AD7233C18
:1043F00000000000000000400AD7A33C00000000BD
:08440000010000000024F4009B
:04000005080000ED02
:00000001FF
