:020000040800F2
:1000000078160020B5010008650F0008A10D000852
:10001000610F0008710200082110000800000000B4
:10002000000000000000000000000000C10F0008F8
:100030007502000800000000710F0008051000089C
:10004000CF010008CF010008CF010008CF01000850
:10005000CF010008CF010008CF010008CF01000840
:10006000CF010008CF010008CF010008CF01000830
:10007000CF010008CF010008CF010008CF01000820
:10008000CF010008CF010008CF010008CF01000810
:10009000CF010008CF010008CF010008CF01000800
:1000A000CF010008CF010008CF010008CF010008F0
:1000B000CF010008CF010008CF010008CF010008E0
:1000C000CF010008CF010008CF010008CF010008D0
:1000D000CF010008CF010008CF010008CF010008C0
:1000E000CF010008CF010008CF01000800F002F89E
:1000F00000F050F814A696E8000CB244B344DA4578
:1001000001D100F047F8BAE80F000FA696E83000DA
:10011000A5EB040504EB0607AAEB0704A7F101070A
:100120004FEA15154FEA3414A4F10104AC4201D38F
:1001300000F030F813F0010F18BFFB1A43F0010371
:1001400000F001F8DBE71847C01D0000E01D0000CB
:10015000103A24BF78C878C1FAD8520724BF30C8F3
:1001600030C144BF04680C60704700007047000055
:100170000023002400250026103A28BF78C1FBD8B0
:10018000520728BF30C148BF0B6070471FB51FBD65
:1001900010B510BD00F031F81146FFF7F7FF00F081
:1001A00041FF00F04FF803B4FFF7F2FF03BC00F08B
:1001B00057F800000948804709480047FEE7FEE776
:1001C000FEE7FEE7FEE7FEE7FEE7FEE7FEE7FEE707
:1001D00004480549054A064B704700001D100008F9
:1001E000ED0000087810002078160020781200201A
:1001F00078120020704770477047754600F02CF861
:10020000AE4605006946534620F00700854618B003
:1002100020B5FFF7DDFFBDE820404FF000064FF0AE
:1002200000074FF000084FF0000BAC46ACE8C009E7
:10023000ACE8C009ACE8C009ACE8C00921F007018E
:100240008D46704710B50446AFF300802046BDE8E8
:100250001040FFF7A8BF00000048704710000020C2
:1002600001491820ABBEFEE72600020070470000DF
:10027000FEE7000070470000EFF3108072B600BF89
:10028000FEE700002DE9F04F82B00E68002E00F06E
:10029000FD8041F20042C4F20102042340F2004E0C
:1002A000904208BF03234FF6FF7CC4F2010E009377
:1002B00000240123C1F2100C4FF0000A4FF0000996
:1002C00044E000BF012704F00C030F229A402BEA00
:1002D000020207FA03F34FEA9A051A4346F825206B
:1002E0004E6840F20C45F202DEF8082054BF22EAC4
:1002F000080242EA0802C4F20105CEF808202A6882
:10030000B30254BF22EA080242EA08022A60B30399
:10031000DEF8042054BF22EA080242EA0802F3038E
:10032000CEF80420DEF800204FF0010354BF22EA8B
:10033000080242EA0802CEF800200E680AF1010A1B
:1003400036FA0AF204F1040400F0A08003FA0AFB72
:1003500016EA0B08F1D04E68664511DC122E55D80E
:10036000DFE806F0340A4448545454545454545466
:1003700054545454544C5000D1F80C9046E000BFF3
:100380004FF6FF72C1F2210296420FDC0022C1F249
:10039000110296421AD00022C1F21202964215D0E2
:1003A0000022C1F22102964210D02FE00022C1F2B9
:1003B000220296420AD00022C1F23102964205D0B2
:1003C0000022C1F23202964220D100BF8A684AB1AF
:1003D000012A14BFC0F814B0C0F810B04FF00809DB
:1003E00014E000BF4FF0040910E000BFCA6802F13A
:1003F00008090BE04FF0000908E000BFCA6802F1ED
:10040000040903E0CA6802F10C0900BF224606464F
:10041000B8F5807F24BF203A043637680F25954011
:1004200027EA050509FA02F22A433260CA79D206A0
:100430007FF583AF41F21803C4F202031A68AEF5E8
:100440007E7642F001021A601A6802F001020192FF
:10045000019A2AF0030256F802B040F60002C4F2F4
:100460000102904210D040F60042C4F201029042D4
:100470003FF428AF41F20002C4F20102009F904213
:1004800008BF02271FE700BF00271CE702B0BDE836
:10049000F08F0000002A08BF0904016170470000C6
:1004A00040F61C60C2F200000068704740F2000095
:1004B00040F61C61C2F20000C2F2000100780A6836
:1004C000104408607047000080B542F20000C4F29A
:1004D0000200016841F010010160032000F080F883
:1004E0000F2000F005F800F027F8002080BD000084
:1004F00070B540F20006C2F2000640F20801327800
:10050000C2F200014FF47A730968B3FBF2F20446B9
:10051000B1FBF2F1084600F07DFB0F2C4FF0010516
:1005200008D838B94FF0FF3021460022002500F0EE
:100530002BF87460284670BD80B582B041F2180077
:10054000C4F202000168002241F00101016001686B
:1005500001F0010101910199416841F08051416030
:1005600040680F2100F08050009000986FF001006B
:1005700000F00AF80420C4F201000168022262F3CC
:100580001A61016002B080BD10B54EF60C5CCEF26F
:10059000000CDCF80030C3F3022E8EF00704042CAC
:1005A00028BF0424BEF103034FF0FF3E0EFA04F40B
:1005B00038BF0023A14399400EFA03F39A43114335
:1005C00000F00F0200F160430901043A03F56443AF
:1005D0006244002848BF02F10C03197010BD0000EE
:1005E0004EF60C51CEF200010A684FF6FF031A4096
:1005F00060F30A2242F0806040F0FD7008607047AE
:10060000002804BF012070472DE9F04381B042F279
:100610000008C4F202080446D8F800000D4600F0B5
:10062000070088420CD2D8F8000020F007002843C9
:10063000C8F80000D8F8000000F00700A8426CD10C
:10064000206841F204098107C4F2020917D5410765
:1006500005D5D9F8001041F4E061C9F80010010790
:1006600005D5D9F8001041F46051C9F80010D9F847
:100670000010A26821F0F0011143C9F80010C00772
:1006800042D1D8F8000000F00700A8420CD9D8F8F1
:10069000000020F007002843C8F80000D8F8000048
:1006A00000F00700A84238D12068410707D5D9F8E3
:1006B0000010E26821F4E0611143C9F8001000075E
:1006C00008D5D9F80000216920F4605040EAC10043
:1006D000C9F80000D9F8002002F00C00082841F207
:1006E0000020C0F27A0051D141F6D063C2F38341B9
:1006F000C0F60003595CD2033CD440F60010C0F2AF
:100700003D00484342E000BF606802280AD001284B
:100710002AD159F8041C890308D4012001B0BDE88E
:10072000F08300BF59F8041C8901F6D5D9F80010F0
:1007300021F003010843C9F80000FFF7B1FE0646A7
:1007400041F28837D9F80000616800F00C00B0EB86
:10075000810F96D0FFF7A4FE801BB842F2D9032088
:1007600001B0BDE8F08300BF59F8041C8907D4D557
:10077000DCE700BFD9F8002041F6CE63C2F3404267
:10078000C0F600039A5C4843B0FBF2F0D9F80010C1
:1007900041F6B662C1F30311C0F60002515C40F2AB
:1007A000080220FA01F140F20400C2F200000068E1
:1007B000C2F200021160FFF79BFE002001B0BDE80D
:1007C000F083000040F2080041F20401C2F2000090
:1007D000C4F202010068096841F6C662C1F3022151
:1007E000C0F60002515CC8407047000040F20800AB
:1007F00041F20401C2F20000C4F20201006809687B
:1008000041F6C662C1F3C221C0F60002515CC84085
:1008100070470000002804BF012070472DE9F04117
:1008200082B00446007841F20006C007C4F2020616
:100830000CD0706800F00C00042840F08180306813
:10084000800303D56068002800F04E81207880077F
:100850001BD5706810F00C0F09D0706800F00C0008
:10086000082840F08B807068C00300F187803068F2
:10087000800703D52069012840F03681306861691E
:1008800020F0F80040EAC10030602078000713D45F
:10089000207840072CD4E569002D00F02081706895
:1008A00000F00C00082840F0AF80012D40F00C81D2
:1008B000012002B0BDE8F081A069002800F08C8022
:1008C0000020C4F242200121C0F88014FFF7E8FDA7
:1008D000054600BF706A800700F1BA80FFF7E0FDAF
:1008E000401B0228F6D9032002B0BDE8F08100BF0A
:1008F000F0695FEAC00808D4F06940F08050F06108
:10090000F06900F080500090009847F20007C4F2B0
:1009100000073868C0054DD4386840F480703860EE
:10092000FFF7BEFD054600BF3868C00542D4FFF79B
:10093000B7FD401B6428F7D9032002B0BDE8F08161
:10094000706800F00C00082803D17068C0033FF500
:1009500076AF6068002800F00981B0F5A02F00F0A4
:100960001D81B0F5803F00F01D81306820F480309B
:100970003060306820F4802017E100BF2069002833
:1009800040F20000C4F2422000F08C80012101609E
:10099000FFF786FD054600BF306880073FF56EAF64
:1009A000FFF77EFD401B0228F6D9032002B0BDE808
:1009B000F08100BFE068002800F09A80052800F070
:1009C000B180012800F0B280306A20F0010030626E
:1009D000306A20F00400ACE00020C4F24220002184
:1009E000C0F88014FFF75CFD054600BF706A800701
:1009F0007FF54EAFFFF754FD401B0228F6D90320C8
:100A000002B0BDE8F08100BF0027C4F242270020F9
:100A10003866FFF745FD022D05460DD1306880018F
:100A200040F1D680FFF73CFD401B02284FF0030049
:100A3000F4D902B0BDE8F081306880014FD5FFF7EE
:100A40002FFD401B02284FF00300F5D9F1E700BF4E
:100A500040F20800C2F20000006844F6D351C1F22F
:100A60006201A0FB0101480A019000BF00BF01988C
:100A7000411E002801913FF40BAF00BF0198411EB9
:100A8000002801913FF404AF00BF0198411E0028E7
:100A900001913FF4FDAE00BF0198411E0028019175
:100AA000E4D1F5E600210160FFF7FAFC054600BF3E
:100AB000306880077FF5E9AEFFF7F2FC401B0228A3
:100AC0004FF00300F4D9B4E77068216A00F4803273
:100AD0008A4209D1616A00F47010884204D1002072
:100AE00002B0BDE8F08100BF012002B0BDE8F08196
:100AF000306A20F001003062306A20F00400306279
:100B0000FFF7CEFC054641F2883700BF306A800708
:100B100022D5FFF7C5FC401BB8424FF00300F5D9C2
:100B200087E700BF306A40F004003062306A40F06E
:100B300001003062FFF7B4FC054641F2883700BF80
:100B4000306A800708D4FFF7ABFC401BB842F7D9E6
:100B5000032002B0BDE8F081B8F1000F3FF59BAE75
:100B6000F06920F08050F06195E600BF306820F415
:100B700080303060306820F480203060FFF790FCD7
:100B8000054600BF306880037FF560AEFFF788FC44
:100B9000401B64284FF00300F4D94AE7306840F462
:100BA00080203060306840F480303060FFF778FC9F
:100BB000054600BF306880033FF548AEFFF770FC84
:100BC000401B6428F6D9032002B0BDE8F08100BFC5
:100BD000206AB0F5803F05D17168A26821F4003128
:100BE000114371607168626A21F474111143084302
:100BF000706001203866FFF753FC044630688001BE
:100C00003FF56DAFFFF74CFC001B02284FF00300CF
:100C1000F4D90EE7411E0020B0EB116F1CBF01207C
:100C200070474EF21002CEF2000251604EF6235190
:100C3000CEF20001F0230B70072190601160704725
:100C4000002804BF0120704710B5044690F8410009
:100C500028B9002084F84000204600F063F82420E2
:100C600084F841002068D4E90212C36823F40053D9
:100C7000C360036923F440531A430261D4E9042397
:100C80001143C268194341F20C639A431143C16096
:100C90004169A26921F44071114343F60002C4F294
:100CA00001029042416103D0FFF78CFD02E000BFDA
:100CB000FFF79CFDD4E90023192148439900B0FBBC
:100CC000F1F048F21F5CC5F2EB1CA0FB0C314FF6B3
:100CD0009C734909C0F6FF7301FB0300322303EB49
:100CE0000010A0FB0C03F02000EA531000EB0110F1
:100CF000C3F34311084490601069202120F4904010
:100D00001061506920F02A005061D06840F4005012
:100D1000D0600020606484F8411084F84210606361
:100D200010BD000070B586B040F60004C4F20104A6
:100D3000006804F5405100268842049602D006B0AF
:100D400070BD00BF41F21800C4F20200016802AD9C
:100D500041F480410160016801F4804101910199F1
:100D6000016841F0040101600068294600F00400B8
:100D7000019001984FF4007002900220039003202C
:100D800005902046FFF77EFA4FF48060CDE9020619
:100D9000204629460496FFF775FA06B070BD00009C
:100DA000FEE7000070B59CB025480DF1580E159077
:100DB00023A000F1040C9CE81E1080698EE81E1030
:100DC0001B9015A8002100F075F940F27006C2F2E0
:100DD00000062249306021A0051D0E913ECD80699C
:100DE0000DF13C0C8CE83E0014900EA8002100F0A0
:100DF00061F92149706020A0051D07912ECDD0E931
:100E000005400DF1200C8CE82E00CDE90C4007A820
:100E1000002100F04FF91F49B0601EA0051D009190
:100E20002ECDD0E905400DF1040C8CE82E00CDE963
:100E300005406846002100F03DF9F0601CB070BD2F
:100E4000FB1E0008E50F0008000000000000000085
:100E5000800000000000000000000000E01E00080C
:100E6000ED0F0008FDFF0000000000008000000002
:100E70000000000000000000E91E0008F50F000857
:100E8000FDFF0000000000008000000000000000E6
:100E900000000000F21E0008FD0F0008FDFF00002A
:100EA00000000000800000000000000000000000C2
:100EB00070B584B041F21800C4F20200016841F23A
:100EC000000441F0100101600168C4F2010401F066
:100ED0001001009100990168002241F02001016099
:100EE00001684FF4005501F020010091009901685C
:100EF000002641F00401016000684FF4005100F049
:100F00000400009000982046FFF7C4FA0120CDE9C4
:100F1000010602200390694620460095FFF7B2F9CA
:100F200004B070BD80B540F2481043F60001C2F233
:100F30000000C4F2010100234FF00C0C4FF4E13229
:100F400080E80E00C0E90333C0E905C3C361FFF7C1
:100F500077FE002808BF80BDBDE88040FFF78CB950
:100F6000FEE70000FEE700000000000000000000B7
:100F7000EFF30980BFF36F8F0D4B1A6820E9F00F74
:100F800010602DE908404FF0500080F3118800F008
:100F900035FD4FF0000080F31188BDE80840196866
:100FA0000868B0E8F00F80F30988BFF36F8F7047CF
:100FB0008000002000000000000000000000000091
:100FC000074B19680868B0E8F00F80F30988BFF391
:100FD0006F8F4FF0000080F311884EF00D0E7047B8
:100FE00080000020012000F057F8FBE7012000F00E
:100FF00053F8FBE7012000F04FF8FBE7012000F079
:101000004BF8FBE780B5FFF751FA00F04BFE0128E3
:1010100008BF80BDBDE8804000F0C0BD7047000043
:10102000FEE7000090B0FFF74FFA00240120CDE961
:101030000B44CDE9094406900A904FF4E0104FF4B8
:10104000803102250F9006A8CDE90714CDE90D5196
:10105000FFF7E0FB20B1EFF3108072B6FEE700BFB0
:101060000F20CDE901054FF48060CDE9040401A80B
:1010700002210394FFF7C4FA20B1EFF3108072B697
:10108000FEE700BFFFF714FFFFF74CFFFFF78AFEF4
:1010900000F00AF8FEE7000080B5012898BF0120A3
:1010A00000F0EEFB002080BD80B500F039FC002090
:1010B00080BD0000B0B584B043698E4693B18469A9
:1010C00084B10589D0E9001C026928B2843D18BFAB
:1010D000C51CCDE9005360467346029400F0A6FD9E
:1010E00004B0B0BD0589D0E90013028A28B2843D5E
:1010F00018BFC51C03AC18467346CDE9005400F078
:1011000065FD0399012818BF0021084604B0B0BD51
:101110002DE9F041044600F0F3FA40F28006C2F2F5
:101120000006306940F29015013030613068C2F23B
:10113000000548B17069002840D13068E16AC06A92
:10114000884298BF346039E034603069012835D175
:10115000284600F085FA05F1140000F081FA05F147
:10116000280000F07DFA05F13C0000F079FA05F165
:10117000500000F075FA05F1640000F071FA05F115
:10118000780000F06DFA40F22018C2F200084046E4
:1011900000F066FA08F11407384600F061FA06F12B
:1011A000640000F05DFA06F13C0000F059FA06F127
:1011B000500000F055FAC6F8308077637068B16867
:1011C00001220131B160E16A8A401043706001EB95
:1011D000810005EB8000211D00F084FA00F0B4FAD4
:1011E000706988B13068E16AC06A884228BFBDE88A
:1011F000F0814EF60450CEF200004FF080510160B5
:10120000BFF34F8FBFF36F8FBDE8F08140F28005D1
:1012100040F290164EF60458C2F20005C2F20006E3
:10122000CEF200084FF0805703E000BF204600F0E8
:10123000A3FAE868D0B100F063FAA86CC468201D76
:1012400000F0EEF9286901382861E8680138E860A3
:1012500000F07AFA94F851000228EAD00128E5D08B
:1012600070B9206B00F088FAE0E700BF3068022810
:10127000DFD3C8F80070BFF34F8FBFF36F8FD8E78D
:101280004FF0500080F31188BFF36F8FBFF34F8F83
:10129000FEE700002DE9F047DDE909878246386B5B
:1012A000089C00EB820004389946002920F00706CC
:1012B00056D0087887F83400087800284BD0487852
:1012C00087F835004878002845D0887887F83600B8
:1012D000887800283FD0C87887F83700C878D0B31E
:1012E000087987F838000879A8B3487987F8390071
:1012F000487980B3887987F83A00887958B3C879F3
:1013000087F83B00C87930B3087A87F83C00087A40
:1013100008B3487A87F83D00487AE0B1887A87F8C0
:101320003E00887AB8B1C87A87F83F00C87A90B191
:10133000087B87F84000087B68B1487B87F841004C
:10134000487B40B1887B87F84200887B00281CBF1F
:10135000C87B87F84300002087F8430003E000BF04
:10136000002087F834000025381D062C28BF0624ED
:10137000FC62C7E9114500F07FF907F1180000F0A1
:101380007BF984F00700B861304651464A463F6118
:101390007F62FD6487F8505000F032F9B8F1000F19
:1013A000386018BFC8F80070BDE8F08706480068CC
:1013B000006880F3088862B661B6BFF34F8FBFF351
:1013C0006F8F00DF00BF000008ED00E081B000205B
:1013D000009040F20C00C2F2000000684FF0500193
:1013E00081F31188BFF36F8FBFF34F8F013007D0A8
:1013F000FEE700BF009830B9009820B9009810B9F6
:1014000000980028F6D001B07047000070B504467F
:1014100000F0ECFA40F2F80CC2F2000CDCF8040028
:1014200050B19CF80000002818BF4FF000404FF06A
:10143000000544BB83E000BF40F21C20C2F2000064
:10144000420700F5406200F1070122F0070218BFD1
:1014500021F007000021A2F10803CCE90601CCF835
:10146000043042E90211DCF80420191AC0E9002115
:1014700001208CF800004FF00040CCE90211002C54
:101480004FF000055BD0204059D124F0070000F157
:101490001002600708BF04F10802DCF80800511EC2
:1014A00081424CD2604650F818EFDEF80450954265
:1014B0002BD2DEF80010B9B174464D68954217D2B0
:1014C0000B68ABB15D68954216D21868A0B145684B
:1014D000954215D204689CB16568954214D2216882
:1014E000A6460029E9D110E00CF118000DE000BF7C
:1014F0008E46204609E000BF9E46084605E000BF34
:101500008646184601E000BFA646DCF804108E456A
:1015100014D00168DEF80040AB1A112B04604CD3E4
:101520000EEB0205680719D04FF0500080F31188C8
:10153000BFF36F8FBFF34F8FFEE700BF002500F0B2
:1015400045FC680759D04FF0500080F31188BFF375
:101550006F8FBFF34F8F00BFFEE700BF0CF1180085
:101560006B60CEF8042000BF0368AB420AD2186853
:10157000A8420BD20368AB4204D218681A46A842AC
:10158000F2D304E00246184601E000BF1A46546850
:101590006B681619AE4202D1234415465360EC180D
:1015A000844206D1DCF80440A04202D011C8234492
:1015B0006B60AA42286018BF1560DEF80400DCE901
:1015C000022301F10805111A9942CCF8081038BF1E
:1015D000CCF80C109CF8001000294FF0000118BF47
:1015E00040F00040CEE90010DCF810000130CCF8EB
:1015F000100000F0EBFB6807A5D1284670BD000085
:10160000034641F2CD30C0F600004FF0807C21F05F
:10161000010103E90310A3F1400043F8202C7047B7
:10162000D0E9013201699A60D1F804C0826884452A
:10163000536008BF4A6000220261086801380860F0
:101640000868704741F22003C2F20003036040F6CD
:101650002060C2F200000860802010607047000027
:101660004FF0FF31024642F8081F00214260C0E9F6
:1016700003220160704700000021016170470000F3
:1016800010B5D1F800E01EF1010213D000F10804FA
:1016900062681368734511D853681C68744511D883
:1016A0005A68146874450FD854682368A446734573
:1016B000EED90BE00269D2F804C007E09446224656
:1016C00004E000BF9C4601E094461A46C1F804C0FD
:1016D000CCF808108A60516008610168013101602E
:1016E00010BD0000D0F800C0436808619A684B60E4
:1016F0008A609A68996051600CF10101016070473D
:101700004FF0500080F31188BFF36F8FBFF34F8FFE
:1017100040F20C00C2F2000001684A1C026009B1EC
:10172000704700BF4EF60450CEF20000006800067D
:1017300008BF70474FF0500080F31188BFF36F8FE0
:10174000BFF34F8FFEE7000040F20C00C2F2000032
:10175000016839B10139016018BF7047002080F37A
:10176000118870474FF0500080F31188BFF36F8FDE
:10177000BFF34F8FFEE7000070B5002808BF70BDB3
:1017800040F2F805C2F200050446287854F8041C1B
:10179000002818BF4FF0004008420DD0A4F1080601
:1017A00032689AB14FF0500080F31188BFF36F8F09
:1017B000BFF34F8FFEE700BF4FF0500080F311885A
:1017C000BFF36F8FBFF34F8FFEE700BF21EA00002A
:1017D00044F8040C00F00AF954F8041CA868084402
:1017E000A86005F1180000BF0368B3420AD2186868
:1017F000B04225D20368B34204D218681A46B042F8
:10180000F2D301E0024618465368D418B44202D11C
:101810001944164651607318834205D16B6898428B
:1018200002D009C819447160B242306018BF166016
:10183000686901306861BDE8704000F0C7BA00BF58
:101840001A465368D418B442E5D1E1E74EF21000CD
:10185000CEF2000000210160816040F20801C2F276
:101860000001096844F6D352C1F26202A1FB0212E0
:101870004FF0FF3101EB9211416007210160704789
:1018800070B500283FD040F28005C2F20005044642
:10189000A86948B14FF0500080F31188BFF36F8FF3
:1018A000BFF34F8FFEE700BFA8690130A8616E6AE1
:1018B00028680430FFF7B4FE50B12868A4194460CA
:1018C00013D3686B29680431FFF7DAFE16E000BF16
:1018D00028680121C06A6A6801FA00F022EA000063
:1018E00068602868A4194460EBD2286B2968043129
:1018F000FFF7C6FE286A844238BF2C6200F066FA01
:10190000002818BF70BD4EF60450CEF200004FF014
:1019100080510160BFF34F8FBFF36F8F70BD000028
:10192000B0B588B00020CDE9050006A805A904AA35
:10193000FFF788FE0598B8B3069C002C3ED05421D2
:10194000049A07910799542942D1079920630220EC
:1019500084F8510007A80025CDE9005041F20D2080
:10196000C0F600001FA100230294FFF793FC20465D
:10197000FFF7CEFB079940F28000C2F20000C16180
:1019800079B14FF0500181F31188BFF36F8FBFF32E
:101990004F8F4FF0FF31016201214161456200F03C
:1019A00065F808B0B0BD00BF4FF0500080F311885B
:1019B000BFF36F8FBFF34F8FFEE700BF4FF05000B4
:1019C00080F31188BFF36F8FBFF34F8FFEE700BF27
:1019D0004FF0500080F31188BFF36F8FBFF34F8F2C
:1019E000FEE700BF49444C450000000040F2800083
:1019F000C2F20000816901318161704740F28000CC
:101A0000C2F20000816900291EBF01218162704776
:101A1000002181624168B1FA81F1C9B2C1F11F01AF
:101A200040F2901201EB8101C2F2000252F8213023
:101A300063B102EB810252F8041F4968131D9942F9
:101A400011600DD0C9680160704700BF4FF05000B1
:101A500080F31188BFF36F8FBFF34F8FFEE700BF96
:101A600049681160C968016070470000B0B584B072
:101A70004EF2004CCEF2000C9CF800100291FF21B7
:101A80008CF800109CF800108DF807109DF80710D6
:101A900001F0500240F21811C2F200010A70072250
:101AA0004A609DF90720B2F1FF3F61DC032200BFCD
:101AB000D31C4B609DF8070040008DF807009DF98E
:101AC0000700B0F1FF3F24DC931C4B609DF807003A
:101AD00040008DF807009DF90700B0F1FF3F18DCCA
:101AE000531C4B609DF8070040008DF807009DF9DE
:101AF0000700B0F1FF3F0CDC4A609DF80700043A94
:101B000040008DF807009DF90700B0F1FF3FCFDDE1
:101B1000131D032B2CD14FF44070486002988CF8B1
:101B20000000DCF8200940F47000CCF82009DCF853
:101B3000200940F07040CCF82009FFF787FE40F202
:101B40000C04C2F2000400252560FFF72FFCFFF70C
:101B500055FF039520684FF0500181F31188BFF3C2
:101B60006F8FBFF34F8F013012D000BFFEE700BF71
:101B70004FF0500080F31188BFF36F8FBFF34F8F8A
:101B8000FEE700BF039830B9039820B9039810B955
:101B900003980028F6D0002004B0B0BD80B54FF007
:101BA000500080F31188BFF36F8FBFF34F8F00F0A9
:101BB00089F830B14EF60450CEF200004FF080515B
:101BC0000160002080F3118880BD00002DE9F04302
:101BD00083B007469000984615468946FFF716FCE5
:101BE000F8B106465420FFF711FCB8B10446DDE910
:101BF0000A100022266384F85120CDE900103846EF
:101C000049462A4643460294FFF744FB2046FFF725
:101C10007FFA012003B0BDE8F08300BF3046FFF734
:101C2000ABFD4FF0FF3003B0BDE8F08370B586B078
:101C30000B9CCCB10C9E0EB354250495049D542DE1
:101C400026D1049DDDF828C0022586F8515005AD47
:101C50003463CDE900C50296FFF71CFB3046FFF761
:101C600057FA059806B070BD4FF0500080F3118808
:101C7000BFF36F8FBFF34F8FFEE700BF4FF05000F1
:101C800080F31188BFF36F8FBFF34F8FFEE700BF64
:101C90004FF0500080F31188BFF36F8FBFF34F8F69
:101CA000FEE7000040F28000C2F200004169002916
:101CB0000FBF01208069B0FA80F0400918BF4000D2
:101CC000704700002DE9F04740F28006C2F200069E
:101CD000B06928B1F06A0130F0620020BDE8F087F9
:101CE000706A10F1010AC6F824A020D3306B006896
:101CF00050B14FF0500080F31188BFF36F8FBFF3E6
:101D00004F8F00BFFEE700BF306B716B31637063B4
:101D1000B06B0130B063306B006828B1306BC068C5
:101D2000C068406802E000BF4FF0FF303062306AA8
:101D300040F290188245C2F2000801D2002434E03B
:101D4000306B0024006868B34FF0010916E000BF53
:101D5000F86A716809FA00F2114300EB80007160C3
:101D600008EB80002946FFF7BDFCF86A3168C96AB4
:101D7000326B8842106828BF4C4698B1306BC068FF
:101D8000C7683D4655F8040F82450DD32846FFF736
:101D900047FCB86A0028DBD007F11800FFF740FCC9
:101DA000D6E700BF4FF0FF3030623068C06A00EB0A
:101DB000800058F82000012888BF0124B06A00285C
:101DC00018BF01242046BDE8F08700002DE9F0414E
:101DD00040F28005C2F20005A86968B1FFF790FCE7
:101DE000A8690138A861A86980B10024FFF7ACFC9C
:101DF0002046BDE8F08100BF4FF0500080F311880D
:101E0000BFF36F8FBFF34F8FFEE700BF2869002835
:101E1000EBD0686E78B340F290180126C2F2000849
:101E2000286FC76807F11800FFF7FAFB3C1D204632
:101E3000FFF7F6FBF86A696806FA00F2114300EB57
:101E40008000696008EB80002146FFF74BFCF86AD0
:101E50002968C96A884228BFAE62686E0028DFD14F
:101E6000286B006820B1286BC068C068406801E03A
:101E70004FF0FF302862EC6A4CB10126FFF722FFD9
:101E8000002818BFAE62013CF8D10020E862A86AC1
:101E90000028AAD04EF60450CEF200004FF0805138
:101EA0000160BFF34F8F0124BFF36F8FFFF74CFC2E
:101EB0002046BDE8F08100000000000000000102A3
:101EC00003040607080900000000010203040102E0
:101ED00002030405060708090A0B0C0D0E0F10106B
:101EE0006D795461736B3031006D795461736B306F
:101EF00032006D795461736B3033006465666175CF
:101F00006C745461736B0000281F000800000020EF
:101F10001000000050010008381F000810000020C9
:101F200068160000700100080100000010000000A9
:081F300000127A00AAAAAAAA75
:04000005080000ED02
:00000001FF
